{
  "_format": "hh-sol-artifact-1",
  "contractName": "FreeLanceDAOStaking",
  "sourceName": "contracts/FreeLanceDAOStakingContract.sol",
  "abi": [
    {
      "inputs": [
        {
          "internalType": "uint256",
          "name": "_rewardRate",
          "type": "uint256"
        },
        {
          "internalType": "uint256",
          "name": "_lockTime",
          "type": "uint256"
        },
        {
          "internalType": "uint256",
          "name": "_minimumFunding",
          "type": "uint256"
        }
      ],
      "stateMutability": "nonpayable",
      "type": "constructor"
    },
    {
      "anonymous": false,
      "inputs": [
        {
          "indexed": false,
          "internalType": "uint256",
          "name": "newLockTime",
          "type": "uint256"
        }
      ],
      "name": "LockTimeUpdated",
      "type": "event"
    },
    {
      "anonymous": false,
      "inputs": [
        {
          "indexed": false,
          "internalType": "uint256",
          "name": "newMinimum",
          "type": "uint256"
        }
      ],
      "name": "MinimumFundingUpdated",
      "type": "event"
    },
    {
      "anonymous": false,
      "inputs": [
        {
          "indexed": true,
          "internalType": "address",
          "name": "previousOwner",
          "type": "address"
        },
        {
          "indexed": true,
          "internalType": "address",
          "name": "newOwner",
          "type": "address"
        }
      ],
      "name": "OwnershipTransferred",
      "type": "event"
    },
    {
      "anonymous": false,
      "inputs": [
        {
          "indexed": true,
          "internalType": "address",
          "name": "user",
          "type": "address"
        },
        {
          "indexed": false,
          "internalType": "uint256",
          "name": "reward",
          "type": "uint256"
        }
      ],
      "name": "RewardClaimed",
      "type": "event"
    },
    {
      "anonymous": false,
      "inputs": [
        {
          "indexed": false,
          "internalType": "uint256",
          "name": "newRate",
          "type": "uint256"
        }
      ],
      "name": "RewardRateUpdated",
      "type": "event"
    },
    {
      "anonymous": false,
      "inputs": [
        {
          "indexed": true,
          "internalType": "address",
          "name": "user",
          "type": "address"
        },
        {
          "indexed": false,
          "internalType": "uint256",
          "name": "amount",
          "type": "uint256"
        }
      ],
      "name": "Staked",
      "type": "event"
    },
    {
      "anonymous": false,
      "inputs": [
        {
          "indexed": true,
          "internalType": "address",
          "name": "user",
          "type": "address"
        },
        {
          "indexed": false,
          "internalType": "uint256",
          "name": "amount",
          "type": "uint256"
        },
        {
          "indexed": false,
          "internalType": "uint256",
          "name": "reward",
          "type": "uint256"
        }
      ],
      "name": "Unstaked",
      "type": "event"
    },
    {
      "inputs": [],
      "name": "claimRewards",
      "outputs": [],
      "stateMutability": "nonpayable",
      "type": "function"
    },
    {
      "inputs": [],
      "name": "lockTime",
      "outputs": [
        {
          "internalType": "uint256",
          "name": "",
          "type": "uint256"
        }
      ],
      "stateMutability": "view",
      "type": "function"
    },
    {
      "inputs": [],
      "name": "minimumFunding",
      "outputs": [
        {
          "internalType": "uint256",
          "name": "",
          "type": "uint256"
        }
      ],
      "stateMutability": "view",
      "type": "function"
    },
    {
      "inputs": [],
      "name": "owner",
      "outputs": [
        {
          "internalType": "address",
          "name": "",
          "type": "address"
        }
      ],
      "stateMutability": "view",
      "type": "function"
    },
    {
      "inputs": [],
      "name": "renounceOwnership",
      "outputs": [],
      "stateMutability": "nonpayable",
      "type": "function"
    },
    {
      "inputs": [],
      "name": "rewardRate",
      "outputs": [
        {
          "internalType": "uint256",
          "name": "",
          "type": "uint256"
        }
      ],
      "stateMutability": "view",
      "type": "function"
    },
    {
      "inputs": [
        {
          "internalType": "uint256",
          "name": "_newLockTime",
          "type": "uint256"
        }
      ],
      "name": "setLockTime",
      "outputs": [],
      "stateMutability": "nonpayable",
      "type": "function"
    },
    {
      "inputs": [
        {
          "internalType": "uint256",
          "name": "_newMinimum",
          "type": "uint256"
        }
      ],
      "name": "setMinimumFunding",
      "outputs": [],
      "stateMutability": "nonpayable",
      "type": "function"
    },
    {
      "inputs": [
        {
          "internalType": "uint256",
          "name": "_newRate",
          "type": "uint256"
        }
      ],
      "name": "setRewardRate",
      "outputs": [],
      "stateMutability": "nonpayable",
      "type": "function"
    },
    {
      "inputs": [],
      "name": "stake",
      "outputs": [],
      "stateMutability": "payable",
      "type": "function"
    },
    {
      "inputs": [
        {
          "internalType": "address",
          "name": "",
          "type": "address"
        }
      ],
      "name": "stakes",
      "outputs": [
        {
          "internalType": "uint256",
          "name": "amount",
          "type": "uint256"
        },
        {
          "internalType": "uint256",
          "name": "timestamp",
          "type": "uint256"
        },
        {
          "internalType": "uint256",
          "name": "rewards",
          "type": "uint256"
        }
      ],
      "stateMutability": "view",
      "type": "function"
    },
    {
      "inputs": [],
      "name": "totalStaked",
      "outputs": [
        {
          "internalType": "uint256",
          "name": "",
          "type": "uint256"
        }
      ],
      "stateMutability": "view",
      "type": "function"
    },
    {
      "inputs": [
        {
          "internalType": "address",
          "name": "newOwner",
          "type": "address"
        }
      ],
      "name": "transferOwnership",
      "outputs": [],
      "stateMutability": "nonpayable",
      "type": "function"
    },
    {
      "inputs": [
        {
          "internalType": "uint256",
          "name": "_amount",
          "type": "uint256"
        }
      ],
      "name": "unstake",
      "outputs": [],
      "stateMutability": "nonpayable",
      "type": "function"
    },
    {
      "stateMutability": "payable",
      "type": "receive"
    }
  ],
  "bytecode": "0x60806040523480156200001157600080fd5b50604051620017b1380380620017b18339818101604052810190620000379190620001d5565b620000576200004b620000c960201b60201c565b620000d160201b60201c565b600083118015620000695750600a8311155b620000ab576040517f08c379a0000000000000000000000000000000000000000000000000000000008152600401620000a29062000292565b60405180910390fd5b826003819055508160048190555080600581905550505050620002b4565b600033905090565b60008060009054906101000a900473ffffffffffffffffffffffffffffffffffffffff169050816000806101000a81548173ffffffffffffffffffffffffffffffffffffffff021916908373ffffffffffffffffffffffffffffffffffffffff1602179055508173ffffffffffffffffffffffffffffffffffffffff168173ffffffffffffffffffffffffffffffffffffffff167f8be0079c531659141344cd1fd0a4f28419497f9722a3daafe3b4186f6b6457e060405160405180910390a35050565b600080fd5b6000819050919050565b620001af816200019a565b8114620001bb57600080fd5b50565b600081519050620001cf81620001a4565b92915050565b600080600060608486031215620001f157620001f062000195565b5b60006200020186828701620001be565b93505060206200021486828701620001be565b92505060406200022786828701620001be565b9150509250925092565b600082825260208201905092915050565b7f526577617264207261746520312d313025000000000000000000000000000000600082015250565b60006200027a60118362000231565b9150620002878262000242565b602082019050919050565b60006020820190508181036000830152620002ad816200026b565b9050919050565b6114ed80620002c46000396000f3fe6080604052600436106100e15760003560e01c8063817b1cd21161007f5780639e447fc6116100595780639e447fc614610264578063ae04d45d1461028d578063b61270a2146102b6578063f2fde38b146102df576100e8565b8063817b1cd2146101e35780638da5cb5b1461020e5780638dda546214610239576100e8565b8063372500ab116100bb578063372500ab146101805780633a4b66f114610197578063715018a6146101a15780637b0a47ee146101b8576100e8565b80630d668087146100ed57806316934fc4146101185780632e17de7814610157576100e8565b366100e857005b600080fd5b3480156100f957600080fd5b50610102610308565b60405161010f9190610d3b565b60405180910390f35b34801561012457600080fd5b5061013f600480360381019061013a9190610db9565b61030e565b60405161014e93929190610de6565b60405180910390f35b34801561016357600080fd5b5061017e60048036038101906101799190610e49565b610338565b005b34801561018c57600080fd5b50610195610624565b005b61019f61085f565b005b3480156101ad57600080fd5b506101b66109db565b005b3480156101c457600080fd5b506101cd6109ef565b6040516101da9190610d3b565b60405180910390f35b3480156101ef57600080fd5b506101f86109f5565b6040516102059190610d3b565b60405180910390f35b34801561021a57600080fd5b506102236109fb565b6040516102309190610e85565b60405180910390f35b34801561024557600080fd5b5061024e610a24565b60405161025b9190610d3b565b60405180910390f35b34801561027057600080fd5b5061028b60048036038101906102869190610e49565b610a2a565b005b34801561029957600080fd5b506102b460048036038101906102af9190610e49565b610ac3565b005b3480156102c257600080fd5b506102dd60048036038101906102d89190610e49565b610b0c565b005b3480156102eb57600080fd5b5061030660048036038101906103019190610db9565b610b55565b005b60045481565b60016020528060005260406000206000915090508060000154908060010154908060020154905083565b6000600160003373ffffffffffffffffffffffffffffffffffffffff1673ffffffffffffffffffffffffffffffffffffffff168152602001908152602001600020905060008211801561038f575080600001548211155b6103ce576040517f08c379a00000000000000000000000000000000000000000000000000000000081526004016103c590610efd565b60405180910390fd5b60045481600101546103e09190610f4c565b421015610422576040517f08c379a000000000000000000000000000000000000000000000000000000000815260040161041990610fcc565b60405180910390fd5b60006283d6008260010154426104389190610fec565b600354846000015461044a9190611020565b6104549190611020565b61045e9190611091565b90506000818360020154856104739190610f4c565b61047d9190610f4c565b90506005548161048d9190610f4c565b4710156104cf576040517f08c379a00000000000000000000000000000000000000000000000000000000081526004016104c69061110e565b60405180910390fd5b838360000160008282546104e39190610fec565b9250508190555060008360020181905550428360010181905550836002600082825461050f9190610fec565b9250508190555060003373ffffffffffffffffffffffffffffffffffffffff168260405161053c9061115f565b60006040518083038185875af1925050503d8060008114610579576040519150601f19603f3d011682016040523d82523d6000602084013e61057e565b606091505b50509050806105c2576040517f08c379a00000000000000000000000000000000000000000000000000000000081526004016105b9906111c0565b60405180910390fd5b3373ffffffffffffffffffffffffffffffffffffffff167f7fc4727e062e336010f2c282598ef5f14facb3de68cf8195c2f23e1454b2b74e8687856106079190610fec565b6040516106159291906111e0565b60405180910390a25050505050565b6000600160003373ffffffffffffffffffffffffffffffffffffffff1673ffffffffffffffffffffffffffffffffffffffff168152602001908152602001600020905060006283d60082600101544261067d9190610fec565b600354846000015461068f9190611020565b6106999190611020565b6106a39190611091565b905060008183600201546106b79190610f4c565b9050600081116106fc576040517f08c379a00000000000000000000000000000000000000000000000000000000081526004016106f390611255565b60405180910390fd5b6005548161070a9190610f4c565b47101561074c576040517f08c379a00000000000000000000000000000000000000000000000000000000081526004016107439061110e565b60405180910390fd5b6000836002018190555042836001018190555060003373ffffffffffffffffffffffffffffffffffffffff16826040516107859061115f565b60006040518083038185875af1925050503d80600081146107c2576040519150601f19603f3d011682016040523d82523d6000602084013e6107c7565b606091505b505090508061080b576040517f08c379a0000000000000000000000000000000000000000000000000000000008152600401610802906112c1565b60405180910390fd5b3373ffffffffffffffffffffffffffffffffffffffff167f106f923f993c2149d49b4255ff723acafa1f2d94393f561d3eda32ae348f7241836040516108519190610d3b565b60405180910390a250505050565b600034116108a2576040517f08c379a00000000000000000000000000000000000000000000000000000000081526004016108999061132d565b60405180910390fd5b6000600160003373ffffffffffffffffffffffffffffffffffffffff1673ffffffffffffffffffffffffffffffffffffffff168152602001908152602001600020905060008160000154111561094d5760006283d6008260010154426109089190610fec565b600354846000015461091a9190611020565b6109249190611020565b61092e9190611091565b9050808260020160008282546109449190610f4c565b92505081905550505b348160000160008282546109619190610f4c565b9250508190555042816001018190555034600260008282546109839190610f4c565b925050819055503373ffffffffffffffffffffffffffffffffffffffff167f9e71bc8eea02a63969f509818f2dafb9254532904319f9dbda79b67bd34a5f3d346040516109d09190610d3b565b60405180910390a250565b6109e3610bd8565b6109ed6000610c56565b565b60035481565b60025481565b60008060009054906101000a900473ffffffffffffffffffffffffffffffffffffffff16905090565b60055481565b610a32610bd8565b600081118015610a435750600a8111155b610a82576040517f08c379a0000000000000000000000000000000000000000000000000000000008152600401610a7990611399565b60405180910390fd5b806003819055507f41d466ebd06fb97e7786086ac8b69b7eb7da798592036251291d34e9791cde0181604051610ab89190610d3b565b60405180910390a150565b610acb610bd8565b806004819055507f66e1e7d52aa5579a07f828553a0869fe33d5885fccb9f6f88faf5e178586986481604051610b019190610d3b565b60405180910390a150565b610b14610bd8565b806005819055507fff7deecf23a5f063143e39ed6d2069395006dedebfadeb394acb7cc586cf333181604051610b4a9190610d3b565b60405180910390a150565b610b5d610bd8565b600073ffffffffffffffffffffffffffffffffffffffff168173ffffffffffffffffffffffffffffffffffffffff1603610bcc576040517f08c379a0000000000000000000000000000000000000000000000000000000008152600401610bc39061142b565b60405180910390fd5b610bd581610c56565b50565b610be0610d1a565b73ffffffffffffffffffffffffffffffffffffffff16610bfe6109fb565b73ffffffffffffffffffffffffffffffffffffffff1614610c54576040517f08c379a0000000000000000000000000000000000000000000000000000000008152600401610c4b90611497565b60405180910390fd5b565b60008060009054906101000a900473ffffffffffffffffffffffffffffffffffffffff169050816000806101000a81548173ffffffffffffffffffffffffffffffffffffffff021916908373ffffffffffffffffffffffffffffffffffffffff1602179055508173ffffffffffffffffffffffffffffffffffffffff168173ffffffffffffffffffffffffffffffffffffffff167f8be0079c531659141344cd1fd0a4f28419497f9722a3daafe3b4186f6b6457e060405160405180910390a35050565b600033905090565b6000819050919050565b610d3581610d22565b82525050565b6000602082019050610d506000830184610d2c565b92915050565b600080fd5b600073ffffffffffffffffffffffffffffffffffffffff82169050919050565b6000610d8682610d5b565b9050919050565b610d9681610d7b565b8114610da157600080fd5b50565b600081359050610db381610d8d565b92915050565b600060208284031215610dcf57610dce610d56565b5b6000610ddd84828501610da4565b91505092915050565b6000606082019050610dfb6000830186610d2c565b610e086020830185610d2c565b610e156040830184610d2c565b949350505050565b610e2681610d22565b8114610e3157600080fd5b50565b600081359050610e4381610e1d565b92915050565b600060208284031215610e5f57610e5e610d56565b5b6000610e6d84828501610e34565b91505092915050565b610e7f81610d7b565b82525050565b6000602082019050610e9a6000830184610e76565b92915050565b600082825260208201905092915050565b7f496e76616c696420616d6f756e74000000000000000000000000000000000000600082015250565b6000610ee7600e83610ea0565b9150610ef282610eb1565b602082019050919050565b60006020820190508181036000830152610f1681610eda565b9050919050565b7f4e487b7100000000000000000000000000000000000000000000000000000000600052601160045260246000fd5b6000610f5782610d22565b9150610f6283610d22565b9250828201905080821115610f7a57610f79610f1d565b5b92915050565b7f546f6b656e73207374696c6c206c6f636b656400000000000000000000000000600082015250565b6000610fb6601383610ea0565b9150610fc182610f80565b602082019050919050565b60006020820190508181036000830152610fe581610fa9565b9050919050565b6000610ff782610d22565b915061100283610d22565b925082820390508181111561101a57611019610f1d565b5b92915050565b600061102b82610d22565b915061103683610d22565b925082820261104481610d22565b9150828204841483151761105b5761105a610f1d565b5b5092915050565b7f4e487b7100000000000000000000000000000000000000000000000000000000600052601260045260246000fd5b600061109c82610d22565b91506110a783610d22565b9250826110b7576110b6611062565b5b828204905092915050565b7f496e73756666696369656e7420636f6e74726163742062616c616e6365000000600082015250565b60006110f8601d83610ea0565b9150611103826110c2565b602082019050919050565b60006020820190508181036000830152611127816110eb565b9050919050565b600081905092915050565b50565b600061114960008361112e565b915061115482611139565b600082019050919050565b600061116a8261113c565b9150819050919050565b7f5472616e73666572206661696c65640000000000000000000000000000000000600082015250565b60006111aa600f83610ea0565b91506111b582611174565b602082019050919050565b600060208201905081810360008301526111d98161119d565b9050919050565b60006040820190506111f56000830185610d2c565b6112026020830184610d2c565b9392505050565b7f4e6f207265776172647300000000000000000000000000000000000000000000600082015250565b600061123f600a83610ea0565b915061124a82611209565b602082019050919050565b6000602082019050818103600083015261126e81611232565b9050919050565b7f526577617264207472616e73666572206661696c656400000000000000000000600082015250565b60006112ab601683610ea0565b91506112b682611275565b602082019050919050565b600060208201905081810360008301526112da8161129e565b9050919050565b7f5374616b65206d757374206265203e2030000000000000000000000000000000600082015250565b6000611317601183610ea0565b9150611322826112e1565b602082019050919050565b600060208201905081810360008301526113468161130a565b9050919050565b7f526577617264207261746520312d313025000000000000000000000000000000600082015250565b6000611383601183610ea0565b915061138e8261134d565b602082019050919050565b600060208201905081810360008301526113b281611376565b9050919050565b7f4f776e61626c653a206e6577206f776e657220697320746865207a65726f206160008201527f6464726573730000000000000000000000000000000000000000000000000000602082015250565b6000611415602683610ea0565b9150611420826113b9565b604082019050919050565b6000602082019050818103600083015261144481611408565b9050919050565b7f4f776e61626c653a2063616c6c6572206973206e6f7420746865206f776e6572600082015250565b6000611481602083610ea0565b915061148c8261144b565b602082019050919050565b600060208201905081810360008301526114b081611474565b905091905056fea2646970667358221220dc69d3aa930f7711a0d28e75c40e160b1c9f61b0c653dba2c1b4d697b1984a1664736f6c63430008140033",
  "linkReferences": {},
  "deployedLinkReferences": {}
}