{
  "_format": "hh-sol-artifact-1",
  "contractName": "FreeLanceDAOProposalContract",
  "sourceName": "contracts/FreeLanceDAOProposal.sol",
  "abi": [
    {
      "inputs": [
        {
          "internalType": "address",
          "name": "_stakingContract",
          "type": "address"
        }
      ],
      "stateMutability": "nonpayable",
      "type": "constructor"
    },
    {
      "anonymous": false,
      "inputs": [
        {
          "indexed": true,
          "internalType": "address",
          "name": "previousOwner",
          "type": "address"
        },
        {
          "indexed": true,
          "internalType": "address",
          "name": "newOwner",
          "type": "address"
        }
      ],
      "name": "OwnershipTransferred",
      "type": "event"
    },
    {
      "anonymous": false,
      "inputs": [
        {
          "indexed": true,
          "internalType": "uint256",
          "name": "id",
          "type": "uint256"
        },
        {
          "indexed": true,
          "internalType": "address",
          "name": "proposer",
          "type": "address"
        },
        {
          "indexed": false,
          "internalType": "string",
          "name": "title",
          "type": "string"
        },
        {
          "indexed": false,
          "internalType": "uint256",
          "name": "deadline",
          "type": "uint256"
        }
      ],
      "name": "ProposalCreated",
      "type": "event"
    },
    {
      "anonymous": false,
      "inputs": [
        {
          "indexed": true,
          "internalType": "uint256",
          "name": "id",
          "type": "uint256"
        },
        {
          "indexed": false,
          "internalType": "bool",
          "name": "approved",
          "type": "bool"
        }
      ],
      "name": "ProposalFinalized",
      "type": "event"
    },
    {
      "anonymous": false,
      "inputs": [
        {
          "indexed": false,
          "internalType": "uint256",
          "name": "oldThreshold",
          "type": "uint256"
        },
        {
          "indexed": false,
          "internalType": "uint256",
          "name": "newThreshold",
          "type": "uint256"
        }
      ],
      "name": "QuorumThresholdUpdated",
      "type": "event"
    },
    {
      "anonymous": false,
      "inputs": [
        {
          "indexed": true,
          "internalType": "address",
          "name": "oldAddr",
          "type": "address"
        },
        {
          "indexed": true,
          "internalType": "address",
          "name": "newAddr",
          "type": "address"
        }
      ],
      "name": "StakingContractUpdated",
      "type": "event"
    },
    {
      "anonymous": false,
      "inputs": [
        {
          "indexed": true,
          "internalType": "uint256",
          "name": "id",
          "type": "uint256"
        },
        {
          "indexed": true,
          "internalType": "address",
          "name": "voter",
          "type": "address"
        },
        {
          "indexed": false,
          "internalType": "uint256",
          "name": "weight",
          "type": "uint256"
        },
        {
          "indexed": false,
          "internalType": "bool",
          "name": "support",
          "type": "bool"
        }
      ],
      "name": "VoteCast",
      "type": "event"
    },
    {
      "anonymous": false,
      "inputs": [
        {
          "indexed": false,
          "internalType": "uint256",
          "name": "oldPeriod",
          "type": "uint256"
        },
        {
          "indexed": false,
          "internalType": "uint256",
          "name": "newPeriod",
          "type": "uint256"
        }
      ],
      "name": "VotingPeriodUpdated",
      "type": "event"
    },
    {
      "inputs": [
        {
          "internalType": "string",
          "name": "title",
          "type": "string"
        },
        {
          "internalType": "string",
          "name": "description",
          "type": "string"
        }
      ],
      "name": "createProposal",
      "outputs": [
        {
          "internalType": "uint256",
          "name": "",
          "type": "uint256"
        }
      ],
      "stateMutability": "nonpayable",
      "type": "function"
    },
    {
      "inputs": [
        {
          "internalType": "uint256",
          "name": "proposalId",
          "type": "uint256"
        }
      ],
      "name": "finalizeProposal",
      "outputs": [],
      "stateMutability": "nonpayable",
      "type": "function"
    },
    {
      "inputs": [
        {
          "internalType": "uint256",
          "name": "proposalId",
          "type": "uint256"
        }
      ],
      "name": "getProposal",
      "outputs": [
        {
          "internalType": "string",
          "name": "title",
          "type": "string"
        },
        {
          "internalType": "string",
          "name": "description",
          "type": "string"
        },
        {
          "internalType": "uint256",
          "name": "yesVotes",
          "type": "uint256"
        },
        {
          "internalType": "uint256",
          "name": "noVotes",
          "type": "uint256"
        },
        {
          "internalType": "uint256",
          "name": "deadline",
          "type": "uint256"
        },
        {
          "internalType": "bool",
          "name": "finalized",
          "type": "bool"
        },
        {
          "internalType": "uint256",
          "name": "participation",
          "type": "uint256"
        }
      ],
      "stateMutability": "view",
      "type": "function"
    },
    {
      "inputs": [
        {
          "internalType": "uint256",
          "name": "proposalId",
          "type": "uint256"
        },
        {
          "internalType": "address",
          "name": "voter",
          "type": "address"
        }
      ],
      "name": "getVoterSnapshot",
      "outputs": [
        {
          "internalType": "uint256",
          "name": "",
          "type": "uint256"
        }
      ],
      "stateMutability": "view",
      "type": "function"
    },
    {
      "inputs": [
        {
          "internalType": "uint256",
          "name": "",
          "type": "uint256"
        },
        {
          "internalType": "address",
          "name": "",
          "type": "address"
        }
      ],
      "name": "hasVoted",
      "outputs": [
        {
          "internalType": "bool",
          "name": "",
          "type": "bool"
        }
      ],
      "stateMutability": "view",
      "type": "function"
    },
    {
      "inputs": [],
      "name": "owner",
      "outputs": [
        {
          "internalType": "address",
          "name": "",
          "type": "address"
        }
      ],
      "stateMutability": "view",
      "type": "function"
    },
    {
      "inputs": [],
      "name": "proposalCount",
      "outputs": [
        {
          "internalType": "uint256",
          "name": "",
          "type": "uint256"
        }
      ],
      "stateMutability": "view",
      "type": "function"
    },
    {
      "inputs": [],
      "name": "quorumThresholdTokens",
      "outputs": [
        {
          "internalType": "uint256",
          "name": "",
          "type": "uint256"
        }
      ],
      "stateMutability": "view",
      "type": "function"
    },
    {
      "inputs": [],
      "name": "renounceOwnership",
      "outputs": [],
      "stateMutability": "nonpayable",
      "type": "function"
    },
    {
      "inputs": [
        {
          "internalType": "uint256",
          "name": "_threshold",
          "type": "uint256"
        }
      ],
      "name": "setQuorumThresholdTokens",
      "outputs": [],
      "stateMutability": "nonpayable",
      "type": "function"
    },
    {
      "inputs": [
        {
          "internalType": "address",
          "name": "_stakingContract",
          "type": "address"
        }
      ],
      "name": "setStakingContract",
      "outputs": [],
      "stateMutability": "nonpayable",
      "type": "function"
    },
    {
      "inputs": [
        {
          "internalType": "uint256",
          "name": "_votingPeriod",
          "type": "uint256"
        }
      ],
      "name": "setVotingPeriod",
      "outputs": [],
      "stateMutability": "nonpayable",
      "type": "function"
    },
    {
      "inputs": [],
      "name": "stakingContract",
      "outputs": [
        {
          "internalType": "contract IFreeLanceDAOStaking",
          "name": "",
          "type": "address"
        }
      ],
      "stateMutability": "view",
      "type": "function"
    },
    {
      "inputs": [
        {
          "internalType": "address",
          "name": "member",
          "type": "address"
        }
      ],
      "name": "stakingWeight",
      "outputs": [
        {
          "internalType": "uint256",
          "name": "",
          "type": "uint256"
        }
      ],
      "stateMutability": "view",
      "type": "function"
    },
    {
      "inputs": [
        {
          "internalType": "address",
          "name": "newOwner",
          "type": "address"
        }
      ],
      "name": "transferOwnership",
      "outputs": [],
      "stateMutability": "nonpayable",
      "type": "function"
    },
    {
      "inputs": [
        {
          "internalType": "uint256",
          "name": "proposalId",
          "type": "uint256"
        },
        {
          "internalType": "bool",
          "name": "support",
          "type": "bool"
        }
      ],
      "name": "vote",
      "outputs": [],
      "stateMutability": "nonpayable",
      "type": "function"
    },
    {
      "inputs": [],
      "name": "votingPeriod",
      "outputs": [
        {
          "internalType": "uint256",
          "name": "",
          "type": "uint256"
        }
      ],
      "stateMutability": "view",
      "type": "function"
    },
    {
      "inputs": [
        {
          "internalType": "uint256",
          "name": "",
          "type": "uint256"
        },
        {
          "internalType": "address",
          "name": "",
          "type": "address"
        }
      ],
      "name": "votingPowerSnapshot",
      "outputs": [
        {
          "internalType": "uint256",
          "name": "",
          "type": "uint256"
        }
      ],
      "stateMutability": "view",
      "type": "function"
    }
  ],
  "bytecode": "0x60806040526203f48060075560016008553480156200001d57600080fd5b50604051620022573803806200225783398181016040528101906200004391906200025a565b62000063620000576200012460201b60201c565b6200012c60201b60201c565b60018081905550600073ffffffffffffffffffffffffffffffffffffffff168173ffffffffffffffffffffffffffffffffffffffff1603620000dc576040517f08c379a0000000000000000000000000000000000000000000000000000000008152600401620000d390620002ed565b60405180910390fd5b80600260006101000a81548173ffffffffffffffffffffffffffffffffffffffff021916908373ffffffffffffffffffffffffffffffffffffffff160217905550506200030f565b600033905090565b60008060009054906101000a900473ffffffffffffffffffffffffffffffffffffffff169050816000806101000a81548173ffffffffffffffffffffffffffffffffffffffff021916908373ffffffffffffffffffffffffffffffffffffffff1602179055508173ffffffffffffffffffffffffffffffffffffffff168173ffffffffffffffffffffffffffffffffffffffff167f8be0079c531659141344cd1fd0a4f28419497f9722a3daafe3b4186f6b6457e060405160405180910390a35050565b600080fd5b600073ffffffffffffffffffffffffffffffffffffffff82169050919050565b60006200022282620001f5565b9050919050565b620002348162000215565b81146200024057600080fd5b50565b600081519050620002548162000229565b92915050565b600060208284031215620002735762000272620001f0565b5b6000620002838482850162000243565b91505092915050565b600082825260208201905092915050565b7f496e76616c6964207374616b696e6720636f6e74726163740000000000000000600082015250565b6000620002d56018836200028c565b9150620002e2826200029d565b602082019050919050565b600060208201905081810360008301526200030881620002c6565b9050919050565b611f38806200031f6000396000f3fe608060405234801561001057600080fd5b50600436106101165760003560e01c80639dd373b9116100a2578063cf5e4d6711610071578063cf5e4d67146102e5578063da35c66414610315578063ea0217cf14610333578063ee99205c1461034f578063f2fde38b1461036d57610116565b80639dd373b914610259578063ba54e41314610275578063c7f758a814610293578063c9d27afe146102c957610116565b80635652077c116100e95780635652077c146101c957806365e481e2146101e5578063715018a6146102155780637573698b1461021f5780638da5cb5b1461023b57610116565b806302a251a31461011b5780633b99666f14610139578063438596321461016957806343d558ed14610199575b600080fd5b610123610389565b60405161013091906110d7565b60405180910390f35b610153600480360381019061014e919061115a565b61038f565b60405161016091906110d7565b60405180910390f35b610183600480360381019061017e91906111b3565b61043b565b604051610190919061120e565b60405180910390f35b6101b360048036038101906101ae91906111b3565b61046a565b6040516101c091906110d7565b60405180910390f35b6101e360048036038101906101de9190611229565b61048f565b005b6101ff60048036038101906101fa91906112bb565b61061b565b60405161020c91906110d7565b60405180910390f35b61021d610720565b005b61023960048036038101906102349190611229565b610734565b005b610243610787565b604051610250919061134b565b60405180910390f35b610273600480360381019061026e919061115a565b6107b0565b005b61027d6108ed565b60405161028a91906110d7565b60405180910390f35b6102ad60048036038101906102a89190611229565b6108f3565b6040516102c097969594939291906113f6565b60405180910390f35b6102e360048036038101906102de919061149f565b610a83565b005b6102ff60048036038101906102fa91906111b3565b610d7c565b60405161030c91906110d7565b60405180910390f35b61031d610dd7565b60405161032a91906110d7565b60405180910390f35b61034d60048036038101906103489190611229565b610ddd565b005b610357610e73565b604051610364919061153e565b60405180910390f35b6103876004803603810190610382919061115a565b610e99565b005b60075481565b600080600260009054906101000a900473ffffffffffffffffffffffffffffffffffffffff1673ffffffffffffffffffffffffffffffffffffffff166316934fc4846040518263ffffffff1660e01b81526004016103ed919061134b565b606060405180830381865afa15801561040a573d6000803e3d6000fd5b505050506040513d601f19601f8201168201806040525081019061042e919061156e565b5050905080915050919050565b60056020528160005260406000206020528060005260406000206000915091509054906101000a900460ff1681565b6006602052816000526040600020602052806000526040600020600091509150505481565b600060046000838152602001908152602001600020905060008160040154036104ed576040517f08c379a00000000000000000000000000000000000000000000000000000000081526004016104e49061160d565b60405180910390fd5b8060040154421015610534576040517f08c379a000000000000000000000000000000000000000000000000000000000815260040161052b90611679565b60405180910390fd5b8060050160009054906101000a900460ff1615610586576040517f08c379a000000000000000000000000000000000000000000000000000000000815260040161057d906116e5565b60405180910390fd5b60018160050160006101000a81548160ff0219169083151502179055506000816003015482600201546105b99190611734565b9050600060085482106105d857826003015483600201541190506105dd565b600090505b837fb5ac567fcf1b069e0235e4f16734625c6cf54c1b40517fd9eb85517f6e1265a78260405161060d919061120e565b60405180910390a250505050565b6000610625610f1c565b6003600081548092919061063890611768565b91905055506000600460006003548152602001908152602001600020905085858260000191826106699291906119ec565b50838382600101918261067d9291906119ec565b506007544261068c9190611734565b816004018190555060008160050160006101000a81548160ff0219169083151502179055503373ffffffffffffffffffffffffffffffffffffffff166003547f98120a6aaa04295520ab4e01c6c1235dd316e822cc9ff31db7b3f197366d18bd8888856004015460405161070293929190611af8565b60405180910390a3600354915050610718610f6b565b949350505050565b610728610f74565b6107326000610ff2565b565b61073c610f74565b60006008549050816008819055507fc33728fb6bc64ec1c5596c946e1406ccdfb7369404098c1d6a5f4a7a29c97b63818360405161077b929190611b2a565b60405180910390a15050565b60008060009054906101000a900473ffffffffffffffffffffffffffffffffffffffff16905090565b6107b8610f74565b600073ffffffffffffffffffffffffffffffffffffffff168173ffffffffffffffffffffffffffffffffffffffff1603610827576040517f08c379a000000000000000000000000000000000000000000000000000000000815260040161081e90611b9f565b60405180910390fd5b6000600260009054906101000a900473ffffffffffffffffffffffffffffffffffffffff16905081600260006101000a81548173ffffffffffffffffffffffffffffffffffffffff021916908373ffffffffffffffffffffffffffffffffffffffff1602179055508173ffffffffffffffffffffffffffffffffffffffff168173ffffffffffffffffffffffffffffffffffffffff167f7042586b23181180eb30b4798702d7a0233b7fc2551e89806770e8e5d9392e6a60405160405180910390a35050565b60085481565b606080600080600080600080600460008a8152602001908152602001600020905080600001816001018260020154836003015484600401548560050160009054906101000a900460ff16866003015487600201546109519190611734565b86805461095d90611819565b80601f016020809104026020016040519081016040528092919081815260200182805461098990611819565b80156109d65780601f106109ab576101008083540402835291602001916109d6565b820191906000526020600020905b8154815290600101906020018083116109b957829003601f168201915b505050505096508580546109e990611819565b80601f0160208091040260200160405190810160405280929190818152602001828054610a1590611819565b8015610a625780601f10610a3757610100808354040283529160200191610a62565b820191906000526020600020905b815481529060010190602001808311610a4557829003601f168201915b50505050509550975097509750975097509750975050919395979092949650565b610a8b610f1c565b60006004600084815260200190815260200160002090506000816004015403610ae9576040517f08c379a0000000000000000000000000000000000000000000000000000000008152600401610ae09061160d565b60405180910390fd5b80600401544210610b2f576040517f08c379a0000000000000000000000000000000000000000000000000000000008152600401610b2690611c0b565b60405180910390fd5b6005600084815260200190815260200160002060003373ffffffffffffffffffffffffffffffffffffffff1673ffffffffffffffffffffffffffffffffffffffff16815260200190815260200160002060009054906101000a900460ff1615610bcd576040517f08c379a0000000000000000000000000000000000000000000000000000000008152600401610bc490611c77565b60405180910390fd5b6000610bd83361038f565b905060008111610c1d576040517f08c379a0000000000000000000000000000000000000000000000000000000008152600401610c1490611ce3565b60405180910390fd5b806006600086815260200190815260200160002060003373ffffffffffffffffffffffffffffffffffffffff1673ffffffffffffffffffffffffffffffffffffffff1681526020019081526020016000208190555060016005600086815260200190815260200160002060003373ffffffffffffffffffffffffffffffffffffffff1673ffffffffffffffffffffffffffffffffffffffff16815260200190815260200160002060006101000a81548160ff0219169083151502179055508215610d015780826002016000828254610cf59190611734565b92505081905550610d1d565b80826003016000828254610d159190611734565b925050819055505b3373ffffffffffffffffffffffffffffffffffffffff16847fb898e75d5aac8de2f407e4a683c8d909e832d1e371e3bff0fa3ed934e88d95628386604051610d66929190611d03565b60405180910390a35050610d78610f6b565b5050565b60006006600084815260200190815260200160002060008373ffffffffffffffffffffffffffffffffffffffff1673ffffffffffffffffffffffffffffffffffffffff16815260200190815260200160002054905092915050565b60035481565b610de5610f74565b60008111610e28576040517f08c379a0000000000000000000000000000000000000000000000000000000008152600401610e1f90611d78565b60405180910390fd5b60006007549050816007819055507fffc708f072ca56e3d45ef0cb288b96cb9378f5f63e1646868bfbc9c38f4263a18183604051610e67929190611b2a565b60405180910390a15050565b600260009054906101000a900473ffffffffffffffffffffffffffffffffffffffff1681565b610ea1610f74565b600073ffffffffffffffffffffffffffffffffffffffff168173ffffffffffffffffffffffffffffffffffffffff1603610f10576040517f08c379a0000000000000000000000000000000000000000000000000000000008152600401610f0790611e0a565b60405180910390fd5b610f1981610ff2565b50565b600260015403610f61576040517f08c379a0000000000000000000000000000000000000000000000000000000008152600401610f5890611e76565b60405180910390fd5b6002600181905550565b60018081905550565b610f7c6110b6565b73ffffffffffffffffffffffffffffffffffffffff16610f9a610787565b73ffffffffffffffffffffffffffffffffffffffff1614610ff0576040517f08c379a0000000000000000000000000000000000000000000000000000000008152600401610fe790611ee2565b60405180910390fd5b565b60008060009054906101000a900473ffffffffffffffffffffffffffffffffffffffff169050816000806101000a81548173ffffffffffffffffffffffffffffffffffffffff021916908373ffffffffffffffffffffffffffffffffffffffff1602179055508173ffffffffffffffffffffffffffffffffffffffff168173ffffffffffffffffffffffffffffffffffffffff167f8be0079c531659141344cd1fd0a4f28419497f9722a3daafe3b4186f6b6457e060405160405180910390a35050565b600033905090565b6000819050919050565b6110d1816110be565b82525050565b60006020820190506110ec60008301846110c8565b92915050565b600080fd5b600080fd5b600073ffffffffffffffffffffffffffffffffffffffff82169050919050565b6000611127826110fc565b9050919050565b6111378161111c565b811461114257600080fd5b50565b6000813590506111548161112e565b92915050565b6000602082840312156111705761116f6110f2565b5b600061117e84828501611145565b91505092915050565b611190816110be565b811461119b57600080fd5b50565b6000813590506111ad81611187565b92915050565b600080604083850312156111ca576111c96110f2565b5b60006111d88582860161119e565b92505060206111e985828601611145565b9150509250929050565b60008115159050919050565b611208816111f3565b82525050565b600060208201905061122360008301846111ff565b92915050565b60006020828403121561123f5761123e6110f2565b5b600061124d8482850161119e565b91505092915050565b600080fd5b600080fd5b600080fd5b60008083601f84011261127b5761127a611256565b5b8235905067ffffffffffffffff8111156112985761129761125b565b5b6020830191508360018202830111156112b4576112b3611260565b5b9250929050565b600080600080604085870312156112d5576112d46110f2565b5b600085013567ffffffffffffffff8111156112f3576112f26110f7565b5b6112ff87828801611265565b9450945050602085013567ffffffffffffffff811115611322576113216110f7565b5b61132e87828801611265565b925092505092959194509250565b6113458161111c565b82525050565b6000602082019050611360600083018461133c565b92915050565b600081519050919050565b600082825260208201905092915050565b60005b838110156113a0578082015181840152602081019050611385565b60008484015250505050565b6000601f19601f8301169050919050565b60006113c882611366565b6113d28185611371565b93506113e2818560208601611382565b6113eb816113ac565b840191505092915050565b600060e0820190508181036000830152611410818a6113bd565b9050818103602083015261142481896113bd565b905061143360408301886110c8565b61144060608301876110c8565b61144d60808301866110c8565b61145a60a08301856111ff565b61146760c08301846110c8565b98975050505050505050565b61147c816111f3565b811461148757600080fd5b50565b60008135905061149981611473565b92915050565b600080604083850312156114b6576114b56110f2565b5b60006114c48582860161119e565b92505060206114d58582860161148a565b9150509250929050565b6000819050919050565b60006115046114ff6114fa846110fc565b6114df565b6110fc565b9050919050565b6000611516826114e9565b9050919050565b60006115288261150b565b9050919050565b6115388161151d565b82525050565b6000602082019050611553600083018461152f565b92915050565b60008151905061156881611187565b92915050565b600080600060608486031215611587576115866110f2565b5b600061159586828701611559565b93505060206115a686828701611559565b92505060406115b786828701611559565b9150509250925092565b7f50726f706f73616c20646f6573206e6f74206578697374000000000000000000600082015250565b60006115f7601783611371565b9150611602826115c1565b602082019050919050565b60006020820190508181036000830152611626816115ea565b9050919050565b7f566f74696e67207374696c6c2061637469766500000000000000000000000000600082015250565b6000611663601383611371565b915061166e8261162d565b602082019050919050565b6000602082019050818103600083015261169281611656565b9050919050565b7f416c72656164792066696e616c697a6564000000000000000000000000000000600082015250565b60006116cf601183611371565b91506116da82611699565b602082019050919050565b600060208201905081810360008301526116fe816116c2565b9050919050565b7f4e487b7100000000000000000000000000000000000000000000000000000000600052601160045260246000fd5b600061173f826110be565b915061174a836110be565b925082820190508082111561176257611761611705565b5b92915050565b6000611773826110be565b91507fffffffffffffffffffffffffffffffffffffffffffffffffffffffffffffffff82036117a5576117a4611705565b5b600182019050919050565b600082905092915050565b7f4e487b7100000000000000000000000000000000000000000000000000000000600052604160045260246000fd5b7f4e487b7100000000000000000000000000000000000000000000000000000000600052602260045260246000fd5b6000600282049050600182168061183157607f821691505b602082108103611844576118436117ea565b5b50919050565b60008190508160005260206000209050919050565b60006020601f8301049050919050565b600082821b905092915050565b6000600883026118ac7fffffffffffffffffffffffffffffffffffffffffffffffffffffffffffffffff8261186f565b6118b6868361186f565b95508019841693508086168417925050509392505050565b60006118e96118e46118df846110be565b6114df565b6110be565b9050919050565b6000819050919050565b611903836118ce565b61191761190f826118f0565b84845461187c565b825550505050565b600090565b61192c61191f565b6119378184846118fa565b505050565b5b8181101561195b57611950600082611924565b60018101905061193d565b5050565b601f8211156119a0576119718161184a565b61197a8461185f565b81016020851015611989578190505b61199d6119958561185f565b83018261193c565b50505b505050565b600082821c905092915050565b60006119c3600019846008026119a5565b1980831691505092915050565b60006119dc83836119b2565b9150826002028217905092915050565b6119f683836117b0565b67ffffffffffffffff811115611a0f57611a0e6117bb565b5b611a198254611819565b611a2482828561195f565b6000601f831160018114611a535760008415611a41578287013590505b611a4b85826119d0565b865550611ab3565b601f198416611a618661184a565b60005b82811015611a8957848901358255600182019150602085019450602081019050611a64565b86831015611aa65784890135611aa2601f8916826119b2565b8355505b6001600288020188555050505b50505050505050565b82818337600083830152505050565b6000611ad78385611371565b9350611ae4838584611abc565b611aed836113ac565b840190509392505050565b60006040820190508181036000830152611b13818587611acb565b9050611b2260208301846110c8565b949350505050565b6000604082019050611b3f60008301856110c8565b611b4c60208301846110c8565b9392505050565b7f496e76616c696420616464726573730000000000000000000000000000000000600082015250565b6000611b89600f83611371565b9150611b9482611b53565b602082019050919050565b60006020820190508181036000830152611bb881611b7c565b9050919050565b7f566f74696e672068617320656e64656400000000000000000000000000000000600082015250565b6000611bf5601083611371565b9150611c0082611bbf565b602082019050919050565b60006020820190508181036000830152611c2481611be8565b9050919050565b7f416c726561647920766f74656400000000000000000000000000000000000000600082015250565b6000611c61600d83611371565b9150611c6c82611c2b565b602082019050919050565b60006020820190508181036000830152611c9081611c54565b9050919050565b7f4e6f207374616b6520746f20766f746500000000000000000000000000000000600082015250565b6000611ccd601083611371565b9150611cd882611c97565b602082019050919050565b60006020820190508181036000830152611cfc81611cc0565b9050919050565b6000604082019050611d1860008301856110c8565b611d2560208301846111ff565b9392505050565b7f566f74696e6720706572696f64203e2030000000000000000000000000000000600082015250565b6000611d62601183611371565b9150611d6d82611d2c565b602082019050919050565b60006020820190508181036000830152611d9181611d55565b9050919050565b7f4f776e61626c653a206e6577206f776e657220697320746865207a65726f206160008201527f6464726573730000000000000000000000000000000000000000000000000000602082015250565b6000611df4602683611371565b9150611dff82611d98565b604082019050919050565b60006020820190508181036000830152611e2381611de7565b9050919050565b7f5265656e7472616e637947756172643a207265656e7472616e742063616c6c00600082015250565b6000611e60601f83611371565b9150611e6b82611e2a565b602082019050919050565b60006020820190508181036000830152611e8f81611e53565b9050919050565b7f4f776e61626c653a2063616c6c6572206973206e6f7420746865206f776e6572600082015250565b6000611ecc602083611371565b9150611ed782611e96565b602082019050919050565b60006020820190508181036000830152611efb81611ebf565b905091905056fea26469706673582212203250d5dc7716c25dcfe83e77842cc5d10a204be2e56482a345d15c182e2b33ba64736f6c63430008140033",
  "linkReferences": {},
  "deployedLinkReferences": {}
}