{
  "_format": "hh-sol-artifact-1",
  "contractName": "FreeLanceDAOEscrowPayment",
  "sourceName": "contracts/FreeLanceDAOEscrowPayment.sol",
  "abi": [
    {
      "inputs": [
        {
          "internalType": "address",
          "name": "_daoTreasury",
          "type": "address"
        },
        {
          "internalType": "uint256",
          "name": "_daoFeePct",
          "type": "uint256"
        },
        {
          "internalType": "address",
          "name": "_owner",
          "type": "address"
        }
      ],
      "stateMutability": "nonpayable",
      "type": "constructor"
    },
    {
      "inputs": [
        {
          "internalType": "address",
          "name": "owner",
          "type": "address"
        }
      ],
      "name": "OwnableInvalidOwner",
      "type": "error"
    },
    {
      "inputs": [
        {
          "internalType": "address",
          "name": "account",
          "type": "address"
        }
      ],
      "name": "OwnableUnauthorizedAccount",
      "type": "error"
    },
    {
      "inputs": [],
      "name": "ReentrancyGuardReentrantCall",
      "type": "error"
    },
    {
      "anonymous": false,
      "inputs": [
        {
          "indexed": false,
          "internalType": "uint256",
          "name": "oldPct",
          "type": "uint256"
        },
        {
          "indexed": false,
          "internalType": "uint256",
          "name": "newPct",
          "type": "uint256"
        }
      ],
      "name": "DaoFeePctUpdated",
      "type": "event"
    },
    {
      "anonymous": false,
      "inputs": [
        {
          "indexed": false,
          "internalType": "address",
          "name": "oldTreasury",
          "type": "address"
        },
        {
          "indexed": false,
          "internalType": "address",
          "name": "newTreasury",
          "type": "address"
        }
      ],
      "name": "DaoTreasuryUpdated",
      "type": "event"
    },
    {
      "anonymous": false,
      "inputs": [
        {
          "indexed": true,
          "internalType": "uint256",
          "name": "jobId",
          "type": "uint256"
        },
        {
          "indexed": true,
          "internalType": "uint256",
          "name": "milestoneIndex",
          "type": "uint256"
        },
        {
          "indexed": true,
          "internalType": "address",
          "name": "provider",
          "type": "address"
        }
      ],
      "name": "DeliveryMarked",
      "type": "event"
    },
    {
      "anonymous": false,
      "inputs": [
        {
          "indexed": true,
          "internalType": "uint256",
          "name": "jobId",
          "type": "uint256"
        },
        {
          "indexed": false,
          "internalType": "uint256",
          "name": "amountNet",
          "type": "uint256"
        },
        {
          "indexed": false,
          "internalType": "uint256",
          "name": "daoFee",
          "type": "uint256"
        }
      ],
      "name": "FixedJobReleased",
      "type": "event"
    },
    {
      "anonymous": false,
      "inputs": [
        {
          "indexed": true,
          "internalType": "uint256",
          "name": "jobId",
          "type": "uint256"
        }
      ],
      "name": "JobCancelled",
      "type": "event"
    },
    {
      "anonymous": false,
      "inputs": [
        {
          "indexed": true,
          "internalType": "uint256",
          "name": "jobId",
          "type": "uint256"
        },
        {
          "indexed": false,
          "internalType": "enum FreeLanceDAOEscrowPayment.JobType",
          "name": "jobType",
          "type": "uint8"
        },
        {
          "indexed": true,
          "internalType": "address",
          "name": "client",
          "type": "address"
        },
        {
          "indexed": false,
          "internalType": "uint256",
          "name": "totalAmount",
          "type": "uint256"
        }
      ],
      "name": "JobCreated",
      "type": "event"
    },
    {
      "anonymous": false,
      "inputs": [
        {
          "indexed": true,
          "internalType": "uint256",
          "name": "jobId",
          "type": "uint256"
        },
        {
          "indexed": false,
          "internalType": "uint256",
          "name": "amount",
          "type": "uint256"
        }
      ],
      "name": "JobFunded",
      "type": "event"
    },
    {
      "anonymous": false,
      "inputs": [
        {
          "indexed": true,
          "internalType": "uint256",
          "name": "jobId",
          "type": "uint256"
        },
        {
          "indexed": false,
          "internalType": "uint256",
          "name": "refundedAmount",
          "type": "uint256"
        }
      ],
      "name": "JobRefunded",
      "type": "event"
    },
    {
      "anonymous": false,
      "inputs": [
        {
          "indexed": true,
          "internalType": "uint256",
          "name": "jobId",
          "type": "uint256"
        },
        {
          "indexed": true,
          "internalType": "uint256",
          "name": "milestoneIndex",
          "type": "uint256"
        },
        {
          "indexed": false,
          "internalType": "uint256",
          "name": "amountNet",
          "type": "uint256"
        },
        {
          "indexed": false,
          "internalType": "uint256",
          "name": "daoFee",
          "type": "uint256"
        }
      ],
      "name": "MilestoneReleased",
      "type": "event"
    },
    {
      "anonymous": false,
      "inputs": [
        {
          "indexed": true,
          "internalType": "address",
          "name": "previousOwner",
          "type": "address"
        },
        {
          "indexed": true,
          "internalType": "address",
          "name": "newOwner",
          "type": "address"
        }
      ],
      "name": "OwnershipTransferred",
      "type": "event"
    },
    {
      "anonymous": false,
      "inputs": [
        {
          "indexed": true,
          "internalType": "uint256",
          "name": "jobId",
          "type": "uint256"
        },
        {
          "indexed": true,
          "internalType": "address",
          "name": "provider",
          "type": "address"
        }
      ],
      "name": "ProviderApproved",
      "type": "event"
    },
    {
      "anonymous": false,
      "inputs": [
        {
          "indexed": true,
          "internalType": "uint256",
          "name": "jobId",
          "type": "uint256"
        },
        {
          "indexed": true,
          "internalType": "address",
          "name": "provider",
          "type": "address"
        }
      ],
      "name": "ProviderRequested",
      "type": "event"
    },
    {
      "anonymous": false,
      "inputs": [
        {
          "indexed": false,
          "internalType": "address",
          "name": "to",
          "type": "address"
        },
        {
          "indexed": false,
          "internalType": "uint256",
          "name": "amount",
          "type": "uint256"
        }
      ],
      "name": "WithdrawDaoFees",
      "type": "event"
    },
    {
      "stateMutability": "payable",
      "type": "fallback"
    },
    {
      "inputs": [],
      "name": "PCT_BASE",
      "outputs": [
        {
          "internalType": "uint256",
          "name": "",
          "type": "uint256"
        }
      ],
      "stateMutability": "view",
      "type": "function"
    },
    {
      "inputs": [
        {
          "internalType": "uint256",
          "name": "jobId",
          "type": "uint256"
        }
      ],
      "name": "adminRefundJob",
      "outputs": [],
      "stateMutability": "nonpayable",
      "type": "function"
    },
    {
      "inputs": [
        {
          "internalType": "uint256",
          "name": "jobId",
          "type": "uint256"
        },
        {
          "internalType": "address",
          "name": "provider",
          "type": "address"
        }
      ],
      "name": "approveProvider",
      "outputs": [],
      "stateMutability": "nonpayable",
      "type": "function"
    },
    {
      "inputs": [
        {
          "internalType": "uint256",
          "name": "jobId",
          "type": "uint256"
        }
      ],
      "name": "cancelJob",
      "outputs": [],
      "stateMutability": "nonpayable",
      "type": "function"
    },
    {
      "inputs": [
        {
          "internalType": "uint256",
          "name": "jobId",
          "type": "uint256"
        }
      ],
      "name": "confirmFixedJob",
      "outputs": [],
      "stateMutability": "nonpayable",
      "type": "function"
    },
    {
      "inputs": [],
      "name": "createFixedJob",
      "outputs": [
        {
          "internalType": "uint256",
          "name": "",
          "type": "uint256"
        }
      ],
      "stateMutability": "payable",
      "type": "function"
    },
    {
      "inputs": [
        {
          "internalType": "uint256[]",
          "name": "milestoneAmounts",
          "type": "uint256[]"
        }
      ],
      "name": "createMilestoneJob",
      "outputs": [
        {
          "internalType": "uint256",
          "name": "",
          "type": "uint256"
        }
      ],
      "stateMutability": "payable",
      "type": "function"
    },
    {
      "inputs": [],
      "name": "daoFeePct",
      "outputs": [
        {
          "internalType": "uint256",
          "name": "",
          "type": "uint256"
        }
      ],
      "stateMutability": "view",
      "type": "function"
    },
    {
      "inputs": [],
      "name": "daoTreasury",
      "outputs": [
        {
          "internalType": "address",
          "name": "",
          "type": "address"
        }
      ],
      "stateMutability": "view",
      "type": "function"
    },
    {
      "inputs": [
        {
          "internalType": "uint256",
          "name": "jobId",
          "type": "uint256"
        }
      ],
      "name": "fundJob",
      "outputs": [],
      "stateMutability": "payable",
      "type": "function"
    },
    {
      "inputs": [
        {
          "internalType": "uint256",
          "name": "jobId",
          "type": "uint256"
        }
      ],
      "name": "getJobSummary",
      "outputs": [
        {
          "internalType": "uint256",
          "name": "jobIdOut",
          "type": "uint256"
        },
        {
          "internalType": "enum FreeLanceDAOEscrowPayment.JobType",
          "name": "jobType",
          "type": "uint8"
        },
        {
          "internalType": "address",
          "name": "client",
          "type": "address"
        },
        {
          "internalType": "address",
          "name": "freelancer",
          "type": "address"
        },
        {
          "internalType": "uint256",
          "name": "totalAmount",
          "type": "uint256"
        },
        {
          "internalType": "uint256",
          "name": "releasedAmount",
          "type": "uint256"
        },
        {
          "internalType": "enum FreeLanceDAOEscrowPayment.Status",
          "name": "status",
          "type": "uint8"
        },
        {
          "internalType": "uint256",
          "name": "createdAt",
          "type": "uint256"
        },
        {
          "internalType": "bool",
          "name": "funded",
          "type": "bool"
        },
        {
          "internalType": "bool",
          "name": "confirmed",
          "type": "bool"
        }
      ],
      "stateMutability": "view",
      "type": "function"
    },
    {
      "inputs": [
        {
          "internalType": "uint256",
          "name": "jobId",
          "type": "uint256"
        },
        {
          "internalType": "uint256",
          "name": "idx",
          "type": "uint256"
        }
      ],
      "name": "getMilestone",
      "outputs": [
        {
          "internalType": "uint256",
          "name": "amount",
          "type": "uint256"
        },
        {
          "internalType": "bool",
          "name": "released",
          "type": "bool"
        },
        {
          "internalType": "bool",
          "name": "delivered",
          "type": "bool"
        }
      ],
      "stateMutability": "view",
      "type": "function"
    },
    {
      "inputs": [
        {
          "internalType": "address",
          "name": "",
          "type": "address"
        },
        {
          "internalType": "uint256",
          "name": "",
          "type": "uint256"
        }
      ],
      "name": "jobsByClient",
      "outputs": [
        {
          "internalType": "uint256",
          "name": "",
          "type": "uint256"
        }
      ],
      "stateMutability": "view",
      "type": "function"
    },
    {
      "inputs": [
        {
          "internalType": "address",
          "name": "",
          "type": "address"
        },
        {
          "internalType": "uint256",
          "name": "",
          "type": "uint256"
        }
      ],
      "name": "jobsByFreelancer",
      "outputs": [
        {
          "internalType": "uint256",
          "name": "",
          "type": "uint256"
        }
      ],
      "stateMutability": "view",
      "type": "function"
    },
    {
      "inputs": [
        {
          "internalType": "uint256",
          "name": "jobId",
          "type": "uint256"
        },
        {
          "internalType": "uint256",
          "name": "milestoneIndex",
          "type": "uint256"
        }
      ],
      "name": "markDelivery",
      "outputs": [],
      "stateMutability": "nonpayable",
      "type": "function"
    },
    {
      "inputs": [
        {
          "internalType": "uint256",
          "name": "jobId",
          "type": "uint256"
        }
      ],
      "name": "markDisputed",
      "outputs": [],
      "stateMutability": "nonpayable",
      "type": "function"
    },
    {
      "inputs": [],
      "name": "nextJobId",
      "outputs": [
        {
          "internalType": "uint256",
          "name": "",
          "type": "uint256"
        }
      ],
      "stateMutability": "view",
      "type": "function"
    },
    {
      "inputs": [],
      "name": "owner",
      "outputs": [
        {
          "internalType": "address",
          "name": "",
          "type": "address"
        }
      ],
      "stateMutability": "view",
      "type": "function"
    },
    {
      "inputs": [
        {
          "internalType": "uint256",
          "name": "jobId",
          "type": "uint256"
        },
        {
          "internalType": "uint256",
          "name": "milestoneIndex",
          "type": "uint256"
        }
      ],
      "name": "releaseMilestone",
      "outputs": [],
      "stateMutability": "nonpayable",
      "type": "function"
    },
    {
      "inputs": [],
      "name": "renounceOwnership",
      "outputs": [],
      "stateMutability": "nonpayable",
      "type": "function"
    },
    {
      "inputs": [
        {
          "internalType": "uint256",
          "name": "jobId",
          "type": "uint256"
        }
      ],
      "name": "requestJob",
      "outputs": [],
      "stateMutability": "nonpayable",
      "type": "function"
    },
    {
      "inputs": [
        {
          "internalType": "address",
          "name": "",
          "type": "address"
        },
        {
          "internalType": "uint256",
          "name": "",
          "type": "uint256"
        }
      ],
      "name": "requested",
      "outputs": [
        {
          "internalType": "bool",
          "name": "",
          "type": "bool"
        }
      ],
      "stateMutability": "view",
      "type": "function"
    },
    {
      "inputs": [
        {
          "internalType": "uint256",
          "name": "_newPct",
          "type": "uint256"
        }
      ],
      "name": "setDaoFeePct",
      "outputs": [],
      "stateMutability": "nonpayable",
      "type": "function"
    },
    {
      "inputs": [
        {
          "internalType": "address",
          "name": "_newTreasury",
          "type": "address"
        }
      ],
      "name": "setDaoTreasury",
      "outputs": [],
      "stateMutability": "nonpayable",
      "type": "function"
    },
    {
      "inputs": [
        {
          "internalType": "address",
          "name": "newOwner",
          "type": "address"
        }
      ],
      "name": "transferOwnership",
      "outputs": [],
      "stateMutability": "nonpayable",
      "type": "function"
    },
    {
      "inputs": [
        {
          "internalType": "uint256",
          "name": "amount",
          "type": "uint256"
        }
      ],
      "name": "withdrawDaoFees",
      "outputs": [],
      "stateMutability": "nonpayable",
      "type": "function"
    },
    {
      "stateMutability": "payable",
      "type": "receive"
    }
  ],
  "bytecode": "0x608060405260016004553480156200001657600080fd5b50604051620027f3380380620027f38339810160408190526200003991620001af565b806001600160a01b0381166200006a57604051631e4fbdf760e01b8152600060048201526024015b60405180910390fd5b620000758162000142565b50600180556001600160a01b038316620000d25760405162461bcd60e51b815260206004820152601460248201527f496e76616c69642044414f207472656173757279000000000000000000000000604482015260640162000061565b6064821115620001175760405162461bcd60e51b815260206004820152600f60248201526e119959481c18dd081a5b9d985b1a59608a1b604482015260640162000061565b50600380546001600160a01b0319166001600160a01b039390931692909217909155600255620001f0565b600080546001600160a01b038381166001600160a01b0319831681178455604051919092169283917f8be0079c531659141344cd1fd0a4f28419497f9722a3daafe3b4186f6b6457e09190a35050565b80516001600160a01b0381168114620001aa57600080fd5b919050565b600080600060608486031215620001c557600080fd5b620001d08462000192565b925060208401519150620001e76040850162000192565b90509250925092565b6125f380620002006000396000f3fe6080604052600436106101725760003560e01c806394d246c2116100c8578063c021f21011610084578063dbaf091011610061578063dbaf091014610489578063f2fde38b146104a9578063fc157cb4146104c9578063fc71f594146104de57005b8063c021f21014610433578063c1d1fd7b14610453578063d8690c791461047357005b806394d246c21461037c5780639aa85dba1461039c578063a0677642146103bc578063a124df5d146103ea578063b0c2aa5e1461040a578063b59c62eb1461042057005b80636754cc281161012f57806379022a9f1161010c57806379022a9f146102d65780638d22b8631461030e5780638da5cb5b146103215780638ed9895c1461033f57005b80636754cc281461023b578063715018a61461028b5780637679b176146102a057005b8062440b311461017b5780631aca3e101461019b5780631dffa3dc146101bb578063314b6835146101db5780633b3e4102146101fb5780634ba587c51461021b57005b3661017957005b005b34801561018757600080fd5b506101796101963660046122ce565b6104e6565b3480156101a757600080fd5b506101796101b63660046122ce565b610626565b3480156101c757600080fd5b506101796101d63660046122ce565b6106ab565b3480156101e757600080fd5b506101796101f63660046122ce565b6108ae565b34801561020757600080fd5b506101796102163660046122ce565b61095d565b34801561022757600080fd5b506101796102363660046122ce565b610a10565b34801561024757600080fd5b50610276610256366004612303565b600860209081526000928352604080842090915290825290205460ff1681565b60405190151581526020015b60405180910390f35b34801561029757600080fd5b50610179610b60565b3480156102ac57600080fd5b506102c06102bb3660046122ce565b610b74565b6040516102829a99989796959493929190612357565b3480156102e257600080fd5b506003546102f6906001600160a01b031681565b6040516001600160a01b039091168152602001610282565b61017961031c3660046122ce565b610c6c565b34801561032d57600080fd5b506000546001600160a01b03166102f6565b34801561034b57600080fd5b5061035f61035a3660046123cd565b610e38565b604080519384529115156020840152151590820152606001610282565b34801561038857600080fd5b506101796103973660046123ef565b610f51565b3480156103a857600080fd5b506101796103b73660046123cd565b611134565b3480156103c857600080fd5b506103dc6103d7366004612303565b6113bb565b604051908152602001610282565b3480156103f657600080fd5b5061017961040536600461241b565b6113ec565b34801561041657600080fd5b506103dc60045481565b6103dc61042e36600461243d565b6114a2565b34801561043f57600080fd5b5061017961044e3660046122ce565b611866565b34801561045f57600080fd5b506103dc61046e366004612303565b611b25565b34801561047f57600080fd5b506103dc60025481565b34801561049557600080fd5b506101796104a43660046123cd565b611b41565b3480156104b557600080fd5b506101796104c436600461241b565b611fec565b3480156104d557600080fd5b506103dc606481565b6103dc612027565b60008181526005602052604090206008810154610100900460ff166105265760405162461bcd60e51b815260040161051d906124b2565b60405180910390fd5b600181015461010090046001600160a01b0316330361057f5760405162461bcd60e51b815260206004820152601560248201527410db1a595b9d0818d85b9b9bdd081c995c5d595cdd605a1b604482015260640161051d565b600060068083015460ff169081111561059a5761059a61232d565b146105d65760405162461bcd60e51b815260206004820152600c60248201526b2537b1103737ba1037b832b760a11b604482015260640161051d565b336000818152600860209081526040808320868452909152808220805460ff191660011790555184917f56a170713c65629e3fc7b98f93ea5c49d1cd10debfc5f7ef03cbee95a40b722d91a35050565b61062e612186565b606481111561066a5760405162461bcd60e51b81526020600482015260086024820152670506374203e3130360c41b604482015260640161051d565b60025460408051918252602082018390527f599212ef52aff90308621d59b15739350422740d4632be808c93138e3d268710910160405180910390a1600255565b6106b36121b3565b60008181526005602052604090206008810154610100900460ff166106ea5760405162461bcd60e51b815260040161051d906124b2565b600181015461010090046001600160a01b0316331461071b5760405162461bcd60e51b815260040161051d906124d9565b600060068083015460ff16908111156107365761073661232d565b148061075a5750600160068083015460ff16908111156107585761075861232d565b145b61079a5760405162461bcd60e51b815260206004820152601160248201527043616e6e6f742063616e63656c206e6f7760781b604482015260640161051d565b6004810154156107ec5760405162461bcd60e51b815260206004820152601a60248201527f416c72656164792072656c6561736564207061727469616c6c79000000000000604482015260640161051d565b6006810154600090610100900460ff16156108245750600381015460018201546108249061010090046001600160a01b0316826121dd565b6006828101805460ff1916909117905560405183907f58243f872c550ad02802199ade99eb4250f6bb19e9abbf2d3de7b969c0eb5e4f90600090a280156108a057827f98cd69b526974edc8f55d210bc89664b6985c7e698453e7aca776048f6efcae58260405161089791815260200190565b60405180910390a25b50506108ab60018055565b50565b60008181526005602052604090206008810154610100900460ff166108e55760405162461bcd60e51b815260040161051d906124b2565b600181015461010090046001600160a01b0316331480610911575060028101546001600160a01b031633145b61094c5760405162461bcd60e51b815260206004820152600c60248201526b4f6e6c79207061727469657360a01b604482015260640161051d565b600601805460ff1916600417905550565b6109656121b3565b61096d612186565b600081116109ab5760405162461bcd60e51b815260206004820152600b60248201526a1e995c9bc8185b5bdd5b9d60aa1b604482015260640161051d565b6003546109c1906001600160a01b0316826121dd565b600354604080516001600160a01b039092168252602082018390527f2575d77a1ec3998d286c801d15068d5201ec99248623b8f7b7fc936ac1b62d6a910160405180910390a16108ab60018055565b610a186121b3565b610a20612186565b60008181526005602052604090206008810154610100900460ff16610a575760405162461bcd60e51b815260040161051d906124b2565b600560068083015460ff1690811115610a7257610a7261232d565b14158015610a97575060068181015460ff1681811115610a9457610a9461232d565b14155b8015610aa85750600881015460ff16155b610ae45760405162461bcd60e51b815260206004820152600d60248201526c105b1c9958591e48199a5b985b609a1b604482015260640161051d565b600081600401548260030154610afa9190612514565b90508015610b1f576001820154610b1f9061010090046001600160a01b0316826121dd565b60068201805460ff1916600517905560405181815283907f98cd69b526974edc8f55d210bc89664b6985c7e698453e7aca776048f6efcae590602001610897565b610b68612186565b610b72600061227e565b565b6000818152600560205260408120600881015482918291829182918291829182918291829190610100900460ff16610bbe5760405162461bcd60e51b815260040161051d906124b2565b80600001548160010160009054906101000a900460ff168260010160019054906101000a90046001600160a01b03168360020160009054906101000a90046001600160a01b0316846003015485600401548660060160009054906101000a900460ff1687600501548860060160019054906101000a900460ff168960080160009054906101000a900460ff169a509a509a509a509a509a509a509a509a509a50509193959799509193959799565b610c746121b3565b60008181526005602052604090206008810154610100900460ff16610cab5760405162461bcd60e51b815260040161051d906124b2565b600181015461010090046001600160a01b03163314610d035760405162461bcd60e51b815260206004820152601460248201527313db9b1e4818db1a595b9d0818d85b88199d5b9960621b604482015260640161051d565b6006810154610100900460ff1615610d4e5760405162461bcd60e51b815260206004820152600e60248201526d105b1c9958591e48199d5b99195960921b604482015260640161051d565b60003411610d8e5760405162461bcd60e51b815260206004820152600d60248201526c04d7573742073656e64203e203609c1b604482015260640161051d565b80600301543414610de15760405162461bcd60e51b815260206004820152601960248201527f4d7573742073656e642066756c6c206a6f6220616d6f756e7400000000000000604482015260640161051d565b60068101805461ff00191661010017905560405182907f9d25c5cf940eed311c45e5a0b4c7c8790a356d3c356453b76bb7e232db3f384a90610e269034815260200190565b60405180910390a2506108ab60018055565b6000828152600560205260408120600881015482918291610100900460ff16610e735760405162461bcd60e51b815260040161051d906124b2565b60018181015460ff1681811115610e8c57610e8c61232d565b14610ecd5760405162461bcd60e51b81526020600482015260116024820152702737ba1036b4b632b9ba37b732903537b160791b604482015260640161051d565b60078101548510610f065760405162461bcd60e51b815260206004820152600360248201526227a7a160e91b604482015260640161051d565b6000816007018681548110610f1d57610f1d612527565b60009182526020909120600290910201805460019091015490955060ff808216955061010090910416925050509250925092565b60008281526005602052604090206008810154610100900460ff16610f885760405162461bcd60e51b815260040161051d906124b2565b600181015461010090046001600160a01b03163314610fe95760405162461bcd60e51b815260206004820152601760248201527f4f6e6c7920636c69656e742063616e20617070726f7665000000000000000000604482015260640161051d565b600060068083015460ff16908111156110045761100461232d565b146110405760405162461bcd60e51b815260206004820152600c60248201526b2537b1103737ba1037b832b760a11b604482015260640161051d565b6001600160a01b038216600090815260086020908152604080832086845290915290205460ff166110b35760405162461bcd60e51b815260206004820152601860248201527f50726f766964657220646964206e6f7420726571756573740000000000000000604482015260640161051d565b6002810180546001600160a01b0319166001600160a01b03841690811790915560068201805460ff191660019081179091556000828152600760209081526040808320805494850181558352908220909201869055905185917f75ddd184e81eb370d30cc019f29184e242488c372a6cccb9b7dec5821c3f6c0d91a3505050565b60008281526005602052604090206008810154610100900460ff1661116b5760405162461bcd60e51b815260040161051d906124b2565b60028101546001600160a01b031633146111be5760405162461bcd60e51b81526020600482015260146024820152732737ba1030bbb0b93232b210383937bb34b232b960611b604482015260640161051d565b600160068083015460ff16908111156111d9576111d961232d565b14806111fd5750600260068083015460ff16908111156111fb576111fb61232d565b145b61123a5760405162461bcd60e51b815260206004820152600e60248201526d496e76616c69642073746174757360901b604482015260640161051d565b600060018083015460ff16908111156112555761125561232d565b0361129d5760068101805460ff19166002179055604051339060009085907f5f87c5debff10f9af78fb5c01ac59ef4f0a787c7414076b791dcb3160271b5c8908390a4505050565b600781015482106112e05760405162461bcd60e51b815260206004820152600d60248201526c26b4b632b9ba37b7329027a7a160991b604482015260640161051d565b60008160070183815481106112f7576112f7612527565b60009182526020909120600290910201600181015490915060ff161561135f5760405162461bcd60e51b815260206004820152601a60248201527f4d696c6573746f6e6520616c72656164792072656c6561736564000000000000604482015260640161051d565b60018101805461010061ff001990911617905560068201805460ff191660021790556040513390849086907f5f87c5debff10f9af78fb5c01ac59ef4f0a787c7414076b791dcb3160271b5c890600090a450505050565b505050565b600760205281600052604060002081815481106113d757600080fd5b90600052602060002001600091509150505481565b6113f4612186565b6001600160a01b0381166114395760405162461bcd60e51b815260206004820152600c60248201526b7a65726f206164647265737360a01b604482015260640161051d565b600354604080516001600160a01b03928316815291831660208301527f405b911135779fbe6ca1eb08e756497b632d5fbff59644b7d60ea3ea95caf539910160405180910390a1600380546001600160a01b0319166001600160a01b0392909216919091179055565b6000816114e65760405162461bcd60e51b81526020600482015260126024820152714e656564203e3d31206d696c6573746f6e6560701b604482015260640161051d565b6000805b8381101561158257600085858381811061150657611506612527565b905060200201351161154a5760405162461bcd60e51b815260206004820152600d60248201526c04d696c6573746f6e65203e203609c1b604482015260640161051d565b84848281811061155c5761155c612527565b905060200201358261156e919061253d565b91508061157a81612550565b9150506114ea565b5060006064600254836115959190612569565b61159f9190612580565b90508085856115af600182612514565b8181106115be576115be612527565b90506020020135101561161d5760405162461bcd60e51b815260206004820152602160248201527f4c617374206d696c6573746f6e65206d75737420636f7665722044414f2066656044820152606560f81b606482015260840161051d565b600480546000918261162e83612550565b9091555060008181526005602081905260408220838155600180820180546001600160a81b031916336101009081029190911790921790556003820188905560048201849055429282019290925560068101805460088301805461ff00191690941790935561ffff199092169091559192505b86811015611741578160070160405180606001604052808a8a858181106116ca576116ca612527565b60209081029290920135835250600082820181905260409283018190528454600180820187559582529082902084516002909202019081559083015193018054929091015161ffff1990921692151561ff00191692909217610100911515919091021790558061173981612550565b9150506116a1565b5034156117f6578334146117a85760405162461bcd60e51b815260206004820152602860248201527f6d73672e76616c7565206d75737420657175616c20746f74616c206d696c6573604482015267746f6e652073756d60c01b606482015260840161051d565b60068101805461ff00191661010017905560405182907f9d25c5cf940eed311c45e5a0b4c7c8790a356d3c356453b76bb7e232db3f384a906117ed9034815260200190565b60405180910390a25b336000818152600660209081526040808320805460018181018355918552929093209091018590556003840154905185927fc5461520f114105e6a66205aa617e182d057dc7942f09aeffd1b9b9e18542c6b92611852926125a2565b60405180910390a350925050505b92915050565b61186e6121b3565b60008181526005602052604090206008810154610100900460ff166118a55760405162461bcd60e51b815260040161051d906124b2565b600060018083015460ff16908111156118c0576118c061232d565b146118fd5760405162461bcd60e51b815260206004820152600d60248201526c2737ba103334bc32b2103537b160991b604482015260640161051d565b600181015461010090046001600160a01b0316331461192e5760405162461bcd60e51b815260040161051d906124d9565b6006810154610100900460ff166119785760405162461bcd60e51b815260206004820152600e60248201526d129bd8881b9bdd08199d5b99195960921b604482015260640161051d565b600260068083015460ff16908111156119935761199361232d565b14806119b75750600160068083015460ff16908111156119b5576119b561232d565b145b6119f55760405162461bcd60e51b815260206004820152600f60248201526e4e6f7420696e2064656c697665727960881b604482015260640161051d565b600881015460ff1615611a3e5760405162461bcd60e51b8152602060048201526011602482015270105b1c9958591e4818dbdb999a5c9b5959607a1b604482015260640161051d565b600060646002548360030154611a549190612569565b611a5e9190612580565b90506000818360030154611a729190612514565b600384810154600486015560088501805460068701805460ff191690931790925562ff00ff199091166201000117905590508015611ac2576002830154611ac2906001600160a01b0316826121dd565b8115611ade57600354611ade906001600160a01b0316836121dd565b604080518281526020810184905285917faeaea72a94ea21c1bf7815b369922e9589f54ac6b71568ae86af00e6e2e5ad46910160405180910390a25050506108ab60018055565b600660205281600052604060002081815481106113d757600080fd5b611b496121b3565b60008281526005602052604090206008810154610100900460ff16611b805760405162461bcd60e51b815260040161051d906124b2565b60018181015460ff1681811115611b9957611b9961232d565b14611bda5760405162461bcd60e51b81526020600482015260116024820152702737ba1036b4b632b9ba37b732903537b160791b604482015260640161051d565b600181015461010090046001600160a01b03163314611c0b5760405162461bcd60e51b815260040161051d906124d9565b6006810154610100900460ff16611c515760405162461bcd60e51b815260206004820152600a602482015269139bdd08199d5b99195960b21b604482015260640161051d565b60078101548210611c945760405162461bcd60e51b815260206004820152600d60248201526c26b4b632b9ba37b7329027a7a160991b604482015260640161051d565b6000816007018381548110611cab57611cab612527565b60009182526020909120600290910201600181015490915060ff1615611d065760405162461bcd60e51b815260206004820152601060248201526f105b1c9958591e481c995b19585cd95960821b604482015260640161051d565b6001810154610100900460ff16611d7a5760405162461bcd60e51b815260206004820152603260248201527f467265656c616e636572206e6f74206d61726b65642064656c69766572656420604482015271666f722074686973206d696c6573746f6e6560701b606482015260840161051d565b805460078301546000908290611d9290600190612514565b8603611e9d57600885015462010000900460ff1615611de75760405162461bcd60e51b81526020600482015260116024820152702332b29030b63932b0b23c903a30b5b2b760791b604482015260640161051d565b60646002548660030154611dfb9190612569565b611e059190612580565b915081831015611e7d5760405162461bcd60e51b815260206004820152603860248201527f4c617374206d696c6573746f6e65206d75737420636f7665722044414f20666560448201527f652028656e666f72636564206174206372656174696f6e290000000000000000606482015260840161051d565b611e878284612514565b60088601805462ff000019166201000017905590505b6001848101805460ff19169091179055600485018054849190600090611ec490849061253d565b909155506001905060005b6007870154811015611f2657866007018181548110611ef057611ef0612527565b600091825260209091206001600290920201015460ff16611f145760009150611f26565b80611f1e81612550565b915050611ecf565b508015611f525760088601805460ff199081166001179091556006870180549091166003179055611f62565b60068601805460ff191660011790555b8115611f80576002860154611f80906001600160a01b0316836121dd565b8215611f9c57600354611f9c906001600160a01b0316846121dd565b604080518381526020810185905288918a917f5e85b5843cdd9b3b8d34f7241a238e9638486675925145ab71603fdbdb58c37c910160405180910390a3505050505050611fe860018055565b5050565b611ff4612186565b6001600160a01b03811661201e57604051631e4fbdf760e01b81526000600482015260240161051d565b6108ab8161227e565b600080341161206c5760405162461bcd60e51b815260206004820152601160248201527004d7573742066756e64206a6f62203e203607c1b604482015260640161051d565b600480546000918261207d83612550565b909155506000818152600560208181526040808420858155600180820180546001600160a81b031916336101008181029290921790925534600385019081556004850189905542978501979097556006808501805461ffff19168317905560088501805461ff001916909217909155818852855283872080549283018155875293862001869055925490519495509193909285927fc5461520f114105e6a66205aa617e182d057dc7942f09aeffd1b9b9e18542c6b9261213e9291906125a2565b60405180910390a3817f9d25c5cf940eed311c45e5a0b4c7c8790a356d3c356453b76bb7e232db3f384a3460405161217891815260200190565b60405180910390a250919050565b6000546001600160a01b03163314610b725760405163118cdaa760e01b815233600482015260240161051d565b6002600154036121d657604051633ee5aeb560e01b815260040160405180910390fd5b6002600155565b806000036121e9575050565b6000826001600160a01b03168260405160006040518083038185875af1925050503d8060008114612236576040519150601f19603f3d011682016040523d82523d6000602084013e61223b565b606091505b50509050806113b65760405162461bcd60e51b815260206004820152600f60248201526e151c985b9cd9995c8819985a5b1959608a1b604482015260640161051d565b600080546001600160a01b038381166001600160a01b0319831681178455604051919092169283917f8be0079c531659141344cd1fd0a4f28419497f9722a3daafe3b4186f6b6457e09190a35050565b6000602082840312156122e057600080fd5b5035919050565b80356001600160a01b03811681146122fe57600080fd5b919050565b6000806040838503121561231657600080fd5b61231f836122e7565b946020939093013593505050565b634e487b7160e01b600052602160045260246000fd5b600281106123535761235361232d565b9052565b8a8152610140810161236c602083018c612343565b6001600160a01b038a81166040840152891660608301526080820188905260a08201879052600786106123a1576123a161232d565b60c082019590955260e08101939093529015156101008301521515610120909101529695505050505050565b600080604083850312156123e057600080fd5b50508035926020909101359150565b6000806040838503121561240257600080fd5b82359150612412602084016122e7565b90509250929050565b60006020828403121561242d57600080fd5b612436826122e7565b9392505050565b6000806020838503121561245057600080fd5b823567ffffffffffffffff8082111561246857600080fd5b818501915085601f83011261247c57600080fd5b81358181111561248b57600080fd5b8660208260051b85010111156124a057600080fd5b60209290920196919550909350505050565b6020808252600d908201526c129bd8881b9bdd08195e1a5cdd609a1b604082015260600190565b6020808252600b908201526a13db9b1e4818db1a595b9d60aa1b604082015260600190565b634e487b7160e01b600052601160045260246000fd5b81810381811115611860576118606124fe565b634e487b7160e01b600052603260045260246000fd5b80820180821115611860576118606124fe565b600060018201612562576125626124fe565b5060010190565b8082028115828204841417611860576118606124fe565b60008261259d57634e487b7160e01b600052601260045260246000fd5b500490565b604081016125b08285612343565b826020830152939250505056fea26469706673582212203a75a024ccc1c772962783b1d03256d7548f49ce8e48045b477a7325b17e41e064736f6c63430008140033",
  "linkReferences": {},
  "deployedLinkReferences": {}
}