{
  "_format": "hh-sol-artifact-1",
  "contractName": "FreelanceDAODisputeContract",
  "sourceName": "contracts/FreeLanceDAODisputeContract.sol",
  "abi": [
    {
      "inputs": [
        {
          "internalType": "uint256",
          "name": "_quorum",
          "type": "uint256"
        }
      ],
      "stateMutability": "nonpayable",
      "type": "constructor"
    },
    {
      "inputs": [
        {
          "internalType": "address",
          "name": "owner",
          "type": "address"
        }
      ],
      "name": "OwnableInvalidOwner",
      "type": "error"
    },
    {
      "inputs": [
        {
          "internalType": "address",
          "name": "account",
          "type": "address"
        }
      ],
      "name": "OwnableUnauthorizedAccount",
      "type": "error"
    },
    {
      "inputs": [],
      "name": "ReentrancyGuardReentrantCall",
      "type": "error"
    },
    {
      "anonymous": false,
      "inputs": [
        {
          "indexed": true,
          "internalType": "address",
          "name": "member",
          "type": "address"
        }
      ],
      "name": "DaoMemberAdded",
      "type": "event"
    },
    {
      "anonymous": false,
      "inputs": [
        {
          "indexed": true,
          "internalType": "address",
          "name": "member",
          "type": "address"
        }
      ],
      "name": "DaoMemberRemoved",
      "type": "event"
    },
    {
      "anonymous": false,
      "inputs": [
        {
          "indexed": true,
          "internalType": "uint256",
          "name": "disputeId",
          "type": "uint256"
        },
        {
          "indexed": true,
          "internalType": "uint256",
          "name": "jobId",
          "type": "uint256"
        },
        {
          "indexed": true,
          "internalType": "address",
          "name": "client",
          "type": "address"
        },
        {
          "indexed": false,
          "internalType": "address",
          "name": "freelancer",
          "type": "address"
        },
        {
          "indexed": false,
          "internalType": "string",
          "name": "description",
          "type": "string"
        }
      ],
      "name": "DisputeCreated",
      "type": "event"
    },
    {
      "anonymous": false,
      "inputs": [
        {
          "indexed": true,
          "internalType": "uint256",
          "name": "disputeId",
          "type": "uint256"
        },
        {
          "indexed": true,
          "internalType": "address",
          "name": "winner",
          "type": "address"
        },
        {
          "indexed": false,
          "internalType": "enum FreelanceDAODisputeContract.DisputeStatus",
          "name": "status",
          "type": "uint8"
        }
      ],
      "name": "DisputeResolved",
      "type": "event"
    },
    {
      "anonymous": false,
      "inputs": [
        {
          "indexed": true,
          "internalType": "address",
          "name": "previousOwner",
          "type": "address"
        },
        {
          "indexed": true,
          "internalType": "address",
          "name": "newOwner",
          "type": "address"
        }
      ],
      "name": "OwnershipTransferred",
      "type": "event"
    },
    {
      "anonymous": false,
      "inputs": [
        {
          "indexed": true,
          "internalType": "uint256",
          "name": "disputeId",
          "type": "uint256"
        },
        {
          "indexed": true,
          "internalType": "address",
          "name": "voter",
          "type": "address"
        },
        {
          "indexed": false,
          "internalType": "string",
          "name": "side",
          "type": "string"
        }
      ],
      "name": "VoteCast",
      "type": "event"
    },
    {
      "inputs": [
        {
          "internalType": "address",
          "name": "member",
          "type": "address"
        }
      ],
      "name": "addDaoMember",
      "outputs": [],
      "stateMutability": "nonpayable",
      "type": "function"
    },
    {
      "inputs": [
        {
          "internalType": "uint256",
          "name": "jobId",
          "type": "uint256"
        },
        {
          "internalType": "address",
          "name": "freelancer",
          "type": "address"
        },
        {
          "internalType": "string",
          "name": "description",
          "type": "string"
        }
      ],
      "name": "createDispute",
      "outputs": [
        {
          "internalType": "uint256",
          "name": "",
          "type": "uint256"
        }
      ],
      "stateMutability": "nonpayable",
      "type": "function"
    },
    {
      "inputs": [
        {
          "internalType": "address",
          "name": "",
          "type": "address"
        }
      ],
      "name": "daoMembers",
      "outputs": [
        {
          "internalType": "bool",
          "name": "",
          "type": "bool"
        }
      ],
      "stateMutability": "view",
      "type": "function"
    },
    {
      "inputs": [
        {
          "internalType": "uint256",
          "name": "",
          "type": "uint256"
        },
        {
          "internalType": "address",
          "name": "",
          "type": "address"
        }
      ],
      "name": "disputeVotes",
      "outputs": [
        {
          "internalType": "bool",
          "name": "",
          "type": "bool"
        }
      ],
      "stateMutability": "view",
      "type": "function"
    },
    {
      "inputs": [
        {
          "internalType": "uint256",
          "name": "disputeId",
          "type": "uint256"
        }
      ],
      "name": "getDispute",
      "outputs": [
        {
          "internalType": "uint256",
          "name": "id",
          "type": "uint256"
        },
        {
          "internalType": "uint256",
          "name": "jobId",
          "type": "uint256"
        },
        {
          "internalType": "address",
          "name": "client",
          "type": "address"
        },
        {
          "internalType": "address",
          "name": "freelancer",
          "type": "address"
        },
        {
          "internalType": "string",
          "name": "description",
          "type": "string"
        },
        {
          "internalType": "uint256",
          "name": "votesForClient",
          "type": "uint256"
        },
        {
          "internalType": "uint256",
          "name": "votesForFreelancer",
          "type": "uint256"
        },
        {
          "internalType": "enum FreelanceDAODisputeContract.DisputeStatus",
          "name": "status",
          "type": "uint8"
        },
        {
          "internalType": "address",
          "name": "winner",
          "type": "address"
        }
      ],
      "stateMutability": "view",
      "type": "function"
    },
    {
      "inputs": [],
      "name": "nextDisputeId",
      "outputs": [
        {
          "internalType": "uint256",
          "name": "",
          "type": "uint256"
        }
      ],
      "stateMutability": "view",
      "type": "function"
    },
    {
      "inputs": [],
      "name": "owner",
      "outputs": [
        {
          "internalType": "address",
          "name": "",
          "type": "address"
        }
      ],
      "stateMutability": "view",
      "type": "function"
    },
    {
      "inputs": [],
      "name": "quorum",
      "outputs": [
        {
          "internalType": "uint256",
          "name": "",
          "type": "uint256"
        }
      ],
      "stateMutability": "view",
      "type": "function"
    },
    {
      "inputs": [
        {
          "internalType": "address",
          "name": "member",
          "type": "address"
        }
      ],
      "name": "removeDaoMember",
      "outputs": [],
      "stateMutability": "nonpayable",
      "type": "function"
    },
    {
      "inputs": [],
      "name": "renounceOwnership",
      "outputs": [],
      "stateMutability": "nonpayable",
      "type": "function"
    },
    {
      "inputs": [
        {
          "internalType": "uint256",
          "name": "_newQuorum",
          "type": "uint256"
        }
      ],
      "name": "setQuorum",
      "outputs": [],
      "stateMutability": "nonpayable",
      "type": "function"
    },
    {
      "inputs": [
        {
          "internalType": "address",
          "name": "newOwner",
          "type": "address"
        }
      ],
      "name": "transferOwnership",
      "outputs": [],
      "stateMutability": "nonpayable",
      "type": "function"
    },
    {
      "inputs": [
        {
          "internalType": "uint256",
          "name": "disputeId",
          "type": "uint256"
        },
        {
          "internalType": "bool",
          "name": "voteForClient",
          "type": "bool"
        }
      ],
      "name": "voteOnDispute",
      "outputs": [],
      "stateMutability": "nonpayable",
      "type": "function"
    }
  ],
  "bytecode": "0x608060405260016002553480156200001657600080fd5b50604051620023103803806200231083398181016040528101906200003c919062000223565b33600073ffffffffffffffffffffffffffffffffffffffff168173ffffffffffffffffffffffffffffffffffffffff1603620000b25760006040517f1e4fbdf7000000000000000000000000000000000000000000000000000000008152600401620000a991906200029a565b60405180910390fd5b620000c3816200011f60201b60201c565b50600180819055506000811162000111576040517f08c379a0000000000000000000000000000000000000000000000000000000008152600401620001089062000318565b60405180910390fd5b80600381905550506200033a565b60008060009054906101000a900473ffffffffffffffffffffffffffffffffffffffff169050816000806101000a81548173ffffffffffffffffffffffffffffffffffffffff021916908373ffffffffffffffffffffffffffffffffffffffff1602179055508173ffffffffffffffffffffffffffffffffffffffff168173ffffffffffffffffffffffffffffffffffffffff167f8be0079c531659141344cd1fd0a4f28419497f9722a3daafe3b4186f6b6457e060405160405180910390a35050565b600080fd5b6000819050919050565b620001fd81620001e8565b81146200020957600080fd5b50565b6000815190506200021d81620001f2565b92915050565b6000602082840312156200023c576200023b620001e3565b5b60006200024c848285016200020c565b91505092915050565b600073ffffffffffffffffffffffffffffffffffffffff82169050919050565b6000620002828262000255565b9050919050565b620002948162000275565b82525050565b6000602082019050620002b1600083018462000289565b92915050565b600082825260208201905092915050565b7f51756f72756d206d757374206265203e20300000000000000000000000000000600082015250565b600062000300601283620002b7565b91506200030d82620002c8565b602082019050919050565b600060208201905081810360008301526200033381620002f1565b9050919050565b611fc6806200034a6000396000f3fe608060405234801561001057600080fd5b50600436106100cf5760003560e01c8063864defa21161008c578063a4f5df1211610066578063a4f5df1214610200578063c1ba4e591461021c578063e3a96cbd14610238578063f2fde38b14610270576100cf565b8063864defa2146101965780638da5cb5b146101b2578063959068ea146101d0576100cf565b80630db39934146100d45780631703a018146100f2578063203d82cb146101105780635feaa01c14610140578063715018a61461015c578063721b877614610166575b600080fd5b6100dc61028c565b6040516100e99190611219565b60405180910390f35b6100fa610292565b6040516101079190611219565b60405180910390f35b61012a600480360381019061012591906112c8565b610298565b6040516101379190611323565b60405180910390f35b61015a6004803603810190610155919061133e565b6102c7565b005b6101646103f9565b005b610180600480360381019061017b91906113d0565b61040d565b60405161018d9190611219565b60405180910390f35b6101b060048036038101906101ab919061133e565b610606565b005b6101ba61071b565b6040516101c79190611453565b60405180910390f35b6101ea60048036038101906101e5919061133e565b610744565b6040516101f79190611323565b60405180910390f35b61021a6004803603810190610215919061149a565b610764565b005b610236600480360381019061023191906114da565b610aec565b005b610252600480360381019061024d91906114da565b610b41565b6040516102679998979695949392919061160e565b60405180910390f35b61028a6004803603810190610285919061133e565b610cfc565b005b60025481565b60035481565b60066020528160005260406000206020528060005260406000206000915091509054906101000a900460ff1681565b6102cf610d82565b600460008273ffffffffffffffffffffffffffffffffffffffff1673ffffffffffffffffffffffffffffffffffffffff16815260200190815260200160002060009054906101000a900460ff1661035b576040517f08c379a0000000000000000000000000000000000000000000000000000000008152600401610352906116ee565b60405180910390fd5b6000600460008373ffffffffffffffffffffffffffffffffffffffff1673ffffffffffffffffffffffffffffffffffffffff16815260200190815260200160002060006101000a81548160ff0219169083151502179055508073ffffffffffffffffffffffffffffffffffffffff167f1806bec4ba806283d7bedad066d84ceeaac768b71c22e1743d9508650135a3f360405160405180910390a250565b610401610d82565b61040b6000610e09565b565b60008073ffffffffffffffffffffffffffffffffffffffff168473ffffffffffffffffffffffffffffffffffffffff160361047d576040517f08c379a00000000000000000000000000000000000000000000000000000000081526004016104749061175a565b60405180910390fd5b600060026000815480929190610492906117a9565b9190505590506000600560008381526020019081526020016000209050818160000181905550868160010181905550338160020160006101000a81548173ffffffffffffffffffffffffffffffffffffffff021916908373ffffffffffffffffffffffffffffffffffffffff160217905550858160030160006101000a81548173ffffffffffffffffffffffffffffffffffffffff021916908373ffffffffffffffffffffffffffffffffffffffff160217905550848482600401918261055a929190611a37565b5060008160070160006101000a81548160ff0219169083600381111561058357610582611597565b5b021790555060018160070160156101000a81548160ff0219169083151502179055503373ffffffffffffffffffffffffffffffffffffffff1687837f9aa7f961d449c9d85c37435d8c5d901477931ad97d51f48a6a278911166d15868989896040516105f193929190611b43565b60405180910390a48192505050949350505050565b61060e610d82565b600073ffffffffffffffffffffffffffffffffffffffff168173ffffffffffffffffffffffffffffffffffffffff160361067d576040517f08c379a000000000000000000000000000000000000000000000000000000000815260040161067490611bc1565b60405180910390fd5b6001600460008373ffffffffffffffffffffffffffffffffffffffff1673ffffffffffffffffffffffffffffffffffffffff16815260200190815260200160002060006101000a81548160ff0219169083151502179055508073ffffffffffffffffffffffffffffffffffffffff167f35b658d712e45f976c17007529cd1cb687614e83ce49a1ee563570ac818452e660405160405180910390a250565b60008060009054906101000a900473ffffffffffffffffffffffffffffffffffffffff16905090565b60046020528060005260406000206000915054906101000a900460ff1681565b61076c610ecd565b600460003373ffffffffffffffffffffffffffffffffffffffff1673ffffffffffffffffffffffffffffffffffffffff16815260200190815260200160002060009054906101000a900460ff166107f8576040517f08c379a00000000000000000000000000000000000000000000000000000000081526004016107ef90611c2d565b60405180910390fd5b60006005600084815260200190815260200160002090508060070160159054906101000a900460ff16610860576040517f08c379a000000000000000000000000000000000000000000000000000000000815260040161085790611c99565b60405180910390fd5b6000600381111561087457610873611597565b5b8160070160009054906101000a900460ff16600381111561089857610897611597565b5b146108d8576040517f08c379a00000000000000000000000000000000000000000000000000000000081526004016108cf90611d05565b60405180910390fd5b6006600084815260200190815260200160002060003373ffffffffffffffffffffffffffffffffffffffff1673ffffffffffffffffffffffffffffffffffffffff16815260200190815260200160002060009054906101000a900460ff1615610976576040517f08c379a000000000000000000000000000000000000000000000000000000000815260040161096d90611d71565b60405180910390fd5b60016006600085815260200190815260200160002060003373ffffffffffffffffffffffffffffffffffffffff1673ffffffffffffffffffffffffffffffffffffffff16815260200190815260200160002060006101000a81548160ff0219169083151502179055508115610a51578060050160008154809291906109fa906117a9565b91905055503373ffffffffffffffffffffffffffffffffffffffff16837ff707341d6361ac6d7fe6b6db1fbb91b1d8634754ce51f2244ccbfab475d327f4604051610a4490611ddd565b60405180910390a3610ab9565b806006016000815480929190610a66906117a9565b91905055503373ffffffffffffffffffffffffffffffffffffffff16837ff707341d6361ac6d7fe6b6db1fbb91b1d8634754ce51f2244ccbfab475d327f4604051610ab090611e49565b60405180910390a35b60035481600601548260050154610ad09190611e69565b10610adf57610ade83610f13565b5b50610ae86111ef565b5050565b610af4610d82565b60008111610b37576040517f08c379a0000000000000000000000000000000000000000000000000000000008152600401610b2e90611ee9565b60405180910390fd5b8060038190555050565b60008060008060606000806000806000600560008c815260200190815260200160002090508060070160159054906101000a900460ff16610bb7576040517f08c379a0000000000000000000000000000000000000000000000000000000008152600401610bae90611c99565b60405180910390fd5b806000015481600101548260020160009054906101000a900473ffffffffffffffffffffffffffffffffffffffff168360030160009054906101000a900473ffffffffffffffffffffffffffffffffffffffff1684600401856005015486600601548760070160009054906101000a900460ff168860070160019054906101000a900473ffffffffffffffffffffffffffffffffffffffff16848054610c5c9061185a565b80601f0160208091040260200160405190810160405280929190818152602001828054610c889061185a565b8015610cd55780601f10610caa57610100808354040283529160200191610cd5565b820191906000526020600020905b815481529060010190602001808311610cb857829003601f168201915b50505050509450995099509950995099509950995099509950509193959799909294969850565b610d04610d82565b600073ffffffffffffffffffffffffffffffffffffffff168173ffffffffffffffffffffffffffffffffffffffff1603610d765760006040517f1e4fbdf7000000000000000000000000000000000000000000000000000000008152600401610d6d9190611453565b60405180910390fd5b610d7f81610e09565b50565b610d8a6111f8565b73ffffffffffffffffffffffffffffffffffffffff16610da861071b565b73ffffffffffffffffffffffffffffffffffffffff1614610e0757610dcb6111f8565b6040517f118cdaa7000000000000000000000000000000000000000000000000000000008152600401610dfe9190611453565b60405180910390fd5b565b60008060009054906101000a900473ffffffffffffffffffffffffffffffffffffffff169050816000806101000a81548173ffffffffffffffffffffffffffffffffffffffff021916908373ffffffffffffffffffffffffffffffffffffffff1602179055508173ffffffffffffffffffffffffffffffffffffffff168173ffffffffffffffffffffffffffffffffffffffff167f8be0079c531659141344cd1fd0a4f28419497f9722a3daafe3b4186f6b6457e060405160405180910390a35050565b600260015403610f09576040517f3ee5aeb500000000000000000000000000000000000000000000000000000000815260040160405180910390fd5b6002600181905550565b600060056000838152602001908152602001600020905060006003811115610f3e57610f3d611597565b5b8160070160009054906101000a900460ff166003811115610f6257610f61611597565b5b14610fa2576040517f08c379a0000000000000000000000000000000000000000000000000000000008152600401610f9990611f55565b60405180910390fd5b80600601548160050154111561104b5760038160070160006101000a81548160ff02191690836003811115610fda57610fd9611597565b5b02179055508060020160009054906101000a900473ffffffffffffffffffffffffffffffffffffffff168160070160016101000a81548173ffffffffffffffffffffffffffffffffffffffff021916908373ffffffffffffffffffffffffffffffffffffffff160217905550611167565b8060050154816006015411156110f45760038160070160006101000a81548160ff0219169083600381111561108357611082611597565b5b02179055508060030160009054906101000a900473ffffffffffffffffffffffffffffffffffffffff168160070160016101000a81548173ffffffffffffffffffffffffffffffffffffffff021916908373ffffffffffffffffffffffffffffffffffffffff160217905550611166565b60028160070160006101000a81548160ff0219169083600381111561111c5761111b611597565b5b021790555060008160070160016101000a81548173ffffffffffffffffffffffffffffffffffffffff021916908373ffffffffffffffffffffffffffffffffffffffff1602179055505b5b8060070160019054906101000a900473ffffffffffffffffffffffffffffffffffffffff1673ffffffffffffffffffffffffffffffffffffffff16827f0a1a08d07b8bb2ef5e6eea14f3719239138f1ce03a4ceea3196c1000a265c12a8360070160009054906101000a900460ff166040516111e39190611f75565b60405180910390a35050565b60018081905550565b600033905090565b6000819050919050565b61121381611200565b82525050565b600060208201905061122e600083018461120a565b92915050565b600080fd5b600080fd5b61124781611200565b811461125257600080fd5b50565b6000813590506112648161123e565b92915050565b600073ffffffffffffffffffffffffffffffffffffffff82169050919050565b60006112958261126a565b9050919050565b6112a58161128a565b81146112b057600080fd5b50565b6000813590506112c28161129c565b92915050565b600080604083850312156112df576112de611234565b5b60006112ed85828601611255565b92505060206112fe858286016112b3565b9150509250929050565b60008115159050919050565b61131d81611308565b82525050565b60006020820190506113386000830184611314565b92915050565b60006020828403121561135457611353611234565b5b6000611362848285016112b3565b91505092915050565b600080fd5b600080fd5b600080fd5b60008083601f8401126113905761138f61136b565b5b8235905067ffffffffffffffff8111156113ad576113ac611370565b5b6020830191508360018202830111156113c9576113c8611375565b5b9250929050565b600080600080606085870312156113ea576113e9611234565b5b60006113f887828801611255565b9450506020611409878288016112b3565b935050604085013567ffffffffffffffff81111561142a57611429611239565b5b6114368782880161137a565b925092505092959194509250565b61144d8161128a565b82525050565b60006020820190506114686000830184611444565b92915050565b61147781611308565b811461148257600080fd5b50565b6000813590506114948161146e565b92915050565b600080604083850312156114b1576114b0611234565b5b60006114bf85828601611255565b92505060206114d085828601611485565b9150509250929050565b6000602082840312156114f0576114ef611234565b5b60006114fe84828501611255565b91505092915050565b600081519050919050565b600082825260208201905092915050565b60005b83811015611541578082015181840152602081019050611526565b60008484015250505050565b6000601f19601f8301169050919050565b600061156982611507565b6115738185611512565b9350611583818560208601611523565b61158c8161154d565b840191505092915050565b7f4e487b7100000000000000000000000000000000000000000000000000000000600052602160045260246000fd5b600481106115d7576115d6611597565b5b50565b60008190506115e8826115c6565b919050565b60006115f8826115da565b9050919050565b611608816115ed565b82525050565b600061012082019050611624600083018c61120a565b611631602083018b61120a565b61163e604083018a611444565b61164b6060830189611444565b818103608083015261165d818861155e565b905061166c60a083018761120a565b61167960c083018661120a565b61168660e08301856115ff565b611694610100830184611444565b9a9950505050505050505050565b7f4e6f7420612044414f206d656d62657200000000000000000000000000000000600082015250565b60006116d8601083611512565b91506116e3826116a2565b602082019050919050565b60006020820190508181036000830152611707816116cb565b9050919050565b7f496e76616c696420667265656c616e6365720000000000000000000000000000600082015250565b6000611744601283611512565b915061174f8261170e565b602082019050919050565b6000602082019050818103600083015261177381611737565b9050919050565b7f4e487b7100000000000000000000000000000000000000000000000000000000600052601160045260246000fd5b60006117b482611200565b91507fffffffffffffffffffffffffffffffffffffffffffffffffffffffffffffffff82036117e6576117e561177a565b5b600182019050919050565b600082905092915050565b7f4e487b7100000000000000000000000000000000000000000000000000000000600052604160045260246000fd5b7f4e487b7100000000000000000000000000000000000000000000000000000000600052602260045260246000fd5b6000600282049050600182168061187257607f821691505b6020821081036118855761188461182b565b5b50919050565b60008190508160005260206000209050919050565b60006020601f8301049050919050565b600082821b905092915050565b6000600883026118ed7fffffffffffffffffffffffffffffffffffffffffffffffffffffffffffffffff826118b0565b6118f786836118b0565b95508019841693508086168417925050509392505050565b6000819050919050565b600061193461192f61192a84611200565b61190f565b611200565b9050919050565b6000819050919050565b61194e83611919565b61196261195a8261193b565b8484546118bd565b825550505050565b600090565b61197761196a565b611982818484611945565b505050565b5b818110156119a65761199b60008261196f565b600181019050611988565b5050565b601f8211156119eb576119bc8161188b565b6119c5846118a0565b810160208510156119d4578190505b6119e86119e0856118a0565b830182611987565b50505b505050565b600082821c905092915050565b6000611a0e600019846008026119f0565b1980831691505092915050565b6000611a2783836119fd565b9150826002028217905092915050565b611a4183836117f1565b67ffffffffffffffff811115611a5a57611a596117fc565b5b611a64825461185a565b611a6f8282856119aa565b6000601f831160018114611a9e5760008415611a8c578287013590505b611a968582611a1b565b865550611afe565b601f198416611aac8661188b565b60005b82811015611ad457848901358255600182019150602085019450602081019050611aaf565b86831015611af15784890135611aed601f8916826119fd565b8355505b6001600288020188555050505b50505050505050565b82818337600083830152505050565b6000611b228385611512565b9350611b2f838584611b07565b611b388361154d565b840190509392505050565b6000604082019050611b586000830186611444565b8181036020830152611b6b818486611b16565b9050949350505050565b7f496e76616c6964206d656d626572000000000000000000000000000000000000600082015250565b6000611bab600e83611512565b9150611bb682611b75565b602082019050919050565b60006020820190508181036000830152611bda81611b9e565b9050919050565b7f4f6e6c792044414f206d656d626572732063616e20766f746500000000000000600082015250565b6000611c17601983611512565b9150611c2282611be1565b602082019050919050565b60006020820190508181036000830152611c4681611c0a565b9050919050565b7f44697370757465206e6f7420666f756e64000000000000000000000000000000600082015250565b6000611c83601183611512565b9150611c8e82611c4d565b602082019050919050565b60006020820190508181036000830152611cb281611c76565b9050919050565b7f4469737075746520636c6f736564000000000000000000000000000000000000600082015250565b6000611cef600e83611512565b9150611cfa82611cb9565b602082019050919050565b60006020820190508181036000830152611d1e81611ce2565b9050919050565b7f416c726561647920766f74656400000000000000000000000000000000000000600082015250565b6000611d5b600d83611512565b9150611d6682611d25565b602082019050919050565b60006020820190508181036000830152611d8a81611d4e565b9050919050565b7f434c49454e540000000000000000000000000000000000000000000000000000600082015250565b6000611dc7600683611512565b9150611dd282611d91565b602082019050919050565b60006020820190508181036000830152611df681611dba565b9050919050565b7f465245454c414e43455200000000000000000000000000000000000000000000600082015250565b6000611e33600a83611512565b9150611e3e82611dfd565b602082019050919050565b60006020820190508181036000830152611e6281611e26565b9050919050565b6000611e7482611200565b9150611e7f83611200565b9250828201905080821115611e9757611e9661177a565b5b92915050565b7f51756f72756d206d757374206265203e20300000000000000000000000000000600082015250565b6000611ed3601283611512565b9150611ede82611e9d565b602082019050919050565b60006020820190508181036000830152611f0281611ec6565b9050919050565b7f416c7265616479207265736f6c76656400000000000000000000000000000000600082015250565b6000611f3f601083611512565b9150611f4a82611f09565b602082019050919050565b60006020820190508181036000830152611f6e81611f32565b9050919050565b6000602082019050611f8a60008301846115ff565b9291505056fea2646970667358221220a780e8a2f8da3e565f2d625ff315785bf90eb5efb619b56c94f80240537ad6a864736f6c63430008140033",
  "linkReferences": {},
  "deployedLinkReferences": {}
}