{
  "_format": "hh-sol-artifact-1",
  "contractName": "FreelanceDAOEscrowV2",
  "sourceName": "contracts/FreelanceDAOEscrowV2.sol",
  "abi": [
    {
      "inputs": [
        {
          "internalType": "address",
          "name": "_daoTreasury",
          "type": "address"
        },
        {
          "internalType": "address",
          "name": "_owner",
          "type": "address"
        }
      ],
      "stateMutability": "nonpayable",
      "type": "constructor"
    },
    {
      "inputs": [
        {
          "internalType": "address",
          "name": "owner",
          "type": "address"
        }
      ],
      "name": "OwnableInvalidOwner",
      "type": "error"
    },
    {
      "inputs": [
        {
          "internalType": "address",
          "name": "account",
          "type": "address"
        }
      ],
      "name": "OwnableUnauthorizedAccount",
      "type": "error"
    },
    {
      "inputs": [],
      "name": "ReentrancyGuardReentrantCall",
      "type": "error"
    },
    {
      "anonymous": false,
      "inputs": [
        {
          "indexed": true,
          "internalType": "address",
          "name": "freelancer",
          "type": "address"
        },
        {
          "indexed": false,
          "internalType": "uint256[]",
          "name": "jobIds",
          "type": "uint256[]"
        },
        {
          "indexed": false,
          "internalType": "uint256",
          "name": "totalNet",
          "type": "uint256"
        },
        {
          "indexed": false,
          "internalType": "uint256",
          "name": "totalFee",
          "type": "uint256"
        }
      ],
      "name": "BatchWithdrawal",
      "type": "event"
    },
    {
      "anonymous": false,
      "inputs": [
        {
          "indexed": false,
          "internalType": "address",
          "name": "oldTreasury",
          "type": "address"
        },
        {
          "indexed": false,
          "internalType": "address",
          "name": "newTreasury",
          "type": "address"
        }
      ],
      "name": "DaoTreasuryUpdated",
      "type": "event"
    },
    {
      "anonymous": false,
      "inputs": [
        {
          "indexed": true,
          "internalType": "uint256",
          "name": "jobId",
          "type": "uint256"
        },
        {
          "indexed": true,
          "internalType": "uint256",
          "name": "milestoneIndex",
          "type": "uint256"
        },
        {
          "indexed": true,
          "internalType": "address",
          "name": "provider",
          "type": "address"
        },
        {
          "indexed": false,
          "internalType": "bool",
          "name": "isLate",
          "type": "bool"
        }
      ],
      "name": "DeliveryMarked",
      "type": "event"
    },
    {
      "anonymous": false,
      "inputs": [
        {
          "indexed": false,
          "internalType": "address",
          "name": "oldContract",
          "type": "address"
        },
        {
          "indexed": false,
          "internalType": "address",
          "name": "newContract",
          "type": "address"
        }
      ],
      "name": "DisputeContractUpdated",
      "type": "event"
    },
    {
      "anonymous": false,
      "inputs": [
        {
          "indexed": true,
          "internalType": "uint256",
          "name": "jobId",
          "type": "uint256"
        },
        {
          "indexed": true,
          "internalType": "uint256",
          "name": "disputeId",
          "type": "uint256"
        },
        {
          "indexed": false,
          "internalType": "enum IEscrow.DisputeReason",
          "name": "reason",
          "type": "uint8"
        }
      ],
      "name": "DisputeNotificationReceived",
      "type": "event"
    },
    {
      "anonymous": false,
      "inputs": [
        {
          "indexed": true,
          "internalType": "uint256",
          "name": "jobId",
          "type": "uint256"
        },
        {
          "indexed": true,
          "internalType": "uint256",
          "name": "disputeId",
          "type": "uint256"
        },
        {
          "indexed": false,
          "internalType": "enum IEscrow.DisputeReason",
          "name": "reason",
          "type": "uint8"
        },
        {
          "indexed": false,
          "internalType": "address",
          "name": "winner",
          "type": "address"
        }
      ],
      "name": "DisputeResolutionReceived",
      "type": "event"
    },
    {
      "anonymous": false,
      "inputs": [
        {
          "indexed": true,
          "internalType": "uint256",
          "name": "jobId",
          "type": "uint256"
        },
        {
          "indexed": false,
          "internalType": "uint256",
          "name": "amount",
          "type": "uint256"
        }
      ],
      "name": "FixedJobConfirmed",
      "type": "event"
    },
    {
      "anonymous": false,
      "inputs": [
        {
          "indexed": true,
          "internalType": "uint256",
          "name": "jobId",
          "type": "uint256"
        }
      ],
      "name": "JobCancelled",
      "type": "event"
    },
    {
      "anonymous": false,
      "inputs": [
        {
          "indexed": true,
          "internalType": "uint256",
          "name": "jobId",
          "type": "uint256"
        },
        {
          "indexed": false,
          "internalType": "enum FreelanceDAOEscrowV2.JobType",
          "name": "jobType",
          "type": "uint8"
        },
        {
          "indexed": true,
          "internalType": "address",
          "name": "client",
          "type": "address"
        },
        {
          "indexed": false,
          "internalType": "uint256",
          "name": "totalAmount",
          "type": "uint256"
        },
        {
          "indexed": false,
          "internalType": "uint256",
          "name": "deadline",
          "type": "uint256"
        }
      ],
      "name": "JobCreated",
      "type": "event"
    },
    {
      "anonymous": false,
      "inputs": [
        {
          "indexed": true,
          "internalType": "uint256",
          "name": "jobId",
          "type": "uint256"
        },
        {
          "indexed": false,
          "internalType": "uint256",
          "name": "amount",
          "type": "uint256"
        }
      ],
      "name": "JobFunded",
      "type": "event"
    },
    {
      "anonymous": false,
      "inputs": [
        {
          "indexed": true,
          "internalType": "uint256",
          "name": "jobId",
          "type": "uint256"
        },
        {
          "indexed": false,
          "internalType": "uint256",
          "name": "refundedAmount",
          "type": "uint256"
        }
      ],
      "name": "JobRefunded",
      "type": "event"
    },
    {
      "anonymous": false,
      "inputs": [
        {
          "indexed": true,
          "internalType": "uint256",
          "name": "jobId",
          "type": "uint256"
        }
      ],
      "name": "LateDeliveryPenaltyApplied",
      "type": "event"
    },
    {
      "anonymous": false,
      "inputs": [
        {
          "indexed": true,
          "internalType": "uint256",
          "name": "jobId",
          "type": "uint256"
        },
        {
          "indexed": true,
          "internalType": "uint256",
          "name": "milestoneIndex",
          "type": "uint256"
        },
        {
          "indexed": false,
          "internalType": "uint256",
          "name": "amount",
          "type": "uint256"
        }
      ],
      "name": "MilestoneConfirmed",
      "type": "event"
    },
    {
      "anonymous": false,
      "inputs": [
        {
          "indexed": true,
          "internalType": "address",
          "name": "previousOwner",
          "type": "address"
        },
        {
          "indexed": true,
          "internalType": "address",
          "name": "newOwner",
          "type": "address"
        }
      ],
      "name": "OwnershipTransferred",
      "type": "event"
    },
    {
      "anonymous": false,
      "inputs": [
        {
          "indexed": true,
          "internalType": "uint256",
          "name": "jobId",
          "type": "uint256"
        },
        {
          "indexed": true,
          "internalType": "address",
          "name": "provider",
          "type": "address"
        }
      ],
      "name": "ProviderApproved",
      "type": "event"
    },
    {
      "anonymous": false,
      "inputs": [
        {
          "indexed": true,
          "internalType": "uint256",
          "name": "jobId",
          "type": "uint256"
        },
        {
          "indexed": true,
          "internalType": "address",
          "name": "provider",
          "type": "address"
        }
      ],
      "name": "ProviderRequested",
      "type": "event"
    },
    {
      "anonymous": false,
      "inputs": [
        {
          "indexed": false,
          "internalType": "address",
          "name": "to",
          "type": "address"
        },
        {
          "indexed": false,
          "internalType": "uint256",
          "name": "amount",
          "type": "uint256"
        }
      ],
      "name": "WithdrawDaoFees",
      "type": "event"
    },
    {
      "anonymous": false,
      "inputs": [
        {
          "indexed": true,
          "internalType": "uint256",
          "name": "jobId",
          "type": "uint256"
        },
        {
          "indexed": true,
          "internalType": "address",
          "name": "freelancer",
          "type": "address"
        },
        {
          "indexed": false,
          "internalType": "uint256",
          "name": "amountNet",
          "type": "uint256"
        },
        {
          "indexed": false,
          "internalType": "uint256",
          "name": "fee",
          "type": "uint256"
        },
        {
          "indexed": false,
          "internalType": "bool",
          "name": "isEarlyWithdrawal",
          "type": "bool"
        }
      ],
      "name": "WithdrawalMade",
      "type": "event"
    },
    {
      "inputs": [
        {
          "internalType": "uint256",
          "name": "jobId",
          "type": "uint256"
        },
        {
          "internalType": "address",
          "name": "provider",
          "type": "address"
        }
      ],
      "name": "approveProvider",
      "outputs": [],
      "stateMutability": "nonpayable",
      "type": "function"
    },
    {
      "inputs": [
        {
          "internalType": "uint256[]",
          "name": "jobIds",
          "type": "uint256[]"
        }
      ],
      "name": "batchWithdraw",
      "outputs": [],
      "stateMutability": "nonpayable",
      "type": "function"
    },
    {
      "inputs": [
        {
          "internalType": "uint256",
          "name": "jobId",
          "type": "uint256"
        }
      ],
      "name": "cancelJob",
      "outputs": [],
      "stateMutability": "nonpayable",
      "type": "function"
    },
    {
      "inputs": [
        {
          "internalType": "uint256",
          "name": "jobId",
          "type": "uint256"
        }
      ],
      "name": "clientRequestRefund",
      "outputs": [],
      "stateMutability": "nonpayable",
      "type": "function"
    },
    {
      "inputs": [
        {
          "internalType": "uint256",
          "name": "jobId",
          "type": "uint256"
        }
      ],
      "name": "confirmFixedJob",
      "outputs": [],
      "stateMutability": "nonpayable",
      "type": "function"
    },
    {
      "inputs": [
        {
          "internalType": "uint256",
          "name": "jobId",
          "type": "uint256"
        },
        {
          "internalType": "uint256",
          "name": "milestoneIndex",
          "type": "uint256"
        }
      ],
      "name": "confirmMilestone",
      "outputs": [],
      "stateMutability": "nonpayable",
      "type": "function"
    },
    {
      "inputs": [
        {
          "components": [
            {
              "internalType": "string",
              "name": "jobTitle",
              "type": "string"
            },
            {
              "internalType": "string",
              "name": "jobCategory",
              "type": "string"
            },
            {
              "internalType": "string",
              "name": "projectDescription",
              "type": "string"
            },
            {
              "internalType": "string[]",
              "name": "requiredSkills",
              "type": "string[]"
            },
            {
              "internalType": "string",
              "name": "projectDuration",
              "type": "string"
            },
            {
              "internalType": "uint256",
              "name": "minimumBudget",
              "type": "uint256"
            },
            {
              "internalType": "uint256",
              "name": "maximumBudget",
              "type": "uint256"
            },
            {
              "internalType": "uint256",
              "name": "deadline",
              "type": "uint256"
            }
          ],
          "internalType": "struct FreelanceDAOEscrowV2.JobParams",
          "name": "params",
          "type": "tuple"
        }
      ],
      "name": "createFixedJob",
      "outputs": [
        {
          "internalType": "uint256",
          "name": "",
          "type": "uint256"
        }
      ],
      "stateMutability": "payable",
      "type": "function"
    },
    {
      "inputs": [
        {
          "internalType": "uint256[]",
          "name": "milestoneAmounts",
          "type": "uint256[]"
        },
        {
          "components": [
            {
              "internalType": "string",
              "name": "jobTitle",
              "type": "string"
            },
            {
              "internalType": "string",
              "name": "jobCategory",
              "type": "string"
            },
            {
              "internalType": "string",
              "name": "projectDescription",
              "type": "string"
            },
            {
              "internalType": "string[]",
              "name": "requiredSkills",
              "type": "string[]"
            },
            {
              "internalType": "string",
              "name": "projectDuration",
              "type": "string"
            },
            {
              "internalType": "uint256",
              "name": "minimumBudget",
              "type": "uint256"
            },
            {
              "internalType": "uint256",
              "name": "maximumBudget",
              "type": "uint256"
            },
            {
              "internalType": "uint256",
              "name": "deadline",
              "type": "uint256"
            }
          ],
          "internalType": "struct FreelanceDAOEscrowV2.JobParams",
          "name": "params",
          "type": "tuple"
        }
      ],
      "name": "createMilestoneJob",
      "outputs": [
        {
          "internalType": "uint256",
          "name": "",
          "type": "uint256"
        }
      ],
      "stateMutability": "payable",
      "type": "function"
    },
    {
      "inputs": [],
      "name": "daoTreasury",
      "outputs": [
        {
          "internalType": "address",
          "name": "",
          "type": "address"
        }
      ],
      "stateMutability": "view",
      "type": "function"
    },
    {
      "inputs": [],
      "name": "disputeContract",
      "outputs": [
        {
          "internalType": "address",
          "name": "",
          "type": "address"
        }
      ],
      "stateMutability": "view",
      "type": "function"
    },
    {
      "inputs": [
        {
          "internalType": "uint256",
          "name": "",
          "type": "uint256"
        }
      ],
      "name": "freelancerEarnings",
      "outputs": [
        {
          "internalType": "uint256",
          "name": "",
          "type": "uint256"
        }
      ],
      "stateMutability": "view",
      "type": "function"
    },
    {
      "inputs": [
        {
          "internalType": "uint256",
          "name": "jobId",
          "type": "uint256"
        }
      ],
      "name": "fundJob",
      "outputs": [],
      "stateMutability": "payable",
      "type": "function"
    },
    {
      "inputs": [],
      "name": "getAllJobs",
      "outputs": [
        {
          "components": [
            {
              "internalType": "uint256",
              "name": "jobId",
              "type": "uint256"
            },
            {
              "internalType": "enum FreelanceDAOEscrowV2.JobType",
              "name": "jobType",
              "type": "uint8"
            },
            {
              "internalType": "address",
              "name": "client",
              "type": "address"
            },
            {
              "internalType": "address",
              "name": "freelancer",
              "type": "address"
            },
            {
              "internalType": "uint256",
              "name": "totalAmount",
              "type": "uint256"
            },
            {
              "internalType": "uint256",
              "name": "minimumBudget",
              "type": "uint256"
            },
            {
              "internalType": "uint256",
              "name": "maximumBudget",
              "type": "uint256"
            },
            {
              "internalType": "uint256",
              "name": "confirmedAmount",
              "type": "uint256"
            },
            {
              "internalType": "uint256",
              "name": "withdrawnAmount",
              "type": "uint256"
            },
            {
              "internalType": "uint256",
              "name": "createdAt",
              "type": "uint256"
            },
            {
              "internalType": "uint256",
              "name": "deadline",
              "type": "uint256"
            },
            {
              "internalType": "enum FreelanceDAOEscrowV2.Status",
              "name": "status",
              "type": "uint8"
            },
            {
              "internalType": "bool",
              "name": "funded",
              "type": "bool"
            },
            {
              "internalType": "bool",
              "name": "lateDeliveryPenalty",
              "type": "bool"
            },
            {
              "internalType": "bool",
              "name": "isLate",
              "type": "bool"
            },
            {
              "components": [
                {
                  "internalType": "uint256",
                  "name": "amount",
                  "type": "uint256"
                },
                {
                  "internalType": "bool",
                  "name": "confirmed",
                  "type": "bool"
                },
                {
                  "internalType": "bool",
                  "name": "delivered",
                  "type": "bool"
                },
                {
                  "internalType": "bool",
                  "name": "withdrawn",
                  "type": "bool"
                },
                {
                  "internalType": "uint256",
                  "name": "withdrawnAt",
                  "type": "uint256"
                }
              ],
              "internalType": "struct FreelanceDAOEscrowV2.Milestone[]",
              "name": "milestones",
              "type": "tuple[]"
            },
            {
              "internalType": "string",
              "name": "jobTitle",
              "type": "string"
            },
            {
              "internalType": "string",
              "name": "jobCategory",
              "type": "string"
            },
            {
              "internalType": "string",
              "name": "projectDescription",
              "type": "string"
            },
            {
              "internalType": "string[]",
              "name": "requiredSkills",
              "type": "string[]"
            },
            {
              "internalType": "string",
              "name": "projectDuration",
              "type": "string"
            },
            {
              "internalType": "bool",
              "name": "exists",
              "type": "bool"
            }
          ],
          "internalType": "struct FreelanceDAOEscrowV2.Job[]",
          "name": "",
          "type": "tuple[]"
        }
      ],
      "stateMutability": "view",
      "type": "function"
    },
    {
      "inputs": [
        {
          "internalType": "uint256",
          "name": "jobId",
          "type": "uint256"
        }
      ],
      "name": "getAvailableWithdrawal",
      "outputs": [
        {
          "internalType": "uint256",
          "name": "",
          "type": "uint256"
        }
      ],
      "stateMutability": "view",
      "type": "function"
    },
    {
      "inputs": [
        {
          "internalType": "address",
          "name": "freelancer",
          "type": "address"
        }
      ],
      "name": "getFreelancerJobs",
      "outputs": [
        {
          "internalType": "uint256[]",
          "name": "",
          "type": "uint256[]"
        }
      ],
      "stateMutability": "view",
      "type": "function"
    },
    {
      "inputs": [
        {
          "internalType": "uint256",
          "name": "jobId",
          "type": "uint256"
        }
      ],
      "name": "getJob",
      "outputs": [
        {
          "components": [
            {
              "internalType": "uint256",
              "name": "jobId",
              "type": "uint256"
            },
            {
              "internalType": "enum FreelanceDAOEscrowV2.JobType",
              "name": "jobType",
              "type": "uint8"
            },
            {
              "internalType": "address",
              "name": "client",
              "type": "address"
            },
            {
              "internalType": "address",
              "name": "freelancer",
              "type": "address"
            },
            {
              "internalType": "uint256",
              "name": "totalAmount",
              "type": "uint256"
            },
            {
              "internalType": "uint256",
              "name": "minimumBudget",
              "type": "uint256"
            },
            {
              "internalType": "uint256",
              "name": "maximumBudget",
              "type": "uint256"
            },
            {
              "internalType": "uint256",
              "name": "confirmedAmount",
              "type": "uint256"
            },
            {
              "internalType": "uint256",
              "name": "withdrawnAmount",
              "type": "uint256"
            },
            {
              "internalType": "uint256",
              "name": "createdAt",
              "type": "uint256"
            },
            {
              "internalType": "uint256",
              "name": "deadline",
              "type": "uint256"
            },
            {
              "internalType": "enum FreelanceDAOEscrowV2.Status",
              "name": "status",
              "type": "uint8"
            },
            {
              "internalType": "bool",
              "name": "funded",
              "type": "bool"
            },
            {
              "internalType": "bool",
              "name": "lateDeliveryPenalty",
              "type": "bool"
            },
            {
              "internalType": "bool",
              "name": "isLate",
              "type": "bool"
            },
            {
              "components": [
                {
                  "internalType": "uint256",
                  "name": "amount",
                  "type": "uint256"
                },
                {
                  "internalType": "bool",
                  "name": "confirmed",
                  "type": "bool"
                },
                {
                  "internalType": "bool",
                  "name": "delivered",
                  "type": "bool"
                },
                {
                  "internalType": "bool",
                  "name": "withdrawn",
                  "type": "bool"
                },
                {
                  "internalType": "uint256",
                  "name": "withdrawnAt",
                  "type": "uint256"
                }
              ],
              "internalType": "struct FreelanceDAOEscrowV2.Milestone[]",
              "name": "milestones",
              "type": "tuple[]"
            },
            {
              "internalType": "string",
              "name": "jobTitle",
              "type": "string"
            },
            {
              "internalType": "string",
              "name": "jobCategory",
              "type": "string"
            },
            {
              "internalType": "string",
              "name": "projectDescription",
              "type": "string"
            },
            {
              "internalType": "string[]",
              "name": "requiredSkills",
              "type": "string[]"
            },
            {
              "internalType": "string",
              "name": "projectDuration",
              "type": "string"
            },
            {
              "internalType": "bool",
              "name": "exists",
              "type": "bool"
            }
          ],
          "internalType": "struct FreelanceDAOEscrowV2.Job",
          "name": "",
          "type": "tuple"
        }
      ],
      "stateMutability": "view",
      "type": "function"
    },
    {
      "inputs": [
        {
          "internalType": "address",
          "name": "client",
          "type": "address"
        }
      ],
      "name": "getJobsByClient",
      "outputs": [
        {
          "components": [
            {
              "internalType": "uint256",
              "name": "jobId",
              "type": "uint256"
            },
            {
              "internalType": "enum FreelanceDAOEscrowV2.JobType",
              "name": "jobType",
              "type": "uint8"
            },
            {
              "internalType": "address",
              "name": "client",
              "type": "address"
            },
            {
              "internalType": "address",
              "name": "freelancer",
              "type": "address"
            },
            {
              "internalType": "uint256",
              "name": "totalAmount",
              "type": "uint256"
            },
            {
              "internalType": "uint256",
              "name": "minimumBudget",
              "type": "uint256"
            },
            {
              "internalType": "uint256",
              "name": "maximumBudget",
              "type": "uint256"
            },
            {
              "internalType": "uint256",
              "name": "confirmedAmount",
              "type": "uint256"
            },
            {
              "internalType": "uint256",
              "name": "withdrawnAmount",
              "type": "uint256"
            },
            {
              "internalType": "uint256",
              "name": "createdAt",
              "type": "uint256"
            },
            {
              "internalType": "uint256",
              "name": "deadline",
              "type": "uint256"
            },
            {
              "internalType": "enum FreelanceDAOEscrowV2.Status",
              "name": "status",
              "type": "uint8"
            },
            {
              "internalType": "bool",
              "name": "funded",
              "type": "bool"
            },
            {
              "internalType": "bool",
              "name": "lateDeliveryPenalty",
              "type": "bool"
            },
            {
              "internalType": "bool",
              "name": "isLate",
              "type": "bool"
            },
            {
              "components": [
                {
                  "internalType": "uint256",
                  "name": "amount",
                  "type": "uint256"
                },
                {
                  "internalType": "bool",
                  "name": "confirmed",
                  "type": "bool"
                },
                {
                  "internalType": "bool",
                  "name": "delivered",
                  "type": "bool"
                },
                {
                  "internalType": "bool",
                  "name": "withdrawn",
                  "type": "bool"
                },
                {
                  "internalType": "uint256",
                  "name": "withdrawnAt",
                  "type": "uint256"
                }
              ],
              "internalType": "struct FreelanceDAOEscrowV2.Milestone[]",
              "name": "milestones",
              "type": "tuple[]"
            },
            {
              "internalType": "string",
              "name": "jobTitle",
              "type": "string"
            },
            {
              "internalType": "string",
              "name": "jobCategory",
              "type": "string"
            },
            {
              "internalType": "string",
              "name": "projectDescription",
              "type": "string"
            },
            {
              "internalType": "string[]",
              "name": "requiredSkills",
              "type": "string[]"
            },
            {
              "internalType": "string",
              "name": "projectDuration",
              "type": "string"
            },
            {
              "internalType": "bool",
              "name": "exists",
              "type": "bool"
            }
          ],
          "internalType": "struct FreelanceDAOEscrowV2.Job[]",
          "name": "",
          "type": "tuple[]"
        }
      ],
      "stateMutability": "view",
      "type": "function"
    },
    {
      "inputs": [
        {
          "internalType": "uint256",
          "name": "jobId",
          "type": "uint256"
        },
        {
          "internalType": "uint256",
          "name": "idx",
          "type": "uint256"
        }
      ],
      "name": "getMilestone",
      "outputs": [
        {
          "internalType": "uint256",
          "name": "amount",
          "type": "uint256"
        },
        {
          "internalType": "bool",
          "name": "confirmed",
          "type": "bool"
        },
        {
          "internalType": "bool",
          "name": "delivered",
          "type": "bool"
        },
        {
          "internalType": "bool",
          "name": "withdrawn",
          "type": "bool"
        },
        {
          "internalType": "uint256",
          "name": "withdrawnAt",
          "type": "uint256"
        }
      ],
      "stateMutability": "view",
      "type": "function"
    },
    {
      "inputs": [
        {
          "internalType": "uint256",
          "name": "jobId",
          "type": "uint256"
        }
      ],
      "name": "getMilestonesForJob",
      "outputs": [
        {
          "components": [
            {
              "internalType": "uint256",
              "name": "amount",
              "type": "uint256"
            },
            {
              "internalType": "bool",
              "name": "confirmed",
              "type": "bool"
            },
            {
              "internalType": "bool",
              "name": "delivered",
              "type": "bool"
            },
            {
              "internalType": "bool",
              "name": "withdrawn",
              "type": "bool"
            },
            {
              "internalType": "uint256",
              "name": "withdrawnAt",
              "type": "uint256"
            }
          ],
          "internalType": "struct FreelanceDAOEscrowV2.Milestone[]",
          "name": "",
          "type": "tuple[]"
        }
      ],
      "stateMutability": "view",
      "type": "function"
    },
    {
      "inputs": [
        {
          "internalType": "uint256",
          "name": "jobId",
          "type": "uint256"
        }
      ],
      "name": "isJobLate",
      "outputs": [
        {
          "internalType": "bool",
          "name": "",
          "type": "bool"
        }
      ],
      "stateMutability": "view",
      "type": "function"
    },
    {
      "inputs": [
        {
          "internalType": "uint256",
          "name": "jobId",
          "type": "uint256"
        },
        {
          "internalType": "uint256",
          "name": "milestoneIndex",
          "type": "uint256"
        }
      ],
      "name": "markDelivery",
      "outputs": [],
      "stateMutability": "nonpayable",
      "type": "function"
    },
    {
      "inputs": [],
      "name": "nextJobId",
      "outputs": [
        {
          "internalType": "uint256",
          "name": "",
          "type": "uint256"
        }
      ],
      "stateMutability": "view",
      "type": "function"
    },
    {
      "inputs": [
        {
          "internalType": "uint256",
          "name": "jobId",
          "type": "uint256"
        },
        {
          "internalType": "uint256",
          "name": "disputeId",
          "type": "uint256"
        },
        {
          "internalType": "enum IEscrow.DisputeReason",
          "name": "reason",
          "type": "uint8"
        }
      ],
      "name": "notifyDisputeCreated",
      "outputs": [],
      "stateMutability": "nonpayable",
      "type": "function"
    },
    {
      "inputs": [
        {
          "internalType": "uint256",
          "name": "jobId",
          "type": "uint256"
        },
        {
          "internalType": "uint256",
          "name": "disputeId",
          "type": "uint256"
        },
        {
          "internalType": "enum IEscrow.DisputeReason",
          "name": "reason",
          "type": "uint8"
        },
        {
          "internalType": "address",
          "name": "winner",
          "type": "address"
        }
      ],
      "name": "notifyDisputeResolved",
      "outputs": [],
      "stateMutability": "nonpayable",
      "type": "function"
    },
    {
      "inputs": [],
      "name": "owner",
      "outputs": [
        {
          "internalType": "address",
          "name": "",
          "type": "address"
        }
      ],
      "stateMutability": "view",
      "type": "function"
    },
    {
      "inputs": [],
      "name": "renounceOwnership",
      "outputs": [],
      "stateMutability": "nonpayable",
      "type": "function"
    },
    {
      "inputs": [
        {
          "internalType": "uint256",
          "name": "jobId",
          "type": "uint256"
        }
      ],
      "name": "requestJob",
      "outputs": [],
      "stateMutability": "nonpayable",
      "type": "function"
    },
    {
      "inputs": [
        {
          "internalType": "address",
          "name": "",
          "type": "address"
        },
        {
          "internalType": "uint256",
          "name": "",
          "type": "uint256"
        }
      ],
      "name": "requested",
      "outputs": [
        {
          "internalType": "bool",
          "name": "",
          "type": "bool"
        }
      ],
      "stateMutability": "view",
      "type": "function"
    },
    {
      "inputs": [
        {
          "internalType": "address",
          "name": "_newTreasury",
          "type": "address"
        }
      ],
      "name": "setDaoTreasury",
      "outputs": [],
      "stateMutability": "nonpayable",
      "type": "function"
    },
    {
      "inputs": [
        {
          "internalType": "address",
          "name": "_disputeContract",
          "type": "address"
        }
      ],
      "name": "setDisputeContract",
      "outputs": [],
      "stateMutability": "nonpayable",
      "type": "function"
    },
    {
      "inputs": [],
      "name": "totalDaoFeesCollected",
      "outputs": [
        {
          "internalType": "uint256",
          "name": "",
          "type": "uint256"
        }
      ],
      "stateMutability": "view",
      "type": "function"
    },
    {
      "inputs": [
        {
          "internalType": "address",
          "name": "newOwner",
          "type": "address"
        }
      ],
      "name": "transferOwnership",
      "outputs": [],
      "stateMutability": "nonpayable",
      "type": "function"
    },
    {
      "inputs": [
        {
          "internalType": "uint256",
          "name": "jobId",
          "type": "uint256"
        }
      ],
      "name": "withdraw",
      "outputs": [],
      "stateMutability": "nonpayable",
      "type": "function"
    },
    {
      "inputs": [
        {
          "internalType": "uint256",
          "name": "amount",
          "type": "uint256"
        }
      ],
      "name": "withdrawDaoFees",
      "outputs": [],
      "stateMutability": "nonpayable",
      "type": "function"
    },
    {
      "stateMutability": "payable",
      "type": "receive"
    }
  ],
  "bytecode": "0x6080346200013557601f620040c738819003918201601f19168301916001600160401b038311848410176200013a578084926040948552833981010312620001355760206200004e8262000150565b916001600160a01b0391829162000066910162000150565b169081156200011c576000549260018060a01b03199280848616176000558260405195167f8be0079c531659141344cd1fd0a4f28419497f9722a3daafe3b4186f6b6457e0600080a360018055600160055516918215620000da57506002541617600255604051613f619081620001668239f35b62461bcd60e51b815260206004820152601460248201527f496e76616c69642044414f2074726561737572790000000000000000000000006044820152606490fd5b604051631e4fbdf760e01b815260006004820152602490fd5b600080fd5b634e487b7160e01b600052604160045260246000fd5b51906001600160a01b0382168203620001355756fe6080604052600436101561001b575b361561001957600080fd5b005b60003560e01c8062440b311461023a578063194a08b1146102355780631dffa3dc1461023057806322a208061461022b5780632a8fe889146102265780632e1a7d4d146102215780633b3e41021461021c5780634010b84e1461021757806340f70be41461021257806344d23d6f1461020d578063641ca008146102085780636754cc2814610203578063715018a6146101fe57806372e55399146101f957806379022a9f146101f45780638c47a94d146101ef5780638d22b863146101ea5780638da5cb5b146101e55780638ed9895c146101e057806394d246c2146101db578063965a79fb146101d65780639aa85dba146101d1578063a124df5d146101cc578063a5188d1f146101c7578063b02f3013146101c2578063b0c2aa5e146101bd578063b0e36b8f146101b8578063b618d5a7146101b3578063ba510a33146101ae578063bf22c457146101a9578063c021f210146101a4578063dc8be2a21461019f578063ded5ae271461019a5763f2fde38b0361000e57612996565b612978565b61267d565b612576565b6123cd565b612362565b612269565b6120a2565b612084565b611dae565b611d82565b611cf6565b611b75565b611ad7565b6116a2565b6115e3565b6115ba565b6114f3565b6114ad565b611484565b61113e565b6110b0565b611063565b610f1e565b610e92565b610e0e565b610d68565b610c5c565b61090f565b610813565b610760565b61058c565b61031c565b346103085760203660031901126103085760043560009080825260066020526102a961029a600a6040852061027560ff6011830154166130e6565b60018101546102929060081c6001600160a01b0316331415613222565b015460ff1690565b6102a3816117f3565b15613266565b3360009081526007602052604090206102df906102d29083905b90600052602052604060002090565b805460ff19166001179055565b33907f56a170713c65629e3fc7b98f93ea5c49d1cd10debfc5f7ef03cbee95a40b722d8380a380f35b600080fd5b90816101009103126103085790565b6020366003190112610308576004356001600160401b03811161030857601161034c61057a92369060040161030d565b610357341515612ada565b61036d6103648280612b1a565b90501515612b4c565b6040810161038761037e8284612b1a565b90501515612b89565b7fb3d4fc97516c83a6ede9502532ca639d72c51f3352812a26a99c1f6940833d5c61053960e0840135936103bc428611612bcc565b6105156005549687956103d66103d188612c18565b600555565b61046a6104606103f0896000526006602052604060002090565b92898455610429600185016104098160ff198154169055565b8054610100600160a81b0319163360081b610100600160a81b0316179055565b6104406104368880612b1a565b90600c8701612cd5565b61045a6104506020890189612b1a565b90600d8701612cd5565b86612b1a565b90600e8401612cd5565b61048461047a6060860186612da1565b90600f8401612dd6565b61049e6104946080860186612b1a565b9060108401612cd5565b34600382019081559360c09060a08101358015610585575b60048401550135801561057e575b60058201556000600682015560006007820155426008820155876009820155610507600a82016104f88160ff198154169055565b805461ff001916610100179055565b01805460ff19166001179055565b54936040519182913396836040909392919360608101946000825260208201520152565b0390a360405134815281907f9d25c5cf940eed311c45e5a0b4c7c8790a356d3c356453b76bb7e232db3f384a90602090a26040519081529081906020820190565b0390f35b50346104c4565b50346104b6565b34610308576020366003190112610308576004356105a8612ab7565b6105bc816000526006602052604060002090565b6105d26105cd601183015460ff1690565b6130e6565b600181018054610600906105f99060081c6001600160a01b03165b6001600160a01b031690565b33146134a3565b600a820191610622610613845460ff1690565b61061c816117f3565b1561384a565b61063060068201541561388a565b825460ff1916600617835561064c6000935460ff9060081c1690565b6106bc575b5050604051827f58243f872c550ad02802199ade99eb4250f6bb19e9abbf2d3de7b969c0eb5e4f600080a28161068b575b61001960018055565b9081527f98cd69b526974edc8f55d210bc89664b6985c7e698453e7aca776048f6efcae590602090a2388080610682565b6003015490549091506106e190829060081c6001600160a01b0316613dd6565b613dd6565b3880610651565b6020908160408183019282815285518094520193019160005b82811061070f575050505090565b9091929382610755600192875190608060a09280518352602081015115156020840152604081015115156040840152606081015115156060840152015160808201520190565b950193929101610701565b34610308576020366003190112610308576004356000526006602052604060002061079160ff6011830154166130e6565b60ff60018201541660028110156107ff576001036107c4576107b8600b61057a9201613b7b565b604051918291826106e8565b60405162461bcd60e51b81526020600482015260136024820152722737ba10309036b4b632b9ba37b732903537b160691b6044820152606490fd5b6117c6565b60443590600482101561030857565b346103085760603660031901126103085760043561082f610804565b9061084560018060a01b036003541633146138d6565b600a61085b826000526006602052604060002090565b61086c6105cd601183015460ff1690565b01805460ff191660041781556108818361391a565b821580610901575b6108c6575b507f4890698d7a54aa813dc8341443ac637e7d5e374f248ce7ed441d68ae4329bfc4604051806108c16024359582613931565b0390a3005b805462ff0000191662010000179055807fc10cc2f1ce72576c34976ef8e590b72e63075a8a21a26e46c3c58fc36eb6c400600080a23861088e565b50805460181c60ff16610889565b346103085760203660031901126103085760043561092b612ab7565b61093f816000526006602052604060002090565b906109516105cd601184015460ff1690565b600282810180546109759061096e906001600160a01b03166105ed565b3314613614565b600a840190610985825460ff1690565b9161098f836117f3565b600383148015610c49575b8015610c36575b6109aa90613651565b6109be856000526008602052604060002090565b54936109d06007880195865490612aaa565b936109dc851515613693565b600080986001926109f08483015460ff1690565b6109f9816117dc565b610ac2575050505050600080516020613f0c833981519152939291610a26610aa7925460ff9060101c1690565b15610ab357610a3483613e89565b935b610a4b610a438686613ebd565b948254612f65565b9055610a61610a5c85600454612f65565b600455565b8054610a779084906001600160a01b0316613dd6565b546001600160a01b039081165b169560405193849384919260409194936060840195845260208401521515910152565b0390a361001960018055565b610abc83613e6f565b93610a36565b8391600b849101938454915b828110610c06575b5050508115610bf2575b5015610b1b57505050600080516020613f0c833981519152939291610b0d610aa7925460ff9060101c1690565b15610ab357610abc83613e89565b919750949150610b2a84613ea3565b948097816000905b610b56575b50505050600080516020613f0c833981519152939291610aa791610a36565b8354811015610bed57610b8a81610b7b85610b72819589612fdb565b50015460ff1690565b80610bc6575b610b9057612c18565b90610b32565b610bb183610b9e8389612fdb565b5001805462ff0000191662010000179055565b610bbb8187612fdb565b508442910155612c18565b50610be8610be484610bd8848a612fdb565b50015460101c60ff1690565b1590565b610b81565b610b37565b60059150610bff816117f3565b1438610ae0565b610c17610be488610b72848a612fdb565b610c2957610c2490612c18565b610ace565b5092503890508080610ad6565b50610c40836117f3565b600583146109a1565b50610c53836117f3565b6001831461099a565b3461030857602036600319011261030857600435610c78612ab7565b610c80612a1e565b8015610d355760045490818111610cfc57610cbf610a5c827f2575d77a1ec3998d286c801d15068d5201ec99248623b8f7b7fc936ac1b62d6a94612aaa565b600254610cd69082906001600160a01b0316613dd6565b600254604080516001600160a01b0390921682526020820192909252a161001960018055565b60405162461bcd60e51b8152602060048201526011602482015270496e73756666696369656e74206665657360781b6044820152606490fd5b60405162461bcd60e51b815260206004820152600b60248201526a1e995c9bc8185b5bdd5b9d60aa1b6044820152606490fd5b34610308576000366003190112610308576003546040516001600160a01b039091168152602090f35b600435906001600160a01b038216820361030857565b602435906001600160a01b038216820361030857565b606435906001600160a01b038216820361030857565b6020908160408183019282815285518094520193019160005b828110610dfa575050505090565b835185529381019392810192600101610dec565b3461030857602080600319360112610308576001600160a01b03610e30610d91565b1660005260098152604060002090604051908181845491828152019360005281600020916000905b828210610e7b5761057a85610e6f81890382612f8d565b60405191829182610dd3565b835486529485019460019384019390910190610e58565b3461030857602036600319011261030857610eab610d91565b610eb3612a1e565b6001600160a01b03818116917fb4211c1c33733c2bb84644db7dfb7bafc2c8f6bb163cc45373b2908dd29f91db90610eec841515612a4a565b600354604080519482166001600160a01b03908116865292909216602085015292a16001600160a01b03191617600355005b3461030857602036600319011261030857600435610f3a612ab7565b7f98cd69b526974edc8f55d210bc89664b6985c7e698453e7aca776048f6efcae5611042611022611032610f78856000526006602052604060002090565b610f896105cd601183015460ff1690565b6106dc60018201610fbe600160ff8354610fae838060a01b038260081c1633146134a3565b16610fb8816117dc565b1461378c565b611007600a840193610ff760ff8654610fdb828260081c166134dd565b16610fe5816117f3565b6005811415908161104e575b506137ce565b6006600382015491015490612aaa565b94859361101585151561380a565b805460ff19166005179055565b5460081c6001600160a01b031690565b6040519081529081906020820190565b0390a261001960018055565b6006915061105b816117f3565b141538610ff1565b34610308576040366003190112610308576001600160a01b03611084610d91565b1660005260076020526040600020602435600052602052602060ff604060002054166040519015158152f35b346103085760008060031936011261110b576110ca612a1e565b80546001600160a01b03198116825581906001600160a01b03167f8be0079c531659141344cd1fd0a4f28419497f9722a3daafe3b4186f6b6457e08280a380f35b80fd5b9181601f84011215610308578235916001600160401b038311610308576020808501948460051b01011161030857565b34610308576020366003190112610308576004356001600160401b0381116103085761116e90369060040161110e565b611176612ab7565b6111818115156136d5565b60009081825b8281106111e857509061104283926111c17f70dbc53a66cff01b9149033c1a027ea0ae024b3e721d7bc9efdabe8969575173951515613693565b6111d0610a5c82600454612f65565b6111da8433613dd6565b604051938493339785613752565b93916111f5858285612f14565b359461120b866000526006602052604060002090565b9561121d6105cd601189015460ff1690565b6002908188019761123a61096e6105ed8b5460018060a01b031690565b600a81019061126861124d835460ff1690565b611256816117f3565b60038114908115611470575b50613714565b61127c836000526008602052604060002090565b549161128e6007830193845490612aaa565b91821561145b57600095866001926112a98482015460ff1690565b6112b2816117dc565b6113555750505050611332611320600080516020613f0c8339815191529461131a61133a9a9b9c9d956112ed611313965460ff9060101c1690565b15611344576112fb81613e89565b9687935b6113098584613ebd565b9788938254612f65565b9055612f65565b9b612f65565b9b546001600160a01b03908116610a84565b0390a3612c18565b9390919293611187565b61134d81613e6f565b9687936112ff565b8390600b839101928354915b82811061142c575b5050506000146113b757505050611332611320600080516020613f0c8339815191529461131a61133a9a9b9c9d956113a9611313965460ff9060101c1690565b156113445761134d81613e89565b919b936113c991975080959350613ea3565b9a8096816000905b611405575b505050506113326113208b61131a600080516020613f0c8339815191529661133a9b9c9d9e96611313966112ff565b83548110156114275761142181610b7b85610b72819589612fdb565b906113d1565b6113d6565b61143d610be488610b728489612fdb565b61144f5761144a90612c18565b611361565b50915050388080611369565b50505050505061133a91929550939293612c18565b6001915061147d816117f3565b1438611262565b34610308576000366003190112610308576002546040516001600160a01b039091168152602090f35b34610308576020366003190112610308576004356000526006602052602060ff600a60406000206114e3836011830154166130e6565b015460181c166040519015158152f35b60203660031901126103085760043561150a612ab7565b806000526006602052611588604060002061152b60ff6011830154166130e6565b6001810154611550906115499060081c6001600160a01b03166105ed565b3314613122565b6104f86003600a83019261157461156f610be4865460ff9060081c1690565b613165565b61157f3415156131a2565b015434146131de565b6040513481527f9d25c5cf940eed311c45e5a0b4c7c8790a356d3c356453b76bb7e232db3f384a908060208101611042565b34610308576000366003190112610308576000546040516001600160a01b039091168152602090f35b3461030857604036600319011261030857602435600435600052600660205260406000209061161860ff6011840154166130e6565b60ff60018301541660028110156107ff5761164d9261163b6001600b9314613558565b0161164881548310613b49565b612fdb565b5080549061057a60026001830154920154604051938360ff869560101c169160ff808360081c16921690869192608093969594919660a084019784521515602084015215156040830152151560608201520152565b34610308576040366003190112610308576004356116be610da7565b906000918183526006602052611772604084206116e26105cd601183015460ff1690565b6001810154611707906117009060081c6001600160a01b03166105ed565b33146132a1565b6102d2836002600a84019361172061029a865460ff1690565b61175261174d6117468a6102c38760018060a01b03166000526007602052604060002090565b5460ff1690565b6132ed565b0180546001600160a01b0319166001600160a01b03909216919091179055565b6001600160a01b0381166000908152600960205260409020611795908390613339565b6001600160a01b0316907f75ddd184e81eb370d30cc019f29184e242488c372a6cccb9b7dec5821c3f6c0d8380a380f35b634e487b7160e01b600052602160045260246000fd5b600211156107ff57565b9060028210156107ff5752565b600711156107ff57565b9060078210156107ff5752565b90815180825260208080930193019160005b82811061182a575050505090565b9091929382611870600192875190608060a09280518352602081015115156020840152604081015115156040840152606081015115156060840152015160808201520190565b95019392910161181c565b919082519283825260005b8481106118a7575050826000602080949584010152601f8019910116010190565b602081830181015184830182015201611886565b90815180825260208092019182818360051b85019501936000915b8483106118e65750505050505090565b909192939495848061190083856001950387528a5161187b565b98019301930191949392906118d6565b90611a72908251815261192b602084015160208301906117e6565b6040838101516001600160a01b0316908201526060838101516001600160a01b0316908201526080830151608082015260a083015160a082015260c083015160c082015260e083015160e08201526101008084015190820152610120808401519082015261014080840151908201526119ad61016080850151908301906117fd565b610180838101511515908201526101a0838101511515908201526101c083810151151590820152611a62611a4e611a3a611a26611a126119fe6101e0808a0151906102c080918a015288019061180a565b610200808a0151908883039089015261187b565b61022080890151908783039088015261187b565b61024080880151908683039087015261187b565b6102608087015190858303908601526118bb565b61028080860151908483039085015261187b565b6102a09384015115159190930152565b90565b602080820190808352835180925260408301928160408460051b8301019501936000915b848310611aa95750505050505090565b9091929394958480611ac7600193603f198682030187528a51611910565b9801930193019194939290611a99565b346103085760008060031936011261110b576005546000198101818111611b7057611b0190613c11565b9160015b828110611b1a576040518061057a8682611a75565b80611b3d91835260066020526040832060ff601182015416611b42575b50612c18565b611b05565b611b6990611b58611b5284612a9b565b91613c75565b611b628289613c61565b5286613c61565b5038611b37565b612a85565b3461030857604036600319011261030857600435602435611ba0826000526006602052604060002090565b91611bb26105cd601185015460ff1690565b6002830154611bd490611bcd906001600160a01b03166105ed565b3314613362565b600a8301611c01611be6825460ff1690565b611bef816117f3565b60018114908115611ce2575b506133ae565b6009840154421193611c17600182015460ff1690565b611c20816117dc565b611ca15750805460ff19166002178155600092505b8380611c8b575b611c74575b50604051921515835233927f207484e8aa7dddd34fe93ab4285ad31e16cf6b69a87db323d588054a6860eee990602090a4005b805463ff0000001916630100000017905538611c41565b508054611c9c9060181c60ff161590565b611c3c565b6001611cba85600b611cd29401611648815483106133eb565b50016104f8611ccd610be4835460ff1690565b613427565b805460ff19166002178155611c35565b60029150611cef816117f3565b1438611bfb565b3461030857602036600319011261030857611d0f610d91565b611d17612a1e565b6001600160a01b03818116917f405b911135779fbe6ca1eb08e756497b632d5fbff59644b7d60ea3ea95caf53990611d50841515612a4a565b600254604080519482166001600160a01b03908116865292909216602085015292a16001600160a01b03191617600255005b346103085760203660031901126103085760043560005260086020526020604060002054604051908152f35b604080600319360112610308576001600160401b0360043581811161030857611ddb90369060040161110e565b92909160243590811161030857611df690369060040161030d565b92611e02811515612ebd565b611e0f6103648580612b1a565b81840192611e2061037e8587612b1a565b60e085013591611e31428411612bcc565b600091825b828110612049575060055495611e4e6103d188612c18565b611e62876000526006602052604060002090565b878155611e7d6001820161040981600160ff19825416179055565b611e94611e8a8a80612b1a565b90600c8401612cd5565b611eb3610460602093611ead6104508d87810190612b1a565b8b612b1a565b606098611ecf611ec58b830183612da1565b90600f8501612dd6565b611eeb611ee160809283810190612b1a565b9060108501612cd5565b8560048301558560058301556003820199868b556000600684015560006007840155426008840155876009840155600a830195611f2c8760ff198154169055565b60118401805460ff19166001179055865461ff0019168755600b60009401935b8181106120035750505050505050611fb061057a9686937fb3d4fc97516c83a6ede9502532ca639d72c51f3352812a26a99c1f6940833d5c9334611fc1575b5050549385519182913396836040909392919360608101946001825260208201520152565b0390a3519081529081906020820190565b6104f8611fcf92341461309a565b855134815284907f9d25c5cf940eed311c45e5a0b4c7c8790a356d3c356453b76bb7e232db3f384a90602090a23880611f8b565b8061203f8c600061201861204495878d612f14565b3591612022612fae565b928352818b84015282015260008682015260008782015287612ff7565b612c18565b611f4c565b9261207961207f9161206761205f878787612f14565b351515612f29565b612072868686612f14565b3590612f65565b93612c18565b611e36565b34610308576000366003190112610308576020600554604051908152f35b3461030857604036600319011261030857600435602435906120ce816000526006602052604060002090565b906120e06105cd601184015460ff1690565b600191612117838201546121018560ff83166120fb816117dc565b14613558565b3360089190911c6001600160a01b0316146134a3565b600a8101805461212c9060081c60ff16613598565b600b820161213c815487106133eb565b6121468682612fdb565b509261216a8685016102d260ff825461216182821615613427565b60081c166135d1565b61217b600685549201918254612f65565b9055825461219e612196866000526008602052604060002090565b918254612f65565b9055846000918054925b838110612210575b50505050906108c1917f586353fe0bfe5314fafe1c8662b942c97ddeaccfbd9a2e13fec40bcf15e8abcb939460001461220057805460ff191660031790555b546040519081529081906020820190565b805460ff191660011790556121ef565b612221610be484610b728486612fdb565b6122335761222e90612c18565b6121a8565b50600096508392507f586353fe0bfe5314fafe1c8662b942c97ddeaccfbd9a2e13fec40bcf15e8abcb91506108c19050386121b0565b346103085760208060031936011261030857612283610d91565b600554906000198201828111611b705761229c90613c11565b916000938492600191825b8481106122bf578587526040518061057a8982611a75565b8088526006825260408820601101546122e5919060ff1680612325575b6122ea57612c18565b6122a7565b611b37612301826000526006602052604060002090565b9761231461230e82612c18565b99613c75565b61231e828c613c61565b5289613c61565b5061234f8561233e836000526006602052604060002090565b015460081c6001600160a01b031690565b6001600160a01b038581169116146122dc565b346103085760203660031901126103085760043580600052600660205260406000209061239560ff6011840154166130e6565b600052600860205260076040600020549101548103908111611b7057602090604051908152f35b906020611a72928181520190611910565b34610308576020366003190112610308576123e6613963565b506004356123fe906000526006602052604060002090565b601181015460ff1661240f816130e6565b815460018301546002840154909391906001600160a01b03166003830154600484015460058501546006860154600787015491600888015493600989015495600a8a01549761245c613a15565b99612465612fbb565b9081529c8d9061247b60ff821660208401613a38565b60081c6001600160a01b03166040909101526001600160a01b031660608d015260808c015260a08b015260c08a015260e08901526101008801526101208701526101408601526124d260ff82166101608701613a44565b60ff600882901c16151561018086015260ff601082901c1615156101a086015260181c60ff1615156101c08501526101e0840152612512600c8201613a50565b610200840152612524600d8201613a50565b610220840152612536600e8201613a50565b610240840152612548600f8201613af4565b61026084015260100161255a90613a50565b61028083015215156102a082015260405161057a8192826123bc565b34610308576020366003190112610308576004357f0f57f3e7b9ef5a0be5fa135392bd0b89d178350d5bc7f4c0b789fadc05324e766126646125c2836000526006602052604060002090565b6125d36105cd601183015460ff1690565b6125f1600182015461210160ff82166125eb816117dc565b15613467565b6121ef600a820161262960ff825461260d828260081c166134dd565b16612617816117f3565b60028114908115612669575b5061351a565b6003600684019361263b855415613427565b01928354809155612656876000526008602052604060002090565b55805460ff19166003179055565b0390a2005b60019150612676816117f3565b1438612623565b3461030857608036600319011261030857600435612699610804565b6126a1610dbd565b6003546126c1906126ba906001600160a01b03166105ed565b33146138d6565b6126d5836000526006602052604060002090565b916126e76105cd601185015460ff1690565b604051847ff14b14c57ad6924ff5c16daeec93bdd189cc7338e991d2967e3e0401bb73dfe2602435928061271c878783613941565b0390a36127288161391a565b8061273f575050600a01805460ff19166001179055005b6127488161391a565b6001908082036128155750820190815460ff8116612765816117dc565b1561276c57005b6001600160a01b0391821660089190911c909116036127df576127986003830154600684015490612aaa565b8061279f57005b611032816106dc61266494611022600a7f98cd69b526974edc8f55d210bc89664b6985c7e698453e7aca776048f6efcae59801600560ff19825416179055565b5080610019926128066003600a940154918260068501556000526008602052604060002090565b5501805460ff19166003179055565b8061282160029261391a565b1461282857005b828101805490926001600160a01b03908116600883901c9091160361285c5750506127986003830154600684015490612aaa565b60ff9192509392931661286e816117dc565b612899575081600a916128066003610019950154918260068501556000526008602052604060002090565b90600b83016000835b6128bb575b50505050600a01805460ff19166003179055005b8154811015612973576128f2816128e3866128d7819587612fdb565b50015460081c60ff1690565b8061295c575b6128f857612c18565b906128a2565b612915836129068387612fdb565b5001805460ff19166001179055565b61291f8185612fdb565b505461293060068901918254612f65565b905561293c8185612fdb565b5054612955612196876000526008602052604060002090565b9055612c18565b5061296e610be484610b728488612fdb565b6128e9565b6128a7565b34610308576000366003190112610308576020600454604051908152f35b34610308576020366003190112610308576129af610d91565b6129b7612a1e565b6001600160a01b039081168015612a0557600080546001600160a01b03198116831782559092167f8be0079c531659141344cd1fd0a4f28419497f9722a3daafe3b4186f6b6457e08380a380f35b604051631e4fbdf760e01b815260006004820152602490fd5b6000546001600160a01b03163303612a3257565b60405163118cdaa760e01b8152336004820152602490fd5b15612a5157565b60405162461bcd60e51b815260206004820152600c60248201526b7a65726f206164647265737360a01b6044820152606490fd5b634e487b7160e01b600052601160045260246000fd5b600019810191908211611b7057565b91908203918211611b7057565b600260015414612ac8576002600155565b604051633ee5aeb560e01b8152600490fd5b15612ae157565b60405162461bcd60e51b815260206004820152601160248201527004d7573742066756e64206a6f62203e203607c1b6044820152606490fd5b903590601e198136030182121561030857018035906001600160401b0382116103085760200191813603831361030857565b15612b5357565b60405162461bcd60e51b815260206004820152600e60248201526d151a5d1b19481c995c5d5a5c995960921b6044820152606490fd5b15612b9057565b60405162461bcd60e51b815260206004820152601460248201527311195cd8dc9a5c1d1a5bdb881c995c5d5a5c995960621b6044820152606490fd5b15612bd357565b60405162461bcd60e51b815260206004820152601760248201527f446561646c696e65206d757374206265206675747572650000000000000000006044820152606490fd5b6000198114611b705760010190565b634e487b7160e01b600052604160045260246000fd5b90600182811c92168015612c6d575b6020831014612c5757565b634e487b7160e01b600052602260045260246000fd5b91607f1691612c4c565b818110612c82575050565b60008155600101612c77565b9190601f8111612c9d57505050565b612cc9926000526020600020906020601f840160051c83019310612ccb575b601f0160051c0190612c77565b565b9091508190612cbc565b9092916001600160401b038111612d9c57612cfa81612cf48454612c3d565b84612c8e565b6000601f8211600114612d345781929394600092612d29575b50508160011b916000199060031b1c1916179055565b013590503880612d13565b601f19821694612d4984600052602060002090565b91805b878110612d84575083600195969710612d6a575b505050811b019055565b0135600019600384901b60f8161c19169055388080612d60565b90926020600181928686013581550194019101612d4c565b612c27565b903590601e198136030182121561030857018035906001600160401b03821161030857602001918160051b3603831361030857565b600160401b8311612d9c578054838255808410612e39575b5090612e008192600052602060002090565b906000925b848410612e13575050505050565b6001602082612e2d612e26849587612b1a565b9088612cd5565b01930193019291612e05565b6000828152846020822092830192015b828110612e57575050612dee565b80612e6460019254612c3d565b80612e71575b5001612e49565b601f908181118414612e895750508281555b38612e6a565b83612eab92612e9d85600052602060002090565b920160051c82019101612c77565b60008181526020812081835555612e83565b15612ec457565b60405162461bcd60e51b81526020600482015260126024820152714e656564203e3d31206d696c6573746f6e6560701b6044820152606490fd5b634e487b7160e01b600052603260045260246000fd5b9190811015612f245760051b0190565b612efe565b15612f3057565b60405162461bcd60e51b815260206004820152600d60248201526c04d696c6573746f6e65203e203609c1b6044820152606490fd5b91908201809211611b7057565b60a081019081106001600160401b03821117612d9c57604052565b90601f801991011681019081106001600160401b03821117612d9c57604052565b60405190612cc982612f72565b604051906102c082018281106001600160401b03821117612d9c57604052565b8054821015612f24576000526003602060002091020190600090565b8054600160401b811015612d9c5761301491600182018155612fdb565b9190916130845760808160029251845561307d6001850161304760208401511515829060ff801983541691151516179055565b6040830151815461ff00191690151560081b61ff00161781556060830151815462ff0000191690151560101b62ff000016179055565b0151910155565b634e487b7160e01b600052600060045260246000fd5b156130a157565b60405162461bcd60e51b815260206004820152601a60248201527f6d73672e76616c7565206d75737420657175616c20746f74616c0000000000006044820152606490fd5b156130ed57565b60405162461bcd60e51b815260206004820152600d60248201526c129bd8881b9bdd08195e1a5cdd609a1b6044820152606490fd5b1561312957565b60405162461bcd60e51b815260206004820152601460248201527313db9b1e4818db1a595b9d0818d85b88199d5b9960621b6044820152606490fd5b1561316c57565b60405162461bcd60e51b815260206004820152600e60248201526d105b1c9958591e48199d5b99195960921b6044820152606490fd5b156131a957565b60405162461bcd60e51b815260206004820152600d60248201526c04d7573742073656e64203e203609c1b6044820152606490fd5b156131e557565b60405162461bcd60e51b8152602060048201526015602482015274135d5cdd081cd95b9908199d5b1b08185b5bdd5b9d605a1b6044820152606490fd5b1561322957565b60405162461bcd60e51b815260206004820152601560248201527410db1a595b9d0818d85b9b9bdd081c995c5d595cdd605a1b6044820152606490fd5b1561326d57565b60405162461bcd60e51b815260206004820152600c60248201526b2537b1103737ba1037b832b760a11b6044820152606490fd5b156132a857565b60405162461bcd60e51b815260206004820152601760248201527f4f6e6c7920636c69656e742063616e20617070726f76650000000000000000006044820152606490fd5b156132f457565b60405162461bcd60e51b815260206004820152601860248201527f50726f766964657220646964206e6f74207265717565737400000000000000006044820152606490fd5b805490600160401b821015612d9c5760018201808255821015612f245760005260206000200155565b1561336957565b60405162461bcd60e51b815260206004820152601760248201527f4e6f742061737369676e656420667265656c616e6365720000000000000000006044820152606490fd5b156133b557565b60405162461bcd60e51b815260206004820152600e60248201526d496e76616c69642073746174757360901b6044820152606490fd5b156133f257565b60405162461bcd60e51b815260206004820152600d60248201526c26b4b632b9ba37b7329027a7a160991b6044820152606490fd5b1561342e57565b60405162461bcd60e51b8152602060048201526011602482015270105b1c9958591e4818dbdb999a5c9b5959607a1b6044820152606490fd5b1561346e57565b60405162461bcd60e51b815260206004820152600d60248201526c2737ba103334bc32b2103537b160991b6044820152606490fd5b156134aa57565b60405162461bcd60e51b815260206004820152600b60248201526a13db9b1e4818db1a595b9d60aa1b6044820152606490fd5b156134e457565b60405162461bcd60e51b815260206004820152600e60248201526d129bd8881b9bdd08199d5b99195960921b6044820152606490fd5b1561352157565b60405162461bcd60e51b815260206004820152600f60248201526e4e6f7420696e2064656c697665727960881b6044820152606490fd5b1561355f57565b60405162461bcd60e51b81526020600482015260116024820152702737ba1036b4b632b9ba37b732903537b160791b6044820152606490fd5b1561359f57565b60405162461bcd60e51b815260206004820152600a602482015269139bdd08199d5b99195960b21b6044820152606490fd5b156135d857565b60405162461bcd60e51b8152602060048201526014602482015273139bdd081b585c9ad9590819195b1a5d995c995960621b6044820152606490fd5b1561361b57565b60405162461bcd60e51b815260206004820152600e60248201526d2737ba10333932b2b630b731b2b960911b6044820152606490fd5b1561365857565b60405162461bcd60e51b815260206004820152601360248201527210d85b9b9bdd081dda5d1a191c985dc81e595d606a1b6044820152606490fd5b1561369a57565b60405162461bcd60e51b81526020600482015260136024820152724e6f7468696e6720746f20776974686472617760681b6044820152606490fd5b156136dc57565b60405162461bcd60e51b815260206004820152601060248201526f139bc81a9bd89cc81c1c9bdd9a59195960821b6044820152606490fd5b1561371b57565b60405162461bcd60e51b815260206004820152600f60248201526e43616e6e6f7420776974686472617760881b6044820152606490fd5b606080825281018390529294939290916001600160fb1b0381116103085760409260809160051b8091838501378201019460208201520152565b1561379357565b60405162461bcd60e51b81526020600482015260136024820152724f6e6c79206d696c6573746f6e65206a6f627360681b6044820152606490fd5b156137d557565b60405162461bcd60e51b815260206004820152600d60248201526c105b1c9958591e48199a5b985b609a1b6044820152606490fd5b1561381157565b60405162461bcd60e51b8152602060048201526011602482015270139bdd1a1a5b99c81d1bc81c99599d5b99607a1b6044820152606490fd5b1561385157565b60405162461bcd60e51b815260206004820152601160248201527043616e6e6f742063616e63656c206e6f7760781b6044820152606490fd5b1561389157565b60405162461bcd60e51b815260206004820152601a60248201527f416c72656164792068617320636f6e6669726d656420776f726b0000000000006044820152606490fd5b156138dd57565b60405162461bcd60e51b815260206004820152601560248201527413db9b1e48191a5cdc1d5d194818dbdb9d1c9858dd605a1b6044820152606490fd5b600411156107ff57565b9060048210156107ff5752565b602081019291612cc99190613924565b909291602090613955836040810196613924565b6001600160a01b0316910152565b61396b612fbb565b906000808352806020840152806040840152606081818501528160808501528160a08501528160c08501528160e08501528161010085015281610120850152816101408501528161016085015281610180850152816101a0850152816101c0850152806101e0850152806102008501528061022085015280610240850152806102608501526102808401526102a0830152565b6001600160401b038111612d9c5760051b60200190565b604051602081018181106001600160401b03821117612d9c576040526000815290565b60028210156107ff5752565b60078210156107ff5752565b9060405191826000825492613a6484612c3d565b908184526001948581169081600014613ad15750600114613a8e575b5050612cc992500383612f8d565b9093915060005260209081600020936000915b818310613ab9575050612cc993508201013880613a80565b85548884018501529485019487945091830191613aa1565b915050612cc994506020925060ff191682840152151560051b8201013880613a80565b908154613b00816139fe565b92613b0e6040519485612f8d565b818452600090815260208082208186015b848410613b2d575050505050565b6001838192613b3b85613a50565b815201920193019290613b1f565b15613b5057565b60405162461bcd60e51b815260206004820152600360248201526227a7a160e91b6044820152606490fd5b908154613b87816139fe565b92604093613b9785519182612f8d565b828152809460208092019260005281600020906000935b858510613bbd57505050505050565b6003846001928451613bce81612f72565b865481528487015460ff90818116151585840152818160081c1615158884015260101c161515606082015260028701546080820152815201930194019391613bae565b90613c1b826139fe565b613c286040519182612f8d565b8281528092613c39601f19916139fe565b019060005b828110613c4a57505050565b602090613c55613963565b82828501015201613c3e565b8051821015612f245760209160051b010190565b90612cc9613dcc6011613c86612fbb565b9480548652613cb66001820154613ca360ff821660208a01613a38565b60081c6001600160a01b03166040880152565b60028101546001600160a01b0316606087015260038101546080870152600481015460a0870152600581015460c0870152600681015460e0870152600781015461010087015260088101546101208701526009810154610140870152613d5860ff600a830154613d2c8282166101608b01613a44565b600881901c821615156101808a0152601081901c821615156101a08a015260181c1615156101c0880152565b613d64600b8201613b7b565b6101e0870152613d76600c8201613a50565b610200870152613d88600d8201613a50565b610220870152613d9a600e8201613a50565b610240870152613dac600f8201613af4565b610260870152613dbe60108201613a50565b610280870152015460ff1690565b15156102a0840152565b8115613e6b576000918291829182916001600160a01b03165af13d15613e66573d6001600160401b038111612d9c5760405190613e1d601f8201601f191660200183612f8d565b8152600060203d92013e5b15613e2f57565b60405162461bcd60e51b815260206004820152600f60248201526e151c985b9cd9995c8819985a5b1959608a1b6044820152606490fd5b613e28565b5050565b600581029080820460051490151715611b70576064900490565b600781029080820460071490151715611b70576064900490565b600a810290808204600a1490151715611b70576064900490565b90808210613ed1578103908111611b705790565b60405162461bcd60e51b815260206004820152601260248201527111995948195e18d959591cc8185b5bdd5b9d60721b6044820152606490fdfe4bd114e74b29bcc339f5c772ff225845f26c7ec2498337596019d1062d90bc42a2646970667358221220d44fb733af93e838b198b02464c73ea75d4c186423b571cead53a1f55c981a9a64736f6c63430008140033",
  "linkReferences": {},
  "deployedLinkReferences": {}
}