{
  "_format": "hh-sol-artifact-1",
  "contractName": "FreeLanceDAOStaking",
  "sourceName": "contracts/FreeLanceDAOStakingContract.sol",
  "abi": [
    {
      "inputs": [
        {
          "internalType": "uint256",
          "name": "_rewardRate",
          "type": "uint256"
        },
        {
          "internalType": "uint256",
          "name": "_lockTime",
          "type": "uint256"
        },
        {
          "internalType": "uint256",
          "name": "_minimumFunding",
          "type": "uint256"
        }
      ],
      "stateMutability": "nonpayable",
      "type": "constructor"
    },
    {
      "anonymous": false,
      "inputs": [
        {
          "indexed": false,
          "internalType": "uint256",
          "name": "newLockTime",
          "type": "uint256"
        }
      ],
      "name": "LockTimeUpdated",
      "type": "event"
    },
    {
      "anonymous": false,
      "inputs": [
        {
          "indexed": true,
          "internalType": "address",
          "name": "staker",
          "type": "address"
        },
        {
          "indexed": false,
          "internalType": "string",
          "name": "stakerType",
          "type": "string"
        },
        {
          "indexed": false,
          "internalType": "string",
          "name": "description",
          "type": "string"
        },
        {
          "indexed": false,
          "internalType": "string[]",
          "name": "tags",
          "type": "string[]"
        },
        {
          "indexed": false,
          "internalType": "uint256",
          "name": "feePaid",
          "type": "uint256"
        }
      ],
      "name": "MetadataRegistered",
      "type": "event"
    },
    {
      "anonymous": false,
      "inputs": [
        {
          "indexed": false,
          "internalType": "uint256",
          "name": "newMinimum",
          "type": "uint256"
        }
      ],
      "name": "MinimumFundingUpdated",
      "type": "event"
    },
    {
      "anonymous": false,
      "inputs": [
        {
          "indexed": true,
          "internalType": "address",
          "name": "previousOwner",
          "type": "address"
        },
        {
          "indexed": true,
          "internalType": "address",
          "name": "newOwner",
          "type": "address"
        }
      ],
      "name": "OwnershipTransferred",
      "type": "event"
    },
    {
      "anonymous": false,
      "inputs": [
        {
          "indexed": true,
          "internalType": "address",
          "name": "user",
          "type": "address"
        },
        {
          "indexed": false,
          "internalType": "uint256",
          "name": "reward",
          "type": "uint256"
        }
      ],
      "name": "RewardClaimed",
      "type": "event"
    },
    {
      "anonymous": false,
      "inputs": [
        {
          "indexed": false,
          "internalType": "uint256",
          "name": "newRate",
          "type": "uint256"
        }
      ],
      "name": "RewardRateUpdated",
      "type": "event"
    },
    {
      "anonymous": false,
      "inputs": [
        {
          "indexed": true,
          "internalType": "address",
          "name": "user",
          "type": "address"
        },
        {
          "indexed": false,
          "internalType": "uint256",
          "name": "amount",
          "type": "uint256"
        }
      ],
      "name": "Staked",
      "type": "event"
    },
    {
      "anonymous": false,
      "inputs": [
        {
          "indexed": true,
          "internalType": "address",
          "name": "user",
          "type": "address"
        },
        {
          "indexed": false,
          "internalType": "uint256",
          "name": "amount",
          "type": "uint256"
        },
        {
          "indexed": false,
          "internalType": "uint256",
          "name": "reward",
          "type": "uint256"
        }
      ],
      "name": "Unstaked",
      "type": "event"
    },
    {
      "stateMutability": "payable",
      "type": "fallback"
    },
    {
      "inputs": [],
      "name": "claimRewards",
      "outputs": [],
      "stateMutability": "nonpayable",
      "type": "function"
    },
    {
      "inputs": [],
      "name": "getAllStakingMetadata",
      "outputs": [
        {
          "internalType": "address[]",
          "name": "stakers",
          "type": "address[]"
        },
        {
          "internalType": "string[]",
          "name": "types_",
          "type": "string[]"
        },
        {
          "internalType": "string[]",
          "name": "descriptions",
          "type": "string[]"
        },
        {
          "internalType": "string[][]",
          "name": "tagsPerStaker",
          "type": "string[][]"
        },
        {
          "internalType": "uint256[]",
          "name": "fees",
          "type": "uint256[]"
        }
      ],
      "stateMutability": "view",
      "type": "function"
    },
    {
      "inputs": [
        {
          "internalType": "address",
          "name": "user",
          "type": "address"
        }
      ],
      "name": "getUserStaking",
      "outputs": [
        {
          "internalType": "uint256",
          "name": "amount",
          "type": "uint256"
        },
        {
          "internalType": "uint256",
          "name": "timestamp",
          "type": "uint256"
        },
        {
          "internalType": "uint256",
          "name": "rewards",
          "type": "uint256"
        },
        {
          "internalType": "string",
          "name": "stakerType",
          "type": "string"
        },
        {
          "internalType": "string",
          "name": "description",
          "type": "string"
        },
        {
          "internalType": "string[]",
          "name": "tags",
          "type": "string[]"
        },
        {
          "internalType": "uint256",
          "name": "feePaid",
          "type": "uint256"
        }
      ],
      "stateMutability": "view",
      "type": "function"
    },
    {
      "inputs": [],
      "name": "lockTime",
      "outputs": [
        {
          "internalType": "uint256",
          "name": "",
          "type": "uint256"
        }
      ],
      "stateMutability": "view",
      "type": "function"
    },
    {
      "inputs": [],
      "name": "minimumFunding",
      "outputs": [
        {
          "internalType": "uint256",
          "name": "",
          "type": "uint256"
        }
      ],
      "stateMutability": "view",
      "type": "function"
    },
    {
      "inputs": [],
      "name": "owner",
      "outputs": [
        {
          "internalType": "address",
          "name": "",
          "type": "address"
        }
      ],
      "stateMutability": "view",
      "type": "function"
    },
    {
      "inputs": [
        {
          "internalType": "string",
          "name": "_type",
          "type": "string"
        },
        {
          "internalType": "string",
          "name": "_description",
          "type": "string"
        },
        {
          "internalType": "string[]",
          "name": "_tags",
          "type": "string[]"
        }
      ],
      "name": "registerStakingMetadata",
      "outputs": [],
      "stateMutability": "payable",
      "type": "function"
    },
    {
      "inputs": [],
      "name": "renounceOwnership",
      "outputs": [],
      "stateMutability": "nonpayable",
      "type": "function"
    },
    {
      "inputs": [],
      "name": "rewardRate",
      "outputs": [
        {
          "internalType": "uint256",
          "name": "",
          "type": "uint256"
        }
      ],
      "stateMutability": "view",
      "type": "function"
    },
    {
      "inputs": [
        {
          "internalType": "uint256",
          "name": "_newLockTime",
          "type": "uint256"
        }
      ],
      "name": "setLockTime",
      "outputs": [],
      "stateMutability": "nonpayable",
      "type": "function"
    },
    {
      "inputs": [
        {
          "internalType": "uint256",
          "name": "_newMinimum",
          "type": "uint256"
        }
      ],
      "name": "setMinimumFunding",
      "outputs": [],
      "stateMutability": "nonpayable",
      "type": "function"
    },
    {
      "inputs": [
        {
          "internalType": "uint256",
          "name": "_newRate",
          "type": "uint256"
        }
      ],
      "name": "setRewardRate",
      "outputs": [],
      "stateMutability": "nonpayable",
      "type": "function"
    },
    {
      "inputs": [],
      "name": "stake",
      "outputs": [],
      "stateMutability": "payable",
      "type": "function"
    },
    {
      "inputs": [
        {
          "internalType": "address",
          "name": "",
          "type": "address"
        }
      ],
      "name": "stakes",
      "outputs": [
        {
          "internalType": "uint256",
          "name": "amount",
          "type": "uint256"
        },
        {
          "internalType": "uint256",
          "name": "timestamp",
          "type": "uint256"
        },
        {
          "internalType": "uint256",
          "name": "rewards",
          "type": "uint256"
        }
      ],
      "stateMutability": "view",
      "type": "function"
    },
    {
      "inputs": [],
      "name": "totalStaked",
      "outputs": [
        {
          "internalType": "uint256",
          "name": "",
          "type": "uint256"
        }
      ],
      "stateMutability": "view",
      "type": "function"
    },
    {
      "inputs": [
        {
          "internalType": "address",
          "name": "newOwner",
          "type": "address"
        }
      ],
      "name": "transferOwnership",
      "outputs": [],
      "stateMutability": "nonpayable",
      "type": "function"
    },
    {
      "inputs": [
        {
          "internalType": "uint256",
          "name": "_amount",
          "type": "uint256"
        }
      ],
      "name": "unstake",
      "outputs": [],
      "stateMutability": "nonpayable",
      "type": "function"
    },
    {
      "stateMutability": "payable",
      "type": "receive"
    }
  ],
  "bytecode": "0x60806040523480156200001157600080fd5b50604051620030ad380380620030ad8339818101604052810190620000379190620001dc565b620000576200004b620000d060201b60201c565b620000d860201b60201c565b60018081905550600083118015620000705750600a8311155b620000b2576040517f08c379a0000000000000000000000000000000000000000000000000000000008152600401620000a99062000299565b60405180910390fd5b826006819055508160078190555080600881905550505050620002bb565b600033905090565b60008060009054906101000a900473ffffffffffffffffffffffffffffffffffffffff169050816000806101000a81548173ffffffffffffffffffffffffffffffffffffffff021916908373ffffffffffffffffffffffffffffffffffffffff1602179055508173ffffffffffffffffffffffffffffffffffffffff168173ffffffffffffffffffffffffffffffffffffffff167f8be0079c531659141344cd1fd0a4f28419497f9722a3daafe3b4186f6b6457e060405160405180910390a35050565b600080fd5b6000819050919050565b620001b681620001a1565b8114620001c257600080fd5b50565b600081519050620001d681620001ab565b92915050565b600080600060608486031215620001f857620001f76200019c565b5b60006200020886828701620001c5565b93505060206200021b86828701620001c5565b92505060406200022e86828701620001c5565b9150509250925092565b600082825260208201905092915050565b7f526577617264207261746520312d313025000000000000000000000000000000600082015250565b60006200028160118362000238565b91506200028e8262000249565b602082019050919050565b60006020820190508181036000830152620002b48162000272565b9050919050565b612de280620002cb6000396000f3fe6080604052600436106101025760003560e01c80637b0a47ee116100955780639e447fc6116100645780639e447fc6146102e1578063ae04d45d1461030a578063b61270a214610333578063c104a9291461035c578063f2fde38b1461038b57610109565b80637b0a47ee14610235578063817b1cd2146102605780638da5cb5b1461028b5780638dda5462146102b657610109565b80632e17de78116100d15780632e17de78146101d4578063372500ab146101fd5780633a4b66f114610214578063715018a61461021e57610109565b80630c0fd5491461010b5780630d6680871461014e57806316934fc414610179578063198db50b146101b857610109565b3661010957005b005b34801561011757600080fd5b50610132600480360381019061012d9190611979565b6103b4565b6040516101459796959493929190611b5b565b60405180910390f35b34801561015a57600080fd5b5061016361066b565b6040516101709190611bdf565b60405180910390f35b34801561018557600080fd5b506101a0600480360381019061019b9190611979565b610671565b6040516101af93929190611bfa565b60405180910390f35b6101d260048036038101906101cd9190611cec565b61069b565b005b3480156101e057600080fd5b506101fb60048036038101906101f69190611dcc565b610888565b005b34801561020957600080fd5b50610212610b84565b005b61021c610dcf565b005b34801561022a57600080fd5b50610233610f5b565b005b34801561024157600080fd5b5061024a610f6f565b6040516102579190611bdf565b60405180910390f35b34801561026c57600080fd5b50610275610f75565b6040516102829190611bdf565b60405180910390f35b34801561029757600080fd5b506102a0610f7b565b6040516102ad9190611e08565b60405180910390f35b3480156102c257600080fd5b506102cb610fa4565b6040516102d89190611bdf565b60405180910390f35b3480156102ed57600080fd5b5061030860048036038101906103039190611dcc565b610faa565b005b34801561031657600080fd5b50610331600480360381019061032c9190611dcc565b611043565b005b34801561033f57600080fd5b5061035a60048036038101906103559190611dcc565b61108c565b005b34801561036857600080fd5b506103716110d5565b6040516103829594939291906120e7565b60405180910390f35b34801561039757600080fd5b506103b260048036038101906103ad9190611979565b61164a565b005b60008060006060806060600080600260008a73ffffffffffffffffffffffffffffffffffffffff1673ffffffffffffffffffffffffffffffffffffffff16815260200190815260200160002090506000600360008b73ffffffffffffffffffffffffffffffffffffffff1673ffffffffffffffffffffffffffffffffffffffff168152602001908152602001600020905081600001548260010154836002015483600001846001018560020186600301548380546104719061218c565b80601f016020809104026020016040519081016040528092919081815260200182805461049d9061218c565b80156104ea5780601f106104bf576101008083540402835291602001916104ea565b820191906000526020600020905b8154815290600101906020018083116104cd57829003601f168201915b505050505093508280546104fd9061218c565b80601f01602080910402602001604051908101604052809291908181526020018280546105299061218c565b80156105765780601f1061054b57610100808354040283529160200191610576565b820191906000526020600020905b81548152906001019060200180831161055957829003601f168201915b5050505050925081805480602002602001604051908101604052809291908181526020016000905b8282101561064a5783829060005260206000200180546105bd9061218c565b80601f01602080910402602001604051908101604052809291908181526020018280546105e99061218c565b80156106365780601f1061060b57610100808354040283529160200191610636565b820191906000526020600020905b81548152906001019060200180831161061957829003601f168201915b50505050508152602001906001019061059e565b50505050915098509850985098509850985098505050919395979092949650565b60075481565b60026020528060005260406000206000915090508060000154908060010154908060020154905083565b6000600360003373ffffffffffffffffffffffffffffffffffffffff1673ffffffffffffffffffffffffffffffffffffffff168152602001908152602001600020905086868260000191826106f19291906123a3565b5084848260010191826107059291906123a3565b50806002016000610716919061186f565b60005b8383905081101561079a578160020184848381811061073b5761073a612473565b5b905060200281019061074d91906124b1565b909180600181540180825580915050600190039060005260206000200160009091929091929091929091925091826107869291906123a3565b50808061079290612543565b915050610719565b50348160030160008282546107af919061258b565b9250508190555034816003015403610825576004339080600181540180825580915050600190039060005260206000200160009091909190916101000a81548173ffffffffffffffffffffffffffffffffffffffff021916908373ffffffffffffffffffffffffffffffffffffffff1602179055505b3373ffffffffffffffffffffffffffffffffffffffff167fbd2d367cd666a1e25b0693f83cd97c7f3c39e0d710e818634178302c5379cac788888888888834604051610877979695949392919061273d565b60405180910390a250505050505050565b6108906116cd565b6000600260003373ffffffffffffffffffffffffffffffffffffffff1673ffffffffffffffffffffffffffffffffffffffff16815260200190815260200160002090506000821180156108e7575080600001548211155b610926576040517f08c379a000000000000000000000000000000000000000000000000000000000815260040161091d906127e9565b60405180910390fd5b6007548160010154610938919061258b565b42101561097a576040517f08c379a000000000000000000000000000000000000000000000000000000000815260040161097190612855565b60405180910390fd5b60006283d6008260010154426109909190612875565b60065484600001546109a291906128a9565b6109ac91906128a9565b6109b6919061291a565b90506000818360020154856109cb919061258b565b6109d5919061258b565b9050600854816109e5919061258b565b471015610a27576040517f08c379a0000000000000000000000000000000000000000000000000000000008152600401610a1e90612997565b60405180910390fd5b83836000016000828254610a3b9190612875565b92505081905550600083600201819055504283600101819055508360056000828254610a679190612875565b9250508190555060003373ffffffffffffffffffffffffffffffffffffffff1682604051610a94906129e8565b60006040518083038185875af1925050503d8060008114610ad1576040519150601f19603f3d011682016040523d82523d6000602084013e610ad6565b606091505b5050905080610b1a576040517f08c379a0000000000000000000000000000000000000000000000000000000008152600401610b1190612a49565b60405180910390fd5b3373ffffffffffffffffffffffffffffffffffffffff167f7fc4727e062e336010f2c282598ef5f14facb3de68cf8195c2f23e1454b2b74e868785610b5f9190612875565b604051610b6d929190612a69565b60405180910390a250505050610b8161171c565b50565b610b8c6116cd565b6000600260003373ffffffffffffffffffffffffffffffffffffffff1673ffffffffffffffffffffffffffffffffffffffff168152602001908152602001600020905060006283d600826001015442610be59190612875565b6006548460000154610bf791906128a9565b610c0191906128a9565b610c0b919061291a565b90506000818360020154610c1f919061258b565b905060008111610c64576040517f08c379a0000000000000000000000000000000000000000000000000000000008152600401610c5b90612ade565b60405180910390fd5b60085481610c72919061258b565b471015610cb4576040517f08c379a0000000000000000000000000000000000000000000000000000000008152600401610cab90612997565b60405180910390fd5b6000836002018190555042836001018190555060003373ffffffffffffffffffffffffffffffffffffffff1682604051610ced906129e8565b60006040518083038185875af1925050503d8060008114610d2a576040519150601f19603f3d011682016040523d82523d6000602084013e610d2f565b606091505b5050905080610d73576040517f08c379a0000000000000000000000000000000000000000000000000000000008152600401610d6a90612b4a565b60405180910390fd5b3373ffffffffffffffffffffffffffffffffffffffff167f106f923f993c2149d49b4255ff723acafa1f2d94393f561d3eda32ae348f724183604051610db99190611bdf565b60405180910390a250505050610dcd61171c565b565b610dd76116cd565b60003411610e1a576040517f08c379a0000000000000000000000000000000000000000000000000000000008152600401610e1190612bb6565b60405180910390fd5b6000600260003373ffffffffffffffffffffffffffffffffffffffff1673ffffffffffffffffffffffffffffffffffffffff1681526020019081526020016000209050600081600001541115610ec55760006283d600826001015442610e809190612875565b6006548460000154610e9291906128a9565b610e9c91906128a9565b610ea6919061291a565b905080826002016000828254610ebc919061258b565b92505081905550505b34816000016000828254610ed9919061258b565b925050819055504281600101819055503460056000828254610efb919061258b565b925050819055503373ffffffffffffffffffffffffffffffffffffffff167f9e71bc8eea02a63969f509818f2dafb9254532904319f9dbda79b67bd34a5f3d34604051610f489190611bdf565b60405180910390a250610f5961171c565b565b610f63611725565b610f6d60006117a3565b565b60065481565b60055481565b60008060009054906101000a900473ffffffffffffffffffffffffffffffffffffffff16905090565b60085481565b610fb2611725565b600081118015610fc35750600a8111155b611002576040517f08c379a0000000000000000000000000000000000000000000000000000000008152600401610ff990612c22565b60405180910390fd5b806006819055507f41d466ebd06fb97e7786086ac8b69b7eb7da798592036251291d34e9791cde01816040516110389190611bdf565b60405180910390a150565b61104b611725565b806007819055507f66e1e7d52aa5579a07f828553a0869fe33d5885fccb9f6f88faf5e1785869864816040516110819190611bdf565b60405180910390a150565b611094611725565b806008819055507fff7deecf23a5f063143e39ed6d2069395006dedebfadeb394acb7cc586cf3331816040516110ca9190611bdf565b60405180910390a150565b6060806060806060600060048054905090508067ffffffffffffffff811115611101576111006121c8565b5b60405190808252806020026020018201604052801561112f5781602001602082028036833780820191505090505b5095508067ffffffffffffffff81111561114c5761114b6121c8565b5b60405190808252806020026020018201604052801561117f57816020015b606081526020019060019003908161116a5790505b5094508067ffffffffffffffff81111561119c5761119b6121c8565b5b6040519080825280602002602001820160405280156111cf57816020015b60608152602001906001900390816111ba5790505b5093508067ffffffffffffffff8111156111ec576111eb6121c8565b5b60405190808252806020026020018201604052801561121f57816020015b606081526020019060019003908161120a5790505b5092508067ffffffffffffffff81111561123c5761123b6121c8565b5b60405190808252806020026020018201604052801561126a5781602001602082028036833780820191505090505b50915060005b818110156116415760006004828154811061128e5761128d612473565b5b9060005260206000200160009054906101000a900473ffffffffffffffffffffffffffffffffffffffff1690506000600360008373ffffffffffffffffffffffffffffffffffffffff1673ffffffffffffffffffffffffffffffffffffffff16815260200190815260200160002090508189848151811061131257611311612473565b5b602002602001019073ffffffffffffffffffffffffffffffffffffffff16908173ffffffffffffffffffffffffffffffffffffffff168152505080600001805461135b9061218c565b80601f01602080910402602001604051908101604052809291908181526020018280546113879061218c565b80156113d45780601f106113a9576101008083540402835291602001916113d4565b820191906000526020600020905b8154815290600101906020018083116113b757829003601f168201915b50505050508884815181106113ec576113eb612473565b5b60200260200101819052508060010180546114069061218c565b80601f01602080910402602001604051908101604052809291908181526020018280546114329061218c565b801561147f5780601f106114545761010080835404028352916020019161147f565b820191906000526020600020905b81548152906001019060200180831161146257829003601f168201915b505050505087848151811061149757611496612473565b5b602002602001018190525080600301548584815181106114ba576114b9612473565b5b6020026020010181815250506000816002018054905067ffffffffffffffff8111156114e9576114e86121c8565b5b60405190808252806020026020018201604052801561151c57816020015b60608152602001906001900390816115075790505b50905060005b826002018054905081101561160b5782600201818154811061154757611546612473565b5b90600052602060002001805461155c9061218c565b80601f01602080910402602001604051908101604052809291908181526020018280546115889061218c565b80156115d55780601f106115aa576101008083540402835291602001916115d5565b820191906000526020600020905b8154815290600101906020018083116115b857829003601f168201915b50505050508282815181106115ed576115ec612473565b5b6020026020010181905250808061160390612543565b915050611522565b50808785815181106116205761161f612473565b5b6020026020010181905250505050808061163990612543565b915050611270565b50509091929394565b611652611725565b600073ffffffffffffffffffffffffffffffffffffffff168173ffffffffffffffffffffffffffffffffffffffff16036116c1576040517f08c379a00000000000000000000000000000000000000000000000000000000081526004016116b890612cb4565b60405180910390fd5b6116ca816117a3565b50565b600260015403611712576040517f08c379a000000000000000000000000000000000000000000000000000000000815260040161170990612d20565b60405180910390fd5b6002600181905550565b60018081905550565b61172d611867565b73ffffffffffffffffffffffffffffffffffffffff1661174b610f7b565b73ffffffffffffffffffffffffffffffffffffffff16146117a1576040517f08c379a000000000000000000000000000000000000000000000000000000000815260040161179890612d8c565b60405180910390fd5b565b60008060009054906101000a900473ffffffffffffffffffffffffffffffffffffffff169050816000806101000a81548173ffffffffffffffffffffffffffffffffffffffff021916908373ffffffffffffffffffffffffffffffffffffffff1602179055508173ffffffffffffffffffffffffffffffffffffffff168173ffffffffffffffffffffffffffffffffffffffff167f8be0079c531659141344cd1fd0a4f28419497f9722a3daafe3b4186f6b6457e060405160405180910390a35050565b600033905090565b508054600082559060005260206000209081019061188d9190611890565b50565b5b808211156118b057600081816118a791906118b4565b50600101611891565b5090565b5080546118c09061218c565b6000825580601f106118d257506118f1565b601f0160209004906000526020600020908101906118f091906118f4565b5b50565b5b8082111561190d5760008160009055506001016118f5565b5090565b600080fd5b600080fd5b600073ffffffffffffffffffffffffffffffffffffffff82169050919050565b60006119468261191b565b9050919050565b6119568161193b565b811461196157600080fd5b50565b6000813590506119738161194d565b92915050565b60006020828403121561198f5761198e611911565b5b600061199d84828501611964565b91505092915050565b6000819050919050565b6119b9816119a6565b82525050565b600081519050919050565b600082825260208201905092915050565b60005b838110156119f95780820151818401526020810190506119de565b60008484015250505050565b6000601f19601f8301169050919050565b6000611a21826119bf565b611a2b81856119ca565b9350611a3b8185602086016119db565b611a4481611a05565b840191505092915050565b600081519050919050565b600082825260208201905092915050565b6000819050602082019050919050565b600082825260208201905092915050565b6000611a97826119bf565b611aa18185611a7b565b9350611ab18185602086016119db565b611aba81611a05565b840191505092915050565b6000611ad18383611a8c565b905092915050565b6000602082019050919050565b6000611af182611a4f565b611afb8185611a5a565b935083602082028501611b0d85611a6b565b8060005b85811015611b495784840389528151611b2a8582611ac5565b9450611b3583611ad9565b925060208a01995050600181019050611b11565b50829750879550505050505092915050565b600060e082019050611b70600083018a6119b0565b611b7d60208301896119b0565b611b8a60408301886119b0565b8181036060830152611b9c8187611a16565b90508181036080830152611bb08186611a16565b905081810360a0830152611bc48185611ae6565b9050611bd360c08301846119b0565b98975050505050505050565b6000602082019050611bf460008301846119b0565b92915050565b6000606082019050611c0f60008301866119b0565b611c1c60208301856119b0565b611c2960408301846119b0565b949350505050565b600080fd5b600080fd5b600080fd5b60008083601f840112611c5657611c55611c31565b5b8235905067ffffffffffffffff811115611c7357611c72611c36565b5b602083019150836001820283011115611c8f57611c8e611c3b565b5b9250929050565b60008083601f840112611cac57611cab611c31565b5b8235905067ffffffffffffffff811115611cc957611cc8611c36565b5b602083019150836020820283011115611ce557611ce4611c3b565b5b9250929050565b60008060008060008060608789031215611d0957611d08611911565b5b600087013567ffffffffffffffff811115611d2757611d26611916565b5b611d3389828a01611c40565b9650965050602087013567ffffffffffffffff811115611d5657611d55611916565b5b611d6289828a01611c40565b9450945050604087013567ffffffffffffffff811115611d8557611d84611916565b5b611d9189828a01611c96565b92509250509295509295509295565b611da9816119a6565b8114611db457600080fd5b50565b600081359050611dc681611da0565b92915050565b600060208284031215611de257611de1611911565b5b6000611df084828501611db7565b91505092915050565b611e028161193b565b82525050565b6000602082019050611e1d6000830184611df9565b92915050565b600081519050919050565b600082825260208201905092915050565b6000819050602082019050919050565b611e588161193b565b82525050565b6000611e6a8383611e4f565b60208301905092915050565b6000602082019050919050565b6000611e8e82611e23565b611e988185611e2e565b9350611ea383611e3f565b8060005b83811015611ed4578151611ebb8882611e5e565b9750611ec683611e76565b925050600181019050611ea7565b5085935050505092915050565b600081519050919050565b600082825260208201905092915050565b6000819050602082019050919050565b600082825260208201905092915050565b6000611f2982611a4f565b611f338185611f0d565b935083602082028501611f4585611a6b565b8060005b85811015611f815784840389528151611f628582611ac5565b9450611f6d83611ad9565b925060208a01995050600181019050611f49565b50829750879550505050505092915050565b6000611f9f8383611f1e565b905092915050565b6000602082019050919050565b6000611fbf82611ee1565b611fc98185611eec565b935083602082028501611fdb85611efd565b8060005b858110156120175784840389528151611ff88582611f93565b945061200383611fa7565b925060208a01995050600181019050611fdf565b50829750879550505050505092915050565b600081519050919050565b600082825260208201905092915050565b6000819050602082019050919050565b61205e816119a6565b82525050565b60006120708383612055565b60208301905092915050565b6000602082019050919050565b600061209482612029565b61209e8185612034565b93506120a983612045565b8060005b838110156120da5781516120c18882612064565b97506120cc8361207c565b9250506001810190506120ad565b5085935050505092915050565b600060a08201905081810360008301526121018188611e83565b905081810360208301526121158187611ae6565b905081810360408301526121298186611ae6565b9050818103606083015261213d8185611fb4565b905081810360808301526121518184612089565b90509695505050505050565b7f4e487b7100000000000000000000000000000000000000000000000000000000600052602260045260246000fd5b600060028204905060018216806121a457607f821691505b6020821081036121b7576121b661215d565b5b50919050565b600082905092915050565b7f4e487b7100000000000000000000000000000000000000000000000000000000600052604160045260246000fd5b60008190508160005260206000209050919050565b60006020601f8301049050919050565b600082821b905092915050565b6000600883026122597fffffffffffffffffffffffffffffffffffffffffffffffffffffffffffffffff8261221c565b612263868361221c565b95508019841693508086168417925050509392505050565b6000819050919050565b60006122a061229b612296846119a6565b61227b565b6119a6565b9050919050565b6000819050919050565b6122ba83612285565b6122ce6122c6826122a7565b848454612229565b825550505050565b600090565b6122e36122d6565b6122ee8184846122b1565b505050565b5b81811015612312576123076000826122db565b6001810190506122f4565b5050565b601f82111561235757612328816121f7565b6123318461220c565b81016020851015612340578190505b61235461234c8561220c565b8301826122f3565b50505b505050565b600082821c905092915050565b600061237a6000198460080261235c565b1980831691505092915050565b60006123938383612369565b9150826002028217905092915050565b6123ad83836121bd565b67ffffffffffffffff8111156123c6576123c56121c8565b5b6123d0825461218c565b6123db828285612316565b6000601f83116001811461240a57600084156123f8578287013590505b6124028582612387565b86555061246a565b601f198416612418866121f7565b60005b828110156124405784890135825560018201915060208501945060208101905061241b565b8683101561245d5784890135612459601f891682612369565b8355505b6001600288020188555050505b50505050505050565b7f4e487b7100000000000000000000000000000000000000000000000000000000600052603260045260246000fd5b600080fd5b600080fd5b600080fd5b600080833560016020038436030381126124ce576124cd6124a2565b5b80840192508235915067ffffffffffffffff8211156124f0576124ef6124a7565b5b60208301925060018202360383131561250c5761250b6124ac565b5b509250929050565b7f4e487b7100000000000000000000000000000000000000000000000000000000600052601160045260246000fd5b600061254e826119a6565b91507fffffffffffffffffffffffffffffffffffffffffffffffffffffffffffffffff82036125805761257f612514565b5b600182019050919050565b6000612596826119a6565b91506125a1836119a6565b92508282019050808211156125b9576125b8612514565b5b92915050565b82818337600083830152505050565b60006125da83856119ca565b93506125e78385846125bf565b6125f083611a05565b840190509392505050565b6000819050919050565b60006126118385611a7b565b935061261e8385846125bf565b61262783611a05565b840190509392505050565b600061263f848484612605565b90509392505050565b600080fd5b600080fd5b600080fd5b6000808335600160200384360303811261267457612673612652565b5b83810192508235915060208301925067ffffffffffffffff82111561269c5761269b612648565b5b6001820236038313156126b2576126b161264d565b5b509250929050565b6000602082019050919050565b60006126d38385611a5a565b9350836020840285016126e5846125fb565b8060005b8781101561272b5784840389526127008284612657565b61270b868284612632565b9550612716846126ba565b935060208b019a5050506001810190506126e9565b50829750879450505050509392505050565b6000608082019050818103600083015261275881898b6125ce565b9050818103602083015261276d8187896125ce565b905081810360408301526127828185876126c7565b905061279160608301846119b0565b98975050505050505050565b7f496e76616c696420616d6f756e74000000000000000000000000000000000000600082015250565b60006127d3600e836119ca565b91506127de8261279d565b602082019050919050565b60006020820190508181036000830152612802816127c6565b9050919050565b7f546f6b656e73207374696c6c206c6f636b656400000000000000000000000000600082015250565b600061283f6013836119ca565b915061284a82612809565b602082019050919050565b6000602082019050818103600083015261286e81612832565b9050919050565b6000612880826119a6565b915061288b836119a6565b92508282039050818111156128a3576128a2612514565b5b92915050565b60006128b4826119a6565b91506128bf836119a6565b92508282026128cd816119a6565b915082820484148315176128e4576128e3612514565b5b5092915050565b7f4e487b7100000000000000000000000000000000000000000000000000000000600052601260045260246000fd5b6000612925826119a6565b9150612930836119a6565b9250826129405761293f6128eb565b5b828204905092915050565b7f496e73756666696369656e7420636f6e74726163742062616c616e6365000000600082015250565b6000612981601d836119ca565b915061298c8261294b565b602082019050919050565b600060208201905081810360008301526129b081612974565b9050919050565b600081905092915050565b50565b60006129d26000836129b7565b91506129dd826129c2565b600082019050919050565b60006129f3826129c5565b9150819050919050565b7f5472616e73666572206661696c65640000000000000000000000000000000000600082015250565b6000612a33600f836119ca565b9150612a3e826129fd565b602082019050919050565b60006020820190508181036000830152612a6281612a26565b9050919050565b6000604082019050612a7e60008301856119b0565b612a8b60208301846119b0565b9392505050565b7f4e6f207265776172647300000000000000000000000000000000000000000000600082015250565b6000612ac8600a836119ca565b9150612ad382612a92565b602082019050919050565b60006020820190508181036000830152612af781612abb565b9050919050565b7f526577617264207472616e73666572206661696c656400000000000000000000600082015250565b6000612b346016836119ca565b9150612b3f82612afe565b602082019050919050565b60006020820190508181036000830152612b6381612b27565b9050919050565b7f5374616b65206d757374206265203e2030000000000000000000000000000000600082015250565b6000612ba06011836119ca565b9150612bab82612b6a565b602082019050919050565b60006020820190508181036000830152612bcf81612b93565b9050919050565b7f526577617264207261746520312d313025000000000000000000000000000000600082015250565b6000612c0c6011836119ca565b9150612c1782612bd6565b602082019050919050565b60006020820190508181036000830152612c3b81612bff565b9050919050565b7f4f776e61626c653a206e6577206f776e657220697320746865207a65726f206160008201527f6464726573730000000000000000000000000000000000000000000000000000602082015250565b6000612c9e6026836119ca565b9150612ca982612c42565b604082019050919050565b60006020820190508181036000830152612ccd81612c91565b9050919050565b7f5265656e7472616e637947756172643a207265656e7472616e742063616c6c00600082015250565b6000612d0a601f836119ca565b9150612d1582612cd4565b602082019050919050565b60006020820190508181036000830152612d3981612cfd565b9050919050565b7f4f776e61626c653a2063616c6c6572206973206e6f7420746865206f776e6572600082015250565b6000612d766020836119ca565b9150612d8182612d40565b602082019050919050565b60006020820190508181036000830152612da581612d69565b905091905056fea2646970667358221220e3ee7898dc3ce677eb64a949880e6deae39c2af30ef53fcf9ddfae63f01452c164736f6c63430008140033",
  "linkReferences": {},
  "deployedLinkReferences": {}
}