{
  "_format": "hh-sol-artifact-1",
  "contractName": "FreelanceDAODisputeContract",
  "sourceName": "contracts/FreeLanceDAODisputeContract.sol",
  "abi": [
    {
      "inputs": [
        {
          "internalType": "uint256",
          "name": "_quorum",
          "type": "uint256"
        }
      ],
      "stateMutability": "nonpayable",
      "type": "constructor"
    },
    {
      "inputs": [
        {
          "internalType": "address",
          "name": "owner",
          "type": "address"
        }
      ],
      "name": "OwnableInvalidOwner",
      "type": "error"
    },
    {
      "inputs": [
        {
          "internalType": "address",
          "name": "account",
          "type": "address"
        }
      ],
      "name": "OwnableUnauthorizedAccount",
      "type": "error"
    },
    {
      "inputs": [],
      "name": "ReentrancyGuardReentrantCall",
      "type": "error"
    },
    {
      "anonymous": false,
      "inputs": [
        {
          "indexed": true,
          "internalType": "address",
          "name": "member",
          "type": "address"
        }
      ],
      "name": "DaoMemberAdded",
      "type": "event"
    },
    {
      "anonymous": false,
      "inputs": [
        {
          "indexed": true,
          "internalType": "address",
          "name": "member",
          "type": "address"
        }
      ],
      "name": "DaoMemberRemoved",
      "type": "event"
    },
    {
      "anonymous": false,
      "inputs": [
        {
          "indexed": true,
          "internalType": "uint256",
          "name": "disputeId",
          "type": "uint256"
        },
        {
          "indexed": true,
          "internalType": "uint256",
          "name": "jobId",
          "type": "uint256"
        },
        {
          "indexed": true,
          "internalType": "address",
          "name": "client",
          "type": "address"
        },
        {
          "indexed": false,
          "internalType": "address",
          "name": "freelancer",
          "type": "address"
        },
        {
          "indexed": false,
          "internalType": "string",
          "name": "title",
          "type": "string"
        },
        {
          "indexed": false,
          "internalType": "uint256",
          "name": "amount",
          "type": "uint256"
        },
        {
          "indexed": false,
          "internalType": "string",
          "name": "category",
          "type": "string"
        },
        {
          "indexed": false,
          "internalType": "string",
          "name": "description",
          "type": "string"
        }
      ],
      "name": "DisputeCreated",
      "type": "event"
    },
    {
      "anonymous": false,
      "inputs": [
        {
          "indexed": true,
          "internalType": "uint256",
          "name": "disputeId",
          "type": "uint256"
        },
        {
          "indexed": true,
          "internalType": "address",
          "name": "winner",
          "type": "address"
        },
        {
          "indexed": false,
          "internalType": "enum FreelanceDAODisputeContract.DisputeStatus",
          "name": "status",
          "type": "uint8"
        }
      ],
      "name": "DisputeResolved",
      "type": "event"
    },
    {
      "anonymous": false,
      "inputs": [
        {
          "indexed": true,
          "internalType": "address",
          "name": "previousOwner",
          "type": "address"
        },
        {
          "indexed": true,
          "internalType": "address",
          "name": "newOwner",
          "type": "address"
        }
      ],
      "name": "OwnershipTransferred",
      "type": "event"
    },
    {
      "anonymous": false,
      "inputs": [
        {
          "indexed": true,
          "internalType": "uint256",
          "name": "disputeId",
          "type": "uint256"
        },
        {
          "indexed": true,
          "internalType": "address",
          "name": "voter",
          "type": "address"
        },
        {
          "indexed": false,
          "internalType": "string",
          "name": "side",
          "type": "string"
        }
      ],
      "name": "VoteCast",
      "type": "event"
    },
    {
      "inputs": [
        {
          "internalType": "address",
          "name": "member",
          "type": "address"
        }
      ],
      "name": "addDaoMember",
      "outputs": [],
      "stateMutability": "nonpayable",
      "type": "function"
    },
    {
      "inputs": [
        {
          "internalType": "uint256",
          "name": "jobId",
          "type": "uint256"
        },
        {
          "internalType": "address",
          "name": "freelancer",
          "type": "address"
        },
        {
          "internalType": "string",
          "name": "title",
          "type": "string"
        },
        {
          "internalType": "uint256",
          "name": "amount",
          "type": "uint256"
        },
        {
          "internalType": "string",
          "name": "category",
          "type": "string"
        },
        {
          "internalType": "string",
          "name": "description",
          "type": "string"
        }
      ],
      "name": "createDispute",
      "outputs": [
        {
          "internalType": "uint256",
          "name": "",
          "type": "uint256"
        }
      ],
      "stateMutability": "nonpayable",
      "type": "function"
    },
    {
      "inputs": [
        {
          "internalType": "address",
          "name": "",
          "type": "address"
        }
      ],
      "name": "daoMembers",
      "outputs": [
        {
          "internalType": "bool",
          "name": "",
          "type": "bool"
        }
      ],
      "stateMutability": "view",
      "type": "function"
    },
    {
      "inputs": [
        {
          "internalType": "uint256",
          "name": "",
          "type": "uint256"
        },
        {
          "internalType": "address",
          "name": "",
          "type": "address"
        }
      ],
      "name": "disputeVotes",
      "outputs": [
        {
          "internalType": "bool",
          "name": "",
          "type": "bool"
        }
      ],
      "stateMutability": "view",
      "type": "function"
    },
    {
      "inputs": [],
      "name": "getAllDisputes",
      "outputs": [
        {
          "components": [
            {
              "internalType": "uint256",
              "name": "disputeId",
              "type": "uint256"
            },
            {
              "internalType": "uint256",
              "name": "jobId",
              "type": "uint256"
            },
            {
              "internalType": "address",
              "name": "client",
              "type": "address"
            },
            {
              "internalType": "address",
              "name": "freelancer",
              "type": "address"
            },
            {
              "internalType": "string",
              "name": "title",
              "type": "string"
            },
            {
              "internalType": "uint256",
              "name": "amount",
              "type": "uint256"
            },
            {
              "internalType": "string",
              "name": "category",
              "type": "string"
            },
            {
              "internalType": "string",
              "name": "description",
              "type": "string"
            },
            {
              "internalType": "uint256",
              "name": "votesForClient",
              "type": "uint256"
            },
            {
              "internalType": "uint256",
              "name": "votesForFreelancer",
              "type": "uint256"
            },
            {
              "internalType": "enum FreelanceDAODisputeContract.DisputeStatus",
              "name": "status",
              "type": "uint8"
            },
            {
              "internalType": "address",
              "name": "winner",
              "type": "address"
            },
            {
              "internalType": "bool",
              "name": "exists",
              "type": "bool"
            }
          ],
          "internalType": "struct FreelanceDAODisputeContract.Dispute[]",
          "name": "",
          "type": "tuple[]"
        }
      ],
      "stateMutability": "view",
      "type": "function"
    },
    {
      "inputs": [
        {
          "internalType": "uint256",
          "name": "disputeId",
          "type": "uint256"
        }
      ],
      "name": "getDispute",
      "outputs": [
        {
          "internalType": "uint256",
          "name": "id",
          "type": "uint256"
        },
        {
          "internalType": "uint256",
          "name": "jobId",
          "type": "uint256"
        },
        {
          "internalType": "address",
          "name": "client",
          "type": "address"
        },
        {
          "internalType": "address",
          "name": "freelancer",
          "type": "address"
        },
        {
          "internalType": "string",
          "name": "title",
          "type": "string"
        },
        {
          "internalType": "uint256",
          "name": "amount",
          "type": "uint256"
        },
        {
          "internalType": "string",
          "name": "category",
          "type": "string"
        },
        {
          "internalType": "string",
          "name": "description",
          "type": "string"
        },
        {
          "internalType": "uint256",
          "name": "votesForClient",
          "type": "uint256"
        },
        {
          "internalType": "uint256",
          "name": "votesForFreelancer",
          "type": "uint256"
        },
        {
          "internalType": "enum FreelanceDAODisputeContract.DisputeStatus",
          "name": "status",
          "type": "uint8"
        },
        {
          "internalType": "address",
          "name": "winner",
          "type": "address"
        }
      ],
      "stateMutability": "view",
      "type": "function"
    },
    {
      "inputs": [
        {
          "internalType": "address",
          "name": "user",
          "type": "address"
        }
      ],
      "name": "getUserDisputes",
      "outputs": [
        {
          "components": [
            {
              "internalType": "uint256",
              "name": "disputeId",
              "type": "uint256"
            },
            {
              "internalType": "uint256",
              "name": "jobId",
              "type": "uint256"
            },
            {
              "internalType": "address",
              "name": "client",
              "type": "address"
            },
            {
              "internalType": "address",
              "name": "freelancer",
              "type": "address"
            },
            {
              "internalType": "string",
              "name": "title",
              "type": "string"
            },
            {
              "internalType": "uint256",
              "name": "amount",
              "type": "uint256"
            },
            {
              "internalType": "string",
              "name": "category",
              "type": "string"
            },
            {
              "internalType": "string",
              "name": "description",
              "type": "string"
            },
            {
              "internalType": "uint256",
              "name": "votesForClient",
              "type": "uint256"
            },
            {
              "internalType": "uint256",
              "name": "votesForFreelancer",
              "type": "uint256"
            },
            {
              "internalType": "enum FreelanceDAODisputeContract.DisputeStatus",
              "name": "status",
              "type": "uint8"
            },
            {
              "internalType": "address",
              "name": "winner",
              "type": "address"
            },
            {
              "internalType": "bool",
              "name": "exists",
              "type": "bool"
            }
          ],
          "internalType": "struct FreelanceDAODisputeContract.Dispute[]",
          "name": "",
          "type": "tuple[]"
        }
      ],
      "stateMutability": "view",
      "type": "function"
    },
    {
      "inputs": [],
      "name": "nextDisputeId",
      "outputs": [
        {
          "internalType": "uint256",
          "name": "",
          "type": "uint256"
        }
      ],
      "stateMutability": "view",
      "type": "function"
    },
    {
      "inputs": [],
      "name": "owner",
      "outputs": [
        {
          "internalType": "address",
          "name": "",
          "type": "address"
        }
      ],
      "stateMutability": "view",
      "type": "function"
    },
    {
      "inputs": [],
      "name": "quorum",
      "outputs": [
        {
          "internalType": "uint256",
          "name": "",
          "type": "uint256"
        }
      ],
      "stateMutability": "view",
      "type": "function"
    },
    {
      "inputs": [
        {
          "internalType": "address",
          "name": "member",
          "type": "address"
        }
      ],
      "name": "removeDaoMember",
      "outputs": [],
      "stateMutability": "nonpayable",
      "type": "function"
    },
    {
      "inputs": [],
      "name": "renounceOwnership",
      "outputs": [],
      "stateMutability": "nonpayable",
      "type": "function"
    },
    {
      "inputs": [
        {
          "internalType": "uint256",
          "name": "_newQuorum",
          "type": "uint256"
        }
      ],
      "name": "setQuorum",
      "outputs": [],
      "stateMutability": "nonpayable",
      "type": "function"
    },
    {
      "inputs": [
        {
          "internalType": "address",
          "name": "newOwner",
          "type": "address"
        }
      ],
      "name": "transferOwnership",
      "outputs": [],
      "stateMutability": "nonpayable",
      "type": "function"
    },
    {
      "inputs": [
        {
          "internalType": "uint256",
          "name": "disputeId",
          "type": "uint256"
        },
        {
          "internalType": "bool",
          "name": "voteForClient",
          "type": "bool"
        }
      ],
      "name": "voteOnDispute",
      "outputs": [],
      "stateMutability": "nonpayable",
      "type": "function"
    }
  ],
  "bytecode": "0x608060405260016002553480156200001657600080fd5b50604051620034293803806200342983398181016040528101906200003c919062000223565b33600073ffffffffffffffffffffffffffffffffffffffff168173ffffffffffffffffffffffffffffffffffffffff1603620000b25760006040517f1e4fbdf7000000000000000000000000000000000000000000000000000000008152600401620000a991906200029a565b60405180910390fd5b620000c3816200011f60201b60201c565b50600180819055506000811162000111576040517f08c379a0000000000000000000000000000000000000000000000000000000008152600401620001089062000318565b60405180910390fd5b80600381905550506200033a565b60008060009054906101000a900473ffffffffffffffffffffffffffffffffffffffff169050816000806101000a81548173ffffffffffffffffffffffffffffffffffffffff021916908373ffffffffffffffffffffffffffffffffffffffff1602179055508173ffffffffffffffffffffffffffffffffffffffff168173ffffffffffffffffffffffffffffffffffffffff167f8be0079c531659141344cd1fd0a4f28419497f9722a3daafe3b4186f6b6457e060405160405180910390a35050565b600080fd5b6000819050919050565b620001fd81620001e8565b81146200020957600080fd5b50565b6000815190506200021d81620001f2565b92915050565b6000602082840312156200023c576200023b620001e3565b5b60006200024c848285016200020c565b91505092915050565b600073ffffffffffffffffffffffffffffffffffffffff82169050919050565b6000620002828262000255565b9050919050565b620002948162000275565b82525050565b6000602082019050620002b1600083018462000289565b92915050565b600082825260208201905092915050565b7f51756f72756d206d757374206265203e20300000000000000000000000000000600082015250565b600062000300601283620002b7565b91506200030d82620002c8565b602082019050919050565b600060208201905081810360008301526200033381620002f1565b9050919050565b6130df806200034a6000396000f3fe608060405234801561001057600080fd5b50600436106100f55760003560e01c8063864defa211610097578063bfb0a55b11610066578063bfb0a55b14610260578063c1ba4e5914610290578063e3a96cbd146102ac578063f2fde38b146102e7576100f5565b8063864defa2146101da5780638da5cb5b146101f6578063959068ea14610214578063a4f5df1214610244576100f5565b8063203d82cb116100d3578063203d82cb1461015457806357e74394146101845780635feaa01c146101b4578063715018a6146101d0576100f5565b80630db39934146100fa5780631703a018146101185780631dd9997f14610136575b600080fd5b610102610303565b60405161010f9190611ee0565b60405180910390f35b610120610309565b60405161012d9190611ee0565b60405180910390f35b61013e61030f565b60405161014b9190612256565b60405180910390f35b61016e600480360381019061016991906122da565b610732565b60405161017b9190612329565b60405180910390f35b61019e600480360381019061019991906123a9565b610761565b6040516101ab9190611ee0565b60405180910390f35b6101ce60048036038101906101c99190612498565b610a9a565b005b6101d8610bcc565b005b6101f460048036038101906101ef9190612498565b610be0565b005b6101fe610d82565b60405161020b91906124d4565b60405180910390f35b61022e60048036038101906102299190612498565b610dab565b60405161023b9190612329565b60405180910390f35b61025e6004803603810190610259919061251b565b610dcb565b005b61027a60048036038101906102759190612498565b611153565b6040516102879190612256565b60405180910390f35b6102aa60048036038101906102a5919061255b565b6115c3565b005b6102c660048036038101906102c1919061255b565b611618565b6040516102de9c9b9a999897969594939291906125e1565b60405180910390f35b61030160048036038101906102fc9190612498565b611905565b005b60025481565b60035481565b60606000600160025461032291906126df565b905060008167ffffffffffffffff8111156103405761033f612713565b5b60405190808252806020026020018201604052801561037957816020015b610366611e09565b81526020019060019003908161035e5790505b50905060005b828110156107295760006001826103969190612742565b905060056000828152602001908152602001600020604051806101a001604052908160008201548152602001600182015481526020016002820160009054906101000a900473ffffffffffffffffffffffffffffffffffffffff1673ffffffffffffffffffffffffffffffffffffffff1673ffffffffffffffffffffffffffffffffffffffff1681526020016003820160009054906101000a900473ffffffffffffffffffffffffffffffffffffffff1673ffffffffffffffffffffffffffffffffffffffff1673ffffffffffffffffffffffffffffffffffffffff168152602001600482018054610487906127a5565b80601f01602080910402602001604051908101604052809291908181526020018280546104b3906127a5565b80156105005780601f106104d557610100808354040283529160200191610500565b820191906000526020600020905b8154815290600101906020018083116104e357829003601f168201915b5050505050815260200160058201548152602001600682018054610523906127a5565b80601f016020809104026020016040519081016040528092919081815260200182805461054f906127a5565b801561059c5780601f106105715761010080835404028352916020019161059c565b820191906000526020600020905b81548152906001019060200180831161057f57829003601f168201915b505050505081526020016007820180546105b5906127a5565b80601f01602080910402602001604051908101604052809291908181526020018280546105e1906127a5565b801561062e5780601f106106035761010080835404028352916020019161062e565b820191906000526020600020905b81548152906001019060200180831161061157829003601f168201915b505050505081526020016008820154815260200160098201548152602001600a820160009054906101000a900460ff1660038111156106705761066f612007565b5b600381111561068257610681612007565b5b8152602001600a820160019054906101000a900473ffffffffffffffffffffffffffffffffffffffff1673ffffffffffffffffffffffffffffffffffffffff1673ffffffffffffffffffffffffffffffffffffffff168152602001600a820160159054906101000a900460ff16151515158152505083838151811061070a576107096127d6565b5b602002602001018190525050808061072190612805565b91505061037f565b50809250505090565b60066020528160005260406000206020528060005260406000206000915091509054906101000a900460ff1681565b60008073ffffffffffffffffffffffffffffffffffffffff168973ffffffffffffffffffffffffffffffffffffffff16036107d1576040517f08c379a00000000000000000000000000000000000000000000000000000000081526004016107c890612899565b60405180910390fd5b6000600260008154809291906107e690612805565b91905055905060006005600083815260200190815260200160002090508181600001819055508b8160010181905550338160020160006101000a81548173ffffffffffffffffffffffffffffffffffffffff021916908373ffffffffffffffffffffffffffffffffffffffff1602179055508a8160030160006101000a81548173ffffffffffffffffffffffffffffffffffffffff021916908373ffffffffffffffffffffffffffffffffffffffff16021790555089898260040191826108ae929190612a70565b5087816005018190555086868260060191826108cb929190612a70565b5084848260070191826108df929190612a70565b50600081600a0160006101000a81548160ff0219169083600381111561090857610907612007565b5b0217905550600181600a0160156101000a81548160ff021916908315150217905550600760003373ffffffffffffffffffffffffffffffffffffffff1673ffffffffffffffffffffffffffffffffffffffff1681526020019081526020016000208290806001815401808255809150506001900390600052602060002001600090919091909150553373ffffffffffffffffffffffffffffffffffffffff168b73ffffffffffffffffffffffffffffffffffffffff1614610a2a57600760008c73ffffffffffffffffffffffffffffffffffffffff1673ffffffffffffffffffffffffffffffffffffffff1681526020019081526020016000208290806001815401808255809150506001900390600052602060002001600090919091909150555b3373ffffffffffffffffffffffffffffffffffffffff168c837f51d2f8b55057073d42dbcb6a71241adbb952e0628942cdc5d8df58545e07b1778e8e8e8e8e8e8e8e604051610a80989796959493929190612b7c565b60405180910390a481925050509998505050505050505050565b610aa261198b565b600460008273ffffffffffffffffffffffffffffffffffffffff1673ffffffffffffffffffffffffffffffffffffffff16815260200190815260200160002060009054906101000a900460ff16610b2e576040517f08c379a0000000000000000000000000000000000000000000000000000000008152600401610b2590612c36565b60405180910390fd5b6000600460008373ffffffffffffffffffffffffffffffffffffffff1673ffffffffffffffffffffffffffffffffffffffff16815260200190815260200160002060006101000a81548160ff0219169083151502179055508073ffffffffffffffffffffffffffffffffffffffff167f1806bec4ba806283d7bedad066d84ceeaac768b71c22e1743d9508650135a3f360405160405180910390a250565b610bd461198b565b610bde6000611a12565b565b610be861198b565b600073ffffffffffffffffffffffffffffffffffffffff168173ffffffffffffffffffffffffffffffffffffffff1603610c57576040517f08c379a0000000000000000000000000000000000000000000000000000000008152600401610c4e90612ca2565b60405180910390fd5b600460008273ffffffffffffffffffffffffffffffffffffffff1673ffffffffffffffffffffffffffffffffffffffff16815260200190815260200160002060009054906101000a900460ff1615610ce4576040517f08c379a0000000000000000000000000000000000000000000000000000000008152600401610cdb90612d0e565b60405180910390fd5b6001600460008373ffffffffffffffffffffffffffffffffffffffff1673ffffffffffffffffffffffffffffffffffffffff16815260200190815260200160002060006101000a81548160ff0219169083151502179055508073ffffffffffffffffffffffffffffffffffffffff167f35b658d712e45f976c17007529cd1cb687614e83ce49a1ee563570ac818452e660405160405180910390a250565b60008060009054906101000a900473ffffffffffffffffffffffffffffffffffffffff16905090565b60046020528060005260406000206000915054906101000a900460ff1681565b610dd3611ad6565b600460003373ffffffffffffffffffffffffffffffffffffffff1673ffffffffffffffffffffffffffffffffffffffff16815260200190815260200160002060009054906101000a900460ff16610e5f576040517f08c379a0000000000000000000000000000000000000000000000000000000008152600401610e5690612d7a565b60405180910390fd5b600060056000848152602001908152602001600020905080600a0160159054906101000a900460ff16610ec7576040517f08c379a0000000000000000000000000000000000000000000000000000000008152600401610ebe90612de6565b60405180910390fd5b60006003811115610edb57610eda612007565b5b81600a0160009054906101000a900460ff166003811115610eff57610efe612007565b5b14610f3f576040517f08c379a0000000000000000000000000000000000000000000000000000000008152600401610f3690612e52565b60405180910390fd5b6006600084815260200190815260200160002060003373ffffffffffffffffffffffffffffffffffffffff1673ffffffffffffffffffffffffffffffffffffffff16815260200190815260200160002060009054906101000a900460ff1615610fdd576040517f08c379a0000000000000000000000000000000000000000000000000000000008152600401610fd490612ebe565b60405180910390fd5b60016006600085815260200190815260200160002060003373ffffffffffffffffffffffffffffffffffffffff1673ffffffffffffffffffffffffffffffffffffffff16815260200190815260200160002060006101000a81548160ff02191690831515021790555081156110b85780600801600081548092919061106190612805565b91905055503373ffffffffffffffffffffffffffffffffffffffff16837ff707341d6361ac6d7fe6b6db1fbb91b1d8634754ce51f2244ccbfab475d327f46040516110ab90612f2a565b60405180910390a3611120565b8060090160008154809291906110cd90612805565b91905055503373ffffffffffffffffffffffffffffffffffffffff16837ff707341d6361ac6d7fe6b6db1fbb91b1d8634754ce51f2244ccbfab475d327f460405161111790612f96565b60405180910390a35b600354816009015482600801546111379190612742565b106111465761114583611b1c565b5b5061114f611df8565b5050565b60606000600760008473ffffffffffffffffffffffffffffffffffffffff1673ffffffffffffffffffffffffffffffffffffffff168152602001908152602001600020905060008180549050905060008167ffffffffffffffff8111156111bd576111bc612713565b5b6040519080825280602002602001820160405280156111f657816020015b6111e3611e09565b8152602001906001900390816111db5790505b50905060005b828110156115b7576000848281548110611219576112186127d6565b5b9060005260206000200154905060056000828152602001908152602001600020604051806101a001604052908160008201548152602001600182015481526020016002820160009054906101000a900473ffffffffffffffffffffffffffffffffffffffff1673ffffffffffffffffffffffffffffffffffffffff1673ffffffffffffffffffffffffffffffffffffffff1681526020016003820160009054906101000a900473ffffffffffffffffffffffffffffffffffffffff1673ffffffffffffffffffffffffffffffffffffffff1673ffffffffffffffffffffffffffffffffffffffff168152602001600482018054611315906127a5565b80601f0160208091040260200160405190810160405280929190818152602001828054611341906127a5565b801561138e5780601f106113635761010080835404028352916020019161138e565b820191906000526020600020905b81548152906001019060200180831161137157829003601f168201915b50505050508152602001600582015481526020016006820180546113b1906127a5565b80601f01602080910402602001604051908101604052809291908181526020018280546113dd906127a5565b801561142a5780601f106113ff5761010080835404028352916020019161142a565b820191906000526020600020905b81548152906001019060200180831161140d57829003601f168201915b50505050508152602001600782018054611443906127a5565b80601f016020809104026020016040519081016040528092919081815260200182805461146f906127a5565b80156114bc5780601f10611491576101008083540402835291602001916114bc565b820191906000526020600020905b81548152906001019060200180831161149f57829003601f168201915b505050505081526020016008820154815260200160098201548152602001600a820160009054906101000a900460ff1660038111156114fe576114fd612007565b5b60038111156115105761150f612007565b5b8152602001600a820160019054906101000a900473ffffffffffffffffffffffffffffffffffffffff1673ffffffffffffffffffffffffffffffffffffffff1673ffffffffffffffffffffffffffffffffffffffff168152602001600a820160159054906101000a900460ff161515151581525050838381518110611598576115976127d6565b5b60200260200101819052505080806115af90612805565b9150506111fc565b50809350505050919050565b6115cb61198b565b6000811161160e576040517f08c379a000000000000000000000000000000000000000000000000000000000815260040161160590613002565b60405180910390fd5b8060038190555050565b600080600080606060006060806000806000806000600560008f8152602001908152602001600020905080600a0160159054906101000a900460ff16611693576040517f08c379a000000000000000000000000000000000000000000000000000000000815260040161168a90612de6565b60405180910390fd5b806000015481600101548260020160009054906101000a900473ffffffffffffffffffffffffffffffffffffffff168360030160009054906101000a900473ffffffffffffffffffffffffffffffffffffffff168460040185600501548660060187600701886008015489600901548a600a0160009054906101000a900460ff168b600a0160019054906101000a900473ffffffffffffffffffffffffffffffffffffffff16878054611745906127a5565b80601f0160208091040260200160405190810160405280929190818152602001828054611771906127a5565b80156117be5780601f10611793576101008083540402835291602001916117be565b820191906000526020600020905b8154815290600101906020018083116117a157829003601f168201915b505050505097508580546117d1906127a5565b80601f01602080910402602001604051908101604052809291908181526020018280546117fd906127a5565b801561184a5780601f1061181f5761010080835404028352916020019161184a565b820191906000526020600020905b81548152906001019060200180831161182d57829003601f168201915b5050505050955084805461185d906127a5565b80601f0160208091040260200160405190810160405280929190818152602001828054611889906127a5565b80156118d65780601f106118ab576101008083540402835291602001916118d6565b820191906000526020600020905b8154815290600101906020018083116118b957829003601f168201915b505050505094509c509c509c509c509c509c509c509c509c509c509c509c505091939597999b5091939597999b565b61190d61198b565b600073ffffffffffffffffffffffffffffffffffffffff168173ffffffffffffffffffffffffffffffffffffffff160361197f5760006040517f1e4fbdf700000000000000000000000000000000000000000000000000000000815260040161197691906124d4565b60405180910390fd5b61198881611a12565b50565b611993611e01565b73ffffffffffffffffffffffffffffffffffffffff166119b1610d82565b73ffffffffffffffffffffffffffffffffffffffff1614611a10576119d4611e01565b6040517f118cdaa7000000000000000000000000000000000000000000000000000000008152600401611a0791906124d4565b60405180910390fd5b565b60008060009054906101000a900473ffffffffffffffffffffffffffffffffffffffff169050816000806101000a81548173ffffffffffffffffffffffffffffffffffffffff021916908373ffffffffffffffffffffffffffffffffffffffff1602179055508173ffffffffffffffffffffffffffffffffffffffff168173ffffffffffffffffffffffffffffffffffffffff167f8be0079c531659141344cd1fd0a4f28419497f9722a3daafe3b4186f6b6457e060405160405180910390a35050565b600260015403611b12576040517f3ee5aeb500000000000000000000000000000000000000000000000000000000815260040160405180910390fd5b6002600181905550565b600060056000838152602001908152602001600020905060006003811115611b4757611b46612007565b5b81600a0160009054906101000a900460ff166003811115611b6b57611b6a612007565b5b14611bab576040517f08c379a0000000000000000000000000000000000000000000000000000000008152600401611ba29061306e565b60405180910390fd5b806009015481600801541115611c5457600381600a0160006101000a81548160ff02191690836003811115611be357611be2612007565b5b02179055508060020160009054906101000a900473ffffffffffffffffffffffffffffffffffffffff1681600a0160016101000a81548173ffffffffffffffffffffffffffffffffffffffff021916908373ffffffffffffffffffffffffffffffffffffffff160217905550611d70565b806008015481600901541115611cfd57600381600a0160006101000a81548160ff02191690836003811115611c8c57611c8b612007565b5b02179055508060030160009054906101000a900473ffffffffffffffffffffffffffffffffffffffff1681600a0160016101000a81548173ffffffffffffffffffffffffffffffffffffffff021916908373ffffffffffffffffffffffffffffffffffffffff160217905550611d6f565b600281600a0160006101000a81548160ff02191690836003811115611d2557611d24612007565b5b0217905550600081600a0160016101000a81548173ffffffffffffffffffffffffffffffffffffffff021916908373ffffffffffffffffffffffffffffffffffffffff1602179055505b5b80600a0160019054906101000a900473ffffffffffffffffffffffffffffffffffffffff1673ffffffffffffffffffffffffffffffffffffffff16827f0a1a08d07b8bb2ef5e6eea14f3719239138f1ce03a4ceea3196c1000a265c12a83600a0160009054906101000a900460ff16604051611dec919061308e565b60405180910390a35050565b60018081905550565b600033905090565b604051806101a001604052806000815260200160008152602001600073ffffffffffffffffffffffffffffffffffffffff168152602001600073ffffffffffffffffffffffffffffffffffffffff16815260200160608152602001600081526020016060815260200160608152602001600081526020016000815260200160006003811115611e9b57611e9a612007565b5b8152602001600073ffffffffffffffffffffffffffffffffffffffff1681526020016000151581525090565b6000819050919050565b611eda81611ec7565b82525050565b6000602082019050611ef56000830184611ed1565b92915050565b600081519050919050565b600082825260208201905092915050565b6000819050602082019050919050565b611f3081611ec7565b82525050565b600073ffffffffffffffffffffffffffffffffffffffff82169050919050565b6000611f6182611f36565b9050919050565b611f7181611f56565b82525050565b600081519050919050565b600082825260208201905092915050565b60005b83811015611fb1578082015181840152602081019050611f96565b60008484015250505050565b6000601f19601f8301169050919050565b6000611fd982611f77565b611fe38185611f82565b9350611ff3818560208601611f93565b611ffc81611fbd565b840191505092915050565b7f4e487b7100000000000000000000000000000000000000000000000000000000600052602160045260246000fd5b6004811061204757612046612007565b5b50565b600081905061205882612036565b919050565b60006120688261204a565b9050919050565b6120788161205d565b82525050565b60008115159050919050565b6120938161207e565b82525050565b60006101a0830160008301516120b26000860182611f27565b5060208301516120c56020860182611f27565b5060408301516120d86040860182611f68565b5060608301516120eb6060860182611f68565b50608083015184820360808601526121038282611fce565b91505060a083015161211860a0860182611f27565b5060c083015184820360c08601526121308282611fce565b91505060e083015184820360e086015261214a8282611fce565b915050610100830151612161610100860182611f27565b50610120830151612176610120860182611f27565b5061014083015161218b61014086018261206f565b506101608301516121a0610160860182611f68565b506101808301516121b561018086018261208a565b508091505092915050565b60006121cc8383612099565b905092915050565b6000602082019050919050565b60006121ec82611efb565b6121f68185611f06565b93508360208202850161220885611f17565b8060005b85811015612244578484038952815161222585826121c0565b9450612230836121d4565b925060208a0199505060018101905061220c565b50829750879550505050505092915050565b6000602082019050818103600083015261227081846121e1565b905092915050565b600080fd5b600080fd5b61228b81611ec7565b811461229657600080fd5b50565b6000813590506122a881612282565b92915050565b6122b781611f56565b81146122c257600080fd5b50565b6000813590506122d4816122ae565b92915050565b600080604083850312156122f1576122f0612278565b5b60006122ff85828601612299565b9250506020612310858286016122c5565b9150509250929050565b6123238161207e565b82525050565b600060208201905061233e600083018461231a565b92915050565b600080fd5b600080fd5b600080fd5b60008083601f84011261236957612368612344565b5b8235905067ffffffffffffffff81111561238657612385612349565b5b6020830191508360018202830111156123a2576123a161234e565b5b9250929050565b600080600080600080600080600060c08a8c0312156123cb576123ca612278565b5b60006123d98c828d01612299565b99505060206123ea8c828d016122c5565b98505060408a013567ffffffffffffffff81111561240b5761240a61227d565b5b6124178c828d01612353565b9750975050606061242a8c828d01612299565b95505060808a013567ffffffffffffffff81111561244b5761244a61227d565b5b6124578c828d01612353565b945094505060a08a013567ffffffffffffffff81111561247a5761247961227d565b5b6124868c828d01612353565b92509250509295985092959850929598565b6000602082840312156124ae576124ad612278565b5b60006124bc848285016122c5565b91505092915050565b6124ce81611f56565b82525050565b60006020820190506124e960008301846124c5565b92915050565b6124f88161207e565b811461250357600080fd5b50565b600081359050612515816124ef565b92915050565b6000806040838503121561253257612531612278565b5b600061254085828601612299565b925050602061255185828601612506565b9150509250929050565b60006020828403121561257157612570612278565b5b600061257f84828501612299565b91505092915050565b600082825260208201905092915050565b60006125a482611f77565b6125ae8185612588565b93506125be818560208601611f93565b6125c781611fbd565b840191505092915050565b6125db8161205d565b82525050565b6000610180820190506125f7600083018f611ed1565b612604602083018e611ed1565b612611604083018d6124c5565b61261e606083018c6124c5565b8181036080830152612630818b612599565b905061263f60a083018a611ed1565b81810360c08301526126518189612599565b905081810360e08301526126658188612599565b9050612675610100830187611ed1565b612683610120830186611ed1565b6126916101408301856125d2565b61269f6101608301846124c5565b9d9c50505050505050505050505050565b7f4e487b7100000000000000000000000000000000000000000000000000000000600052601160045260246000fd5b60006126ea82611ec7565b91506126f583611ec7565b925082820390508181111561270d5761270c6126b0565b5b92915050565b7f4e487b7100000000000000000000000000000000000000000000000000000000600052604160045260246000fd5b600061274d82611ec7565b915061275883611ec7565b92508282019050808211156127705761276f6126b0565b5b92915050565b7f4e487b7100000000000000000000000000000000000000000000000000000000600052602260045260246000fd5b600060028204905060018216806127bd57607f821691505b6020821081036127d0576127cf612776565b5b50919050565b7f4e487b7100000000000000000000000000000000000000000000000000000000600052603260045260246000fd5b600061281082611ec7565b91507fffffffffffffffffffffffffffffffffffffffffffffffffffffffffffffffff8203612842576128416126b0565b5b600182019050919050565b7f496e76616c696420667265656c616e6365720000000000000000000000000000600082015250565b6000612883601283612588565b915061288e8261284d565b602082019050919050565b600060208201905081810360008301526128b281612876565b9050919050565b600082905092915050565b60008190508160005260206000209050919050565b60006020601f8301049050919050565b600082821b905092915050565b6000600883026129267fffffffffffffffffffffffffffffffffffffffffffffffffffffffffffffffff826128e9565b61293086836128e9565b95508019841693508086168417925050509392505050565b6000819050919050565b600061296d61296861296384611ec7565b612948565b611ec7565b9050919050565b6000819050919050565b61298783612952565b61299b61299382612974565b8484546128f6565b825550505050565b600090565b6129b06129a3565b6129bb81848461297e565b505050565b5b818110156129df576129d46000826129a8565b6001810190506129c1565b5050565b601f821115612a24576129f5816128c4565b6129fe846128d9565b81016020851015612a0d578190505b612a21612a19856128d9565b8301826129c0565b50505b505050565b600082821c905092915050565b6000612a4760001984600802612a29565b1980831691505092915050565b6000612a608383612a36565b9150826002028217905092915050565b612a7a83836128b9565b67ffffffffffffffff811115612a9357612a92612713565b5b612a9d82546127a5565b612aa88282856129e3565b6000601f831160018114612ad75760008415612ac5578287013590505b612acf8582612a54565b865550612b37565b601f198416612ae5866128c4565b60005b82811015612b0d57848901358255600182019150602085019450602081019050612ae8565b86831015612b2a5784890135612b26601f891682612a36565b8355505b6001600288020188555050505b50505050505050565b82818337600083830152505050565b6000612b5b8385612588565b9350612b68838584612b40565b612b7183611fbd565b840190509392505050565b600060a082019050612b91600083018b6124c5565b8181036020830152612ba481898b612b4f565b9050612bb36040830188611ed1565b8181036060830152612bc6818688612b4f565b90508181036080830152612bdb818486612b4f565b90509998505050505050505050565b7f4e6f7420612044414f206d656d62657200000000000000000000000000000000600082015250565b6000612c20601083612588565b9150612c2b82612bea565b602082019050919050565b60006020820190508181036000830152612c4f81612c13565b9050919050565b7f496e76616c6964206d656d626572000000000000000000000000000000000000600082015250565b6000612c8c600e83612588565b9150612c9782612c56565b602082019050919050565b60006020820190508181036000830152612cbb81612c7f565b9050919050565b7f416c72656164792061206d656d62657200000000000000000000000000000000600082015250565b6000612cf8601083612588565b9150612d0382612cc2565b602082019050919050565b60006020820190508181036000830152612d2781612ceb565b9050919050565b7f4f6e6c792044414f206d656d626572732063616e20766f746500000000000000600082015250565b6000612d64601983612588565b9150612d6f82612d2e565b602082019050919050565b60006020820190508181036000830152612d9381612d57565b9050919050565b7f44697370757465206e6f7420666f756e64000000000000000000000000000000600082015250565b6000612dd0601183612588565b9150612ddb82612d9a565b602082019050919050565b60006020820190508181036000830152612dff81612dc3565b9050919050565b7f4469737075746520636c6f736564000000000000000000000000000000000000600082015250565b6000612e3c600e83612588565b9150612e4782612e06565b602082019050919050565b60006020820190508181036000830152612e6b81612e2f565b9050919050565b7f416c726561647920766f74656400000000000000000000000000000000000000600082015250565b6000612ea8600d83612588565b9150612eb382612e72565b602082019050919050565b60006020820190508181036000830152612ed781612e9b565b9050919050565b7f434c49454e540000000000000000000000000000000000000000000000000000600082015250565b6000612f14600683612588565b9150612f1f82612ede565b602082019050919050565b60006020820190508181036000830152612f4381612f07565b9050919050565b7f465245454c414e43455200000000000000000000000000000000000000000000600082015250565b6000612f80600a83612588565b9150612f8b82612f4a565b602082019050919050565b60006020820190508181036000830152612faf81612f73565b9050919050565b7f51756f72756d206d757374206265203e20300000000000000000000000000000600082015250565b6000612fec601283612588565b9150612ff782612fb6565b602082019050919050565b6000602082019050818103600083015261301b81612fdf565b9050919050565b7f416c7265616479207265736f6c76656400000000000000000000000000000000600082015250565b6000613058601083612588565b915061306382613022565b602082019050919050565b600060208201905081810360008301526130878161304b565b9050919050565b60006020820190506130a360008301846125d2565b9291505056fea2646970667358221220439036a531ff8895b22ecdae5766978513e0558bea187db5ba6ab376cf3e3caf64736f6c63430008140033",
  "linkReferences": {},
  "deployedLinkReferences": {}
}