{
  "_format": "hh-sol-artifact-1",
  "contractName": "FreeLanceDAOProposalContract",
  "sourceName": "contracts/FreeLanceDAOProposal.sol",
  "abi": [
    {
      "inputs": [
        {
          "internalType": "address",
          "name": "_stakingContract",
          "type": "address"
        }
      ],
      "stateMutability": "nonpayable",
      "type": "constructor"
    },
    {
      "anonymous": false,
      "inputs": [
        {
          "indexed": true,
          "internalType": "address",
          "name": "previousOwner",
          "type": "address"
        },
        {
          "indexed": true,
          "internalType": "address",
          "name": "newOwner",
          "type": "address"
        }
      ],
      "name": "OwnershipTransferred",
      "type": "event"
    },
    {
      "anonymous": false,
      "inputs": [
        {
          "indexed": true,
          "internalType": "uint256",
          "name": "id",
          "type": "uint256"
        },
        {
          "indexed": true,
          "internalType": "address",
          "name": "proposer",
          "type": "address"
        },
        {
          "indexed": false,
          "internalType": "string",
          "name": "title",
          "type": "string"
        },
        {
          "indexed": false,
          "internalType": "string",
          "name": "proposalType",
          "type": "string"
        },
        {
          "indexed": false,
          "internalType": "string",
          "name": "category",
          "type": "string"
        },
        {
          "indexed": false,
          "internalType": "uint256",
          "name": "deadline",
          "type": "uint256"
        },
        {
          "indexed": false,
          "internalType": "uint256",
          "name": "feePaid",
          "type": "uint256"
        }
      ],
      "name": "ProposalCreated",
      "type": "event"
    },
    {
      "anonymous": false,
      "inputs": [
        {
          "indexed": true,
          "internalType": "uint256",
          "name": "id",
          "type": "uint256"
        },
        {
          "indexed": false,
          "internalType": "bool",
          "name": "approved",
          "type": "bool"
        }
      ],
      "name": "ProposalFinalized",
      "type": "event"
    },
    {
      "anonymous": false,
      "inputs": [
        {
          "indexed": false,
          "internalType": "uint256",
          "name": "oldThreshold",
          "type": "uint256"
        },
        {
          "indexed": false,
          "internalType": "uint256",
          "name": "newThreshold",
          "type": "uint256"
        }
      ],
      "name": "QuorumThresholdUpdated",
      "type": "event"
    },
    {
      "anonymous": false,
      "inputs": [
        {
          "indexed": true,
          "internalType": "address",
          "name": "oldAddr",
          "type": "address"
        },
        {
          "indexed": true,
          "internalType": "address",
          "name": "newAddr",
          "type": "address"
        }
      ],
      "name": "StakingContractUpdated",
      "type": "event"
    },
    {
      "anonymous": false,
      "inputs": [
        {
          "indexed": true,
          "internalType": "uint256",
          "name": "id",
          "type": "uint256"
        },
        {
          "indexed": true,
          "internalType": "address",
          "name": "voter",
          "type": "address"
        },
        {
          "indexed": false,
          "internalType": "uint256",
          "name": "weight",
          "type": "uint256"
        },
        {
          "indexed": false,
          "internalType": "bool",
          "name": "support",
          "type": "bool"
        }
      ],
      "name": "VoteCast",
      "type": "event"
    },
    {
      "anonymous": false,
      "inputs": [
        {
          "indexed": false,
          "internalType": "uint256",
          "name": "oldPeriod",
          "type": "uint256"
        },
        {
          "indexed": false,
          "internalType": "uint256",
          "name": "newPeriod",
          "type": "uint256"
        }
      ],
      "name": "VotingPeriodUpdated",
      "type": "event"
    },
    {
      "anonymous": false,
      "inputs": [
        {
          "indexed": true,
          "internalType": "address",
          "name": "treasury",
          "type": "address"
        },
        {
          "indexed": false,
          "internalType": "uint256",
          "name": "amount",
          "type": "uint256"
        }
      ],
      "name": "WithdrawnToTreasury",
      "type": "event"
    },
    {
      "stateMutability": "payable",
      "type": "fallback"
    },
    {
      "inputs": [
        {
          "internalType": "string",
          "name": "title",
          "type": "string"
        },
        {
          "internalType": "string",
          "name": "proposalType",
          "type": "string"
        },
        {
          "internalType": "string",
          "name": "category",
          "type": "string"
        },
        {
          "internalType": "string",
          "name": "description",
          "type": "string"
        },
        {
          "internalType": "string[]",
          "name": "tags",
          "type": "string[]"
        }
      ],
      "name": "createProposal",
      "outputs": [
        {
          "internalType": "uint256",
          "name": "",
          "type": "uint256"
        }
      ],
      "stateMutability": "payable",
      "type": "function"
    },
    {
      "inputs": [
        {
          "internalType": "uint256",
          "name": "proposalId",
          "type": "uint256"
        }
      ],
      "name": "finalizeProposal",
      "outputs": [],
      "stateMutability": "nonpayable",
      "type": "function"
    },
    {
      "inputs": [],
      "name": "getAllProposals",
      "outputs": [
        {
          "internalType": "uint256[]",
          "name": "ids",
          "type": "uint256[]"
        },
        {
          "internalType": "address[]",
          "name": "proposers",
          "type": "address[]"
        },
        {
          "internalType": "string[]",
          "name": "titles",
          "type": "string[]"
        },
        {
          "internalType": "string[]",
          "name": "types_",
          "type": "string[]"
        },
        {
          "internalType": "string[]",
          "name": "categories",
          "type": "string[]"
        },
        {
          "internalType": "string[]",
          "name": "descriptions",
          "type": "string[]"
        },
        {
          "internalType": "string[][]",
          "name": "tagsPerProposal",
          "type": "string[][]"
        },
        {
          "internalType": "uint256[]",
          "name": "fees",
          "type": "uint256[]"
        },
        {
          "internalType": "uint256[]",
          "name": "deadlines",
          "type": "uint256[]"
        },
        {
          "internalType": "bool[]",
          "name": "finalizedFlags",
          "type": "bool[]"
        },
        {
          "internalType": "uint256[]",
          "name": "participations",
          "type": "uint256[]"
        }
      ],
      "stateMutability": "view",
      "type": "function"
    },
    {
      "inputs": [
        {
          "internalType": "uint256",
          "name": "proposalId",
          "type": "uint256"
        }
      ],
      "name": "getProposal",
      "outputs": [
        {
          "internalType": "address",
          "name": "proposer",
          "type": "address"
        },
        {
          "internalType": "string",
          "name": "title",
          "type": "string"
        },
        {
          "internalType": "string",
          "name": "proposalType",
          "type": "string"
        },
        {
          "internalType": "string",
          "name": "category",
          "type": "string"
        },
        {
          "internalType": "string",
          "name": "description",
          "type": "string"
        },
        {
          "internalType": "string[]",
          "name": "tags",
          "type": "string[]"
        },
        {
          "internalType": "uint256",
          "name": "yesVotes",
          "type": "uint256"
        },
        {
          "internalType": "uint256",
          "name": "noVotes",
          "type": "uint256"
        },
        {
          "internalType": "uint256",
          "name": "deadline",
          "type": "uint256"
        },
        {
          "internalType": "bool",
          "name": "finalized",
          "type": "bool"
        },
        {
          "internalType": "uint256",
          "name": "feePaid",
          "type": "uint256"
        },
        {
          "internalType": "uint256",
          "name": "participation",
          "type": "uint256"
        }
      ],
      "stateMutability": "view",
      "type": "function"
    },
    {
      "inputs": [
        {
          "internalType": "address",
          "name": "user",
          "type": "address"
        }
      ],
      "name": "getUserProposals",
      "outputs": [
        {
          "internalType": "uint256[]",
          "name": "ids",
          "type": "uint256[]"
        },
        {
          "internalType": "string[]",
          "name": "titles",
          "type": "string[]"
        },
        {
          "internalType": "string[]",
          "name": "types_",
          "type": "string[]"
        },
        {
          "internalType": "string[]",
          "name": "categories",
          "type": "string[]"
        },
        {
          "internalType": "string[]",
          "name": "descriptions",
          "type": "string[]"
        },
        {
          "internalType": "string[][]",
          "name": "tagsPerProposal",
          "type": "string[][]"
        },
        {
          "internalType": "uint256[]",
          "name": "fees",
          "type": "uint256[]"
        },
        {
          "internalType": "uint256[]",
          "name": "deadlines",
          "type": "uint256[]"
        },
        {
          "internalType": "bool[]",
          "name": "finalizedFlags",
          "type": "bool[]"
        },
        {
          "internalType": "uint256[]",
          "name": "participations",
          "type": "uint256[]"
        }
      ],
      "stateMutability": "view",
      "type": "function"
    },
    {
      "inputs": [
        {
          "internalType": "uint256",
          "name": "proposalId",
          "type": "uint256"
        },
        {
          "internalType": "address",
          "name": "voter",
          "type": "address"
        }
      ],
      "name": "getVoterSnapshot",
      "outputs": [
        {
          "internalType": "uint256",
          "name": "",
          "type": "uint256"
        }
      ],
      "stateMutability": "view",
      "type": "function"
    },
    {
      "inputs": [
        {
          "internalType": "uint256",
          "name": "",
          "type": "uint256"
        },
        {
          "internalType": "address",
          "name": "",
          "type": "address"
        }
      ],
      "name": "hasVoted",
      "outputs": [
        {
          "internalType": "bool",
          "name": "",
          "type": "bool"
        }
      ],
      "stateMutability": "view",
      "type": "function"
    },
    {
      "inputs": [],
      "name": "owner",
      "outputs": [
        {
          "internalType": "address",
          "name": "",
          "type": "address"
        }
      ],
      "stateMutability": "view",
      "type": "function"
    },
    {
      "inputs": [],
      "name": "proposalCount",
      "outputs": [
        {
          "internalType": "uint256",
          "name": "",
          "type": "uint256"
        }
      ],
      "stateMutability": "view",
      "type": "function"
    },
    {
      "inputs": [],
      "name": "quorumThresholdTokens",
      "outputs": [
        {
          "internalType": "uint256",
          "name": "",
          "type": "uint256"
        }
      ],
      "stateMutability": "view",
      "type": "function"
    },
    {
      "inputs": [],
      "name": "renounceOwnership",
      "outputs": [],
      "stateMutability": "nonpayable",
      "type": "function"
    },
    {
      "inputs": [
        {
          "internalType": "uint256",
          "name": "_threshold",
          "type": "uint256"
        }
      ],
      "name": "setQuorumThresholdTokens",
      "outputs": [],
      "stateMutability": "nonpayable",
      "type": "function"
    },
    {
      "inputs": [
        {
          "internalType": "address",
          "name": "_stakingContract",
          "type": "address"
        }
      ],
      "name": "setStakingContract",
      "outputs": [],
      "stateMutability": "nonpayable",
      "type": "function"
    },
    {
      "inputs": [
        {
          "internalType": "uint256",
          "name": "_votingPeriod",
          "type": "uint256"
        }
      ],
      "name": "setVotingPeriod",
      "outputs": [],
      "stateMutability": "nonpayable",
      "type": "function"
    },
    {
      "inputs": [],
      "name": "stakingContract",
      "outputs": [
        {
          "internalType": "contract IFreeLanceDAOStaking",
          "name": "",
          "type": "address"
        }
      ],
      "stateMutability": "view",
      "type": "function"
    },
    {
      "inputs": [
        {
          "internalType": "address",
          "name": "member",
          "type": "address"
        }
      ],
      "name": "stakingWeight",
      "outputs": [
        {
          "internalType": "uint256",
          "name": "",
          "type": "uint256"
        }
      ],
      "stateMutability": "view",
      "type": "function"
    },
    {
      "inputs": [
        {
          "internalType": "address",
          "name": "newOwner",
          "type": "address"
        }
      ],
      "name": "transferOwnership",
      "outputs": [],
      "stateMutability": "nonpayable",
      "type": "function"
    },
    {
      "inputs": [
        {
          "internalType": "uint256",
          "name": "proposalId",
          "type": "uint256"
        },
        {
          "internalType": "bool",
          "name": "support",
          "type": "bool"
        }
      ],
      "name": "vote",
      "outputs": [],
      "stateMutability": "nonpayable",
      "type": "function"
    },
    {
      "inputs": [],
      "name": "votingPeriod",
      "outputs": [
        {
          "internalType": "uint256",
          "name": "",
          "type": "uint256"
        }
      ],
      "stateMutability": "view",
      "type": "function"
    },
    {
      "inputs": [
        {
          "internalType": "uint256",
          "name": "",
          "type": "uint256"
        },
        {
          "internalType": "address",
          "name": "",
          "type": "address"
        }
      ],
      "name": "votingPowerSnapshot",
      "outputs": [
        {
          "internalType": "uint256",
          "name": "",
          "type": "uint256"
        }
      ],
      "stateMutability": "view",
      "type": "function"
    },
    {
      "inputs": [
        {
          "internalType": "address payable",
          "name": "treasury",
          "type": "address"
        }
      ],
      "name": "withdrawToTreasury",
      "outputs": [],
      "stateMutability": "nonpayable",
      "type": "function"
    },
    {
      "stateMutability": "payable",
      "type": "receive"
    }
  ],
  "bytecode": "0x60806040526203f48060085560016009553480156200001d57600080fd5b50604051620045fc380380620045fc83398181016040528101906200004391906200025a565b62000063620000576200012460201b60201c565b6200012c60201b60201c565b60018081905550600073ffffffffffffffffffffffffffffffffffffffff168173ffffffffffffffffffffffffffffffffffffffff1603620000dc576040517f08c379a0000000000000000000000000000000000000000000000000000000008152600401620000d390620002ed565b60405180910390fd5b80600260006101000a81548173ffffffffffffffffffffffffffffffffffffffff021916908373ffffffffffffffffffffffffffffffffffffffff160217905550506200030f565b600033905090565b60008060009054906101000a900473ffffffffffffffffffffffffffffffffffffffff169050816000806101000a81548173ffffffffffffffffffffffffffffffffffffffff021916908373ffffffffffffffffffffffffffffffffffffffff1602179055508173ffffffffffffffffffffffffffffffffffffffff168173ffffffffffffffffffffffffffffffffffffffff167f8be0079c531659141344cd1fd0a4f28419497f9722a3daafe3b4186f6b6457e060405160405180910390a35050565b600080fd5b600073ffffffffffffffffffffffffffffffffffffffff82169050919050565b60006200022282620001f5565b9050919050565b620002348162000215565b81146200024057600080fd5b50565b600081519050620002548162000229565b92915050565b600060208284031215620002735762000272620001f0565b5b6000620002838482850162000243565b91505092915050565b600082825260208201905092915050565b7f496e76616c6964207374616b696e6720636f6e74726163740000000000000000600082015250565b6000620002d56018836200028c565b9150620002e2826200029d565b602082019050919050565b600060208201905081810360008301526200030881620002c6565b9050919050565b6142dd806200031f6000396000f3fe60806040526004361061012e5760003560e01c8063902b57e8116100ab578063cceb68f51161006f578063cceb68f514610411578063cf5e4d6714610446578063da35c66414610483578063ea0217cf146104ae578063ee99205c146104d7578063f2fde38b1461050257610135565b8063902b57e8146103235780639dd373b91461034c578063ba54e41314610375578063c7f758a8146103a0578063c9d27afe146103e857610135565b80635652077c116100f25780635652077c14610249578063715018a6146102725780637573698b1461028957806378ef1138146102b25780638da5cb5b146102f857610135565b806302a251a3146101375780630f226997146101625780633b99666f1461019257806343859632146101cf57806343d558ed1461020c57610135565b3661013557005b005b34801561014357600080fd5b5061014c61052b565b60405161015991906129f0565b60405180910390f35b61017c60048036038101906101779190612ad0565b610531565b60405161018991906129f0565b60405180910390f35b34801561019e57600080fd5b506101b960048036038101906101b49190612c4b565b6107ab565b6040516101c691906129f0565b60405180910390f35b3480156101db57600080fd5b506101f660048036038101906101f19190612ca4565b610857565b6040516102039190612cff565b60405180910390f35b34801561021857600080fd5b50610233600480360381019061022e9190612ca4565b610886565b60405161024091906129f0565b60405180910390f35b34801561025557600080fd5b50610270600480360381019061026b9190612d1a565b6108ab565b005b34801561027e57600080fd5b50610287610a37565b005b34801561029557600080fd5b506102b060048036038101906102ab9190612d1a565b610a4b565b005b3480156102be57600080fd5b506102d960048036038101906102d49190612c4b565b610a9e565b6040516102ef9a9998979695949392919061315d565b60405180910390f35b34801561030457600080fd5b5061030d611384565b60405161031a919061324e565b60405180910390f35b34801561032f57600080fd5b5061034a600480360381019061034591906132a7565b6113ad565b005b34801561035857600080fd5b50610373600480360381019061036e9190612c4b565b61157b565b005b34801561038157600080fd5b5061038a6116b8565b60405161039791906129f0565b60405180910390f35b3480156103ac57600080fd5b506103c760048036038101906103c29190612d1a565b6116be565b6040516103df9c9b9a9998979695949392919061331e565b60405180910390f35b3480156103f457600080fd5b5061040f600480360381019061040a9190613427565b611a86565b005b34801561041d57600080fd5b50610426611d7f565b60405161043d9b9a99989796959493929190613525565b60405180910390f35b34801561045257600080fd5b5061046d60048036038101906104689190612ca4565b612695565b60405161047a91906129f0565b60405180910390f35b34801561048f57600080fd5b506104986126f0565b6040516104a591906129f0565b60405180910390f35b3480156104ba57600080fd5b506104d560048036038101906104d09190612d1a565b6126f6565b005b3480156104e357600080fd5b506104ec61278c565b6040516104f9919061367c565b60405180910390f35b34801561050e57600080fd5b5061052960048036038101906105249190612c4b565b6127b2565b005b60085481565b600061053b612835565b6003600081548092919061054e906136c6565b919050555060006004600060035481526020019081526020016000209050338160000160006101000a81548173ffffffffffffffffffffffffffffffffffffffff021916908373ffffffffffffffffffffffffffffffffffffffff1602179055508b8b8260010191826105c292919061394a565b5089898260020191826105d692919061394a565b5087878260030191826105ea92919061394a565b5085858260040191826105fe92919061394a565b506008544261060d9190613a1a565b816008018190555060008160090160006101000a81548160ff0219169083151502179055503481600a018190555060005b848490508110156106bf57816005018585838181106106605761065f613a4e565b5b90506020028101906106729190613a8c565b909180600181540180825580915050600190039060005260206000200160009091929091929091929091925091826106ab92919061394a565b5080806106b7906136c6565b91505061063e565b50600760003373ffffffffffffffffffffffffffffffffffffffff1673ffffffffffffffffffffffffffffffffffffffff16815260200190815260200160002060035490806001815401808255809150506001900390600052602060002001600090919091909150553373ffffffffffffffffffffffffffffffffffffffff166003547fa545c4dca3f89091030a281bf4422840f14e6fdb422e08ca04c8d6ae025f9d5e8e8e8e8e8e8e89600801548a600a0154604051610787989796959493929190613b2b565b60405180910390a360035491505061079d612884565b9a9950505050505050505050565b600080600260009054906101000a900473ffffffffffffffffffffffffffffffffffffffff1673ffffffffffffffffffffffffffffffffffffffff166316934fc4846040518263ffffffff1660e01b8152600401610809919061324e565b606060405180830381865afa158015610826573d6000803e3d6000fd5b505050506040513d601f19601f8201168201806040525081019061084a9190613bae565b5050905080915050919050565b60056020528160005260406000206020528060005260406000206000915091509054906101000a900460ff1681565b6006602052816000526040600020602052806000526040600020600091509150505481565b60006004600083815260200190815260200160002090506000816008015403610909576040517f08c379a000000000000000000000000000000000000000000000000000000000815260040161090090613c4d565b60405180910390fd5b8060080154421015610950576040517f08c379a000000000000000000000000000000000000000000000000000000000815260040161094790613cb9565b60405180910390fd5b8060090160009054906101000a900460ff16156109a2576040517f08c379a000000000000000000000000000000000000000000000000000000000815260040161099990613d25565b60405180910390fd5b60018160090160006101000a81548160ff0219169083151502179055506000816007015482600601546109d59190613a1a565b9050600060095482106109f457826007015483600601541190506109f9565b600090505b837fb5ac567fcf1b069e0235e4f16734625c6cf54c1b40517fd9eb85517f6e1265a782604051610a299190612cff565b60405180910390a250505050565b610a3f61288d565b610a49600061290b565b565b610a5361288d565b60006009549050816009819055507fc33728fb6bc64ec1c5596c946e1406ccdfb7369404098c1d6a5f4a7a29c97b638183604051610a92929190613d45565b60405180910390a15050565b6060806060806060806060806060806000600760008d73ffffffffffffffffffffffffffffffffffffffff1673ffffffffffffffffffffffffffffffffffffffff1681526020019081526020016000208054905090508067ffffffffffffffff811115610b0e57610b0d613719565b5b604051908082528060200260200182016040528015610b3c5781602001602082028036833780820191505090505b509a508067ffffffffffffffff811115610b5957610b58613719565b5b604051908082528060200260200182016040528015610b8c57816020015b6060815260200190600190039081610b775790505b5099508067ffffffffffffffff811115610ba957610ba8613719565b5b604051908082528060200260200182016040528015610bdc57816020015b6060815260200190600190039081610bc75790505b5098508067ffffffffffffffff811115610bf957610bf8613719565b5b604051908082528060200260200182016040528015610c2c57816020015b6060815260200190600190039081610c175790505b5097508067ffffffffffffffff811115610c4957610c48613719565b5b604051908082528060200260200182016040528015610c7c57816020015b6060815260200190600190039081610c675790505b5096508067ffffffffffffffff811115610c9957610c98613719565b5b604051908082528060200260200182016040528015610ccc57816020015b6060815260200190600190039081610cb75790505b5095508067ffffffffffffffff811115610ce957610ce8613719565b5b604051908082528060200260200182016040528015610d175781602001602082028036833780820191505090505b5094508067ffffffffffffffff811115610d3457610d33613719565b5b604051908082528060200260200182016040528015610d625781602001602082028036833780820191505090505b5093508067ffffffffffffffff811115610d7f57610d7e613719565b5b604051908082528060200260200182016040528015610dad5781602001602082028036833780820191505090505b5092508067ffffffffffffffff811115610dca57610dc9613719565b5b604051908082528060200260200182016040528015610df85781602001602082028036833780820191505090505b50915060005b81811015611375576000600760008f73ffffffffffffffffffffffffffffffffffffffff1673ffffffffffffffffffffffffffffffffffffffff1681526020019081526020016000208281548110610e5957610e58613a4e565b5b906000526020600020015490506000600460008381526020019081526020016000209050818e8481518110610e9157610e90613a4e565b5b602002602001018181525050806001018054610eac90613777565b80601f0160208091040260200160405190810160405280929190818152602001828054610ed890613777565b8015610f255780601f10610efa57610100808354040283529160200191610f25565b820191906000526020600020905b815481529060010190602001808311610f0857829003601f168201915b50505050508d8481518110610f3d57610f3c613a4e565b5b6020026020010181905250806002018054610f5790613777565b80601f0160208091040260200160405190810160405280929190818152602001828054610f8390613777565b8015610fd05780601f10610fa557610100808354040283529160200191610fd0565b820191906000526020600020905b815481529060010190602001808311610fb357829003601f168201915b50505050508c8481518110610fe857610fe7613a4e565b5b602002602001018190525080600301805461100290613777565b80601f016020809104026020016040519081016040528092919081815260200182805461102e90613777565b801561107b5780601f106110505761010080835404028352916020019161107b565b820191906000526020600020905b81548152906001019060200180831161105e57829003601f168201915b50505050508b848151811061109357611092613a4e565b5b60200260200101819052508060040180546110ad90613777565b80601f01602080910402602001604051908101604052809291908181526020018280546110d990613777565b80156111265780601f106110fb57610100808354040283529160200191611126565b820191906000526020600020905b81548152906001019060200180831161110957829003601f168201915b50505050508a848151811061113e5761113d613a4e565b5b6020026020010181905250806008015487848151811061116157611160613a4e565b5b6020026020010181815250508060090160009054906101000a900460ff1686848151811061119257611191613a4e565b5b60200260200101901515908115158152505080600a01548884815181106111bc576111bb613a4e565b5b602002602001018181525050806007015481600601546111dc9190613a1a565b8584815181106111ef576111ee613a4e565b5b60200260200101818152505060008160050180549050905060008167ffffffffffffffff81111561122357611222613719565b5b60405190808252806020026020018201604052801561125657816020015b60608152602001906001900390816112415790505b50905060005b8281101561133e5783600501818154811061127a57611279613a4e565b5b90600052602060002001805461128f90613777565b80601f01602080910402602001604051908101604052809291908181526020018280546112bb90613777565b80156113085780601f106112dd57610100808354040283529160200191611308565b820191906000526020600020905b8154815290600101906020018083116112eb57829003601f168201915b50505050508282815181106113205761131f613a4e565b5b60200260200101819052508080611336906136c6565b91505061125c565b50808b868151811061135357611352613a4e565b5b602002602001018190525050505050808061136d906136c6565b915050610dfe565b50509193959799509193959799565b60008060009054906101000a900473ffffffffffffffffffffffffffffffffffffffff16905090565b6113b561288d565b6113bd612835565b600073ffffffffffffffffffffffffffffffffffffffff168173ffffffffffffffffffffffffffffffffffffffff160361142c576040517f08c379a000000000000000000000000000000000000000000000000000000000815260040161142390613dba565b60405180910390fd5b600047905060008111611474576040517f08c379a000000000000000000000000000000000000000000000000000000000815260040161146b90613e26565b60405180910390fd5b60008273ffffffffffffffffffffffffffffffffffffffff168260405161149a90613e77565b60006040518083038185875af1925050503d80600081146114d7576040519150601f19603f3d011682016040523d82523d6000602084013e6114dc565b606091505b5050905080611520576040517f08c379a000000000000000000000000000000000000000000000000000000000815260040161151790613ed8565b60405180910390fd5b8273ffffffffffffffffffffffffffffffffffffffff167fd4a7afb98d7393b9dcc6ed652eee0db7022d73a6a21d66204d021872e12098a48360405161156691906129f0565b60405180910390a25050611578612884565b50565b61158361288d565b600073ffffffffffffffffffffffffffffffffffffffff168173ffffffffffffffffffffffffffffffffffffffff16036115f2576040517f08c379a00000000000000000000000000000000000000000000000000000000081526004016115e990613f44565b60405180910390fd5b6000600260009054906101000a900473ffffffffffffffffffffffffffffffffffffffff16905081600260006101000a81548173ffffffffffffffffffffffffffffffffffffffff021916908373ffffffffffffffffffffffffffffffffffffffff1602179055508173ffffffffffffffffffffffffffffffffffffffff168173ffffffffffffffffffffffffffffffffffffffff167f7042586b23181180eb30b4798702d7a0233b7fc2551e89806770e8e5d9392e6a60405160405180910390a35050565b60095481565b600060608060608060606000806000806000806000600460008f815260200190815260200160002090508060000160009054906101000a900473ffffffffffffffffffffffffffffffffffffffff1681600101826002018360030184600401856005018660060154876007015488600801548960090160009054906101000a900460ff168a600a01548b600701548c6006015461175b9190613a1a565b8a805461176790613777565b80601f016020809104026020016040519081016040528092919081815260200182805461179390613777565b80156117e05780601f106117b5576101008083540402835291602001916117e0565b820191906000526020600020905b8154815290600101906020018083116117c357829003601f168201915b50505050509a508980546117f390613777565b80601f016020809104026020016040519081016040528092919081815260200182805461181f90613777565b801561186c5780601f106118415761010080835404028352916020019161186c565b820191906000526020600020905b81548152906001019060200180831161184f57829003601f168201915b5050505050995088805461187f90613777565b80601f01602080910402602001604051908101604052809291908181526020018280546118ab90613777565b80156118f85780601f106118cd576101008083540402835291602001916118f8565b820191906000526020600020905b8154815290600101906020018083116118db57829003601f168201915b5050505050985087805461190b90613777565b80601f016020809104026020016040519081016040528092919081815260200182805461193790613777565b80156119845780601f1061195957610100808354040283529160200191611984565b820191906000526020600020905b81548152906001019060200180831161196757829003601f168201915b5050505050975086805480602002602001604051908101604052809291908181526020016000905b82821015611a585783829060005260206000200180546119cb90613777565b80601f01602080910402602001604051908101604052809291908181526020018280546119f790613777565b8015611a445780601f10611a1957610100808354040283529160200191611a44565b820191906000526020600020905b815481529060010190602001808311611a2757829003601f168201915b5050505050815260200190600101906119ac565b5050505096509c509c509c509c509c509c509c509c509c509c509c509c505091939597999b5091939597999b565b611a8e612835565b60006004600084815260200190815260200160002090506000816008015403611aec576040517f08c379a0000000000000000000000000000000000000000000000000000000008152600401611ae390613c4d565b60405180910390fd5b80600801544210611b32576040517f08c379a0000000000000000000000000000000000000000000000000000000008152600401611b2990613fb0565b60405180910390fd5b6005600084815260200190815260200160002060003373ffffffffffffffffffffffffffffffffffffffff1673ffffffffffffffffffffffffffffffffffffffff16815260200190815260200160002060009054906101000a900460ff1615611bd0576040517f08c379a0000000000000000000000000000000000000000000000000000000008152600401611bc79061401c565b60405180910390fd5b6000611bdb336107ab565b905060008111611c20576040517f08c379a0000000000000000000000000000000000000000000000000000000008152600401611c1790614088565b60405180910390fd5b806006600086815260200190815260200160002060003373ffffffffffffffffffffffffffffffffffffffff1673ffffffffffffffffffffffffffffffffffffffff1681526020019081526020016000208190555060016005600086815260200190815260200160002060003373ffffffffffffffffffffffffffffffffffffffff1673ffffffffffffffffffffffffffffffffffffffff16815260200190815260200160002060006101000a81548160ff0219169083151502179055508215611d045780826006016000828254611cf89190613a1a565b92505081905550611d20565b80826007016000828254611d189190613a1a565b925050819055505b3373ffffffffffffffffffffffffffffffffffffffff16847fb898e75d5aac8de2f407e4a683c8d909e832d1e371e3bff0fa3ed934e88d95628386604051611d699291906140a8565b60405180910390a35050611d7b612884565b5050565b6060806060806060806060806060806060600060035490508067ffffffffffffffff811115611db157611db0613719565b5b604051908082528060200260200182016040528015611ddf5781602001602082028036833780820191505090505b509b508067ffffffffffffffff811115611dfc57611dfb613719565b5b604051908082528060200260200182016040528015611e2a5781602001602082028036833780820191505090505b509a508067ffffffffffffffff811115611e4757611e46613719565b5b604051908082528060200260200182016040528015611e7a57816020015b6060815260200190600190039081611e655790505b5099508067ffffffffffffffff811115611e9757611e96613719565b5b604051908082528060200260200182016040528015611eca57816020015b6060815260200190600190039081611eb55790505b5098508067ffffffffffffffff811115611ee757611ee6613719565b5b604051908082528060200260200182016040528015611f1a57816020015b6060815260200190600190039081611f055790505b5097508067ffffffffffffffff811115611f3757611f36613719565b5b604051908082528060200260200182016040528015611f6a57816020015b6060815260200190600190039081611f555790505b5096508067ffffffffffffffff811115611f8757611f86613719565b5b604051908082528060200260200182016040528015611fba57816020015b6060815260200190600190039081611fa55790505b5095508067ffffffffffffffff811115611fd757611fd6613719565b5b6040519080825280602002602001820160405280156120055781602001602082028036833780820191505090505b5094508067ffffffffffffffff81111561202257612021613719565b5b6040519080825280602002602001820160405280156120505781602001602082028036833780820191505090505b5093508067ffffffffffffffff81111561206d5761206c613719565b5b60405190808252806020026020018201604052801561209b5781602001602082028036833780820191505090505b5092508067ffffffffffffffff8111156120b8576120b7613719565b5b6040519080825280602002602001820160405280156120e65781602001602082028036833780820191505090505b50915060005b818110156126865760006001826121039190613a1a565b90506000600460008381526020019081526020016000209050818f84815181106121305761212f613a4e565b5b6020026020010181815250508060000160009054906101000a900473ffffffffffffffffffffffffffffffffffffffff168e848151811061217457612173613a4e565b5b602002602001019073ffffffffffffffffffffffffffffffffffffffff16908173ffffffffffffffffffffffffffffffffffffffff16815250508060010180546121bd90613777565b80601f01602080910402602001604051908101604052809291908181526020018280546121e990613777565b80156122365780601f1061220b57610100808354040283529160200191612236565b820191906000526020600020905b81548152906001019060200180831161221957829003601f168201915b50505050508d848151811061224e5761224d613a4e565b5b602002602001018190525080600201805461226890613777565b80601f016020809104026020016040519081016040528092919081815260200182805461229490613777565b80156122e15780601f106122b6576101008083540402835291602001916122e1565b820191906000526020600020905b8154815290600101906020018083116122c457829003601f168201915b50505050508c84815181106122f9576122f8613a4e565b5b602002602001018190525080600301805461231390613777565b80601f016020809104026020016040519081016040528092919081815260200182805461233f90613777565b801561238c5780601f106123615761010080835404028352916020019161238c565b820191906000526020600020905b81548152906001019060200180831161236f57829003601f168201915b50505050508b84815181106123a4576123a3613a4e565b5b60200260200101819052508060040180546123be90613777565b80601f01602080910402602001604051908101604052809291908181526020018280546123ea90613777565b80156124375780601f1061240c57610100808354040283529160200191612437565b820191906000526020600020905b81548152906001019060200180831161241a57829003601f168201915b50505050508a848151811061244f5761244e613a4e565b5b6020026020010181905250806008015487848151811061247257612471613a4e565b5b6020026020010181815250508060090160009054906101000a900460ff168684815181106124a3576124a2613a4e565b5b60200260200101901515908115158152505080600a01548884815181106124cd576124cc613a4e565b5b602002602001018181525050806007015481600601546124ed9190613a1a565b858481518110612500576124ff613a4e565b5b60200260200101818152505060008160050180549050905060008167ffffffffffffffff81111561253457612533613719565b5b60405190808252806020026020018201604052801561256757816020015b60608152602001906001900390816125525790505b50905060005b8281101561264f5783600501818154811061258b5761258a613a4e565b5b9060005260206000200180546125a090613777565b80601f01602080910402602001604051908101604052809291908181526020018280546125cc90613777565b80156126195780601f106125ee57610100808354040283529160200191612619565b820191906000526020600020905b8154815290600101906020018083116125fc57829003601f168201915b505050505082828151811061263157612630613a4e565b5b60200260200101819052508080612647906136c6565b91505061256d565b50808b868151811061266457612663613a4e565b5b602002602001018190525050505050808061267e906136c6565b9150506120ec565b5050909192939495969798999a565b60006006600084815260200190815260200160002060008373ffffffffffffffffffffffffffffffffffffffff1673ffffffffffffffffffffffffffffffffffffffff16815260200190815260200160002054905092915050565b60035481565b6126fe61288d565b60008111612741576040517f08c379a00000000000000000000000000000000000000000000000000000000081526004016127389061411d565b60405180910390fd5b60006008549050816008819055507fffc708f072ca56e3d45ef0cb288b96cb9378f5f63e1646868bfbc9c38f4263a18183604051612780929190613d45565b60405180910390a15050565b600260009054906101000a900473ffffffffffffffffffffffffffffffffffffffff1681565b6127ba61288d565b600073ffffffffffffffffffffffffffffffffffffffff168173ffffffffffffffffffffffffffffffffffffffff1603612829576040517f08c379a0000000000000000000000000000000000000000000000000000000008152600401612820906141af565b60405180910390fd5b6128328161290b565b50565b60026001540361287a576040517f08c379a00000000000000000000000000000000000000000000000000000000081526004016128719061421b565b60405180910390fd5b6002600181905550565b60018081905550565b6128956129cf565b73ffffffffffffffffffffffffffffffffffffffff166128b3611384565b73ffffffffffffffffffffffffffffffffffffffff1614612909576040517f08c379a000000000000000000000000000000000000000000000000000000000815260040161290090614287565b60405180910390fd5b565b60008060009054906101000a900473ffffffffffffffffffffffffffffffffffffffff169050816000806101000a81548173ffffffffffffffffffffffffffffffffffffffff021916908373ffffffffffffffffffffffffffffffffffffffff1602179055508173ffffffffffffffffffffffffffffffffffffffff168173ffffffffffffffffffffffffffffffffffffffff167f8be0079c531659141344cd1fd0a4f28419497f9722a3daafe3b4186f6b6457e060405160405180910390a35050565b600033905090565b6000819050919050565b6129ea816129d7565b82525050565b6000602082019050612a0560008301846129e1565b92915050565b600080fd5b600080fd5b600080fd5b600080fd5b600080fd5b60008083601f840112612a3a57612a39612a15565b5b8235905067ffffffffffffffff811115612a5757612a56612a1a565b5b602083019150836001820283011115612a7357612a72612a1f565b5b9250929050565b60008083601f840112612a9057612a8f612a15565b5b8235905067ffffffffffffffff811115612aad57612aac612a1a565b5b602083019150836020820283011115612ac957612ac8612a1f565b5b9250929050565b60008060008060008060008060008060a08b8d031215612af357612af2612a0b565b5b60008b013567ffffffffffffffff811115612b1157612b10612a10565b5b612b1d8d828e01612a24565b9a509a505060208b013567ffffffffffffffff811115612b4057612b3f612a10565b5b612b4c8d828e01612a24565b985098505060408b013567ffffffffffffffff811115612b6f57612b6e612a10565b5b612b7b8d828e01612a24565b965096505060608b013567ffffffffffffffff811115612b9e57612b9d612a10565b5b612baa8d828e01612a24565b945094505060808b013567ffffffffffffffff811115612bcd57612bcc612a10565b5b612bd98d828e01612a7a565b92509250509295989b9194979a5092959850565b600073ffffffffffffffffffffffffffffffffffffffff82169050919050565b6000612c1882612bed565b9050919050565b612c2881612c0d565b8114612c3357600080fd5b50565b600081359050612c4581612c1f565b92915050565b600060208284031215612c6157612c60612a0b565b5b6000612c6f84828501612c36565b91505092915050565b612c81816129d7565b8114612c8c57600080fd5b50565b600081359050612c9e81612c78565b92915050565b60008060408385031215612cbb57612cba612a0b565b5b6000612cc985828601612c8f565b9250506020612cda85828601612c36565b9150509250929050565b60008115159050919050565b612cf981612ce4565b82525050565b6000602082019050612d146000830184612cf0565b92915050565b600060208284031215612d3057612d2f612a0b565b5b6000612d3e84828501612c8f565b91505092915050565b600081519050919050565b600082825260208201905092915050565b6000819050602082019050919050565b612d7c816129d7565b82525050565b6000612d8e8383612d73565b60208301905092915050565b6000602082019050919050565b6000612db282612d47565b612dbc8185612d52565b9350612dc783612d63565b8060005b83811015612df8578151612ddf8882612d82565b9750612dea83612d9a565b925050600181019050612dcb565b5085935050505092915050565b600081519050919050565b600082825260208201905092915050565b6000819050602082019050919050565b600081519050919050565b600082825260208201905092915050565b60005b83811015612e6b578082015181840152602081019050612e50565b60008484015250505050565b6000601f19601f8301169050919050565b6000612e9382612e31565b612e9d8185612e3c565b9350612ead818560208601612e4d565b612eb681612e77565b840191505092915050565b6000612ecd8383612e88565b905092915050565b6000602082019050919050565b6000612eed82612e05565b612ef78185612e10565b935083602082028501612f0985612e21565b8060005b85811015612f455784840389528151612f268582612ec1565b9450612f3183612ed5565b925060208a01995050600181019050612f0d565b50829750879550505050505092915050565b600081519050919050565b600082825260208201905092915050565b6000819050602082019050919050565b600082825260208201905092915050565b6000612f9f82612e05565b612fa98185612f83565b935083602082028501612fbb85612e21565b8060005b85811015612ff75784840389528151612fd88582612ec1565b9450612fe383612ed5565b925060208a01995050600181019050612fbf565b50829750879550505050505092915050565b60006130158383612f94565b905092915050565b6000602082019050919050565b600061303582612f57565b61303f8185612f62565b93508360208202850161305185612f73565b8060005b8581101561308d578484038952815161306e8582613009565b94506130798361301d565b925060208a01995050600181019050613055565b50829750879550505050505092915050565b600081519050919050565b600082825260208201905092915050565b6000819050602082019050919050565b6130d481612ce4565b82525050565b60006130e683836130cb565b60208301905092915050565b6000602082019050919050565b600061310a8261309f565b61311481856130aa565b935061311f836130bb565b8060005b8381101561315057815161313788826130da565b9750613142836130f2565b925050600181019050613123565b5085935050505092915050565b6000610140820190508181036000830152613178818d612da7565b9050818103602083015261318c818c612ee2565b905081810360408301526131a0818b612ee2565b905081810360608301526131b4818a612ee2565b905081810360808301526131c88189612ee2565b905081810360a08301526131dc818861302a565b905081810360c08301526131f08187612da7565b905081810360e08301526132048186612da7565b905081810361010083015261321981856130ff565b905081810361012083015261322e8184612da7565b90509b9a5050505050505050505050565b61324881612c0d565b82525050565b6000602082019050613263600083018461323f565b92915050565b600061327482612bed565b9050919050565b61328481613269565b811461328f57600080fd5b50565b6000813590506132a18161327b565b92915050565b6000602082840312156132bd576132bc612a0b565b5b60006132cb84828501613292565b91505092915050565b600082825260208201905092915050565b60006132f082612e31565b6132fa81856132d4565b935061330a818560208601612e4d565b61331381612e77565b840191505092915050565b600061018082019050613334600083018f61323f565b8181036020830152613346818e6132e5565b9050818103604083015261335a818d6132e5565b9050818103606083015261336e818c6132e5565b90508181036080830152613382818b6132e5565b905081810360a0830152613396818a612ee2565b90506133a560c08301896129e1565b6133b260e08301886129e1565b6133c06101008301876129e1565b6133ce610120830186612cf0565b6133dc6101408301856129e1565b6133ea6101608301846129e1565b9d9c50505050505050505050505050565b61340481612ce4565b811461340f57600080fd5b50565b600081359050613421816133fb565b92915050565b6000806040838503121561343e5761343d612a0b565b5b600061344c85828601612c8f565b925050602061345d85828601613412565b9150509250929050565b600081519050919050565b600082825260208201905092915050565b6000819050602082019050919050565b61349c81612c0d565b82525050565b60006134ae8383613493565b60208301905092915050565b6000602082019050919050565b60006134d282613467565b6134dc8185613472565b93506134e783613483565b8060005b838110156135185781516134ff88826134a2565b975061350a836134ba565b9250506001810190506134eb565b5085935050505092915050565b6000610160820190508181036000830152613540818e612da7565b90508181036020830152613554818d6134c7565b90508181036040830152613568818c612ee2565b9050818103606083015261357c818b612ee2565b90508181036080830152613590818a612ee2565b905081810360a08301526135a48189612ee2565b905081810360c08301526135b8818861302a565b905081810360e08301526135cc8187612da7565b90508181036101008301526135e18186612da7565b90508181036101208301526135f681856130ff565b905081810361014083015261360b8184612da7565b90509c9b505050505050505050505050565b6000819050919050565b600061364261363d61363884612bed565b61361d565b612bed565b9050919050565b600061365482613627565b9050919050565b600061366682613649565b9050919050565b6136768161365b565b82525050565b6000602082019050613691600083018461366d565b92915050565b7f4e487b7100000000000000000000000000000000000000000000000000000000600052601160045260246000fd5b60006136d1826129d7565b91507fffffffffffffffffffffffffffffffffffffffffffffffffffffffffffffffff820361370357613702613697565b5b600182019050919050565b600082905092915050565b7f4e487b7100000000000000000000000000000000000000000000000000000000600052604160045260246000fd5b7f4e487b7100000000000000000000000000000000000000000000000000000000600052602260045260246000fd5b6000600282049050600182168061378f57607f821691505b6020821081036137a2576137a1613748565b5b50919050565b60008190508160005260206000209050919050565b60006020601f8301049050919050565b600082821b905092915050565b60006008830261380a7fffffffffffffffffffffffffffffffffffffffffffffffffffffffffffffffff826137cd565b61381486836137cd565b95508019841693508086168417925050509392505050565b600061384761384261383d846129d7565b61361d565b6129d7565b9050919050565b6000819050919050565b6138618361382c565b61387561386d8261384e565b8484546137da565b825550505050565b600090565b61388a61387d565b613895818484613858565b505050565b5b818110156138b9576138ae600082613882565b60018101905061389b565b5050565b601f8211156138fe576138cf816137a8565b6138d8846137bd565b810160208510156138e7578190505b6138fb6138f3856137bd565b83018261389a565b50505b505050565b600082821c905092915050565b600061392160001984600802613903565b1980831691505092915050565b600061393a8383613910565b9150826002028217905092915050565b613954838361370e565b67ffffffffffffffff81111561396d5761396c613719565b5b6139778254613777565b6139828282856138bd565b6000601f8311600181146139b1576000841561399f578287013590505b6139a9858261392e565b865550613a11565b601f1984166139bf866137a8565b60005b828110156139e7578489013582556001820191506020850194506020810190506139c2565b86831015613a045784890135613a00601f891682613910565b8355505b6001600288020188555050505b50505050505050565b6000613a25826129d7565b9150613a30836129d7565b9250828201905080821115613a4857613a47613697565b5b92915050565b7f4e487b7100000000000000000000000000000000000000000000000000000000600052603260045260246000fd5b600080fd5b600080fd5b600080fd5b60008083356001602003843603038112613aa957613aa8613a7d565b5b80840192508235915067ffffffffffffffff821115613acb57613aca613a82565b5b602083019250600182023603831315613ae757613ae6613a87565b5b509250929050565b82818337600083830152505050565b6000613b0a83856132d4565b9350613b17838584613aef565b613b2083612e77565b840190509392505050565b600060a0820190508181036000830152613b46818a8c613afe565b90508181036020830152613b5b81888a613afe565b90508181036040830152613b70818688613afe565b9050613b7f60608301856129e1565b613b8c60808301846129e1565b9998505050505050505050565b600081519050613ba881612c78565b92915050565b600080600060608486031215613bc757613bc6612a0b565b5b6000613bd586828701613b99565b9350506020613be686828701613b99565b9250506040613bf786828701613b99565b9150509250925092565b7f50726f706f73616c20646f6573206e6f74206578697374000000000000000000600082015250565b6000613c376017836132d4565b9150613c4282613c01565b602082019050919050565b60006020820190508181036000830152613c6681613c2a565b9050919050565b7f566f74696e67207374696c6c2061637469766500000000000000000000000000600082015250565b6000613ca36013836132d4565b9150613cae82613c6d565b602082019050919050565b60006020820190508181036000830152613cd281613c96565b9050919050565b7f416c72656164792066696e616c697a6564000000000000000000000000000000600082015250565b6000613d0f6011836132d4565b9150613d1a82613cd9565b602082019050919050565b60006020820190508181036000830152613d3e81613d02565b9050919050565b6000604082019050613d5a60008301856129e1565b613d6760208301846129e1565b9392505050565b7f496e76616c696420747265617375727900000000000000000000000000000000600082015250565b6000613da46010836132d4565b9150613daf82613d6e565b602082019050919050565b60006020820190508181036000830152613dd381613d97565b9050919050565b7f4e6f2062616c616e636500000000000000000000000000000000000000000000600082015250565b6000613e10600a836132d4565b9150613e1b82613dda565b602082019050919050565b60006020820190508181036000830152613e3f81613e03565b9050919050565b600081905092915050565b50565b6000613e61600083613e46565b9150613e6c82613e51565b600082019050919050565b6000613e8282613e54565b9150819050919050565b7f5472616e73666572206661696c65640000000000000000000000000000000000600082015250565b6000613ec2600f836132d4565b9150613ecd82613e8c565b602082019050919050565b60006020820190508181036000830152613ef181613eb5565b9050919050565b7f496e76616c696420616464726573730000000000000000000000000000000000600082015250565b6000613f2e600f836132d4565b9150613f3982613ef8565b602082019050919050565b60006020820190508181036000830152613f5d81613f21565b9050919050565b7f566f74696e672068617320656e64656400000000000000000000000000000000600082015250565b6000613f9a6010836132d4565b9150613fa582613f64565b602082019050919050565b60006020820190508181036000830152613fc981613f8d565b9050919050565b7f416c726561647920766f74656400000000000000000000000000000000000000600082015250565b6000614006600d836132d4565b915061401182613fd0565b602082019050919050565b6000602082019050818103600083015261403581613ff9565b9050919050565b7f4e6f207374616b6520746f20766f746500000000000000000000000000000000600082015250565b60006140726010836132d4565b915061407d8261403c565b602082019050919050565b600060208201905081810360008301526140a181614065565b9050919050565b60006040820190506140bd60008301856129e1565b6140ca6020830184612cf0565b9392505050565b7f566f74696e6720706572696f64203e2030000000000000000000000000000000600082015250565b60006141076011836132d4565b9150614112826140d1565b602082019050919050565b60006020820190508181036000830152614136816140fa565b9050919050565b7f4f776e61626c653a206e6577206f776e657220697320746865207a65726f206160008201527f6464726573730000000000000000000000000000000000000000000000000000602082015250565b60006141996026836132d4565b91506141a48261413d565b604082019050919050565b600060208201905081810360008301526141c88161418c565b9050919050565b7f5265656e7472616e637947756172643a207265656e7472616e742063616c6c00600082015250565b6000614205601f836132d4565b9150614210826141cf565b602082019050919050565b60006020820190508181036000830152614234816141f8565b9050919050565b7f4f776e61626c653a2063616c6c6572206973206e6f7420746865206f776e6572600082015250565b60006142716020836132d4565b915061427c8261423b565b602082019050919050565b600060208201905081810360008301526142a081614264565b905091905056fea26469706673582212201d6ff08f1eb34fc300d41e1d381604b937301a4083cd3d0a1ee14567a1ee8c3764736f6c63430008140033",
  "linkReferences": {},
  "deployedLinkReferences": {}
}