{
  "_format": "hh-sol-artifact-1",
  "contractName": "FreeLanceDAOProposalContract",
  "sourceName": "contracts/FreeLanceDAOProposal.sol",
  "abi": [
    {
      "inputs": [
        {
          "internalType": "address",
          "name": "_stakingContract",
          "type": "address"
        }
      ],
      "stateMutability": "nonpayable",
      "type": "constructor"
    },
    {
      "anonymous": false,
      "inputs": [
        {
          "indexed": true,
          "internalType": "address",
          "name": "previousOwner",
          "type": "address"
        },
        {
          "indexed": true,
          "internalType": "address",
          "name": "newOwner",
          "type": "address"
        }
      ],
      "name": "OwnershipTransferred",
      "type": "event"
    },
    {
      "anonymous": false,
      "inputs": [
        {
          "indexed": true,
          "internalType": "uint256",
          "name": "id",
          "type": "uint256"
        },
        {
          "indexed": true,
          "internalType": "address",
          "name": "proposer",
          "type": "address"
        },
        {
          "indexed": false,
          "internalType": "string",
          "name": "title",
          "type": "string"
        },
        {
          "indexed": false,
          "internalType": "string",
          "name": "proposalType",
          "type": "string"
        },
        {
          "indexed": false,
          "internalType": "string",
          "name": "category",
          "type": "string"
        },
        {
          "indexed": false,
          "internalType": "uint256",
          "name": "deadline",
          "type": "uint256"
        },
        {
          "indexed": false,
          "internalType": "uint256",
          "name": "feePaid",
          "type": "uint256"
        }
      ],
      "name": "ProposalCreated",
      "type": "event"
    },
    {
      "anonymous": false,
      "inputs": [
        {
          "indexed": true,
          "internalType": "uint256",
          "name": "id",
          "type": "uint256"
        },
        {
          "indexed": false,
          "internalType": "bool",
          "name": "approved",
          "type": "bool"
        }
      ],
      "name": "ProposalFinalized",
      "type": "event"
    },
    {
      "anonymous": false,
      "inputs": [
        {
          "indexed": false,
          "internalType": "uint256",
          "name": "oldThreshold",
          "type": "uint256"
        },
        {
          "indexed": false,
          "internalType": "uint256",
          "name": "newThreshold",
          "type": "uint256"
        }
      ],
      "name": "QuorumThresholdUpdated",
      "type": "event"
    },
    {
      "anonymous": false,
      "inputs": [
        {
          "indexed": true,
          "internalType": "address",
          "name": "oldAddr",
          "type": "address"
        },
        {
          "indexed": true,
          "internalType": "address",
          "name": "newAddr",
          "type": "address"
        }
      ],
      "name": "StakingContractUpdated",
      "type": "event"
    },
    {
      "anonymous": false,
      "inputs": [
        {
          "indexed": true,
          "internalType": "uint256",
          "name": "id",
          "type": "uint256"
        },
        {
          "indexed": true,
          "internalType": "address",
          "name": "voter",
          "type": "address"
        },
        {
          "indexed": false,
          "internalType": "uint256",
          "name": "weight",
          "type": "uint256"
        },
        {
          "indexed": false,
          "internalType": "bool",
          "name": "support",
          "type": "bool"
        }
      ],
      "name": "VoteCast",
      "type": "event"
    },
    {
      "anonymous": false,
      "inputs": [
        {
          "indexed": false,
          "internalType": "uint256",
          "name": "oldPeriod",
          "type": "uint256"
        },
        {
          "indexed": false,
          "internalType": "uint256",
          "name": "newPeriod",
          "type": "uint256"
        }
      ],
      "name": "VotingPeriodUpdated",
      "type": "event"
    },
    {
      "anonymous": false,
      "inputs": [
        {
          "indexed": true,
          "internalType": "address",
          "name": "treasury",
          "type": "address"
        },
        {
          "indexed": false,
          "internalType": "uint256",
          "name": "amount",
          "type": "uint256"
        }
      ],
      "name": "WithdrawnToTreasury",
      "type": "event"
    },
    {
      "stateMutability": "payable",
      "type": "fallback"
    },
    {
      "inputs": [
        {
          "internalType": "string",
          "name": "title",
          "type": "string"
        },
        {
          "internalType": "string",
          "name": "proposalType",
          "type": "string"
        },
        {
          "internalType": "string",
          "name": "category",
          "type": "string"
        },
        {
          "internalType": "string",
          "name": "description",
          "type": "string"
        },
        {
          "internalType": "string[]",
          "name": "tags",
          "type": "string[]"
        }
      ],
      "name": "createProposal",
      "outputs": [
        {
          "internalType": "uint256",
          "name": "",
          "type": "uint256"
        }
      ],
      "stateMutability": "payable",
      "type": "function"
    },
    {
      "inputs": [
        {
          "internalType": "uint256",
          "name": "proposalId",
          "type": "uint256"
        }
      ],
      "name": "finalizeProposal",
      "outputs": [],
      "stateMutability": "nonpayable",
      "type": "function"
    },
    {
      "inputs": [],
      "name": "getAllProposals",
      "outputs": [
        {
          "components": [
            {
              "internalType": "uint256",
              "name": "id",
              "type": "uint256"
            },
            {
              "internalType": "address",
              "name": "proposer",
              "type": "address"
            },
            {
              "internalType": "string",
              "name": "title",
              "type": "string"
            },
            {
              "internalType": "string",
              "name": "proposalType",
              "type": "string"
            },
            {
              "internalType": "string",
              "name": "category",
              "type": "string"
            },
            {
              "internalType": "string",
              "name": "description",
              "type": "string"
            },
            {
              "internalType": "string[]",
              "name": "tags",
              "type": "string[]"
            },
            {
              "internalType": "uint256",
              "name": "deadline",
              "type": "uint256"
            },
            {
              "internalType": "bool",
              "name": "finalized",
              "type": "bool"
            },
            {
              "internalType": "uint256",
              "name": "feePaid",
              "type": "uint256"
            },
            {
              "internalType": "uint256",
              "name": "participation",
              "type": "uint256"
            }
          ],
          "internalType": "struct FreeLanceDAOProposalContract.ProposalView[]",
          "name": "",
          "type": "tuple[]"
        }
      ],
      "stateMutability": "view",
      "type": "function"
    },
    {
      "inputs": [
        {
          "internalType": "uint256",
          "name": "proposalId",
          "type": "uint256"
        }
      ],
      "name": "getProposal",
      "outputs": [
        {
          "internalType": "address",
          "name": "proposer",
          "type": "address"
        },
        {
          "internalType": "string",
          "name": "title",
          "type": "string"
        },
        {
          "internalType": "string",
          "name": "proposalType",
          "type": "string"
        },
        {
          "internalType": "string",
          "name": "category",
          "type": "string"
        },
        {
          "internalType": "string",
          "name": "description",
          "type": "string"
        },
        {
          "internalType": "string[]",
          "name": "tags",
          "type": "string[]"
        },
        {
          "internalType": "uint256",
          "name": "yesVotes",
          "type": "uint256"
        },
        {
          "internalType": "uint256",
          "name": "noVotes",
          "type": "uint256"
        },
        {
          "internalType": "uint256",
          "name": "deadline",
          "type": "uint256"
        },
        {
          "internalType": "bool",
          "name": "finalized",
          "type": "bool"
        },
        {
          "internalType": "uint256",
          "name": "feePaid",
          "type": "uint256"
        },
        {
          "internalType": "uint256",
          "name": "participation",
          "type": "uint256"
        }
      ],
      "stateMutability": "view",
      "type": "function"
    },
    {
      "inputs": [
        {
          "internalType": "address",
          "name": "user",
          "type": "address"
        }
      ],
      "name": "getUserProposals",
      "outputs": [
        {
          "components": [
            {
              "internalType": "uint256",
              "name": "id",
              "type": "uint256"
            },
            {
              "internalType": "address",
              "name": "proposer",
              "type": "address"
            },
            {
              "internalType": "string",
              "name": "title",
              "type": "string"
            },
            {
              "internalType": "string",
              "name": "proposalType",
              "type": "string"
            },
            {
              "internalType": "string",
              "name": "category",
              "type": "string"
            },
            {
              "internalType": "string",
              "name": "description",
              "type": "string"
            },
            {
              "internalType": "string[]",
              "name": "tags",
              "type": "string[]"
            },
            {
              "internalType": "uint256",
              "name": "deadline",
              "type": "uint256"
            },
            {
              "internalType": "bool",
              "name": "finalized",
              "type": "bool"
            },
            {
              "internalType": "uint256",
              "name": "feePaid",
              "type": "uint256"
            },
            {
              "internalType": "uint256",
              "name": "participation",
              "type": "uint256"
            }
          ],
          "internalType": "struct FreeLanceDAOProposalContract.ProposalView[]",
          "name": "",
          "type": "tuple[]"
        }
      ],
      "stateMutability": "view",
      "type": "function"
    },
    {
      "inputs": [
        {
          "internalType": "uint256",
          "name": "proposalId",
          "type": "uint256"
        },
        {
          "internalType": "address",
          "name": "voter",
          "type": "address"
        }
      ],
      "name": "getVoterSnapshot",
      "outputs": [
        {
          "internalType": "uint256",
          "name": "",
          "type": "uint256"
        }
      ],
      "stateMutability": "view",
      "type": "function"
    },
    {
      "inputs": [
        {
          "internalType": "uint256",
          "name": "",
          "type": "uint256"
        },
        {
          "internalType": "address",
          "name": "",
          "type": "address"
        }
      ],
      "name": "hasVoted",
      "outputs": [
        {
          "internalType": "bool",
          "name": "",
          "type": "bool"
        }
      ],
      "stateMutability": "view",
      "type": "function"
    },
    {
      "inputs": [],
      "name": "owner",
      "outputs": [
        {
          "internalType": "address",
          "name": "",
          "type": "address"
        }
      ],
      "stateMutability": "view",
      "type": "function"
    },
    {
      "inputs": [],
      "name": "proposalCount",
      "outputs": [
        {
          "internalType": "uint256",
          "name": "",
          "type": "uint256"
        }
      ],
      "stateMutability": "view",
      "type": "function"
    },
    {
      "inputs": [],
      "name": "quorumThresholdTokens",
      "outputs": [
        {
          "internalType": "uint256",
          "name": "",
          "type": "uint256"
        }
      ],
      "stateMutability": "view",
      "type": "function"
    },
    {
      "inputs": [],
      "name": "renounceOwnership",
      "outputs": [],
      "stateMutability": "nonpayable",
      "type": "function"
    },
    {
      "inputs": [
        {
          "internalType": "uint256",
          "name": "_threshold",
          "type": "uint256"
        }
      ],
      "name": "setQuorumThresholdTokens",
      "outputs": [],
      "stateMutability": "nonpayable",
      "type": "function"
    },
    {
      "inputs": [
        {
          "internalType": "address",
          "name": "_stakingContract",
          "type": "address"
        }
      ],
      "name": "setStakingContract",
      "outputs": [],
      "stateMutability": "nonpayable",
      "type": "function"
    },
    {
      "inputs": [
        {
          "internalType": "uint256",
          "name": "_votingPeriod",
          "type": "uint256"
        }
      ],
      "name": "setVotingPeriod",
      "outputs": [],
      "stateMutability": "nonpayable",
      "type": "function"
    },
    {
      "inputs": [],
      "name": "stakingContract",
      "outputs": [
        {
          "internalType": "contract IFreeLanceDAOStaking",
          "name": "",
          "type": "address"
        }
      ],
      "stateMutability": "view",
      "type": "function"
    },
    {
      "inputs": [
        {
          "internalType": "address",
          "name": "member",
          "type": "address"
        }
      ],
      "name": "stakingWeight",
      "outputs": [
        {
          "internalType": "uint256",
          "name": "",
          "type": "uint256"
        }
      ],
      "stateMutability": "view",
      "type": "function"
    },
    {
      "inputs": [
        {
          "internalType": "address",
          "name": "newOwner",
          "type": "address"
        }
      ],
      "name": "transferOwnership",
      "outputs": [],
      "stateMutability": "nonpayable",
      "type": "function"
    },
    {
      "inputs": [
        {
          "internalType": "uint256",
          "name": "proposalId",
          "type": "uint256"
        },
        {
          "internalType": "bool",
          "name": "support",
          "type": "bool"
        }
      ],
      "name": "vote",
      "outputs": [],
      "stateMutability": "nonpayable",
      "type": "function"
    },
    {
      "inputs": [],
      "name": "votingPeriod",
      "outputs": [
        {
          "internalType": "uint256",
          "name": "",
          "type": "uint256"
        }
      ],
      "stateMutability": "view",
      "type": "function"
    },
    {
      "inputs": [
        {
          "internalType": "uint256",
          "name": "",
          "type": "uint256"
        },
        {
          "internalType": "address",
          "name": "",
          "type": "address"
        }
      ],
      "name": "votingPowerSnapshot",
      "outputs": [
        {
          "internalType": "uint256",
          "name": "",
          "type": "uint256"
        }
      ],
      "stateMutability": "view",
      "type": "function"
    },
    {
      "inputs": [
        {
          "internalType": "address payable",
          "name": "treasury",
          "type": "address"
        }
      ],
      "name": "withdrawToTreasury",
      "outputs": [],
      "stateMutability": "nonpayable",
      "type": "function"
    },
    {
      "stateMutability": "payable",
      "type": "receive"
    }
  ],
  "bytecode": "0x60806040526203f48060085560016009553480156200001d57600080fd5b5060405162003b4438038062003b4483398181016040528101906200004391906200025a565b62000063620000576200012460201b60201c565b6200012c60201b60201c565b60018081905550600073ffffffffffffffffffffffffffffffffffffffff168173ffffffffffffffffffffffffffffffffffffffff1603620000dc576040517f08c379a0000000000000000000000000000000000000000000000000000000008152600401620000d390620002ed565b60405180910390fd5b80600260006101000a81548173ffffffffffffffffffffffffffffffffffffffff021916908373ffffffffffffffffffffffffffffffffffffffff160217905550506200030f565b600033905090565b60008060009054906101000a900473ffffffffffffffffffffffffffffffffffffffff169050816000806101000a81548173ffffffffffffffffffffffffffffffffffffffff021916908373ffffffffffffffffffffffffffffffffffffffff1602179055508173ffffffffffffffffffffffffffffffffffffffff168173ffffffffffffffffffffffffffffffffffffffff167f8be0079c531659141344cd1fd0a4f28419497f9722a3daafe3b4186f6b6457e060405160405180910390a35050565b600080fd5b600073ffffffffffffffffffffffffffffffffffffffff82169050919050565b60006200022282620001f5565b9050919050565b620002348162000215565b81146200024057600080fd5b50565b600081519050620002548162000229565b92915050565b600060208284031215620002735762000272620001f0565b5b6000620002838482850162000243565b91505092915050565b600082825260208201905092915050565b7f496e76616c6964207374616b696e6720636f6e74726163740000000000000000600082015250565b6000620002d56018836200028c565b9150620002e2826200029d565b602082019050919050565b600060208201905081810360008301526200030881620002c6565b9050919050565b613825806200031f6000396000f3fe60806040526004361061012e5760003560e01c8063902b57e8116100ab578063cceb68f51161006f578063cceb68f514610408578063cf5e4d6714610433578063da35c66414610470578063ea0217cf1461049b578063ee99205c146104c4578063f2fde38b146104ef57610135565b8063902b57e81461031a5780639dd373b914610343578063ba54e4131461036c578063c7f758a814610397578063c9d27afe146103df57610135565b80635652077c116100f25780635652077c14610249578063715018a6146102725780637573698b1461028957806378ef1138146102b25780638da5cb5b146102ef57610135565b806302a251a3146101375780630f226997146101625780633b99666f1461019257806343859632146101cf57806343d558ed1461020c57610135565b3661013557005b005b34801561014357600080fd5b5061014c610518565b60405161015991906121f2565b60405180910390f35b61017c600480360381019061017791906122d2565b61051e565b60405161018991906121f2565b60405180910390f35b34801561019e57600080fd5b506101b960048036038101906101b4919061244d565b610798565b6040516101c691906121f2565b60405180910390f35b3480156101db57600080fd5b506101f660048036038101906101f191906124a6565b610844565b6040516102039190612501565b60405180910390f35b34801561021857600080fd5b50610233600480360381019061022e91906124a6565b610873565b60405161024091906121f2565b60405180910390f35b34801561025557600080fd5b50610270600480360381019061026b919061251c565b610898565b005b34801561027e57600080fd5b50610287610a24565b005b34801561029557600080fd5b506102b060048036038101906102ab919061251c565b610a38565b005b3480156102be57600080fd5b506102d960048036038101906102d4919061244d565b610a8b565b6040516102e69190612895565b60405180910390f35b3480156102fb57600080fd5b50610304610fa3565b60405161031191906128c6565b60405180910390f35b34801561032657600080fd5b50610341600480360381019061033c919061291f565b610fcc565b005b34801561034f57600080fd5b5061036a6004803603810190610365919061244d565b61119a565b005b34801561037857600080fd5b506103816112d7565b60405161038e91906121f2565b60405180910390f35b3480156103a357600080fd5b506103be60048036038101906103b9919061251c565b6112dd565b6040516103d69c9b9a99989796959493929190612a1c565b60405180910390f35b3480156103eb57600080fd5b5061040660048036038101906104019190612b25565b6116a5565b005b34801561041457600080fd5b5061041d61199e565b60405161042a9190612895565b60405180910390f35b34801561043f57600080fd5b5061045a600480360381019061045591906124a6565b611e25565b60405161046791906121f2565b60405180910390f35b34801561047c57600080fd5b50610485611e80565b60405161049291906121f2565b60405180910390f35b3480156104a757600080fd5b506104c260048036038101906104bd919061251c565b611e86565b005b3480156104d057600080fd5b506104d9611f1c565b6040516104e69190612bc4565b60405180910390f35b3480156104fb57600080fd5b506105166004803603810190610511919061244d565b611f42565b005b60085481565b6000610528611fc5565b6003600081548092919061053b90612c0e565b919050555060006004600060035481526020019081526020016000209050338160000160006101000a81548173ffffffffffffffffffffffffffffffffffffffff021916908373ffffffffffffffffffffffffffffffffffffffff1602179055508b8b8260010191826105af929190612e92565b5089898260020191826105c3929190612e92565b5087878260030191826105d7929190612e92565b5085858260040191826105eb929190612e92565b50600854426105fa9190612f62565b816008018190555060008160090160006101000a81548160ff0219169083151502179055503481600a018190555060005b848490508110156106ac578160050185858381811061064d5761064c612f96565b5b905060200281019061065f9190612fd4565b90918060018154018082558091505060019003906000526020600020016000909192909192909192909192509182610698929190612e92565b5080806106a490612c0e565b91505061062b565b50600760003373ffffffffffffffffffffffffffffffffffffffff1673ffffffffffffffffffffffffffffffffffffffff16815260200190815260200160002060035490806001815401808255809150506001900390600052602060002001600090919091909150553373ffffffffffffffffffffffffffffffffffffffff166003547fa545c4dca3f89091030a281bf4422840f14e6fdb422e08ca04c8d6ae025f9d5e8e8e8e8e8e8e89600801548a600a0154604051610774989796959493929190613073565b60405180910390a360035491505061078a612014565b9a9950505050505050505050565b600080600260009054906101000a900473ffffffffffffffffffffffffffffffffffffffff1673ffffffffffffffffffffffffffffffffffffffff166316934fc4846040518263ffffffff1660e01b81526004016107f691906128c6565b606060405180830381865afa158015610813573d6000803e3d6000fd5b505050506040513d601f19601f8201168201806040525081019061083791906130f6565b5050905080915050919050565b60056020528160005260406000206020528060005260406000206000915091509054906101000a900460ff1681565b6006602052816000526040600020602052806000526040600020600091509150505481565b600060046000838152602001908152602001600020905060008160080154036108f6576040517f08c379a00000000000000000000000000000000000000000000000000000000081526004016108ed90613195565b60405180910390fd5b806008015442101561093d576040517f08c379a000000000000000000000000000000000000000000000000000000000815260040161093490613201565b60405180910390fd5b8060090160009054906101000a900460ff161561098f576040517f08c379a00000000000000000000000000000000000000000000000000000000081526004016109869061326d565b60405180910390fd5b60018160090160006101000a81548160ff0219169083151502179055506000816007015482600601546109c29190612f62565b9050600060095482106109e157826007015483600601541190506109e6565b600090505b837fb5ac567fcf1b069e0235e4f16734625c6cf54c1b40517fd9eb85517f6e1265a782604051610a169190612501565b60405180910390a250505050565b610a2c61201d565b610a36600061209b565b565b610a4061201d565b60006009549050816009819055507fc33728fb6bc64ec1c5596c946e1406ccdfb7369404098c1d6a5f4a7a29c97b638183604051610a7f92919061328d565b60405180910390a15050565b60606000600760008473ffffffffffffffffffffffffffffffffffffffff1673ffffffffffffffffffffffffffffffffffffffff16815260200190815260200160002080549050905060008167ffffffffffffffff811115610af057610aef612c61565b5b604051908082528060200260200182016040528015610b2957816020015b610b16612167565b815260200190600190039081610b0e5790505b50905060005b82811015610f98576000600760008773ffffffffffffffffffffffffffffffffffffffff1673ffffffffffffffffffffffffffffffffffffffff1681526020019081526020016000208281548110610b8a57610b89612f96565b5b9060005260206000200154905060006004600083815260200190815260200160002090506040518061016001604052808381526020018260000160009054906101000a900473ffffffffffffffffffffffffffffffffffffffff1673ffffffffffffffffffffffffffffffffffffffff168152602001826001018054610c0f90612cbf565b80601f0160208091040260200160405190810160405280929190818152602001828054610c3b90612cbf565b8015610c885780601f10610c5d57610100808354040283529160200191610c88565b820191906000526020600020905b815481529060010190602001808311610c6b57829003601f168201915b50505050508152602001826002018054610ca190612cbf565b80601f0160208091040260200160405190810160405280929190818152602001828054610ccd90612cbf565b8015610d1a5780601f10610cef57610100808354040283529160200191610d1a565b820191906000526020600020905b815481529060010190602001808311610cfd57829003601f168201915b50505050508152602001826003018054610d3390612cbf565b80601f0160208091040260200160405190810160405280929190818152602001828054610d5f90612cbf565b8015610dac5780601f10610d8157610100808354040283529160200191610dac565b820191906000526020600020905b815481529060010190602001808311610d8f57829003601f168201915b50505050508152602001826004018054610dc590612cbf565b80601f0160208091040260200160405190810160405280929190818152602001828054610df190612cbf565b8015610e3e5780601f10610e1357610100808354040283529160200191610e3e565b820191906000526020600020905b815481529060010190602001808311610e2157829003601f168201915b5050505050815260200182600501805480602002602001604051908101604052809291908181526020016000905b82821015610f18578382906000526020600020018054610e8b90612cbf565b80601f0160208091040260200160405190810160405280929190818152602001828054610eb790612cbf565b8015610f045780601f10610ed957610100808354040283529160200191610f04565b820191906000526020600020905b815481529060010190602001808311610ee757829003601f168201915b505050505081526020019060010190610e6c565b505050508152602001826008015481526020018260090160009054906101000a900460ff161515815260200182600a0154815260200182600701548360060154610f629190612f62565b815250848481518110610f7857610f77612f96565b5b602002602001018190525050508080610f9090612c0e565b915050610b2f565b508092505050919050565b60008060009054906101000a900473ffffffffffffffffffffffffffffffffffffffff16905090565b610fd461201d565b610fdc611fc5565b600073ffffffffffffffffffffffffffffffffffffffff168173ffffffffffffffffffffffffffffffffffffffff160361104b576040517f08c379a000000000000000000000000000000000000000000000000000000000815260040161104290613302565b60405180910390fd5b600047905060008111611093576040517f08c379a000000000000000000000000000000000000000000000000000000000815260040161108a9061336e565b60405180910390fd5b60008273ffffffffffffffffffffffffffffffffffffffff16826040516110b9906133bf565b60006040518083038185875af1925050503d80600081146110f6576040519150601f19603f3d011682016040523d82523d6000602084013e6110fb565b606091505b505090508061113f576040517f08c379a000000000000000000000000000000000000000000000000000000000815260040161113690613420565b60405180910390fd5b8273ffffffffffffffffffffffffffffffffffffffff167fd4a7afb98d7393b9dcc6ed652eee0db7022d73a6a21d66204d021872e12098a48360405161118591906121f2565b60405180910390a25050611197612014565b50565b6111a261201d565b600073ffffffffffffffffffffffffffffffffffffffff168173ffffffffffffffffffffffffffffffffffffffff1603611211576040517f08c379a00000000000000000000000000000000000000000000000000000000081526004016112089061348c565b60405180910390fd5b6000600260009054906101000a900473ffffffffffffffffffffffffffffffffffffffff16905081600260006101000a81548173ffffffffffffffffffffffffffffffffffffffff021916908373ffffffffffffffffffffffffffffffffffffffff1602179055508173ffffffffffffffffffffffffffffffffffffffff168173ffffffffffffffffffffffffffffffffffffffff167f7042586b23181180eb30b4798702d7a0233b7fc2551e89806770e8e5d9392e6a60405160405180910390a35050565b60095481565b600060608060608060606000806000806000806000600460008f815260200190815260200160002090508060000160009054906101000a900473ffffffffffffffffffffffffffffffffffffffff1681600101826002018360030184600401856005018660060154876007015488600801548960090160009054906101000a900460ff168a600a01548b600701548c6006015461137a9190612f62565b8a805461138690612cbf565b80601f01602080910402602001604051908101604052809291908181526020018280546113b290612cbf565b80156113ff5780601f106113d4576101008083540402835291602001916113ff565b820191906000526020600020905b8154815290600101906020018083116113e257829003601f168201915b50505050509a5089805461141290612cbf565b80601f016020809104026020016040519081016040528092919081815260200182805461143e90612cbf565b801561148b5780601f106114605761010080835404028352916020019161148b565b820191906000526020600020905b81548152906001019060200180831161146e57829003601f168201915b5050505050995088805461149e90612cbf565b80601f01602080910402602001604051908101604052809291908181526020018280546114ca90612cbf565b80156115175780601f106114ec57610100808354040283529160200191611517565b820191906000526020600020905b8154815290600101906020018083116114fa57829003601f168201915b5050505050985087805461152a90612cbf565b80601f016020809104026020016040519081016040528092919081815260200182805461155690612cbf565b80156115a35780601f10611578576101008083540402835291602001916115a3565b820191906000526020600020905b81548152906001019060200180831161158657829003601f168201915b5050505050975086805480602002602001604051908101604052809291908181526020016000905b828210156116775783829060005260206000200180546115ea90612cbf565b80601f016020809104026020016040519081016040528092919081815260200182805461161690612cbf565b80156116635780601f1061163857610100808354040283529160200191611663565b820191906000526020600020905b81548152906001019060200180831161164657829003601f168201915b5050505050815260200190600101906115cb565b5050505096509c509c509c509c509c509c509c509c509c509c509c509c505091939597999b5091939597999b565b6116ad611fc5565b6000600460008481526020019081526020016000209050600081600801540361170b576040517f08c379a000000000000000000000000000000000000000000000000000000000815260040161170290613195565b60405180910390fd5b80600801544210611751576040517f08c379a0000000000000000000000000000000000000000000000000000000008152600401611748906134f8565b60405180910390fd5b6005600084815260200190815260200160002060003373ffffffffffffffffffffffffffffffffffffffff1673ffffffffffffffffffffffffffffffffffffffff16815260200190815260200160002060009054906101000a900460ff16156117ef576040517f08c379a00000000000000000000000000000000000000000000000000000000081526004016117e690613564565b60405180910390fd5b60006117fa33610798565b90506000811161183f576040517f08c379a0000000000000000000000000000000000000000000000000000000008152600401611836906135d0565b60405180910390fd5b806006600086815260200190815260200160002060003373ffffffffffffffffffffffffffffffffffffffff1673ffffffffffffffffffffffffffffffffffffffff1681526020019081526020016000208190555060016005600086815260200190815260200160002060003373ffffffffffffffffffffffffffffffffffffffff1673ffffffffffffffffffffffffffffffffffffffff16815260200190815260200160002060006101000a81548160ff021916908315150217905550821561192357808260060160008282546119179190612f62565b9250508190555061193f565b808260070160008282546119379190612f62565b925050819055505b3373ffffffffffffffffffffffffffffffffffffffff16847fb898e75d5aac8de2f407e4a683c8d909e832d1e371e3bff0fa3ed934e88d956283866040516119889291906135f0565b60405180910390a3505061199a612014565b5050565b60606000600354905060008167ffffffffffffffff8111156119c3576119c2612c61565b5b6040519080825280602002602001820160405280156119fc57816020015b6119e9612167565b8152602001906001900390816119e15790505b50905060005b82811015611e1c576000600182611a199190612f62565b905060006004600083815260200190815260200160002090506040518061016001604052808381526020018260000160009054906101000a900473ffffffffffffffffffffffffffffffffffffffff1673ffffffffffffffffffffffffffffffffffffffff168152602001826001018054611a9390612cbf565b80601f0160208091040260200160405190810160405280929190818152602001828054611abf90612cbf565b8015611b0c5780601f10611ae157610100808354040283529160200191611b0c565b820191906000526020600020905b815481529060010190602001808311611aef57829003601f168201915b50505050508152602001826002018054611b2590612cbf565b80601f0160208091040260200160405190810160405280929190818152602001828054611b5190612cbf565b8015611b9e5780601f10611b7357610100808354040283529160200191611b9e565b820191906000526020600020905b815481529060010190602001808311611b8157829003601f168201915b50505050508152602001826003018054611bb790612cbf565b80601f0160208091040260200160405190810160405280929190818152602001828054611be390612cbf565b8015611c305780601f10611c0557610100808354040283529160200191611c30565b820191906000526020600020905b815481529060010190602001808311611c1357829003601f168201915b50505050508152602001826004018054611c4990612cbf565b80601f0160208091040260200160405190810160405280929190818152602001828054611c7590612cbf565b8015611cc25780601f10611c9757610100808354040283529160200191611cc2565b820191906000526020600020905b815481529060010190602001808311611ca557829003601f168201915b5050505050815260200182600501805480602002602001604051908101604052809291908181526020016000905b82821015611d9c578382906000526020600020018054611d0f90612cbf565b80601f0160208091040260200160405190810160405280929190818152602001828054611d3b90612cbf565b8015611d885780601f10611d5d57610100808354040283529160200191611d88565b820191906000526020600020905b815481529060010190602001808311611d6b57829003601f168201915b505050505081526020019060010190611cf0565b505050508152602001826008015481526020018260090160009054906101000a900460ff161515815260200182600a0154815260200182600701548360060154611de69190612f62565b815250848481518110611dfc57611dfb612f96565b5b602002602001018190525050508080611e1490612c0e565b915050611a02565b50809250505090565b60006006600084815260200190815260200160002060008373ffffffffffffffffffffffffffffffffffffffff1673ffffffffffffffffffffffffffffffffffffffff16815260200190815260200160002054905092915050565b60035481565b611e8e61201d565b60008111611ed1576040517f08c379a0000000000000000000000000000000000000000000000000000000008152600401611ec890613665565b60405180910390fd5b60006008549050816008819055507fffc708f072ca56e3d45ef0cb288b96cb9378f5f63e1646868bfbc9c38f4263a18183604051611f1092919061328d565b60405180910390a15050565b600260009054906101000a900473ffffffffffffffffffffffffffffffffffffffff1681565b611f4a61201d565b600073ffffffffffffffffffffffffffffffffffffffff168173ffffffffffffffffffffffffffffffffffffffff1603611fb9576040517f08c379a0000000000000000000000000000000000000000000000000000000008152600401611fb0906136f7565b60405180910390fd5b611fc28161209b565b50565b60026001540361200a576040517f08c379a000000000000000000000000000000000000000000000000000000000815260040161200190613763565b60405180910390fd5b6002600181905550565b60018081905550565b61202561215f565b73ffffffffffffffffffffffffffffffffffffffff16612043610fa3565b73ffffffffffffffffffffffffffffffffffffffff1614612099576040517f08c379a0000000000000000000000000000000000000000000000000000000008152600401612090906137cf565b60405180910390fd5b565b60008060009054906101000a900473ffffffffffffffffffffffffffffffffffffffff169050816000806101000a81548173ffffffffffffffffffffffffffffffffffffffff021916908373ffffffffffffffffffffffffffffffffffffffff1602179055508173ffffffffffffffffffffffffffffffffffffffff168173ffffffffffffffffffffffffffffffffffffffff167f8be0079c531659141344cd1fd0a4f28419497f9722a3daafe3b4186f6b6457e060405160405180910390a35050565b600033905090565b60405180610160016040528060008152602001600073ffffffffffffffffffffffffffffffffffffffff16815260200160608152602001606081526020016060815260200160608152602001606081526020016000815260200160001515815260200160008152602001600081525090565b6000819050919050565b6121ec816121d9565b82525050565b600060208201905061220760008301846121e3565b92915050565b600080fd5b600080fd5b600080fd5b600080fd5b600080fd5b60008083601f84011261223c5761223b612217565b5b8235905067ffffffffffffffff8111156122595761225861221c565b5b60208301915083600182028301111561227557612274612221565b5b9250929050565b60008083601f84011261229257612291612217565b5b8235905067ffffffffffffffff8111156122af576122ae61221c565b5b6020830191508360208202830111156122cb576122ca612221565b5b9250929050565b60008060008060008060008060008060a08b8d0312156122f5576122f461220d565b5b60008b013567ffffffffffffffff81111561231357612312612212565b5b61231f8d828e01612226565b9a509a505060208b013567ffffffffffffffff81111561234257612341612212565b5b61234e8d828e01612226565b985098505060408b013567ffffffffffffffff81111561237157612370612212565b5b61237d8d828e01612226565b965096505060608b013567ffffffffffffffff8111156123a05761239f612212565b5b6123ac8d828e01612226565b945094505060808b013567ffffffffffffffff8111156123cf576123ce612212565b5b6123db8d828e0161227c565b92509250509295989b9194979a5092959850565b600073ffffffffffffffffffffffffffffffffffffffff82169050919050565b600061241a826123ef565b9050919050565b61242a8161240f565b811461243557600080fd5b50565b60008135905061244781612421565b92915050565b6000602082840312156124635761246261220d565b5b600061247184828501612438565b91505092915050565b612483816121d9565b811461248e57600080fd5b50565b6000813590506124a08161247a565b92915050565b600080604083850312156124bd576124bc61220d565b5b60006124cb85828601612491565b92505060206124dc85828601612438565b9150509250929050565b60008115159050919050565b6124fb816124e6565b82525050565b600060208201905061251660008301846124f2565b92915050565b6000602082840312156125325761253161220d565b5b600061254084828501612491565b91505092915050565b600081519050919050565b600082825260208201905092915050565b6000819050602082019050919050565b61257e816121d9565b82525050565b61258d8161240f565b82525050565b600081519050919050565b600082825260208201905092915050565b60005b838110156125cd5780820151818401526020810190506125b2565b60008484015250505050565b6000601f19601f8301169050919050565b60006125f582612593565b6125ff818561259e565b935061260f8185602086016125af565b612618816125d9565b840191505092915050565b600081519050919050565b600082825260208201905092915050565b6000819050602082019050919050565b600061265b83836125ea565b905092915050565b6000602082019050919050565b600061267b82612623565b612685818561262e565b9350836020820285016126978561263f565b8060005b858110156126d357848403895281516126b4858261264f565b94506126bf83612663565b925060208a0199505060018101905061269b565b50829750879550505050505092915050565b6126ee816124e6565b82525050565b60006101608301600083015161270d6000860182612575565b5060208301516127206020860182612584565b506040830151848203604086015261273882826125ea565b9150506060830151848203606086015261275282826125ea565b9150506080830151848203608086015261276c82826125ea565b91505060a083015184820360a086015261278682826125ea565b91505060c083015184820360c08601526127a08282612670565b91505060e08301516127b560e0860182612575565b506101008301516127ca6101008601826126e5565b506101208301516127df610120860182612575565b506101408301516127f4610140860182612575565b508091505092915050565b600061280b83836126f4565b905092915050565b6000602082019050919050565b600061282b82612549565b6128358185612554565b93508360208202850161284785612565565b8060005b85811015612883578484038952815161286485826127ff565b945061286f83612813565b925060208a0199505060018101905061284b565b50829750879550505050505092915050565b600060208201905081810360008301526128af8184612820565b905092915050565b6128c08161240f565b82525050565b60006020820190506128db60008301846128b7565b92915050565b60006128ec826123ef565b9050919050565b6128fc816128e1565b811461290757600080fd5b50565b600081359050612919816128f3565b92915050565b6000602082840312156129355761293461220d565b5b60006129438482850161290a565b91505092915050565b600082825260208201905092915050565b600061296882612593565b612972818561294c565b93506129828185602086016125af565b61298b816125d9565b840191505092915050565b600082825260208201905092915050565b60006129b282612623565b6129bc8185612996565b9350836020820285016129ce8561263f565b8060005b85811015612a0a57848403895281516129eb858261264f565b94506129f683612663565b925060208a019950506001810190506129d2565b50829750879550505050505092915050565b600061018082019050612a32600083018f6128b7565b8181036020830152612a44818e61295d565b90508181036040830152612a58818d61295d565b90508181036060830152612a6c818c61295d565b90508181036080830152612a80818b61295d565b905081810360a0830152612a94818a6129a7565b9050612aa360c08301896121e3565b612ab060e08301886121e3565b612abe6101008301876121e3565b612acc6101208301866124f2565b612ada6101408301856121e3565b612ae86101608301846121e3565b9d9c50505050505050505050505050565b612b02816124e6565b8114612b0d57600080fd5b50565b600081359050612b1f81612af9565b92915050565b60008060408385031215612b3c57612b3b61220d565b5b6000612b4a85828601612491565b9250506020612b5b85828601612b10565b9150509250929050565b6000819050919050565b6000612b8a612b85612b80846123ef565b612b65565b6123ef565b9050919050565b6000612b9c82612b6f565b9050919050565b6000612bae82612b91565b9050919050565b612bbe81612ba3565b82525050565b6000602082019050612bd96000830184612bb5565b92915050565b7f4e487b7100000000000000000000000000000000000000000000000000000000600052601160045260246000fd5b6000612c19826121d9565b91507fffffffffffffffffffffffffffffffffffffffffffffffffffffffffffffffff8203612c4b57612c4a612bdf565b5b600182019050919050565b600082905092915050565b7f4e487b7100000000000000000000000000000000000000000000000000000000600052604160045260246000fd5b7f4e487b7100000000000000000000000000000000000000000000000000000000600052602260045260246000fd5b60006002820490506001821680612cd757607f821691505b602082108103612cea57612ce9612c90565b5b50919050565b60008190508160005260206000209050919050565b60006020601f8301049050919050565b600082821b905092915050565b600060088302612d527fffffffffffffffffffffffffffffffffffffffffffffffffffffffffffffffff82612d15565b612d5c8683612d15565b95508019841693508086168417925050509392505050565b6000612d8f612d8a612d85846121d9565b612b65565b6121d9565b9050919050565b6000819050919050565b612da983612d74565b612dbd612db582612d96565b848454612d22565b825550505050565b600090565b612dd2612dc5565b612ddd818484612da0565b505050565b5b81811015612e0157612df6600082612dca565b600181019050612de3565b5050565b601f821115612e4657612e1781612cf0565b612e2084612d05565b81016020851015612e2f578190505b612e43612e3b85612d05565b830182612de2565b50505b505050565b600082821c905092915050565b6000612e6960001984600802612e4b565b1980831691505092915050565b6000612e828383612e58565b9150826002028217905092915050565b612e9c8383612c56565b67ffffffffffffffff811115612eb557612eb4612c61565b5b612ebf8254612cbf565b612eca828285612e05565b6000601f831160018114612ef95760008415612ee7578287013590505b612ef18582612e76565b865550612f59565b601f198416612f0786612cf0565b60005b82811015612f2f57848901358255600182019150602085019450602081019050612f0a565b86831015612f4c5784890135612f48601f891682612e58565b8355505b6001600288020188555050505b50505050505050565b6000612f6d826121d9565b9150612f78836121d9565b9250828201905080821115612f9057612f8f612bdf565b5b92915050565b7f4e487b7100000000000000000000000000000000000000000000000000000000600052603260045260246000fd5b600080fd5b600080fd5b600080fd5b60008083356001602003843603038112612ff157612ff0612fc5565b5b80840192508235915067ffffffffffffffff82111561301357613012612fca565b5b60208301925060018202360383131561302f5761302e612fcf565b5b509250929050565b82818337600083830152505050565b6000613052838561294c565b935061305f838584613037565b613068836125d9565b840190509392505050565b600060a082019050818103600083015261308e818a8c613046565b905081810360208301526130a381888a613046565b905081810360408301526130b8818688613046565b90506130c760608301856121e3565b6130d460808301846121e3565b9998505050505050505050565b6000815190506130f08161247a565b92915050565b60008060006060848603121561310f5761310e61220d565b5b600061311d868287016130e1565b935050602061312e868287016130e1565b925050604061313f868287016130e1565b9150509250925092565b7f50726f706f73616c20646f6573206e6f74206578697374000000000000000000600082015250565b600061317f60178361294c565b915061318a82613149565b602082019050919050565b600060208201905081810360008301526131ae81613172565b9050919050565b7f566f74696e67207374696c6c2061637469766500000000000000000000000000600082015250565b60006131eb60138361294c565b91506131f6826131b5565b602082019050919050565b6000602082019050818103600083015261321a816131de565b9050919050565b7f416c72656164792066696e616c697a6564000000000000000000000000000000600082015250565b600061325760118361294c565b915061326282613221565b602082019050919050565b600060208201905081810360008301526132868161324a565b9050919050565b60006040820190506132a260008301856121e3565b6132af60208301846121e3565b9392505050565b7f496e76616c696420747265617375727900000000000000000000000000000000600082015250565b60006132ec60108361294c565b91506132f7826132b6565b602082019050919050565b6000602082019050818103600083015261331b816132df565b9050919050565b7f4e6f2062616c616e636500000000000000000000000000000000000000000000600082015250565b6000613358600a8361294c565b915061336382613322565b602082019050919050565b600060208201905081810360008301526133878161334b565b9050919050565b600081905092915050565b50565b60006133a960008361338e565b91506133b482613399565b600082019050919050565b60006133ca8261339c565b9150819050919050565b7f5472616e73666572206661696c65640000000000000000000000000000000000600082015250565b600061340a600f8361294c565b9150613415826133d4565b602082019050919050565b60006020820190508181036000830152613439816133fd565b9050919050565b7f496e76616c696420616464726573730000000000000000000000000000000000600082015250565b6000613476600f8361294c565b915061348182613440565b602082019050919050565b600060208201905081810360008301526134a581613469565b9050919050565b7f566f74696e672068617320656e64656400000000000000000000000000000000600082015250565b60006134e260108361294c565b91506134ed826134ac565b602082019050919050565b60006020820190508181036000830152613511816134d5565b9050919050565b7f416c726561647920766f74656400000000000000000000000000000000000000600082015250565b600061354e600d8361294c565b915061355982613518565b602082019050919050565b6000602082019050818103600083015261357d81613541565b9050919050565b7f4e6f207374616b6520746f20766f746500000000000000000000000000000000600082015250565b60006135ba60108361294c565b91506135c582613584565b602082019050919050565b600060208201905081810360008301526135e9816135ad565b9050919050565b600060408201905061360560008301856121e3565b61361260208301846124f2565b9392505050565b7f566f74696e6720706572696f64203e2030000000000000000000000000000000600082015250565b600061364f60118361294c565b915061365a82613619565b602082019050919050565b6000602082019050818103600083015261367e81613642565b9050919050565b7f4f776e61626c653a206e6577206f776e657220697320746865207a65726f206160008201527f6464726573730000000000000000000000000000000000000000000000000000602082015250565b60006136e160268361294c565b91506136ec82613685565b604082019050919050565b60006020820190508181036000830152613710816136d4565b9050919050565b7f5265656e7472616e637947756172643a207265656e7472616e742063616c6c00600082015250565b600061374d601f8361294c565b915061375882613717565b602082019050919050565b6000602082019050818103600083015261377c81613740565b9050919050565b7f4f776e61626c653a2063616c6c6572206973206e6f7420746865206f776e6572600082015250565b60006137b960208361294c565b91506137c482613783565b602082019050919050565b600060208201905081810360008301526137e8816137ac565b905091905056fea2646970667358221220482b0d656d08fd1341ae4b52b03942420eb2c3b29d09a119eb97753e4a8845f864736f6c63430008140033",
  "linkReferences": {},
  "deployedLinkReferences": {}
}