{
  "_format": "hh-sol-artifact-1",
  "contractName": "FreelanceDAODisputeContract",
  "sourceName": "contracts/FreeLanceDAODisputeContract.sol",
  "abi": [
    {
      "inputs": [
        {
          "internalType": "uint256",
          "name": "_quorum",
          "type": "uint256"
        }
      ],
      "stateMutability": "nonpayable",
      "type": "constructor"
    },
    {
      "inputs": [
        {
          "internalType": "address",
          "name": "owner",
          "type": "address"
        }
      ],
      "name": "OwnableInvalidOwner",
      "type": "error"
    },
    {
      "inputs": [
        {
          "internalType": "address",
          "name": "account",
          "type": "address"
        }
      ],
      "name": "OwnableUnauthorizedAccount",
      "type": "error"
    },
    {
      "inputs": [],
      "name": "ReentrancyGuardReentrantCall",
      "type": "error"
    },
    {
      "anonymous": false,
      "inputs": [
        {
          "indexed": true,
          "internalType": "address",
          "name": "member",
          "type": "address"
        }
      ],
      "name": "DaoMemberAdded",
      "type": "event"
    },
    {
      "anonymous": false,
      "inputs": [
        {
          "indexed": true,
          "internalType": "address",
          "name": "member",
          "type": "address"
        }
      ],
      "name": "DaoMemberRemoved",
      "type": "event"
    },
    {
      "anonymous": false,
      "inputs": [
        {
          "indexed": true,
          "internalType": "uint256",
          "name": "disputeId",
          "type": "uint256"
        },
        {
          "indexed": true,
          "internalType": "uint256",
          "name": "jobId",
          "type": "uint256"
        },
        {
          "indexed": true,
          "internalType": "address",
          "name": "client",
          "type": "address"
        },
        {
          "indexed": false,
          "internalType": "address",
          "name": "freelancer",
          "type": "address"
        },
        {
          "indexed": false,
          "internalType": "string",
          "name": "title",
          "type": "string"
        },
        {
          "indexed": false,
          "internalType": "uint256",
          "name": "amount",
          "type": "uint256"
        },
        {
          "indexed": false,
          "internalType": "string",
          "name": "category",
          "type": "string"
        },
        {
          "indexed": false,
          "internalType": "string",
          "name": "description",
          "type": "string"
        }
      ],
      "name": "DisputeCreated",
      "type": "event"
    },
    {
      "anonymous": false,
      "inputs": [
        {
          "indexed": true,
          "internalType": "uint256",
          "name": "disputeId",
          "type": "uint256"
        },
        {
          "indexed": true,
          "internalType": "address",
          "name": "winner",
          "type": "address"
        },
        {
          "indexed": false,
          "internalType": "enum FreelanceDAODisputeContract.DisputeStatus",
          "name": "status",
          "type": "uint8"
        }
      ],
      "name": "DisputeResolved",
      "type": "event"
    },
    {
      "anonymous": false,
      "inputs": [
        {
          "indexed": true,
          "internalType": "address",
          "name": "previousOwner",
          "type": "address"
        },
        {
          "indexed": true,
          "internalType": "address",
          "name": "newOwner",
          "type": "address"
        }
      ],
      "name": "OwnershipTransferred",
      "type": "event"
    },
    {
      "anonymous": false,
      "inputs": [
        {
          "indexed": true,
          "internalType": "uint256",
          "name": "disputeId",
          "type": "uint256"
        },
        {
          "indexed": true,
          "internalType": "address",
          "name": "voter",
          "type": "address"
        },
        {
          "indexed": false,
          "internalType": "string",
          "name": "side",
          "type": "string"
        }
      ],
      "name": "VoteCast",
      "type": "event"
    },
    {
      "inputs": [
        {
          "internalType": "address",
          "name": "member",
          "type": "address"
        }
      ],
      "name": "addDaoMember",
      "outputs": [],
      "stateMutability": "nonpayable",
      "type": "function"
    },
    {
      "inputs": [
        {
          "internalType": "uint256",
          "name": "jobId",
          "type": "uint256"
        },
        {
          "internalType": "address",
          "name": "freelancer",
          "type": "address"
        },
        {
          "internalType": "string",
          "name": "title",
          "type": "string"
        },
        {
          "internalType": "uint256",
          "name": "amount",
          "type": "uint256"
        },
        {
          "internalType": "string",
          "name": "category",
          "type": "string"
        },
        {
          "internalType": "string",
          "name": "description",
          "type": "string"
        }
      ],
      "name": "createDispute",
      "outputs": [
        {
          "internalType": "uint256",
          "name": "",
          "type": "uint256"
        }
      ],
      "stateMutability": "nonpayable",
      "type": "function"
    },
    {
      "inputs": [
        {
          "internalType": "address",
          "name": "",
          "type": "address"
        }
      ],
      "name": "daoMembers",
      "outputs": [
        {
          "internalType": "bool",
          "name": "",
          "type": "bool"
        }
      ],
      "stateMutability": "view",
      "type": "function"
    },
    {
      "inputs": [
        {
          "internalType": "uint256",
          "name": "",
          "type": "uint256"
        },
        {
          "internalType": "address",
          "name": "",
          "type": "address"
        }
      ],
      "name": "disputeVotes",
      "outputs": [
        {
          "internalType": "bool",
          "name": "",
          "type": "bool"
        }
      ],
      "stateMutability": "view",
      "type": "function"
    },
    {
      "inputs": [],
      "name": "getAllDisputes",
      "outputs": [
        {
          "internalType": "uint256[]",
          "name": "ids",
          "type": "uint256[]"
        },
        {
          "internalType": "string[]",
          "name": "titles",
          "type": "string[]"
        },
        {
          "internalType": "uint256[]",
          "name": "amounts",
          "type": "uint256[]"
        },
        {
          "internalType": "string[]",
          "name": "categories",
          "type": "string[]"
        },
        {
          "internalType": "address[]",
          "name": "clients",
          "type": "address[]"
        },
        {
          "internalType": "address[]",
          "name": "freelancers",
          "type": "address[]"
        },
        {
          "internalType": "enum FreelanceDAODisputeContract.DisputeStatus[]",
          "name": "statuses",
          "type": "uint8[]"
        },
        {
          "internalType": "address[]",
          "name": "winners",
          "type": "address[]"
        }
      ],
      "stateMutability": "view",
      "type": "function"
    },
    {
      "inputs": [
        {
          "internalType": "uint256",
          "name": "disputeId",
          "type": "uint256"
        }
      ],
      "name": "getDispute",
      "outputs": [
        {
          "internalType": "uint256",
          "name": "id",
          "type": "uint256"
        },
        {
          "internalType": "uint256",
          "name": "jobId",
          "type": "uint256"
        },
        {
          "internalType": "address",
          "name": "client",
          "type": "address"
        },
        {
          "internalType": "address",
          "name": "freelancer",
          "type": "address"
        },
        {
          "internalType": "string",
          "name": "title",
          "type": "string"
        },
        {
          "internalType": "uint256",
          "name": "amount",
          "type": "uint256"
        },
        {
          "internalType": "string",
          "name": "category",
          "type": "string"
        },
        {
          "internalType": "string",
          "name": "description",
          "type": "string"
        },
        {
          "internalType": "uint256",
          "name": "votesForClient",
          "type": "uint256"
        },
        {
          "internalType": "uint256",
          "name": "votesForFreelancer",
          "type": "uint256"
        },
        {
          "internalType": "enum FreelanceDAODisputeContract.DisputeStatus",
          "name": "status",
          "type": "uint8"
        },
        {
          "internalType": "address",
          "name": "winner",
          "type": "address"
        }
      ],
      "stateMutability": "view",
      "type": "function"
    },
    {
      "inputs": [
        {
          "internalType": "address",
          "name": "user",
          "type": "address"
        }
      ],
      "name": "getUserDisputes",
      "outputs": [
        {
          "internalType": "uint256[]",
          "name": "ids",
          "type": "uint256[]"
        },
        {
          "internalType": "string[]",
          "name": "titles",
          "type": "string[]"
        },
        {
          "internalType": "uint256[]",
          "name": "amounts",
          "type": "uint256[]"
        },
        {
          "internalType": "string[]",
          "name": "categories",
          "type": "string[]"
        },
        {
          "internalType": "address[]",
          "name": "clients",
          "type": "address[]"
        },
        {
          "internalType": "address[]",
          "name": "freelancers",
          "type": "address[]"
        },
        {
          "internalType": "enum FreelanceDAODisputeContract.DisputeStatus[]",
          "name": "statuses",
          "type": "uint8[]"
        },
        {
          "internalType": "address[]",
          "name": "winners",
          "type": "address[]"
        }
      ],
      "stateMutability": "view",
      "type": "function"
    },
    {
      "inputs": [],
      "name": "nextDisputeId",
      "outputs": [
        {
          "internalType": "uint256",
          "name": "",
          "type": "uint256"
        }
      ],
      "stateMutability": "view",
      "type": "function"
    },
    {
      "inputs": [],
      "name": "owner",
      "outputs": [
        {
          "internalType": "address",
          "name": "",
          "type": "address"
        }
      ],
      "stateMutability": "view",
      "type": "function"
    },
    {
      "inputs": [],
      "name": "quorum",
      "outputs": [
        {
          "internalType": "uint256",
          "name": "",
          "type": "uint256"
        }
      ],
      "stateMutability": "view",
      "type": "function"
    },
    {
      "inputs": [
        {
          "internalType": "address",
          "name": "member",
          "type": "address"
        }
      ],
      "name": "removeDaoMember",
      "outputs": [],
      "stateMutability": "nonpayable",
      "type": "function"
    },
    {
      "inputs": [],
      "name": "renounceOwnership",
      "outputs": [],
      "stateMutability": "nonpayable",
      "type": "function"
    },
    {
      "inputs": [
        {
          "internalType": "uint256",
          "name": "_newQuorum",
          "type": "uint256"
        }
      ],
      "name": "setQuorum",
      "outputs": [],
      "stateMutability": "nonpayable",
      "type": "function"
    },
    {
      "inputs": [
        {
          "internalType": "address",
          "name": "newOwner",
          "type": "address"
        }
      ],
      "name": "transferOwnership",
      "outputs": [],
      "stateMutability": "nonpayable",
      "type": "function"
    },
    {
      "inputs": [
        {
          "internalType": "uint256",
          "name": "disputeId",
          "type": "uint256"
        },
        {
          "internalType": "bool",
          "name": "voteForClient",
          "type": "bool"
        }
      ],
      "name": "voteOnDispute",
      "outputs": [],
      "stateMutability": "nonpayable",
      "type": "function"
    }
  ],
  "bytecode": "0x608060405260016002553480156200001657600080fd5b50604051620038dd380380620038dd83398181016040528101906200003c919062000223565b33600073ffffffffffffffffffffffffffffffffffffffff168173ffffffffffffffffffffffffffffffffffffffff1603620000b25760006040517f1e4fbdf7000000000000000000000000000000000000000000000000000000008152600401620000a991906200029a565b60405180910390fd5b620000c3816200011f60201b60201c565b50600180819055506000811162000111576040517f08c379a0000000000000000000000000000000000000000000000000000000008152600401620001089062000318565b60405180910390fd5b80600381905550506200033a565b60008060009054906101000a900473ffffffffffffffffffffffffffffffffffffffff169050816000806101000a81548173ffffffffffffffffffffffffffffffffffffffff021916908373ffffffffffffffffffffffffffffffffffffffff1602179055508173ffffffffffffffffffffffffffffffffffffffff168173ffffffffffffffffffffffffffffffffffffffff167f8be0079c531659141344cd1fd0a4f28419497f9722a3daafe3b4186f6b6457e060405160405180910390a35050565b600080fd5b6000819050919050565b620001fd81620001e8565b81146200020957600080fd5b50565b6000815190506200021d81620001f2565b92915050565b6000602082840312156200023c576200023b620001e3565b5b60006200024c848285016200020c565b91505092915050565b600073ffffffffffffffffffffffffffffffffffffffff82169050919050565b6000620002828262000255565b9050919050565b620002948162000275565b82525050565b6000602082019050620002b1600083018462000289565b92915050565b600082825260208201905092915050565b7f51756f72756d206d757374206265203e20300000000000000000000000000000600082015250565b600062000300601283620002b7565b91506200030d82620002c8565b602082019050919050565b600060208201905081810360008301526200033381620002f1565b9050919050565b613593806200034a6000396000f3fe608060405234801561001057600080fd5b50600436106100f55760003560e01c8063864defa211610097578063bfb0a55b11610066578063bfb0a55b14610267578063c1ba4e591461029e578063e3a96cbd146102ba578063f2fde38b146102f5576100f5565b8063864defa2146101e15780638da5cb5b146101fd578063959068ea1461021b578063a4f5df121461024b576100f5565b8063203d82cb116100d3578063203d82cb1461015b57806357e743941461018b5780635feaa01c146101bb578063715018a6146101d7576100f5565b80630db39934146100fa5780631703a018146101185780631dd9997f14610136575b600080fd5b610102610311565b60405161010f9190612229565b60405180910390f35b610120610317565b60405161012d9190612229565b60405180910390f35b61013e61031d565b60405161015298979695949392919061266a565b60405180910390f35b61017560048036038101906101709190612782565b61093d565b60405161018291906127dd565b60405180910390f35b6101a560048036038101906101a0919061285d565b61096c565b6040516101b29190612229565b60405180910390f35b6101d560048036038101906101d0919061294c565b610ca5565b005b6101df610dd7565b005b6101fb60048036038101906101f6919061294c565b610deb565b005b610205610f8d565b6040516102129190612988565b60405180910390f35b6102356004803603810190610230919061294c565b610fb6565b60405161024291906127dd565b60405180910390f35b610265600480360381019061026091906129cf565b610fd6565b005b610281600480360381019061027c919061294c565b61135e565b60405161029598979695949392919061266a565b60405180910390f35b6102b860048036038101906102b39190612a0f565b6119ca565b005b6102d460048036038101906102cf9190612a0f565b611a1f565b6040516102ec9c9b9a99989796959493929190612a95565b60405180910390f35b61030f600480360381019061030a919061294c565b611d0c565b005b60025481565b60035481565b6060806060806060806060806000600160025461033a9190612b93565b90508067ffffffffffffffff81111561035657610355612bc7565b5b6040519080825280602002602001820160405280156103845781602001602082028036833780820191505090505b5098508067ffffffffffffffff8111156103a1576103a0612bc7565b5b6040519080825280602002602001820160405280156103d457816020015b60608152602001906001900390816103bf5790505b5097508067ffffffffffffffff8111156103f1576103f0612bc7565b5b60405190808252806020026020018201604052801561041f5781602001602082028036833780820191505090505b5096508067ffffffffffffffff81111561043c5761043b612bc7565b5b60405190808252806020026020018201604052801561046f57816020015b606081526020019060019003908161045a5790505b5095508067ffffffffffffffff81111561048c5761048b612bc7565b5b6040519080825280602002602001820160405280156104ba5781602001602082028036833780820191505090505b5094508067ffffffffffffffff8111156104d7576104d6612bc7565b5b6040519080825280602002602001820160405280156105055781602001602082028036833780820191505090505b5093508067ffffffffffffffff81111561052257610521612bc7565b5b6040519080825280602002602001820160405280156105505781602001602082028036833780820191505090505b5092508067ffffffffffffffff81111561056d5761056c612bc7565b5b60405190808252806020026020018201604052801561059b5781602001602082028036833780820191505090505b50915060005b818110156109315760006001826105b89190612bf6565b9050600060056000838152602001908152602001600020905080600001548c84815181106105e9576105e8612c2a565b5b60200260200101818152505080600401805461060490612c88565b80601f016020809104026020016040519081016040528092919081815260200182805461063090612c88565b801561067d5780601f106106525761010080835404028352916020019161067d565b820191906000526020600020905b81548152906001019060200180831161066057829003601f168201915b50505050508b848151811061069557610694612c2a565b5b602002602001018190525080600501548a84815181106106b8576106b7612c2a565b5b6020026020010181815250508060060180546106d390612c88565b80601f01602080910402602001604051908101604052809291908181526020018280546106ff90612c88565b801561074c5780601f106107215761010080835404028352916020019161074c565b820191906000526020600020905b81548152906001019060200180831161072f57829003601f168201915b505050505089848151811061076457610763612c2a565b5b60200260200101819052508060020160009054906101000a900473ffffffffffffffffffffffffffffffffffffffff168884815181106107a7576107a6612c2a565b5b602002602001019073ffffffffffffffffffffffffffffffffffffffff16908173ffffffffffffffffffffffffffffffffffffffff16815250508060030160009054906101000a900473ffffffffffffffffffffffffffffffffffffffff1687848151811061081957610818612c2a565b5b602002602001019073ffffffffffffffffffffffffffffffffffffffff16908173ffffffffffffffffffffffffffffffffffffffff168152505080600a0160009054906101000a900460ff1686848151811061087857610877612c2a565b5b6020026020010190600381111561089257610891612570565b5b908160038111156108a6576108a5612570565b5b8152505080600a0160019054906101000a900473ffffffffffffffffffffffffffffffffffffffff168584815181106108e2576108e1612c2a565b5b602002602001019073ffffffffffffffffffffffffffffffffffffffff16908173ffffffffffffffffffffffffffffffffffffffff16815250505050808061092990612cb9565b9150506105a1565b50509091929394959697565b60066020528160005260406000206020528060005260406000206000915091509054906101000a900460ff1681565b60008073ffffffffffffffffffffffffffffffffffffffff168973ffffffffffffffffffffffffffffffffffffffff16036109dc576040517f08c379a00000000000000000000000000000000000000000000000000000000081526004016109d390612d4d565b60405180910390fd5b6000600260008154809291906109f190612cb9565b91905055905060006005600083815260200190815260200160002090508181600001819055508b8160010181905550338160020160006101000a81548173ffffffffffffffffffffffffffffffffffffffff021916908373ffffffffffffffffffffffffffffffffffffffff1602179055508a8160030160006101000a81548173ffffffffffffffffffffffffffffffffffffffff021916908373ffffffffffffffffffffffffffffffffffffffff1602179055508989826004019182610ab9929190612f24565b508781600501819055508686826006019182610ad6929190612f24565b508484826007019182610aea929190612f24565b50600081600a0160006101000a81548160ff02191690836003811115610b1357610b12612570565b5b0217905550600181600a0160156101000a81548160ff021916908315150217905550600760003373ffffffffffffffffffffffffffffffffffffffff1673ffffffffffffffffffffffffffffffffffffffff1681526020019081526020016000208290806001815401808255809150506001900390600052602060002001600090919091909150553373ffffffffffffffffffffffffffffffffffffffff168b73ffffffffffffffffffffffffffffffffffffffff1614610c3557600760008c73ffffffffffffffffffffffffffffffffffffffff1673ffffffffffffffffffffffffffffffffffffffff1681526020019081526020016000208290806001815401808255809150506001900390600052602060002001600090919091909150555b3373ffffffffffffffffffffffffffffffffffffffff168c837f51d2f8b55057073d42dbcb6a71241adbb952e0628942cdc5d8df58545e07b1778e8e8e8e8e8e8e8e604051610c8b989796959493929190613030565b60405180910390a481925050509998505050505050505050565b610cad611d92565b600460008273ffffffffffffffffffffffffffffffffffffffff1673ffffffffffffffffffffffffffffffffffffffff16815260200190815260200160002060009054906101000a900460ff16610d39576040517f08c379a0000000000000000000000000000000000000000000000000000000008152600401610d30906130ea565b60405180910390fd5b6000600460008373ffffffffffffffffffffffffffffffffffffffff1673ffffffffffffffffffffffffffffffffffffffff16815260200190815260200160002060006101000a81548160ff0219169083151502179055508073ffffffffffffffffffffffffffffffffffffffff167f1806bec4ba806283d7bedad066d84ceeaac768b71c22e1743d9508650135a3f360405160405180910390a250565b610ddf611d92565b610de96000611e19565b565b610df3611d92565b600073ffffffffffffffffffffffffffffffffffffffff168173ffffffffffffffffffffffffffffffffffffffff1603610e62576040517f08c379a0000000000000000000000000000000000000000000000000000000008152600401610e5990613156565b60405180910390fd5b600460008273ffffffffffffffffffffffffffffffffffffffff1673ffffffffffffffffffffffffffffffffffffffff16815260200190815260200160002060009054906101000a900460ff1615610eef576040517f08c379a0000000000000000000000000000000000000000000000000000000008152600401610ee6906131c2565b60405180910390fd5b6001600460008373ffffffffffffffffffffffffffffffffffffffff1673ffffffffffffffffffffffffffffffffffffffff16815260200190815260200160002060006101000a81548160ff0219169083151502179055508073ffffffffffffffffffffffffffffffffffffffff167f35b658d712e45f976c17007529cd1cb687614e83ce49a1ee563570ac818452e660405160405180910390a250565b60008060009054906101000a900473ffffffffffffffffffffffffffffffffffffffff16905090565b60046020528060005260406000206000915054906101000a900460ff1681565b610fde611edd565b600460003373ffffffffffffffffffffffffffffffffffffffff1673ffffffffffffffffffffffffffffffffffffffff16815260200190815260200160002060009054906101000a900460ff1661106a576040517f08c379a00000000000000000000000000000000000000000000000000000000081526004016110619061322e565b60405180910390fd5b600060056000848152602001908152602001600020905080600a0160159054906101000a900460ff166110d2576040517f08c379a00000000000000000000000000000000000000000000000000000000081526004016110c99061329a565b60405180910390fd5b600060038111156110e6576110e5612570565b5b81600a0160009054906101000a900460ff16600381111561110a57611109612570565b5b1461114a576040517f08c379a000000000000000000000000000000000000000000000000000000000815260040161114190613306565b60405180910390fd5b6006600084815260200190815260200160002060003373ffffffffffffffffffffffffffffffffffffffff1673ffffffffffffffffffffffffffffffffffffffff16815260200190815260200160002060009054906101000a900460ff16156111e8576040517f08c379a00000000000000000000000000000000000000000000000000000000081526004016111df90613372565b60405180910390fd5b60016006600085815260200190815260200160002060003373ffffffffffffffffffffffffffffffffffffffff1673ffffffffffffffffffffffffffffffffffffffff16815260200190815260200160002060006101000a81548160ff02191690831515021790555081156112c35780600801600081548092919061126c90612cb9565b91905055503373ffffffffffffffffffffffffffffffffffffffff16837ff707341d6361ac6d7fe6b6db1fbb91b1d8634754ce51f2244ccbfab475d327f46040516112b6906133de565b60405180910390a361132b565b8060090160008154809291906112d890612cb9565b91905055503373ffffffffffffffffffffffffffffffffffffffff16837ff707341d6361ac6d7fe6b6db1fbb91b1d8634754ce51f2244ccbfab475d327f46040516113229061344a565b60405180910390a35b600354816009015482600801546113429190612bf6565b106113515761135083611f23565b5b5061135a6121ff565b5050565b6060806060806060806060806000600760008b73ffffffffffffffffffffffffffffffffffffffff1673ffffffffffffffffffffffffffffffffffffffff16815260200190815260200160002090506000818054905090508067ffffffffffffffff8111156113d0576113cf612bc7565b5b6040519080825280602002602001820160405280156113fe5781602001602082028036833780820191505090505b5099508067ffffffffffffffff81111561141b5761141a612bc7565b5b60405190808252806020026020018201604052801561144e57816020015b60608152602001906001900390816114395790505b5098508067ffffffffffffffff81111561146b5761146a612bc7565b5b6040519080825280602002602001820160405280156114995781602001602082028036833780820191505090505b5097508067ffffffffffffffff8111156114b6576114b5612bc7565b5b6040519080825280602002602001820160405280156114e957816020015b60608152602001906001900390816114d45790505b5096508067ffffffffffffffff81111561150657611505612bc7565b5b6040519080825280602002602001820160405280156115345781602001602082028036833780820191505090505b5095508067ffffffffffffffff81111561155157611550612bc7565b5b60405190808252806020026020018201604052801561157f5781602001602082028036833780820191505090505b5094508067ffffffffffffffff81111561159c5761159b612bc7565b5b6040519080825280602002602001820160405280156115ca5781602001602082028036833780820191505090505b5093508067ffffffffffffffff8111156115e7576115e6612bc7565b5b6040519080825280602002602001820160405280156116155781602001602082028036833780820191505090505b50925060005b818110156119bc57600083828154811061163857611637612c2a565b5b90600052602060002001549050600060056000838152602001908152602001600020905080600001548d848151811061167457611673612c2a565b5b60200260200101818152505080600401805461168f90612c88565b80601f01602080910402602001604051908101604052809291908181526020018280546116bb90612c88565b80156117085780601f106116dd57610100808354040283529160200191611708565b820191906000526020600020905b8154815290600101906020018083116116eb57829003601f168201915b50505050508c84815181106117205761171f612c2a565b5b602002602001018190525080600501548b848151811061174357611742612c2a565b5b60200260200101818152505080600601805461175e90612c88565b80601f016020809104026020016040519081016040528092919081815260200182805461178a90612c88565b80156117d75780601f106117ac576101008083540402835291602001916117d7565b820191906000526020600020905b8154815290600101906020018083116117ba57829003601f168201915b50505050508a84815181106117ef576117ee612c2a565b5b60200260200101819052508060020160009054906101000a900473ffffffffffffffffffffffffffffffffffffffff1689848151811061183257611831612c2a565b5b602002602001019073ffffffffffffffffffffffffffffffffffffffff16908173ffffffffffffffffffffffffffffffffffffffff16815250508060030160009054906101000a900473ffffffffffffffffffffffffffffffffffffffff168884815181106118a4576118a3612c2a565b5b602002602001019073ffffffffffffffffffffffffffffffffffffffff16908173ffffffffffffffffffffffffffffffffffffffff168152505080600a0160009054906101000a900460ff1687848151811061190357611902612c2a565b5b6020026020010190600381111561191d5761191c612570565b5b9081600381111561193157611930612570565b5b8152505080600a0160019054906101000a900473ffffffffffffffffffffffffffffffffffffffff1686848151811061196d5761196c612c2a565b5b602002602001019073ffffffffffffffffffffffffffffffffffffffff16908173ffffffffffffffffffffffffffffffffffffffff1681525050505080806119b490612cb9565b91505061161b565b505050919395975091939597565b6119d2611d92565b60008111611a15576040517f08c379a0000000000000000000000000000000000000000000000000000000008152600401611a0c906134b6565b60405180910390fd5b8060038190555050565b600080600080606060006060806000806000806000600560008f8152602001908152602001600020905080600a0160159054906101000a900460ff16611a9a576040517f08c379a0000000000000000000000000000000000000000000000000000000008152600401611a919061329a565b60405180910390fd5b806000015481600101548260020160009054906101000a900473ffffffffffffffffffffffffffffffffffffffff168360030160009054906101000a900473ffffffffffffffffffffffffffffffffffffffff168460040185600501548660060187600701886008015489600901548a600a0160009054906101000a900460ff168b600a0160019054906101000a900473ffffffffffffffffffffffffffffffffffffffff16878054611b4c90612c88565b80601f0160208091040260200160405190810160405280929190818152602001828054611b7890612c88565b8015611bc55780601f10611b9a57610100808354040283529160200191611bc5565b820191906000526020600020905b815481529060010190602001808311611ba857829003601f168201915b50505050509750858054611bd890612c88565b80601f0160208091040260200160405190810160405280929190818152602001828054611c0490612c88565b8015611c515780601f10611c2657610100808354040283529160200191611c51565b820191906000526020600020905b815481529060010190602001808311611c3457829003601f168201915b50505050509550848054611c6490612c88565b80601f0160208091040260200160405190810160405280929190818152602001828054611c9090612c88565b8015611cdd5780601f10611cb257610100808354040283529160200191611cdd565b820191906000526020600020905b815481529060010190602001808311611cc057829003601f168201915b505050505094509c509c509c509c509c509c509c509c509c509c509c509c505091939597999b5091939597999b565b611d14611d92565b600073ffffffffffffffffffffffffffffffffffffffff168173ffffffffffffffffffffffffffffffffffffffff1603611d865760006040517f1e4fbdf7000000000000000000000000000000000000000000000000000000008152600401611d7d9190612988565b60405180910390fd5b611d8f81611e19565b50565b611d9a612208565b73ffffffffffffffffffffffffffffffffffffffff16611db8610f8d565b73ffffffffffffffffffffffffffffffffffffffff1614611e1757611ddb612208565b6040517f118cdaa7000000000000000000000000000000000000000000000000000000008152600401611e0e9190612988565b60405180910390fd5b565b60008060009054906101000a900473ffffffffffffffffffffffffffffffffffffffff169050816000806101000a81548173ffffffffffffffffffffffffffffffffffffffff021916908373ffffffffffffffffffffffffffffffffffffffff1602179055508173ffffffffffffffffffffffffffffffffffffffff168173ffffffffffffffffffffffffffffffffffffffff167f8be0079c531659141344cd1fd0a4f28419497f9722a3daafe3b4186f6b6457e060405160405180910390a35050565b600260015403611f19576040517f3ee5aeb500000000000000000000000000000000000000000000000000000000815260040160405180910390fd5b6002600181905550565b600060056000838152602001908152602001600020905060006003811115611f4e57611f4d612570565b5b81600a0160009054906101000a900460ff166003811115611f7257611f71612570565b5b14611fb2576040517f08c379a0000000000000000000000000000000000000000000000000000000008152600401611fa990613522565b60405180910390fd5b80600901548160080154111561205b57600381600a0160006101000a81548160ff02191690836003811115611fea57611fe9612570565b5b02179055508060020160009054906101000a900473ffffffffffffffffffffffffffffffffffffffff1681600a0160016101000a81548173ffffffffffffffffffffffffffffffffffffffff021916908373ffffffffffffffffffffffffffffffffffffffff160217905550612177565b80600801548160090154111561210457600381600a0160006101000a81548160ff0219169083600381111561209357612092612570565b5b02179055508060030160009054906101000a900473ffffffffffffffffffffffffffffffffffffffff1681600a0160016101000a81548173ffffffffffffffffffffffffffffffffffffffff021916908373ffffffffffffffffffffffffffffffffffffffff160217905550612176565b600281600a0160006101000a81548160ff0219169083600381111561212c5761212b612570565b5b0217905550600081600a0160016101000a81548173ffffffffffffffffffffffffffffffffffffffff021916908373ffffffffffffffffffffffffffffffffffffffff1602179055505b5b80600a0160019054906101000a900473ffffffffffffffffffffffffffffffffffffffff1673ffffffffffffffffffffffffffffffffffffffff16827f0a1a08d07b8bb2ef5e6eea14f3719239138f1ce03a4ceea3196c1000a265c12a83600a0160009054906101000a900460ff166040516121f39190613542565b60405180910390a35050565b60018081905550565b600033905090565b6000819050919050565b61222381612210565b82525050565b600060208201905061223e600083018461221a565b92915050565b600081519050919050565b600082825260208201905092915050565b6000819050602082019050919050565b61227981612210565b82525050565b600061228b8383612270565b60208301905092915050565b6000602082019050919050565b60006122af82612244565b6122b9818561224f565b93506122c483612260565b8060005b838110156122f55781516122dc888261227f565b97506122e783612297565b9250506001810190506122c8565b5085935050505092915050565b600081519050919050565b600082825260208201905092915050565b6000819050602082019050919050565b600081519050919050565b600082825260208201905092915050565b60005b8381101561236857808201518184015260208101905061234d565b60008484015250505050565b6000601f19601f8301169050919050565b60006123908261232e565b61239a8185612339565b93506123aa81856020860161234a565b6123b381612374565b840191505092915050565b60006123ca8383612385565b905092915050565b6000602082019050919050565b60006123ea82612302565b6123f4818561230d565b9350836020820285016124068561231e565b8060005b85811015612442578484038952815161242385826123be565b945061242e836123d2565b925060208a0199505060018101905061240a565b50829750879550505050505092915050565b600081519050919050565b600082825260208201905092915050565b6000819050602082019050919050565b600073ffffffffffffffffffffffffffffffffffffffff82169050919050565b60006124ab82612480565b9050919050565b6124bb816124a0565b82525050565b60006124cd83836124b2565b60208301905092915050565b6000602082019050919050565b60006124f182612454565b6124fb818561245f565b935061250683612470565b8060005b8381101561253757815161251e88826124c1565b9750612529836124d9565b92505060018101905061250a565b5085935050505092915050565b600081519050919050565b600082825260208201905092915050565b6000819050602082019050919050565b7f4e487b7100000000000000000000000000000000000000000000000000000000600052602160045260246000fd5b600481106125b0576125af612570565b5b50565b60008190506125c18261259f565b919050565b60006125d1826125b3565b9050919050565b6125e1816125c6565b82525050565b60006125f383836125d8565b60208301905092915050565b6000602082019050919050565b600061261782612544565b612621818561254f565b935061262c83612560565b8060005b8381101561265d57815161264488826125e7565b975061264f836125ff565b925050600181019050612630565b5085935050505092915050565b6000610100820190508181036000830152612685818b6122a4565b90508181036020830152612699818a6123df565b905081810360408301526126ad81896122a4565b905081810360608301526126c181886123df565b905081810360808301526126d581876124e6565b905081810360a08301526126e981866124e6565b905081810360c08301526126fd818561260c565b905081810360e083015261271181846124e6565b90509998505050505050505050565b600080fd5b600080fd5b61273381612210565b811461273e57600080fd5b50565b6000813590506127508161272a565b92915050565b61275f816124a0565b811461276a57600080fd5b50565b60008135905061277c81612756565b92915050565b6000806040838503121561279957612798612720565b5b60006127a785828601612741565b92505060206127b88582860161276d565b9150509250929050565b60008115159050919050565b6127d7816127c2565b82525050565b60006020820190506127f260008301846127ce565b92915050565b600080fd5b600080fd5b600080fd5b60008083601f84011261281d5761281c6127f8565b5b8235905067ffffffffffffffff81111561283a576128396127fd565b5b60208301915083600182028301111561285657612855612802565b5b9250929050565b600080600080600080600080600060c08a8c03121561287f5761287e612720565b5b600061288d8c828d01612741565b995050602061289e8c828d0161276d565b98505060408a013567ffffffffffffffff8111156128bf576128be612725565b5b6128cb8c828d01612807565b975097505060606128de8c828d01612741565b95505060808a013567ffffffffffffffff8111156128ff576128fe612725565b5b61290b8c828d01612807565b945094505060a08a013567ffffffffffffffff81111561292e5761292d612725565b5b61293a8c828d01612807565b92509250509295985092959850929598565b60006020828403121561296257612961612720565b5b60006129708482850161276d565b91505092915050565b612982816124a0565b82525050565b600060208201905061299d6000830184612979565b92915050565b6129ac816127c2565b81146129b757600080fd5b50565b6000813590506129c9816129a3565b92915050565b600080604083850312156129e6576129e5612720565b5b60006129f485828601612741565b9250506020612a05858286016129ba565b9150509250929050565b600060208284031215612a2557612a24612720565b5b6000612a3384828501612741565b91505092915050565b600082825260208201905092915050565b6000612a588261232e565b612a628185612a3c565b9350612a7281856020860161234a565b612a7b81612374565b840191505092915050565b612a8f816125c6565b82525050565b600061018082019050612aab600083018f61221a565b612ab8602083018e61221a565b612ac5604083018d612979565b612ad2606083018c612979565b8181036080830152612ae4818b612a4d565b9050612af360a083018a61221a565b81810360c0830152612b058189612a4d565b905081810360e0830152612b198188612a4d565b9050612b2961010083018761221a565b612b3761012083018661221a565b612b45610140830185612a86565b612b53610160830184612979565b9d9c50505050505050505050505050565b7f4e487b7100000000000000000000000000000000000000000000000000000000600052601160045260246000fd5b6000612b9e82612210565b9150612ba983612210565b9250828203905081811115612bc157612bc0612b64565b5b92915050565b7f4e487b7100000000000000000000000000000000000000000000000000000000600052604160045260246000fd5b6000612c0182612210565b9150612c0c83612210565b9250828201905080821115612c2457612c23612b64565b5b92915050565b7f4e487b7100000000000000000000000000000000000000000000000000000000600052603260045260246000fd5b7f4e487b7100000000000000000000000000000000000000000000000000000000600052602260045260246000fd5b60006002820490506001821680612ca057607f821691505b602082108103612cb357612cb2612c59565b5b50919050565b6000612cc482612210565b91507fffffffffffffffffffffffffffffffffffffffffffffffffffffffffffffffff8203612cf657612cf5612b64565b5b600182019050919050565b7f496e76616c696420667265656c616e6365720000000000000000000000000000600082015250565b6000612d37601283612a3c565b9150612d4282612d01565b602082019050919050565b60006020820190508181036000830152612d6681612d2a565b9050919050565b600082905092915050565b60008190508160005260206000209050919050565b60006020601f8301049050919050565b600082821b905092915050565b600060088302612dda7fffffffffffffffffffffffffffffffffffffffffffffffffffffffffffffffff82612d9d565b612de48683612d9d565b95508019841693508086168417925050509392505050565b6000819050919050565b6000612e21612e1c612e1784612210565b612dfc565b612210565b9050919050565b6000819050919050565b612e3b83612e06565b612e4f612e4782612e28565b848454612daa565b825550505050565b600090565b612e64612e57565b612e6f818484612e32565b505050565b5b81811015612e9357612e88600082612e5c565b600181019050612e75565b5050565b601f821115612ed857612ea981612d78565b612eb284612d8d565b81016020851015612ec1578190505b612ed5612ecd85612d8d565b830182612e74565b50505b505050565b600082821c905092915050565b6000612efb60001984600802612edd565b1980831691505092915050565b6000612f148383612eea565b9150826002028217905092915050565b612f2e8383612d6d565b67ffffffffffffffff811115612f4757612f46612bc7565b5b612f518254612c88565b612f5c828285612e97565b6000601f831160018114612f8b5760008415612f79578287013590505b612f838582612f08565b865550612feb565b601f198416612f9986612d78565b60005b82811015612fc157848901358255600182019150602085019450602081019050612f9c565b86831015612fde5784890135612fda601f891682612eea565b8355505b6001600288020188555050505b50505050505050565b82818337600083830152505050565b600061300f8385612a3c565b935061301c838584612ff4565b61302583612374565b840190509392505050565b600060a082019050613045600083018b612979565b818103602083015261305881898b613003565b9050613067604083018861221a565b818103606083015261307a818688613003565b9050818103608083015261308f818486613003565b90509998505050505050505050565b7f4e6f7420612044414f206d656d62657200000000000000000000000000000000600082015250565b60006130d4601083612a3c565b91506130df8261309e565b602082019050919050565b60006020820190508181036000830152613103816130c7565b9050919050565b7f496e76616c6964206d656d626572000000000000000000000000000000000000600082015250565b6000613140600e83612a3c565b915061314b8261310a565b602082019050919050565b6000602082019050818103600083015261316f81613133565b9050919050565b7f416c72656164792061206d656d62657200000000000000000000000000000000600082015250565b60006131ac601083612a3c565b91506131b782613176565b602082019050919050565b600060208201905081810360008301526131db8161319f565b9050919050565b7f4f6e6c792044414f206d656d626572732063616e20766f746500000000000000600082015250565b6000613218601983612a3c565b9150613223826131e2565b602082019050919050565b600060208201905081810360008301526132478161320b565b9050919050565b7f44697370757465206e6f7420666f756e64000000000000000000000000000000600082015250565b6000613284601183612a3c565b915061328f8261324e565b602082019050919050565b600060208201905081810360008301526132b381613277565b9050919050565b7f4469737075746520636c6f736564000000000000000000000000000000000000600082015250565b60006132f0600e83612a3c565b91506132fb826132ba565b602082019050919050565b6000602082019050818103600083015261331f816132e3565b9050919050565b7f416c726561647920766f74656400000000000000000000000000000000000000600082015250565b600061335c600d83612a3c565b915061336782613326565b602082019050919050565b6000602082019050818103600083015261338b8161334f565b9050919050565b7f434c49454e540000000000000000000000000000000000000000000000000000600082015250565b60006133c8600683612a3c565b91506133d382613392565b602082019050919050565b600060208201905081810360008301526133f7816133bb565b9050919050565b7f465245454c414e43455200000000000000000000000000000000000000000000600082015250565b6000613434600a83612a3c565b915061343f826133fe565b602082019050919050565b6000602082019050818103600083015261346381613427565b9050919050565b7f51756f72756d206d757374206265203e20300000000000000000000000000000600082015250565b60006134a0601283612a3c565b91506134ab8261346a565b602082019050919050565b600060208201905081810360008301526134cf81613493565b9050919050565b7f416c7265616479207265736f6c76656400000000000000000000000000000000600082015250565b600061350c601083612a3c565b9150613517826134d6565b602082019050919050565b6000602082019050818103600083015261353b816134ff565b9050919050565b60006020820190506135576000830184612a86565b9291505056fea2646970667358221220999026fd6654c11356dc872cb34bb7a3f87f55c551b3bdec69f9d1584178380664736f6c63430008140033",
  "linkReferences": {},
  "deployedLinkReferences": {}
}