{
  "_format": "hh-sol-artifact-1",
  "contractName": "FreeLanceDAOEscrowPayment",
  "sourceName": "contracts/FreeLanceDAOEscrowPayment.sol",
  "abi": [
    {
      "inputs": [
        {
          "internalType": "address",
          "name": "_daoTreasury",
          "type": "address"
        },
        {
          "internalType": "uint256",
          "name": "_daoFeePct",
          "type": "uint256"
        },
        {
          "internalType": "address",
          "name": "_owner",
          "type": "address"
        }
      ],
      "stateMutability": "nonpayable",
      "type": "constructor"
    },
    {
      "inputs": [
        {
          "internalType": "address",
          "name": "owner",
          "type": "address"
        }
      ],
      "name": "OwnableInvalidOwner",
      "type": "error"
    },
    {
      "inputs": [
        {
          "internalType": "address",
          "name": "account",
          "type": "address"
        }
      ],
      "name": "OwnableUnauthorizedAccount",
      "type": "error"
    },
    {
      "inputs": [],
      "name": "ReentrancyGuardReentrantCall",
      "type": "error"
    },
    {
      "anonymous": false,
      "inputs": [
        {
          "indexed": false,
          "internalType": "uint256",
          "name": "oldPct",
          "type": "uint256"
        },
        {
          "indexed": false,
          "internalType": "uint256",
          "name": "newPct",
          "type": "uint256"
        }
      ],
      "name": "DaoFeePctUpdated",
      "type": "event"
    },
    {
      "anonymous": false,
      "inputs": [
        {
          "indexed": false,
          "internalType": "address",
          "name": "oldTreasury",
          "type": "address"
        },
        {
          "indexed": false,
          "internalType": "address",
          "name": "newTreasury",
          "type": "address"
        }
      ],
      "name": "DaoTreasuryUpdated",
      "type": "event"
    },
    {
      "anonymous": false,
      "inputs": [
        {
          "indexed": true,
          "internalType": "uint256",
          "name": "jobId",
          "type": "uint256"
        },
        {
          "indexed": true,
          "internalType": "uint256",
          "name": "milestoneIndex",
          "type": "uint256"
        },
        {
          "indexed": true,
          "internalType": "address",
          "name": "provider",
          "type": "address"
        }
      ],
      "name": "DeliveryMarked",
      "type": "event"
    },
    {
      "anonymous": false,
      "inputs": [
        {
          "indexed": true,
          "internalType": "uint256",
          "name": "jobId",
          "type": "uint256"
        },
        {
          "indexed": false,
          "internalType": "uint256",
          "name": "amountNet",
          "type": "uint256"
        },
        {
          "indexed": false,
          "internalType": "uint256",
          "name": "daoFee",
          "type": "uint256"
        }
      ],
      "name": "FixedJobReleased",
      "type": "event"
    },
    {
      "anonymous": false,
      "inputs": [
        {
          "indexed": true,
          "internalType": "uint256",
          "name": "jobId",
          "type": "uint256"
        }
      ],
      "name": "JobCancelled",
      "type": "event"
    },
    {
      "anonymous": false,
      "inputs": [
        {
          "indexed": true,
          "internalType": "uint256",
          "name": "jobId",
          "type": "uint256"
        },
        {
          "indexed": false,
          "internalType": "enum FreeLanceDAOEscrowPayment.JobType",
          "name": "jobType",
          "type": "uint8"
        },
        {
          "indexed": true,
          "internalType": "address",
          "name": "client",
          "type": "address"
        },
        {
          "indexed": false,
          "internalType": "uint256",
          "name": "totalAmount",
          "type": "uint256"
        }
      ],
      "name": "JobCreated",
      "type": "event"
    },
    {
      "anonymous": false,
      "inputs": [
        {
          "indexed": true,
          "internalType": "uint256",
          "name": "jobId",
          "type": "uint256"
        },
        {
          "indexed": false,
          "internalType": "uint256",
          "name": "amount",
          "type": "uint256"
        }
      ],
      "name": "JobFunded",
      "type": "event"
    },
    {
      "anonymous": false,
      "inputs": [
        {
          "indexed": true,
          "internalType": "uint256",
          "name": "jobId",
          "type": "uint256"
        },
        {
          "indexed": false,
          "internalType": "uint256",
          "name": "refundedAmount",
          "type": "uint256"
        }
      ],
      "name": "JobRefunded",
      "type": "event"
    },
    {
      "anonymous": false,
      "inputs": [
        {
          "indexed": true,
          "internalType": "uint256",
          "name": "jobId",
          "type": "uint256"
        },
        {
          "indexed": true,
          "internalType": "uint256",
          "name": "milestoneIndex",
          "type": "uint256"
        },
        {
          "indexed": false,
          "internalType": "uint256",
          "name": "amountNet",
          "type": "uint256"
        },
        {
          "indexed": false,
          "internalType": "uint256",
          "name": "daoFee",
          "type": "uint256"
        }
      ],
      "name": "MilestoneReleased",
      "type": "event"
    },
    {
      "anonymous": false,
      "inputs": [
        {
          "indexed": true,
          "internalType": "address",
          "name": "previousOwner",
          "type": "address"
        },
        {
          "indexed": true,
          "internalType": "address",
          "name": "newOwner",
          "type": "address"
        }
      ],
      "name": "OwnershipTransferred",
      "type": "event"
    },
    {
      "anonymous": false,
      "inputs": [
        {
          "indexed": true,
          "internalType": "uint256",
          "name": "jobId",
          "type": "uint256"
        },
        {
          "indexed": true,
          "internalType": "address",
          "name": "provider",
          "type": "address"
        }
      ],
      "name": "ProviderApproved",
      "type": "event"
    },
    {
      "anonymous": false,
      "inputs": [
        {
          "indexed": true,
          "internalType": "uint256",
          "name": "jobId",
          "type": "uint256"
        },
        {
          "indexed": true,
          "internalType": "address",
          "name": "provider",
          "type": "address"
        }
      ],
      "name": "ProviderRequested",
      "type": "event"
    },
    {
      "anonymous": false,
      "inputs": [
        {
          "indexed": false,
          "internalType": "address",
          "name": "to",
          "type": "address"
        },
        {
          "indexed": false,
          "internalType": "uint256",
          "name": "amount",
          "type": "uint256"
        }
      ],
      "name": "WithdrawDaoFees",
      "type": "event"
    },
    {
      "stateMutability": "payable",
      "type": "fallback"
    },
    {
      "inputs": [],
      "name": "PCT_BASE",
      "outputs": [
        {
          "internalType": "uint256",
          "name": "",
          "type": "uint256"
        }
      ],
      "stateMutability": "view",
      "type": "function"
    },
    {
      "inputs": [
        {
          "internalType": "uint256",
          "name": "jobId",
          "type": "uint256"
        }
      ],
      "name": "adminRefundJob",
      "outputs": [],
      "stateMutability": "nonpayable",
      "type": "function"
    },
    {
      "inputs": [
        {
          "internalType": "uint256",
          "name": "jobId",
          "type": "uint256"
        },
        {
          "internalType": "address",
          "name": "provider",
          "type": "address"
        }
      ],
      "name": "approveProvider",
      "outputs": [],
      "stateMutability": "nonpayable",
      "type": "function"
    },
    {
      "inputs": [
        {
          "internalType": "uint256",
          "name": "jobId",
          "type": "uint256"
        }
      ],
      "name": "cancelJob",
      "outputs": [],
      "stateMutability": "nonpayable",
      "type": "function"
    },
    {
      "inputs": [
        {
          "internalType": "uint256",
          "name": "jobId",
          "type": "uint256"
        }
      ],
      "name": "confirmFixedJob",
      "outputs": [],
      "stateMutability": "nonpayable",
      "type": "function"
    },
    {
      "inputs": [
        {
          "components": [
            {
              "internalType": "string",
              "name": "jobTitle",
              "type": "string"
            },
            {
              "internalType": "string",
              "name": "jobCategory",
              "type": "string"
            },
            {
              "internalType": "string",
              "name": "projectDescription",
              "type": "string"
            },
            {
              "internalType": "string[]",
              "name": "requiredSkills",
              "type": "string[]"
            },
            {
              "internalType": "string",
              "name": "projectDuration",
              "type": "string"
            },
            {
              "internalType": "uint256",
              "name": "minimumBudget",
              "type": "uint256"
            },
            {
              "internalType": "uint256",
              "name": "maximumBudget",
              "type": "uint256"
            }
          ],
          "internalType": "struct FreeLanceDAOEscrowPayment.JobParams",
          "name": "params",
          "type": "tuple"
        }
      ],
      "name": "createFixedJob",
      "outputs": [
        {
          "internalType": "uint256",
          "name": "",
          "type": "uint256"
        }
      ],
      "stateMutability": "payable",
      "type": "function"
    },
    {
      "inputs": [
        {
          "internalType": "uint256[]",
          "name": "milestoneAmounts",
          "type": "uint256[]"
        },
        {
          "components": [
            {
              "internalType": "string",
              "name": "jobTitle",
              "type": "string"
            },
            {
              "internalType": "string",
              "name": "jobCategory",
              "type": "string"
            },
            {
              "internalType": "string",
              "name": "projectDescription",
              "type": "string"
            },
            {
              "internalType": "string[]",
              "name": "requiredSkills",
              "type": "string[]"
            },
            {
              "internalType": "string",
              "name": "projectDuration",
              "type": "string"
            },
            {
              "internalType": "uint256",
              "name": "minimumBudget",
              "type": "uint256"
            },
            {
              "internalType": "uint256",
              "name": "maximumBudget",
              "type": "uint256"
            }
          ],
          "internalType": "struct FreeLanceDAOEscrowPayment.JobParams",
          "name": "params",
          "type": "tuple"
        }
      ],
      "name": "createMilestoneJob",
      "outputs": [
        {
          "internalType": "uint256",
          "name": "",
          "type": "uint256"
        }
      ],
      "stateMutability": "payable",
      "type": "function"
    },
    {
      "inputs": [],
      "name": "daoFeePct",
      "outputs": [
        {
          "internalType": "uint256",
          "name": "",
          "type": "uint256"
        }
      ],
      "stateMutability": "view",
      "type": "function"
    },
    {
      "inputs": [],
      "name": "daoTreasury",
      "outputs": [
        {
          "internalType": "address",
          "name": "",
          "type": "address"
        }
      ],
      "stateMutability": "view",
      "type": "function"
    },
    {
      "inputs": [
        {
          "internalType": "uint256",
          "name": "jobId",
          "type": "uint256"
        }
      ],
      "name": "fundJob",
      "outputs": [],
      "stateMutability": "payable",
      "type": "function"
    },
    {
      "inputs": [
        {
          "internalType": "uint256",
          "name": "jobId",
          "type": "uint256"
        }
      ],
      "name": "getJobDetails",
      "outputs": [
        {
          "internalType": "string",
          "name": "jobTitle",
          "type": "string"
        },
        {
          "internalType": "string",
          "name": "jobCategory",
          "type": "string"
        },
        {
          "internalType": "string",
          "name": "projectDescription",
          "type": "string"
        },
        {
          "internalType": "string[]",
          "name": "requiredSkills",
          "type": "string[]"
        },
        {
          "internalType": "string",
          "name": "projectDuration",
          "type": "string"
        },
        {
          "internalType": "uint256",
          "name": "minimumBudget",
          "type": "uint256"
        },
        {
          "internalType": "uint256",
          "name": "maximumBudget",
          "type": "uint256"
        }
      ],
      "stateMutability": "view",
      "type": "function"
    },
    {
      "inputs": [
        {
          "internalType": "uint256",
          "name": "jobId",
          "type": "uint256"
        }
      ],
      "name": "getJobSummary",
      "outputs": [
        {
          "internalType": "uint256",
          "name": "jobIdOut",
          "type": "uint256"
        },
        {
          "internalType": "enum FreeLanceDAOEscrowPayment.JobType",
          "name": "jobType",
          "type": "uint8"
        },
        {
          "internalType": "address",
          "name": "client",
          "type": "address"
        },
        {
          "internalType": "address",
          "name": "freelancer",
          "type": "address"
        },
        {
          "internalType": "uint256",
          "name": "totalAmount",
          "type": "uint256"
        },
        {
          "internalType": "uint256",
          "name": "releasedAmount",
          "type": "uint256"
        },
        {
          "internalType": "enum FreeLanceDAOEscrowPayment.Status",
          "name": "status",
          "type": "uint8"
        },
        {
          "internalType": "uint256",
          "name": "createdAt",
          "type": "uint256"
        },
        {
          "internalType": "bool",
          "name": "funded",
          "type": "bool"
        },
        {
          "internalType": "bool",
          "name": "confirmed",
          "type": "bool"
        }
      ],
      "stateMutability": "view",
      "type": "function"
    },
    {
      "inputs": [
        {
          "internalType": "uint256",
          "name": "jobId",
          "type": "uint256"
        },
        {
          "internalType": "uint256",
          "name": "idx",
          "type": "uint256"
        }
      ],
      "name": "getMilestone",
      "outputs": [
        {
          "internalType": "uint256",
          "name": "amount",
          "type": "uint256"
        },
        {
          "internalType": "bool",
          "name": "released",
          "type": "bool"
        },
        {
          "internalType": "bool",
          "name": "delivered",
          "type": "bool"
        }
      ],
      "stateMutability": "view",
      "type": "function"
    },
    {
      "inputs": [
        {
          "internalType": "uint256",
          "name": "jobId",
          "type": "uint256"
        },
        {
          "internalType": "uint256",
          "name": "milestoneIndex",
          "type": "uint256"
        }
      ],
      "name": "markDelivery",
      "outputs": [],
      "stateMutability": "nonpayable",
      "type": "function"
    },
    {
      "inputs": [
        {
          "internalType": "uint256",
          "name": "jobId",
          "type": "uint256"
        }
      ],
      "name": "markDisputed",
      "outputs": [],
      "stateMutability": "nonpayable",
      "type": "function"
    },
    {
      "inputs": [],
      "name": "nextJobId",
      "outputs": [
        {
          "internalType": "uint256",
          "name": "",
          "type": "uint256"
        }
      ],
      "stateMutability": "view",
      "type": "function"
    },
    {
      "inputs": [],
      "name": "owner",
      "outputs": [
        {
          "internalType": "address",
          "name": "",
          "type": "address"
        }
      ],
      "stateMutability": "view",
      "type": "function"
    },
    {
      "inputs": [
        {
          "internalType": "uint256",
          "name": "jobId",
          "type": "uint256"
        },
        {
          "internalType": "uint256",
          "name": "milestoneIndex",
          "type": "uint256"
        }
      ],
      "name": "releaseMilestone",
      "outputs": [],
      "stateMutability": "nonpayable",
      "type": "function"
    },
    {
      "inputs": [],
      "name": "renounceOwnership",
      "outputs": [],
      "stateMutability": "nonpayable",
      "type": "function"
    },
    {
      "inputs": [
        {
          "internalType": "uint256",
          "name": "jobId",
          "type": "uint256"
        }
      ],
      "name": "requestJob",
      "outputs": [],
      "stateMutability": "nonpayable",
      "type": "function"
    },
    {
      "inputs": [
        {
          "internalType": "address",
          "name": "",
          "type": "address"
        },
        {
          "internalType": "uint256",
          "name": "",
          "type": "uint256"
        }
      ],
      "name": "requested",
      "outputs": [
        {
          "internalType": "bool",
          "name": "",
          "type": "bool"
        }
      ],
      "stateMutability": "view",
      "type": "function"
    },
    {
      "inputs": [
        {
          "internalType": "uint256",
          "name": "_newPct",
          "type": "uint256"
        }
      ],
      "name": "setDaoFeePct",
      "outputs": [],
      "stateMutability": "nonpayable",
      "type": "function"
    },
    {
      "inputs": [
        {
          "internalType": "address",
          "name": "_newTreasury",
          "type": "address"
        }
      ],
      "name": "setDaoTreasury",
      "outputs": [],
      "stateMutability": "nonpayable",
      "type": "function"
    },
    {
      "inputs": [],
      "name": "totalDaoFeesCollected",
      "outputs": [
        {
          "internalType": "uint256",
          "name": "",
          "type": "uint256"
        }
      ],
      "stateMutability": "view",
      "type": "function"
    },
    {
      "inputs": [
        {
          "internalType": "address",
          "name": "newOwner",
          "type": "address"
        }
      ],
      "name": "transferOwnership",
      "outputs": [],
      "stateMutability": "nonpayable",
      "type": "function"
    },
    {
      "inputs": [
        {
          "internalType": "uint256",
          "name": "amount",
          "type": "uint256"
        }
      ],
      "name": "withdrawDaoFees",
      "outputs": [],
      "stateMutability": "nonpayable",
      "type": "function"
    },
    {
      "stateMutability": "payable",
      "type": "receive"
    }
  ],
  "bytecode": "0x608060405260016005553480156200001657600080fd5b5060405162003405380380620034058339810160408190526200003991620001af565b806001600160a01b0381166200006a57604051631e4fbdf760e01b8152600060048201526024015b60405180910390fd5b620000758162000142565b50600180556001600160a01b038316620000d25760405162461bcd60e51b815260206004820152601460248201527f496e76616c69642044414f207472656173757279000000000000000000000000604482015260640162000061565b6064821115620001175760405162461bcd60e51b815260206004820152600f60248201526e119959481c18dd081a5b9d985b1a59608a1b604482015260640162000061565b50600480546001600160a01b0319166001600160a01b039390931692909217909155600255620001f0565b600080546001600160a01b038381166001600160a01b0319831681178455604051919092169283917f8be0079c531659141344cd1fd0a4f28419497f9722a3daafe3b4186f6b6457e09190a35050565b80516001600160a01b0381168114620001aa57600080fd5b919050565b600080600060608486031215620001c557600080fd5b620001d08462000192565b925060208401519150620001e76040850162000192565b90509250925092565b61320580620002006000396000f3fe6080604052600436106101725760003560e01c80638da5cb5b116100c8578063c021f21011610084578063dbaf091011610061578063dbaf091014610493578063ded5ae27146104b3578063f2fde38b146104c9578063fc157cb4146104e957005b8063c021f2101461044a578063c3144cef1461046a578063d8690c791461047d57005b80638da5cb5b146103795780638ed9895c1461039757806394d246c2146103d45780639aa85dba146103f4578063a124df5d14610414578063b0c2aa5e1461043457005b80634cac35c61161012f578063715018a61161010c578063715018a6146102e35780637679b176146102f857806379022a9f1461032e5780638d22b8631461036657005b80634cac35c61461023b578063535f5a5a146102775780636754cc281461029857005b8062440b311461017b5780631aca3e101461019b5780631dffa3dc146101bb578063314b6835146101db5780633b3e4102146101fb5780634ba587c51461021b57005b3661017957005b005b34801561018757600080fd5b506101796101963660046129a8565b6104fe565b3480156101a757600080fd5b506101796101b63660046129a8565b61063e565b3480156101c757600080fd5b506101796101d63660046129a8565b6106c3565b3480156101e757600080fd5b506101796101f63660046129a8565b6108a0565b34801561020757600080fd5b506101796102163660046129a8565b61094f565b34801561022757600080fd5b506101796102363660046129a8565b610a5f565b34801561024757600080fd5b5061025b6102563660046129a8565b610bb1565b60405161026e9796959493929190612a07565b60405180910390f35b61028a610285366004612add565b610f33565b60405190815260200161026e565b3480156102a457600080fd5b506102d36102b3366004612b36565b600760209081526000928352604080842090915290825290205460ff1681565b604051901515815260200161026e565b3480156102ef57600080fd5b506101796111f1565b34801561030457600080fd5b506103186103133660046129a8565b611205565b60405161026e9a99989796959493929190612b8a565b34801561033a57600080fd5b5060045461034e906001600160a01b031681565b6040516001600160a01b03909116815260200161026e565b6101796103743660046129a8565b6112fd565b34801561038557600080fd5b506000546001600160a01b031661034e565b3480156103a357600080fd5b506103b76103b2366004612c00565b6114c9565b60408051938452911515602084015215159082015260600161026e565b3480156103e057600080fd5b506101796103ef366004612c22565b6115e2565b34801561040057600080fd5b5061017961040f366004612c00565b6117a3565b34801561042057600080fd5b5061017961042f366004612c4e565b611a2a565b34801561044057600080fd5b5061028a60055481565b34801561045657600080fd5b506101796104653660046129a8565b611ae0565b61028a610478366004612c70565b611db3565b34801561048957600080fd5b5061028a60025481565b34801561049f57600080fd5b506101796104ae366004612c00565b6122a8565b3480156104bf57600080fd5b5061028a60035481565b3480156104d557600080fd5b506101796104e4366004612c4e565b612768565b3480156104f557600080fd5b5061028a606481565b6000818152600660205260409020600f810154610100900460ff1661053e5760405162461bcd60e51b815260040161053590612d07565b60405180910390fd5b600181015461010090046001600160a01b031633036105975760405162461bcd60e51b815260206004820152601560248201527410db1a595b9d0818d85b9b9bdd081c995c5d595cdd605a1b6044820152606401610535565b6000600882015460ff1660068111156105b2576105b2612b60565b146105ee5760405162461bcd60e51b815260206004820152600c60248201526b2537b1103737ba1037b832b760a11b6044820152606401610535565b336000818152600760209081526040808320868452909152808220805460ff191660011790555184917f56a170713c65629e3fc7b98f93ea5c49d1cd10debfc5f7ef03cbee95a40b722d91a35050565b6106466127a3565b60648111156106825760405162461bcd60e51b81526020600482015260086024820152670506374203e3130360c41b6044820152606401610535565b60025460408051918252602082018390527f599212ef52aff90308621d59b15739350422740d4632be808c93138e3d268710910160405180910390a1600255565b6106cb6127d0565b6000818152600660205260409020600f810154610100900460ff166107025760405162461bcd60e51b815260040161053590612d07565b600181015461010090046001600160a01b031633146107335760405162461bcd60e51b815260040161053590612d2e565b6000600882015460ff16600681111561074e5761074e612b60565b1461078f5760405162461bcd60e51b815260206004820152601160248201527043616e6e6f742063616e63656c206e6f7760781b6044820152606401610535565b6006810154156107e15760405162461bcd60e51b815260206004820152601a60248201527f416c72656164792072656c6561736564207061727469616c6c790000000000006044820152606401610535565b60088101805460ff19166006179081905560009060ff61010090910416156108265750600381015460018201546108269061010090046001600160a01b0316826127fa565b60405183907f58243f872c550ad02802199ade99eb4250f6bb19e9abbf2d3de7b969c0eb5e4f90600090a2801561089257827f98cd69b526974edc8f55d210bc89664b6985c7e698453e7aca776048f6efcae58260405161088991815260200190565b60405180910390a25b505061089d60018055565b50565b6000818152600660205260409020600f810154610100900460ff166108d75760405162461bcd60e51b815260040161053590612d07565b600181015461010090046001600160a01b0316331480610903575060028101546001600160a01b031633145b61093e5760405162461bcd60e51b815260206004820152600c60248201526b4f6e6c79207061727469657360a01b6044820152606401610535565b600801805460ff1916600417905550565b6109576127d0565b61095f6127a3565b6000811161099d5760405162461bcd60e51b815260206004820152600b60248201526a1e995c9bc8185b5bdd5b9d60aa1b6044820152606401610535565b6003548111156109e35760405162461bcd60e51b8152602060048201526011602482015270496e73756666696369656e74206665657360781b6044820152606401610535565b80600360008282546109f59190612d69565b9091555050600454610a10906001600160a01b0316826127fa565b600454604080516001600160a01b039092168252602082018390527f2575d77a1ec3998d286c801d15068d5201ec99248623b8f7b7fc936ac1b62d6a910160405180910390a161089d60018055565b610a676127d0565b610a6f6127a3565b6000818152600660205260409020600f810154610100900460ff16610aa65760405162461bcd60e51b815260040161053590612d07565b6005600882015460ff166006811115610ac157610ac1612b60565b14158015610ae857506006600882015460ff166006811115610ae557610ae5612b60565b14155b8015610af95750600f81015460ff16155b610b355760405162461bcd60e51b815260206004820152600d60248201526c105b1c9958591e48199a5b985b609a1b6044820152606401610535565b600081600601548260030154610b4b9190612d69565b90508015610b70576001820154610b709061010090046001600160a01b0316826127fa565b60088201805460ff1916600517905560405181815283907f98cd69b526974edc8f55d210bc89664b6985c7e698453e7aca776048f6efcae590602001610889565b6000818152600660205260408120600f81015460609283928392839283929091829190610100900460ff16610bf85760405162461bcd60e51b815260040161053590612d07565b80600a0181600b0182600c0183600d0184600e0185600401548660050154868054610c2290612d82565b80601f0160208091040260200160405190810160405280929190818152602001828054610c4e90612d82565b8015610c9b5780601f10610c7057610100808354040283529160200191610c9b565b820191906000526020600020905b815481529060010190602001808311610c7e57829003601f168201915b50505050509650858054610cae90612d82565b80601f0160208091040260200160405190810160405280929190818152602001828054610cda90612d82565b8015610d275780601f10610cfc57610100808354040283529160200191610d27565b820191906000526020600020905b815481529060010190602001808311610d0a57829003601f168201915b50505050509550848054610d3a90612d82565b80601f0160208091040260200160405190810160405280929190818152602001828054610d6690612d82565b8015610db35780601f10610d8857610100808354040283529160200191610db3565b820191906000526020600020905b815481529060010190602001808311610d9657829003601f168201915b5050505050945083805480602002602001604051908101604052809291908181526020016000905b82821015610e87578382906000526020600020018054610dfa90612d82565b80601f0160208091040260200160405190810160405280929190818152602001828054610e2690612d82565b8015610e735780601f10610e4857610100808354040283529160200191610e73565b820191906000526020600020905b815481529060010190602001808311610e5657829003601f168201915b505050505081526020019060010190610ddb565b505050509350828054610e9990612d82565b80601f0160208091040260200160405190810160405280929190818152602001828054610ec590612d82565b8015610f125780601f10610ee757610100808354040283529160200191610f12565b820191906000526020600020905b815481529060010190602001808311610ef557829003601f168201915b50505050509250975097509750975097509750975050919395979092949650565b6000803411610f785760405162461bcd60e51b815260206004820152601160248201527004d7573742066756e64206a6f62203e203607c1b6044820152606401610535565b6000610f848380612db6565b905011610fc45760405162461bcd60e51b815260206004820152600e60248201526d151a5d1b19481c995c5d5a5c995960921b6044820152606401610535565b6000610fd36040840184612db6565b9050116110195760405162461bcd60e51b815260206004820152601460248201527311195cd8dc9a5c1d1a5bdb881c995c5d5a5c995960621b6044820152606401610535565b600580546000918261102a83612e04565b9091555060008181526006602052604090208181556001810180546001600160a81b03191633610100021790559091506110648480612db6565b600a830191611074919083612e81565b506110826020850185612db6565b600b830191611092919083612e81565b506110a06040850185612db6565b600c8301916110b0919083612e81565b5060006110c06060860186612f42565b6110c991612fbd565b80519091506110e190600d84019060208401906128eb565b506110ef6080860186612db6565b600e8401916110ff919083612e81565b503460038301556000600683015542600783015560088201805461ffff1916610100908117909155600f8301805461ff001916909117905560a0850135611146573461114c565b8460a001355b600483015560c08501356111605734611166565b8460c001355b60058301556003820154604051339185917fc5461520f114105e6a66205aa617e182d057dc7942f09aeffd1b9b9e18542c6b916111a69160009190613092565b60405180910390a3827f9d25c5cf940eed311c45e5a0b4c7c8790a356d3c356453b76bb7e232db3f384a346040516111e091815260200190565b60405180910390a250909392505050565b6111f96127a3565b611203600061289b565b565b6000818152600660205260408120600f81015482918291829182918291829182918291829190610100900460ff1661124f5760405162461bcd60e51b815260040161053590612d07565b80600001548160010160009054906101000a900460ff168260010160019054906101000a90046001600160a01b03168360020160009054906101000a90046001600160a01b0316846003015485600601548660080160009054906101000a900460ff1687600701548860080160019054906101000a900460ff1689600f0160009054906101000a900460ff169a509a509a509a509a509a509a509a509a509a50509193959799509193959799565b6113056127d0565b6000818152600660205260409020600f810154610100900460ff1661133c5760405162461bcd60e51b815260040161053590612d07565b600181015461010090046001600160a01b031633146113945760405162461bcd60e51b815260206004820152601460248201527313db9b1e4818db1a595b9d0818d85b88199d5b9960621b6044820152606401610535565b6008810154610100900460ff16156113df5760405162461bcd60e51b815260206004820152600e60248201526d105b1c9958591e48199d5b99195960921b6044820152606401610535565b6000341161141f5760405162461bcd60e51b815260206004820152600d60248201526c04d7573742073656e64203e203609c1b6044820152606401610535565b806003015434146114725760405162461bcd60e51b815260206004820152601960248201527f4d7573742073656e642066756c6c206a6f6220616d6f756e74000000000000006044820152606401610535565b60088101805461ff00191661010017905560405182907f9d25c5cf940eed311c45e5a0b4c7c8790a356d3c356453b76bb7e232db3f384a906114b79034815260200190565b60405180910390a25061089d60018055565b6000828152600660205260408120600f81015482918291610100900460ff166115045760405162461bcd60e51b815260040161053590612d07565b60018181015460ff168181111561151d5761151d612b60565b1461155e5760405162461bcd60e51b81526020600482015260116024820152702737ba1036b4b632b9ba37b732903537b160791b6044820152606401610535565b600981015485106115975760405162461bcd60e51b815260206004820152600360248201526227a7a160e91b6044820152606401610535565b60008160090186815481106115ae576115ae6130ad565b60009182526020909120600290910201805460019091015490955060ff808216955061010090910416925050509250925092565b6000828152600660205260409020600f810154610100900460ff166116195760405162461bcd60e51b815260040161053590612d07565b600181015461010090046001600160a01b0316331461167a5760405162461bcd60e51b815260206004820152601760248201527f4f6e6c7920636c69656e742063616e20617070726f76650000000000000000006044820152606401610535565b6000600882015460ff16600681111561169557611695612b60565b146116d15760405162461bcd60e51b815260206004820152600c60248201526b2537b1103737ba1037b832b760a11b6044820152606401610535565b6001600160a01b038216600090815260076020908152604080832086845290915290205460ff166117445760405162461bcd60e51b815260206004820152601860248201527f50726f766964657220646964206e6f74207265717565737400000000000000006044820152606401610535565b6002810180546001600160a01b0319166001600160a01b03841690811790915560088201805460ff1916600117905560405184907f75ddd184e81eb370d30cc019f29184e242488c372a6cccb9b7dec5821c3f6c0d90600090a3505050565b6000828152600660205260409020600f810154610100900460ff166117da5760405162461bcd60e51b815260040161053590612d07565b60028101546001600160a01b0316331461182d5760405162461bcd60e51b81526020600482015260146024820152732737ba1030bbb0b93232b210383937bb34b232b960611b6044820152606401610535565b6001600882015460ff16600681111561184857611848612b60565b148061186c57506002600882015460ff16600681111561186a5761186a612b60565b145b6118a95760405162461bcd60e51b815260206004820152600e60248201526d496e76616c69642073746174757360901b6044820152606401610535565b600060018083015460ff16908111156118c4576118c4612b60565b0361190c5760088101805460ff19166002179055604051339060009085907f5f87c5debff10f9af78fb5c01ac59ef4f0a787c7414076b791dcb3160271b5c8908390a4505050565b6009810154821061194f5760405162461bcd60e51b815260206004820152600d60248201526c26b4b632b9ba37b7329027a7a160991b6044820152606401610535565b6000816009018381548110611966576119666130ad565b60009182526020909120600290910201600181015490915060ff16156119ce5760405162461bcd60e51b815260206004820152601a60248201527f4d696c6573746f6e6520616c72656164792072656c65617365640000000000006044820152606401610535565b60018101805461010061ff001990911617905560088201805460ff191660021790556040513390849086907f5f87c5debff10f9af78fb5c01ac59ef4f0a787c7414076b791dcb3160271b5c890600090a450505050565b505050565b611a326127a3565b6001600160a01b038116611a775760405162461bcd60e51b815260206004820152600c60248201526b7a65726f206164647265737360a01b6044820152606401610535565b600454604080516001600160a01b03928316815291831660208301527f405b911135779fbe6ca1eb08e756497b632d5fbff59644b7d60ea3ea95caf539910160405180910390a1600480546001600160a01b0319166001600160a01b0392909216919091179055565b611ae86127d0565b6000818152600660205260409020600f810154610100900460ff16611b1f5760405162461bcd60e51b815260040161053590612d07565b600060018083015460ff1690811115611b3a57611b3a612b60565b14611b775760405162461bcd60e51b815260206004820152600d60248201526c2737ba103334bc32b2103537b160991b6044820152606401610535565b600181015461010090046001600160a01b03163314611ba85760405162461bcd60e51b815260040161053590612d2e565b6008810154610100900460ff16611bf25760405162461bcd60e51b815260206004820152600e60248201526d129bd8881b9bdd08199d5b99195960921b6044820152606401610535565b6002600882015460ff166006811115611c0d57611c0d612b60565b1480611c3157506001600882015460ff166006811115611c2f57611c2f612b60565b145b611c6f5760405162461bcd60e51b815260206004820152600f60248201526e4e6f7420696e2064656c697665727960881b6044820152606401610535565b600f81015460ff1615611cb85760405162461bcd60e51b8152602060048201526011602482015270105b1c9958591e4818dbdb999a5c9b5959607a1b6044820152606401610535565b600060646002548360030154611cce91906130c3565b611cd891906130da565b90506000818360030154611cec9190612d69565b6003848101546006860155600f8501805460088701805460ff19168417905562ff00ff19166201000117905580549192508391600090611d2d9084906130fc565b90915550508015611d50576002830154611d50906001600160a01b0316826127fa565b8115611d6c57600454611d6c906001600160a01b0316836127fa565b604080518281526020810184905285917faeaea72a94ea21c1bf7815b369922e9589f54ac6b71568ae86af00e6e2e5ad46910160405180910390a250505061089d60018055565b600082611df75760405162461bcd60e51b81526020600482015260126024820152714e656564203e3d31206d696c6573746f6e6560701b6044820152606401610535565b6000805b84811015611e93576000868683818110611e1757611e176130ad565b9050602002013511611e5b5760405162461bcd60e51b815260206004820152600d60248201526c04d696c6573746f6e65203e203609c1b6044820152606401610535565b858582818110611e6d57611e6d6130ad565b9050602002013582611e7f91906130fc565b915080611e8b81612e04565b915050611dfb565b506000606460025483611ea691906130c3565b611eb091906130da565b9050808686611ec0600182612d69565b818110611ecf57611ecf6130ad565b905060200201351015611f2e5760405162461bcd60e51b815260206004820152602160248201527f4c617374206d696c6573746f6e65206d75737420636f7665722044414f2066656044820152606560f81b6064820152608401610535565b6000611f3a8580612db6565b905011611f7a5760405162461bcd60e51b815260206004820152600e60248201526d151a5d1b19481c995c5d5a5c995960921b6044820152606401610535565b6000611f896040860186612db6565b905011611fcf5760405162461bcd60e51b815260206004820152601460248201527311195cd8dc9a5c1d1a5bdb881c995c5d5a5c995960621b6044820152606401610535565b6005805460009182611fe083612e04565b909155506000818152600660205260409020818155600180820180546001600160a81b031916336101000217909117905590915061201e8680612db6565b600a83019161202e919083612e81565b5061203c6020870187612db6565b600b83019161204c919083612e81565b5061205a6040870187612db6565b600c83019161206a919083612e81565b50600061207a6060880188612f42565b61208391612fbd565b805190915061209b90600d84019060208401906128eb565b506120a96080880188612db6565b600e8401916120b9919083612e81565b50600482018590556005820185905560038201859055600060068301819055426007840155600883018054600f8501805461ff00191661010017905561ffff191690555b8881101561219d578260090160405180606001604052808c8c85818110612126576121266130ad565b60209081029290920135835250600082820181905260409283018190528454600180820187559582529082902084516002909202019081559083015193018054929091015161ffff1990921692151561ff00191692909217610100911515919091021790558061219581612e04565b9150506120fd565b503415612252578434146122045760405162461bcd60e51b815260206004820152602860248201527f6d73672e76616c7565206d75737420657175616c20746f74616c206d696c6573604482015267746f6e652073756d60c01b6064820152608401610535565b60088201805461ff00191661010017905560405183907f9d25c5cf940eed311c45e5a0b4c7c8790a356d3c356453b76bb7e232db3f384a906122499034815260200190565b60405180910390a25b336001600160a01b0316837fc5461520f114105e6a66205aa617e182d057dc7942f09aeffd1b9b9e18542c6b60018560030154604051612293929190613092565b60405180910390a35090979650505050505050565b6122b06127d0565b6000828152600660205260409020600f810154610100900460ff166122e75760405162461bcd60e51b815260040161053590612d07565b60018181015460ff168181111561230057612300612b60565b146123415760405162461bcd60e51b81526020600482015260116024820152702737ba1036b4b632b9ba37b732903537b160791b6044820152606401610535565b600181015461010090046001600160a01b031633146123725760405162461bcd60e51b815260040161053590612d2e565b6008810154610100900460ff166123b85760405162461bcd60e51b815260206004820152600a602482015269139bdd08199d5b99195960b21b6044820152606401610535565b600981015482106123fb5760405162461bcd60e51b815260206004820152600d60248201526c26b4b632b9ba37b7329027a7a160991b6044820152606401610535565b6000816009018381548110612412576124126130ad565b60009182526020909120600290910201600181015490915060ff161561246d5760405162461bcd60e51b815260206004820152601060248201526f105b1c9958591e481c995b19585cd95960821b6044820152606401610535565b6001810154610100900460ff166124e15760405162461bcd60e51b815260206004820152603260248201527f467265656c616e636572206e6f74206d61726b65642064656c69766572656420604482015271666f722074686973206d696c6573746f6e6560701b6064820152608401610535565b8054600983015460009082906124f990600190612d69565b860361261e57600f85015462010000900460ff161561254e5760405162461bcd60e51b81526020600482015260116024820152702332b29030b63932b0b23c903a30b5b2b760791b6044820152606401610535565b6064600254866003015461256291906130c3565b61256c91906130da565b9150818310156125e45760405162461bcd60e51b815260206004820152603860248201527f4c617374206d696c6573746f6e65206d75737420636f7665722044414f20666560448201527f652028656e666f72636564206174206372656174696f6e2900000000000000006064820152608401610535565b6125ee8284612d69565b600f8601805462ff00001916620100001790556003805491925083916000906126189084906130fc565b90915550505b6001848101805460ff191690911790556006850180548491906000906126459084906130fc565b909155505060088501805460ff1916600190811790915560005b60098701548110156126b657866009018181548110612680576126806130ad565b600091825260209091206001600290920201015460ff166126a457600091506126b6565b806126ae81612e04565b91505061265f565b5080156126de57600f8601805460ff1990811660011790915560088701805490911660031790555b81156126fc5760028601546126fc906001600160a01b0316836127fa565b821561271857600454612718906001600160a01b0316846127fa565b604080518381526020810185905288918a917f5e85b5843cdd9b3b8d34f7241a238e9638486675925145ab71603fdbdb58c37c910160405180910390a350505050505061276460018055565b5050565b6127706127a3565b6001600160a01b03811661279a57604051631e4fbdf760e01b815260006004820152602401610535565b61089d8161289b565b6000546001600160a01b031633146112035760405163118cdaa760e01b8152336004820152602401610535565b6002600154036127f357604051633ee5aeb560e01b815260040160405180910390fd5b6002600155565b80600003612806575050565b6000826001600160a01b03168260405160006040518083038185875af1925050503d8060008114612853576040519150601f19603f3d011682016040523d82523d6000602084013e612858565b606091505b5050905080611a255760405162461bcd60e51b815260206004820152600f60248201526e151c985b9cd9995c8819985a5b1959608a1b6044820152606401610535565b600080546001600160a01b038381166001600160a01b0319831681178455604051919092169283917f8be0079c531659141344cd1fd0a4f28419497f9722a3daafe3b4186f6b6457e09190a35050565b828054828255906000526020600020908101928215612931579160200282015b828111156129315782518290612921908261310f565b509160200191906001019061290b565b5061293d929150612941565b5090565b8082111561293d576000612955828261295e565b50600101612941565b50805461296a90612d82565b6000825580601f1061297a575050565b601f01602090049060005260206000209081019061089d91905b8082111561293d5760008155600101612994565b6000602082840312156129ba57600080fd5b5035919050565b6000815180845260005b818110156129e7576020818501810151868301820152016129cb565b506000602082860101526020601f19601f83011685010191505092915050565b60e081526000612a1a60e083018a6129c1565b602083820381850152612a2d828b6129c1565b91508382036040850152612a41828a6129c1565b915083820360608501528188518084528284019150828160051b850101838b0160005b83811015612a9257601f19878403018552612a808383516129c1565b94860194925090850190600101612a64565b50508681036080880152612aa6818b6129c1565b955050505050508360a08301528260c083015298975050505050505050565b600060e08284031215612ad757600080fd5b50919050565b600060208284031215612aef57600080fd5b813567ffffffffffffffff811115612b0657600080fd5b612b1284828501612ac5565b949350505050565b80356001600160a01b0381168114612b3157600080fd5b919050565b60008060408385031215612b4957600080fd5b612b5283612b1a565b946020939093013593505050565b634e487b7160e01b600052602160045260246000fd5b60028110612b8657612b86612b60565b9052565b8a81526101408101612b9f602083018c612b76565b6001600160a01b038a81166040840152891660608301526080820188905260a0820187905260078610612bd457612bd4612b60565b60c082019590955260e08101939093529015156101008301521515610120909101529695505050505050565b60008060408385031215612c1357600080fd5b50508035926020909101359150565b60008060408385031215612c3557600080fd5b82359150612c4560208401612b1a565b90509250929050565b600060208284031215612c6057600080fd5b612c6982612b1a565b9392505050565b600080600060408486031215612c8557600080fd5b833567ffffffffffffffff80821115612c9d57600080fd5b818601915086601f830112612cb157600080fd5b813581811115612cc057600080fd5b8760208260051b8501011115612cd557600080fd5b602092830195509350908501359080821115612cf057600080fd5b50612cfd86828701612ac5565b9150509250925092565b6020808252600d908201526c129bd8881b9bdd08195e1a5cdd609a1b604082015260600190565b6020808252600b908201526a13db9b1e4818db1a595b9d60aa1b604082015260600190565b634e487b7160e01b600052601160045260246000fd5b81810381811115612d7c57612d7c612d53565b92915050565b600181811c90821680612d9657607f821691505b602082108103612ad757634e487b7160e01b600052602260045260246000fd5b6000808335601e19843603018112612dcd57600080fd5b83018035915067ffffffffffffffff821115612de857600080fd5b602001915036819003821315612dfd57600080fd5b9250929050565b600060018201612e1657612e16612d53565b5060010190565b634e487b7160e01b600052604160045260246000fd5b601f821115611a2557600081815260208120601f850160051c81016020861015612e5a5750805b601f850160051c820191505b81811015612e7957828155600101612e66565b505050505050565b67ffffffffffffffff831115612e9957612e99612e1d565b612ead83612ea78354612d82565b83612e33565b6000601f841160018114612ee15760008515612ec95750838201355b600019600387901b1c1916600186901b178355612f3b565b600083815260209020601f19861690835b82811015612f125786850135825560209485019460019092019101612ef2565b5086821015612f2f5760001960f88860031b161c19848701351681555b505060018560011b0183555b5050505050565b6000808335601e19843603018112612f5957600080fd5b83018035915067ffffffffffffffff821115612f7457600080fd5b6020019150600581901b3603821315612dfd57600080fd5b604051601f8201601f1916810167ffffffffffffffff81118282101715612fb557612fb5612e1d565b604052919050565b600067ffffffffffffffff80841115612fd857612fd8612e1d565b8360051b6020612fe9818301612f8c565b86815291850191818101903684111561300157600080fd5b865b848110156130865780358681111561301b5760008081fd5b8801601f368183011261302e5760008081fd5b81358881111561304057613040612e1d565b613051818301601f19168801612f8c565b915080825236878285010111156130685760008081fd5b80878401888401376000908201870152845250918301918301613003565b50979650505050505050565b604081016130a08285612b76565b8260208301529392505050565b634e487b7160e01b600052603260045260246000fd5b8082028115828204841417612d7c57612d7c612d53565b6000826130f757634e487b7160e01b600052601260045260246000fd5b500490565b80820180821115612d7c57612d7c612d53565b815167ffffffffffffffff81111561312957613129612e1d565b61313d816131378454612d82565b84612e33565b602080601f831160018114613172576000841561315a5750858301515b600019600386901b1c1916600185901b178555612e79565b600085815260208120601f198616915b828110156131a157888601518255948401946001909101908401613182565b50858210156131bf5787850151600019600388901b60f8161c191681555b5050505050600190811b0190555056fea26469706673582212207dc9e8b037190aee289ef97f0c358cd9b26a50d9bad9b148a18c68dbcb4bec2364736f6c63430008140033",
  "linkReferences": {},
  "deployedLinkReferences": {}
}