{
  "_format": "hh-sol-artifact-1",
  "contractName": "FreelanceDAODisputeV2",
  "sourceName": "contracts/FreelanceDAODisputeV2.sol",
  "abi": [
    {
      "inputs": [
        {
          "internalType": "uint256",
          "name": "_quorum",
          "type": "uint256"
        },
        {
          "internalType": "address",
          "name": "_daoTreasury",
          "type": "address"
        }
      ],
      "stateMutability": "nonpayable",
      "type": "constructor"
    },
    {
      "inputs": [
        {
          "internalType": "address",
          "name": "owner",
          "type": "address"
        }
      ],
      "name": "OwnableInvalidOwner",
      "type": "error"
    },
    {
      "inputs": [
        {
          "internalType": "address",
          "name": "account",
          "type": "address"
        }
      ],
      "name": "OwnableUnauthorizedAccount",
      "type": "error"
    },
    {
      "inputs": [],
      "name": "ReentrancyGuardReentrantCall",
      "type": "error"
    },
    {
      "anonymous": false,
      "inputs": [
        {
          "indexed": true,
          "internalType": "address",
          "name": "member",
          "type": "address"
        }
      ],
      "name": "DaoMemberAdded",
      "type": "event"
    },
    {
      "anonymous": false,
      "inputs": [
        {
          "indexed": true,
          "internalType": "address",
          "name": "member",
          "type": "address"
        }
      ],
      "name": "DaoMemberRemoved",
      "type": "event"
    },
    {
      "anonymous": false,
      "inputs": [
        {
          "indexed": false,
          "internalType": "address",
          "name": "oldTreasury",
          "type": "address"
        },
        {
          "indexed": false,
          "internalType": "address",
          "name": "newTreasury",
          "type": "address"
        }
      ],
      "name": "DaoTreasuryUpdated",
      "type": "event"
    },
    {
      "anonymous": false,
      "inputs": [
        {
          "indexed": true,
          "internalType": "uint256",
          "name": "disputeId",
          "type": "uint256"
        },
        {
          "indexed": true,
          "internalType": "uint256",
          "name": "jobId",
          "type": "uint256"
        },
        {
          "indexed": true,
          "internalType": "address",
          "name": "client",
          "type": "address"
        },
        {
          "indexed": false,
          "internalType": "address",
          "name": "freelancer",
          "type": "address"
        },
        {
          "indexed": false,
          "internalType": "string",
          "name": "title",
          "type": "string"
        },
        {
          "indexed": false,
          "internalType": "uint256",
          "name": "amount",
          "type": "uint256"
        },
        {
          "indexed": false,
          "internalType": "string",
          "name": "category",
          "type": "string"
        },
        {
          "indexed": false,
          "internalType": "string",
          "name": "description",
          "type": "string"
        },
        {
          "indexed": false,
          "internalType": "enum IDisputeResolution.DisputeReason",
          "name": "reason",
          "type": "uint8"
        }
      ],
      "name": "DisputeCreated",
      "type": "event"
    },
    {
      "anonymous": false,
      "inputs": [
        {
          "indexed": true,
          "internalType": "uint256",
          "name": "disputeId",
          "type": "uint256"
        }
      ],
      "name": "DisputeExecuted",
      "type": "event"
    },
    {
      "anonymous": false,
      "inputs": [
        {
          "indexed": false,
          "internalType": "uint256",
          "name": "oldFee",
          "type": "uint256"
        },
        {
          "indexed": false,
          "internalType": "uint256",
          "name": "newFee",
          "type": "uint256"
        }
      ],
      "name": "DisputeFeeUpdated",
      "type": "event"
    },
    {
      "anonymous": false,
      "inputs": [
        {
          "indexed": true,
          "internalType": "uint256",
          "name": "disputeId",
          "type": "uint256"
        },
        {
          "indexed": true,
          "internalType": "address",
          "name": "winner",
          "type": "address"
        },
        {
          "indexed": false,
          "internalType": "enum IDisputeResolution.DisputeStatus",
          "name": "status",
          "type": "uint8"
        },
        {
          "indexed": false,
          "internalType": "enum IDisputeResolution.DisputeReason",
          "name": "reason",
          "type": "uint8"
        }
      ],
      "name": "DisputeResolved",
      "type": "event"
    },
    {
      "anonymous": false,
      "inputs": [
        {
          "indexed": false,
          "internalType": "address",
          "name": "oldContract",
          "type": "address"
        },
        {
          "indexed": false,
          "internalType": "address",
          "name": "newContract",
          "type": "address"
        }
      ],
      "name": "EscrowContractUpdated",
      "type": "event"
    },
    {
      "anonymous": false,
      "inputs": [
        {
          "indexed": true,
          "internalType": "address",
          "name": "previousOwner",
          "type": "address"
        },
        {
          "indexed": true,
          "internalType": "address",
          "name": "newOwner",
          "type": "address"
        }
      ],
      "name": "OwnershipTransferred",
      "type": "event"
    },
    {
      "anonymous": false,
      "inputs": [
        {
          "indexed": false,
          "internalType": "uint256",
          "name": "oldQuorum",
          "type": "uint256"
        },
        {
          "indexed": false,
          "internalType": "uint256",
          "name": "newQuorum",
          "type": "uint256"
        }
      ],
      "name": "QuorumUpdated",
      "type": "event"
    },
    {
      "anonymous": false,
      "inputs": [
        {
          "indexed": true,
          "internalType": "uint256",
          "name": "disputeId",
          "type": "uint256"
        },
        {
          "indexed": true,
          "internalType": "address",
          "name": "voter",
          "type": "address"
        },
        {
          "indexed": false,
          "internalType": "string",
          "name": "side",
          "type": "string"
        }
      ],
      "name": "VoteCast",
      "type": "event"
    },
    {
      "inputs": [
        {
          "internalType": "address",
          "name": "member",
          "type": "address"
        }
      ],
      "name": "addDaoMember",
      "outputs": [],
      "stateMutability": "nonpayable",
      "type": "function"
    },
    {
      "inputs": [
        {
          "internalType": "uint256",
          "name": "disputeId",
          "type": "uint256"
        }
      ],
      "name": "autoResolveDispute",
      "outputs": [],
      "stateMutability": "nonpayable",
      "type": "function"
    },
    {
      "inputs": [
        {
          "internalType": "uint256",
          "name": "jobId",
          "type": "uint256"
        },
        {
          "internalType": "address",
          "name": "freelancer",
          "type": "address"
        },
        {
          "internalType": "string",
          "name": "title",
          "type": "string"
        },
        {
          "internalType": "uint256",
          "name": "amount",
          "type": "uint256"
        },
        {
          "internalType": "string",
          "name": "category",
          "type": "string"
        },
        {
          "internalType": "string",
          "name": "description",
          "type": "string"
        },
        {
          "internalType": "enum IDisputeResolution.DisputeReason",
          "name": "reason",
          "type": "uint8"
        }
      ],
      "name": "createDispute",
      "outputs": [
        {
          "internalType": "uint256",
          "name": "",
          "type": "uint256"
        }
      ],
      "stateMutability": "payable",
      "type": "function"
    },
    {
      "inputs": [
        {
          "internalType": "address",
          "name": "",
          "type": "address"
        }
      ],
      "name": "daoMembers",
      "outputs": [
        {
          "internalType": "bool",
          "name": "",
          "type": "bool"
        }
      ],
      "stateMutability": "view",
      "type": "function"
    },
    {
      "inputs": [],
      "name": "daoTreasury",
      "outputs": [
        {
          "internalType": "address",
          "name": "",
          "type": "address"
        }
      ],
      "stateMutability": "view",
      "type": "function"
    },
    {
      "inputs": [],
      "name": "disputeCreationFee",
      "outputs": [
        {
          "internalType": "uint256",
          "name": "",
          "type": "uint256"
        }
      ],
      "stateMutability": "view",
      "type": "function"
    },
    {
      "inputs": [
        {
          "internalType": "uint256",
          "name": "",
          "type": "uint256"
        },
        {
          "internalType": "address",
          "name": "",
          "type": "address"
        }
      ],
      "name": "disputeVotes",
      "outputs": [
        {
          "internalType": "bool",
          "name": "",
          "type": "bool"
        }
      ],
      "stateMutability": "view",
      "type": "function"
    },
    {
      "inputs": [],
      "name": "escrowContract",
      "outputs": [
        {
          "internalType": "address",
          "name": "",
          "type": "address"
        }
      ],
      "stateMutability": "view",
      "type": "function"
    },
    {
      "inputs": [],
      "name": "getAllDisputes",
      "outputs": [
        {
          "components": [
            {
              "internalType": "uint256",
              "name": "disputeId",
              "type": "uint256"
            },
            {
              "internalType": "uint256",
              "name": "jobId",
              "type": "uint256"
            },
            {
              "internalType": "address",
              "name": "client",
              "type": "address"
            },
            {
              "internalType": "address",
              "name": "freelancer",
              "type": "address"
            },
            {
              "internalType": "string",
              "name": "title",
              "type": "string"
            },
            {
              "internalType": "uint256",
              "name": "amount",
              "type": "uint256"
            },
            {
              "internalType": "string",
              "name": "category",
              "type": "string"
            },
            {
              "internalType": "string",
              "name": "description",
              "type": "string"
            },
            {
              "internalType": "enum IDisputeResolution.DisputeReason",
              "name": "reason",
              "type": "uint8"
            },
            {
              "internalType": "uint256",
              "name": "votesForClient",
              "type": "uint256"
            },
            {
              "internalType": "uint256",
              "name": "votesForFreelancer",
              "type": "uint256"
            },
            {
              "internalType": "enum IDisputeResolution.DisputeStatus",
              "name": "status",
              "type": "uint8"
            },
            {
              "internalType": "address",
              "name": "winner",
              "type": "address"
            },
            {
              "internalType": "bool",
              "name": "exists",
              "type": "bool"
            },
            {
              "internalType": "uint256",
              "name": "createdAt",
              "type": "uint256"
            }
          ],
          "internalType": "struct FreelanceDAODisputeV2.Dispute[]",
          "name": "",
          "type": "tuple[]"
        }
      ],
      "stateMutability": "view",
      "type": "function"
    },
    {
      "inputs": [
        {
          "internalType": "uint256",
          "name": "disputeId",
          "type": "uint256"
        }
      ],
      "name": "getDispute",
      "outputs": [
        {
          "components": [
            {
              "internalType": "uint256",
              "name": "disputeId",
              "type": "uint256"
            },
            {
              "internalType": "uint256",
              "name": "jobId",
              "type": "uint256"
            },
            {
              "internalType": "address",
              "name": "client",
              "type": "address"
            },
            {
              "internalType": "address",
              "name": "freelancer",
              "type": "address"
            },
            {
              "internalType": "string",
              "name": "title",
              "type": "string"
            },
            {
              "internalType": "uint256",
              "name": "amount",
              "type": "uint256"
            },
            {
              "internalType": "string",
              "name": "category",
              "type": "string"
            },
            {
              "internalType": "string",
              "name": "description",
              "type": "string"
            },
            {
              "internalType": "enum IDisputeResolution.DisputeReason",
              "name": "reason",
              "type": "uint8"
            },
            {
              "internalType": "uint256",
              "name": "votesForClient",
              "type": "uint256"
            },
            {
              "internalType": "uint256",
              "name": "votesForFreelancer",
              "type": "uint256"
            },
            {
              "internalType": "enum IDisputeResolution.DisputeStatus",
              "name": "status",
              "type": "uint8"
            },
            {
              "internalType": "address",
              "name": "winner",
              "type": "address"
            },
            {
              "internalType": "bool",
              "name": "exists",
              "type": "bool"
            },
            {
              "internalType": "uint256",
              "name": "createdAt",
              "type": "uint256"
            }
          ],
          "internalType": "struct FreelanceDAODisputeV2.Dispute",
          "name": "",
          "type": "tuple"
        }
      ],
      "stateMutability": "view",
      "type": "function"
    },
    {
      "inputs": [
        {
          "internalType": "uint256",
          "name": "disputeId",
          "type": "uint256"
        }
      ],
      "name": "getDisputeOutcome",
      "outputs": [
        {
          "internalType": "address",
          "name": "winner",
          "type": "address"
        },
        {
          "internalType": "enum IDisputeResolution.DisputeReason",
          "name": "reason",
          "type": "uint8"
        },
        {
          "internalType": "enum IDisputeResolution.DisputeStatus",
          "name": "status",
          "type": "uint8"
        }
      ],
      "stateMutability": "view",
      "type": "function"
    },
    {
      "inputs": [
        {
          "internalType": "enum IDisputeResolution.DisputeReason",
          "name": "reason",
          "type": "uint8"
        }
      ],
      "name": "getDisputesByReason",
      "outputs": [
        {
          "components": [
            {
              "internalType": "uint256",
              "name": "disputeId",
              "type": "uint256"
            },
            {
              "internalType": "uint256",
              "name": "jobId",
              "type": "uint256"
            },
            {
              "internalType": "address",
              "name": "client",
              "type": "address"
            },
            {
              "internalType": "address",
              "name": "freelancer",
              "type": "address"
            },
            {
              "internalType": "string",
              "name": "title",
              "type": "string"
            },
            {
              "internalType": "uint256",
              "name": "amount",
              "type": "uint256"
            },
            {
              "internalType": "string",
              "name": "category",
              "type": "string"
            },
            {
              "internalType": "string",
              "name": "description",
              "type": "string"
            },
            {
              "internalType": "enum IDisputeResolution.DisputeReason",
              "name": "reason",
              "type": "uint8"
            },
            {
              "internalType": "uint256",
              "name": "votesForClient",
              "type": "uint256"
            },
            {
              "internalType": "uint256",
              "name": "votesForFreelancer",
              "type": "uint256"
            },
            {
              "internalType": "enum IDisputeResolution.DisputeStatus",
              "name": "status",
              "type": "uint8"
            },
            {
              "internalType": "address",
              "name": "winner",
              "type": "address"
            },
            {
              "internalType": "bool",
              "name": "exists",
              "type": "bool"
            },
            {
              "internalType": "uint256",
              "name": "createdAt",
              "type": "uint256"
            }
          ],
          "internalType": "struct FreelanceDAODisputeV2.Dispute[]",
          "name": "",
          "type": "tuple[]"
        }
      ],
      "stateMutability": "view",
      "type": "function"
    },
    {
      "inputs": [],
      "name": "getOpenDisputes",
      "outputs": [
        {
          "components": [
            {
              "internalType": "uint256",
              "name": "disputeId",
              "type": "uint256"
            },
            {
              "internalType": "uint256",
              "name": "jobId",
              "type": "uint256"
            },
            {
              "internalType": "address",
              "name": "client",
              "type": "address"
            },
            {
              "internalType": "address",
              "name": "freelancer",
              "type": "address"
            },
            {
              "internalType": "string",
              "name": "title",
              "type": "string"
            },
            {
              "internalType": "uint256",
              "name": "amount",
              "type": "uint256"
            },
            {
              "internalType": "string",
              "name": "category",
              "type": "string"
            },
            {
              "internalType": "string",
              "name": "description",
              "type": "string"
            },
            {
              "internalType": "enum IDisputeResolution.DisputeReason",
              "name": "reason",
              "type": "uint8"
            },
            {
              "internalType": "uint256",
              "name": "votesForClient",
              "type": "uint256"
            },
            {
              "internalType": "uint256",
              "name": "votesForFreelancer",
              "type": "uint256"
            },
            {
              "internalType": "enum IDisputeResolution.DisputeStatus",
              "name": "status",
              "type": "uint8"
            },
            {
              "internalType": "address",
              "name": "winner",
              "type": "address"
            },
            {
              "internalType": "bool",
              "name": "exists",
              "type": "bool"
            },
            {
              "internalType": "uint256",
              "name": "createdAt",
              "type": "uint256"
            }
          ],
          "internalType": "struct FreelanceDAODisputeV2.Dispute[]",
          "name": "",
          "type": "tuple[]"
        }
      ],
      "stateMutability": "view",
      "type": "function"
    },
    {
      "inputs": [
        {
          "internalType": "address",
          "name": "user",
          "type": "address"
        }
      ],
      "name": "getUserDisputes",
      "outputs": [
        {
          "components": [
            {
              "internalType": "uint256",
              "name": "disputeId",
              "type": "uint256"
            },
            {
              "internalType": "uint256",
              "name": "jobId",
              "type": "uint256"
            },
            {
              "internalType": "address",
              "name": "client",
              "type": "address"
            },
            {
              "internalType": "address",
              "name": "freelancer",
              "type": "address"
            },
            {
              "internalType": "string",
              "name": "title",
              "type": "string"
            },
            {
              "internalType": "uint256",
              "name": "amount",
              "type": "uint256"
            },
            {
              "internalType": "string",
              "name": "category",
              "type": "string"
            },
            {
              "internalType": "string",
              "name": "description",
              "type": "string"
            },
            {
              "internalType": "enum IDisputeResolution.DisputeReason",
              "name": "reason",
              "type": "uint8"
            },
            {
              "internalType": "uint256",
              "name": "votesForClient",
              "type": "uint256"
            },
            {
              "internalType": "uint256",
              "name": "votesForFreelancer",
              "type": "uint256"
            },
            {
              "internalType": "enum IDisputeResolution.DisputeStatus",
              "name": "status",
              "type": "uint8"
            },
            {
              "internalType": "address",
              "name": "winner",
              "type": "address"
            },
            {
              "internalType": "bool",
              "name": "exists",
              "type": "bool"
            },
            {
              "internalType": "uint256",
              "name": "createdAt",
              "type": "uint256"
            }
          ],
          "internalType": "struct FreelanceDAODisputeV2.Dispute[]",
          "name": "",
          "type": "tuple[]"
        }
      ],
      "stateMutability": "view",
      "type": "function"
    },
    {
      "inputs": [
        {
          "internalType": "uint256",
          "name": "disputeId",
          "type": "uint256"
        }
      ],
      "name": "markDisputeExecuted",
      "outputs": [],
      "stateMutability": "nonpayable",
      "type": "function"
    },
    {
      "inputs": [],
      "name": "nextDisputeId",
      "outputs": [
        {
          "internalType": "uint256",
          "name": "",
          "type": "uint256"
        }
      ],
      "stateMutability": "view",
      "type": "function"
    },
    {
      "inputs": [],
      "name": "owner",
      "outputs": [
        {
          "internalType": "address",
          "name": "",
          "type": "address"
        }
      ],
      "stateMutability": "view",
      "type": "function"
    },
    {
      "inputs": [],
      "name": "quorum",
      "outputs": [
        {
          "internalType": "uint256",
          "name": "",
          "type": "uint256"
        }
      ],
      "stateMutability": "view",
      "type": "function"
    },
    {
      "inputs": [
        {
          "internalType": "address",
          "name": "member",
          "type": "address"
        }
      ],
      "name": "removeDaoMember",
      "outputs": [],
      "stateMutability": "nonpayable",
      "type": "function"
    },
    {
      "inputs": [],
      "name": "renounceOwnership",
      "outputs": [],
      "stateMutability": "nonpayable",
      "type": "function"
    },
    {
      "inputs": [
        {
          "internalType": "enum IDisputeResolution.DisputeReason",
          "name": "reason",
          "type": "uint8"
        }
      ],
      "name": "requiresDAOVote",
      "outputs": [
        {
          "internalType": "bool",
          "name": "",
          "type": "bool"
        }
      ],
      "stateMutability": "pure",
      "type": "function"
    },
    {
      "inputs": [
        {
          "internalType": "address",
          "name": "_newTreasury",
          "type": "address"
        }
      ],
      "name": "setDaoTreasury",
      "outputs": [],
      "stateMutability": "nonpayable",
      "type": "function"
    },
    {
      "inputs": [
        {
          "internalType": "uint256",
          "name": "_newFee",
          "type": "uint256"
        }
      ],
      "name": "setDisputeCreationFee",
      "outputs": [],
      "stateMutability": "nonpayable",
      "type": "function"
    },
    {
      "inputs": [
        {
          "internalType": "address",
          "name": "_escrowContract",
          "type": "address"
        }
      ],
      "name": "setEscrowContract",
      "outputs": [],
      "stateMutability": "nonpayable",
      "type": "function"
    },
    {
      "inputs": [
        {
          "internalType": "uint256",
          "name": "_newQuorum",
          "type": "uint256"
        }
      ],
      "name": "setQuorum",
      "outputs": [],
      "stateMutability": "nonpayable",
      "type": "function"
    },
    {
      "inputs": [
        {
          "internalType": "address",
          "name": "newOwner",
          "type": "address"
        }
      ],
      "name": "transferOwnership",
      "outputs": [],
      "stateMutability": "nonpayable",
      "type": "function"
    },
    {
      "inputs": [
        {
          "internalType": "uint256",
          "name": "disputeId",
          "type": "uint256"
        },
        {
          "internalType": "bool",
          "name": "voteForClient",
          "type": "bool"
        }
      ],
      "name": "voteOnDispute",
      "outputs": [],
      "stateMutability": "nonpayable",
      "type": "function"
    },
    {
      "stateMutability": "payable",
      "type": "receive"
    }
  ],
  "bytecode": "0x6080346200016c576200240290601f38839003908101601f19168201906001600160401b038211838310176200017157808391604095869485528339810103126200016c5780516020909101516001600160a01b038082169290918390036200016c57331562000154576000549160018060a01b03199233848216176000558551913391167f8be0079c531659141344cd1fd0a4f28419497f9722a3daafe3b4186f6b6457e0600080a3600180556001600255671bc16d674ec8000060045581156200011d57508215620000e65760035560065416176006555161227a9081620001888239f35b835162461bcd60e51b815260206004820152601060248201526f496e76616c696420747265617375727960801b6044820152606490fd5b62461bcd60e51b8152602060048201526012602482015271051756f72756d206d757374206265203e20360741b6044820152606490fd5b8351631e4fbdf760e01b815260006004820152602490fd5b600080fd5b634e487b7160e01b600052604160045260246000fdfe608080604052600436101561001d575b50361561001b57600080fd5b005b600090813560e01c9081630db3993414611b33575080631703a01814611b155780631dd9997f14611a6f578063203d82cb14611a2657806324bfe9c9146119f257806339f0a71114611980578063578573951461188d5780635feaa01c146117da578063715018a61461178057806379022a9f14611757578063802f022c14611599578063864defa2146114a85780638da5cb5b14611481578063959068ea146114425780639d28c026146112f25780639ff2369f14610b97578063a124df5d14610ad7578063a4f5df1214610622578063b699e4ed146104cd578063bd0d429a146104af578063bfb0a55b14610411578063c1ba4e591461037c578063dc726df714610327578063e3a96cbd146102c8578063e42a96e71461029f578063f2fde38b1461020f5763f42375b50361000f573461020c57602036600319011261020c57610168611d1a565b610170611d5e565b6001600160a01b038181169182156101d657600554604080516001600160a01b0394831685168152929093166020830152917fb4314795ba509f4f6e4f54698ebcf794fed2c1ba8199f5d0024b3f792eb606d191a16001600160a01b0319161760055580f35b60405162461bcd60e51b815260206004820152600e60248201526d496e76616c696420657363726f7760901b6044820152606490fd5b80fd5b503461020c57602036600319011261020c57610229611d1a565b610231611d5e565b6001600160a01b0390811690811561028657600054826bffffffffffffffffffffffff60a01b821617600055167f8be0079c531659141344cd1fd0a4f28419497f9722a3daafe3b4186f6b6457e0600080a380f35b604051631e4fbdf760e01b815260048101849052602490fd5b503461020c578060031936011261020c576005546040516001600160a01b039091168152602090f35b503461020c57602036600319011261020c5761030f6040610323926102eb611fc5565b50600435815260086020522061030a60ff600b83015460a81c16611edb565b6120dd565b604051918291602083526020830190611bbc565b0390f35b503461020c57602036600319011261020c57600435610344611d5e565b7fe8fc23e21608aa8e92faee11af5686b6aa7531796f68f2f943bb0d893c4312c960406004548151908152836020820152a160045580f35b503461020c57602036600319011261020c57600435610399611d5e565b80156103d7577f6784e9bcb845caaa98267d7b0918f97d3d17f7cb35a05b52010f7eb587a0acb060406003548151908152836020820152a160035580f35b60405162461bcd60e51b8152602060048201526012602482015271051756f72756d206d757374206265203e20360741b6044820152606490fd5b503461020c576020806003193601126104ab576001600160a01b03610434611d1a565b168252600a8152604082209182549161044c836121e0565b93825b84811061046457604051806103238882611c9d565b806104726104a69284611de9565b90549060031b1c85526008845261048b604086206120dd565b6104958289612230565b526104a08188612230565b50611d8a565b61044f565b5080fd5b503461020c578060031936011261020c576020600454604051908152f35b503461020c576020806003193601126104ab5760043591600483101561020c57600254918160015b8481106105b25750610506906121e0565b93829160015b85811061052157604051806103238982611c9d565b806105549186526008808452604087208560ff8381600b85015460a81c169384610590575b505050506105595750611d8a565b61050c565b8187528352610589604087209561057861057282611d8a565b976120dd565b610582828c612230565b5289612230565b50386104a0565b01549192501661059f82611b8f565b6105a881611b8f565b1485388381610546565b808452600880845286604086209160ff9081600b85015460a81c169384610600575b505050506105eb575b6105e690611d8a565b6104f5565b906105f86105e691611d8a565b9190506105dd565b01549192501661060f82611b8f565b61061881611b8f565b14863880806105d4565b503461020c57604036600319011261020c5760249081356004358115158203610ad35761064d611f1b565b3383526020906007825260ff918260408620541615610a9057818552600881526040852083600b820154610685828260a81c16611edb565b166005811015610a7d57610a485782865260098252604086203360005282528360406000205416610a14576106bf84600883015416611fad565b156109bd57828652600982526040862033600052825260406000209060019560ff1992878482541617905560001461096257600981016106ff8154611d8a565b90556040518381526006848201526510d31251539560d21b6040820152847ff707341d6361ac6d7fe6b6db1fbb91b1d8634754ce51f2244ccbfab475d327f460603393a35b600a6009820154910154810180911161094d576003541115610768575b8585805580f35b828652600882526040862090600b820180549186831690600582101561093a5787936107958a9315611f3e565b6009860154600a870154808211156108eb575050835491909116919091178083556002850154610100600160a81b031990911660089190911b610100600160a81b0316178255505b549760018060a01b0398857f06bf88bd8b6aff59b88535f2f8f640d7fed506a8d91627944e53073b12afdc5760408c8460081c16998a941695600888015416978882519161082b838a611baf565b61083482611b8f565b820152a360058210156108d957509486978180989714610859575b5050949394610761565b600554169101549261086a83611b8f565b61087383611b8f565b813b156108d55785809461089d60405197889687958694636e45f15160e11b865260048601611f7d565b03925af180156108ca576108b6575b808080858161084f565b6108bf90611e67565b6104ab5781386108ac565b6040513d84823e3d90fd5b8580fd5b634e487b7160e01b8852602160045287fd5b11156109235750825416178082556003840154610100600160a81b031990911660089190911b610100600160a81b03161781556107dd565b6001600160a81b0319166002178355506107dd9050565b634e487b7160e01b8a5260216004528a8afd5b87634e487b7160e01b60005260116004526000fd5b600a81016109708154611d8a565b9055604051838152600a8482015269232922a2a620a721a2a960b11b6040820152847ff707341d6361ac6d7fe6b6db1fbb91b1d8634754ce51f2244ccbfab475d327f460603393a3610744565b60405162461bcd60e51b815260048101839052602a818901527f546869732064697370757465207479706520646f65736e277420726571756972604482015269652044414f20766f746560b01b6064820152608490fd5b60405162461bcd60e51b815260048101839052600d818901526c105b1c9958591e481d9bdd1959609a1b6044820152606490fd5b60405162461bcd60e51b815260048101839052600e818901526d111a5cdc1d5d194818db1bdcd95960921b6044820152606490fd5b634e487b7160e01b875260216004528787fd5b6064906019876040519262461bcd60e51b845260048401528201527f4f6e6c792044414f206d656d626572732063616e20766f7465000000000000006044820152fd5b8280fd5b503461020c57602036600319011261020c57610af1611d1a565b610af9611d5e565b6001600160a01b03818116918215610b5f57600654604080516001600160a01b0394831685168152929093166020830152917f405b911135779fbe6ca1eb08e756497b632d5fbff59644b7d60ea3ea95caf53991a16001600160a01b0319161760065580f35b60405162461bcd60e51b815260206004820152601060248201526f496e76616c696420747265617375727960801b6044820152606490fd5b5060e036600319011261020c57610bac611cff565b9060443567ffffffffffffffff81116104ab57610bcd903690600401611d30565b929060843567ffffffffffffffff81116112ee57610bef903690600401611d30565b60a43567ffffffffffffffff81116108d557610c0f903690600401611d30565b939096600460c43510156112ea5760045434106112a5576001600160a01b0386161561126b576005546001600160a01b0316156112355760025496610c5388611d8a565b6002908155888252600860205260408220898155600435600182015590810180546001600160a01b031990811633179091556003820180549091166001600160a01b038a1617905567ffffffffffffffff83116110ad57610cb76004820154611daf565b601f81116111f0575b508282601f821160011461118657839161117b575b508360011b906000198560031b1c19161760048201555b606435600582015567ffffffffffffffff85116110ad57610d106006820154611daf565b601f8111611136575b508482601f82116001146110cc5783916110c1575b508560011b906000198760031b1c19161760068201555b67ffffffffffffffff87116110ad57610d616007820154611daf565b601f8111611068575b508682601f8211600114610ffc578391610ff1575b508760011b906000198960031b1c19161760078201555b60088101610da560c435611b8f565b805460ff191660ff60c43516179055600b81018054600160a81b60ff60ff60a81b011990911617905542600c90910155338152600a60205260408120610dec908990611e17565b336001600160a01b03881603610fcc575b34610f2a575b6005546001600160a01b0316610e1a60c435611b8f565b610e2860ff60c43516611b8f565b803b156104ab5781809160648b6040519485938492632a8fe88960e01b845260043560048501526024840152610e6260ff60c43516611b8f565b60ff60c4351660448401525af180156108ca57610f16575b505092610ecf9492610eab610ec19360209a966040519960018060a01b03168a5260c08c8b015260c08a0191611eba565b9160643560408901528783036060890152611eba565b918483036080860152611eba565b610eda60c435611b8f565b60c43560a0830152827f954ddec16589082fc2358352dacd04c7f0b9e1c9201289852a96f471a12bdb19339380600435940390a4604051908152f35b610f208291611e67565b61020c5780610e7a565b808080803460018060a01b03600654165af13d15610fc7573d67ffffffffffffffff8111610fb35760405190610f6a601f8201601f191660200183611e98565b81528260203d92013e5b610e035760405162461bcd60e51b8152602060048201526013602482015272119959481d1c985b9cd9995c8819985a5b1959606a1b6044820152606490fd5b634e487b7160e01b83526041600452602483fd5b610f74565b6001600160a01b0387168152600a60205260408120610fec908990611e17565b610dfd565b90508a013538610d7f565b600783018452602084209150835b8c601f198b16821061105057505088601f19811610611036575b5050600187811b016007820155610d96565b8b013560001960038a901b60f8161c191690553880611024565b6001839460209394849301358155019301910161100a565b60078201835260208320601f890160051c810160208a106110a6575b601f830160051c8201811061109a575050610d6a565b60008155600101611084565b5080611084565b634e487b7160e01b82526041600452602482fd5b905086013538610d2e565b600683018452602084209150835b601f198816811061111e575086601f19811610611104575b5050600185811b016006820155610d45565b870135600019600388901b60f8161c1916905538806110f2565b9091602060018192858c0135815501930191016110da565b60068201835260208320601f870160051c810160208810611174575b601f830160051c82018110611168575050610d19565b60008155600101611152565b5080611152565b905084013538610cd5565b600483018452602084209150835b601f19861681106111d8575084601f198116106111be575b5050600183811b016004820155610cec565b850135600019600386901b60f8161c1916905538806111ac565b9091602060018192858a013581550193019101611194565b60048201835260208320601f850160051c81016020861061122e575b601f830160051c82018110611222575050610cc0565b6000815560010161120c565b508061120c565b60405162461bcd60e51b815260206004820152600e60248201526d115cd8dc9bddc81b9bdd081cd95d60921b6044820152606490fd5b60405162461bcd60e51b815260206004820152601260248201527124b73b30b634b210333932b2b630b731b2b960711b6044820152606490fd5b60405162461bcd60e51b815260206004820152601860248201527f496e73756666696369656e7420646973707574652066656500000000000000006044820152606490fd5b8680fd5b8380fd5b503461020c578060031936011261020c576002548160015b8281106113d1575061131b906121e0565b918060015b83811061133557604051806103238782611c9d565b80835260086020818152600b60408620015460ff808260a81c1691826113a7575b50509061136b939291611370575b5050611d8a565b611320565b8286525261139f604085209361138e61138882611d8a565b956120dd565b611398828a612230565b5287612230565b503880611364565b16905060058110156113bd571561136b38611356565b634e487b7160e01b86526021600452602486fd5b8084526008602052600b60408520015460ff808260a81c16918261141a575b5050611405575b61140090611d8a565b61130a565b9061141261140091611d8a565b9190506113f7565b169050600581101561142e571538806113f0565b634e487b7160e01b85526021600452602485fd5b503461020c57602036600319011261020c5760209060ff906040906001600160a01b0361146d611d1a565b168152600784522054166040519015158152f35b503461020c578060031936011261020c57546040516001600160a01b039091168152602090f35b503461020c57602036600319011261020c576114c2611d1a565b6114ca611d5e565b6001600160a01b0316801561156357808252600760205260ff60408320541661152b57808252600760205260408220805460ff191660011790557f35b658d712e45f976c17007529cd1cb687614e83ce49a1ee563570ac818452e68280a280f35b60405162461bcd60e51b815260206004820152601060248201526f20b63932b0b23c90309036b2b6b132b960811b6044820152606490fd5b60405162461bcd60e51b815260206004820152600e60248201526d24b73b30b634b21036b2b6b132b960911b6044820152606490fd5b503461020c57602036600319011261020c576004356115b6611f1b565b808252600860205260408220600b8101918254916115d960ff8460a81c16611edb565b60ff831660058110156113bd576115f09015611f3e565b600881019160ff83541661160381611fad565b61171e5760ff95879582611618600194611b8f565b156116e3575b505493818060a01b0390837f06bf88bd8b6aff59b88535f2f8f640d7fed506a8d91627944e53073b12afdc5760408a611667868b60081c169c8d9654169a835192839116611baf565b6116708a611b8f565b896020820152a36005541692015461168784611b8f565b61169084611b8f565b823b156116df5784906116b960405197889687958694636e45f15160e11b865260048601611f7d565b03925af180156108ca576116d0575b506001805580f35b6116d990611e67565b386116c8565b8480fd5b87191682178082556003850154610100600160a81b0360a085901b85900390911660081b16610100600160a81b03199091161781553861161e565b60405162461bcd60e51b815260206004820152601160248201527052657175697265732044414f20766f746560781b6044820152606490fd5b503461020c578060031936011261020c576006546040516001600160a01b039091168152602090f35b503461020c578060031936011261020c57611799611d5e565b80546001600160a01b03198116825581906001600160a01b03167f8be0079c531659141344cd1fd0a4f28419497f9722a3daafe3b4186f6b6457e08280a380f35b503461020c57602036600319011261020c576117f4611d1a565b6117fc611d5e565b6001600160a01b03168082526007602052604082205460ff161561185557808252600760205260408220805460ff191690557f1806bec4ba806283d7bedad066d84ceeaac768b71c22e1743d9508650135a3f38280a280f35b60405162461bcd60e51b815260206004820152601060248201526f2737ba1030902220a79036b2b6b132b960811b6044820152606490fd5b503461020c57602036600319011261020c57600554600435906001600160a01b0316330361194d578082526008602052600b604083200180546118d560ff8260a81c16611edb565b60ff8116600581101561142e576001036119195760ff191660041790557fc69f94b4c4525853939f5f9788c75d9a798c6e4b56150e398191cf0ec9cc76f08280a280f35b60405162461bcd60e51b815260206004820152600c60248201526b139bdd081c995cdbdb1d995960a21b6044820152606490fd5b60405162461bcd60e51b815260206004820152600b60248201526a4f6e6c7920657363726f7760a81b6044820152606490fd5b503461020c57602036600319011261020c57604060609160043581526008602052206119f060ff6008600b840154936119bd838660a81c16611edb565b0154604051600885901c6001600160a01b031681529391166119de81611b8f565b602084015260ff604084019116611baf565bf35b503461020c57602036600319011261020c5760043590600482101561020c576020611a1c83611fad565b6040519015158152f35b503461020c57604036600319011261020c5760ff6040602092611a47611cff565b6004358252600985528282206001600160a01b03909116825284522054604051911615158152f35b503461020c578060031936011261020c576002546000198101908111611b0157611a98816121e0565b90825b818110611ab057604051806103238582611c9d565b60018101808211611aed5790611ae89185526008602052611ad3604086206120dd565b611add8286612230565b526104a08185612230565b611a9b565b634e487b7160e01b85526011600452602485fd5b634e487b7160e01b82526011600452602482fd5b503461020c578060031936011261020c576020600354604051908152f35b9050346104ab57816003193601126104ab576020906002548152f35b919082519283825260005b848110611b7b575050826000602080949584010152601f8019910116010190565b602081830181015184830182015201611b5a565b60041115611b9957565b634e487b7160e01b600052602160045260246000fd5b906005821015611b995752565b90815181526020820151602082015260018060a01b0391826040820151166040830152826060820151166060830152611c38611c26611c0a60808401516101e0806080880152860190611b4f565b60a084015160a086015260c084015185820360c0870152611b4f565b60e083015184820360e0860152611b4f565b926101008083015190611c4a82611b8f565b84015261012080830151908401526101408083015190840152611c766101608084015190850190611baf565b610180908183015116908301526101a0808201511515908301526101c08091015191015290565b602080820190808352835180925260408301928160408460051b8301019501936000915b848310611cd15750505050505090565b9091929394958480611cef600193603f198682030187528a51611bbc565b9801930193019194939290611cc1565b602435906001600160a01b0382168203611d1557565b600080fd5b600435906001600160a01b0382168203611d1557565b9181601f84011215611d155782359167ffffffffffffffff8311611d155760208381860195010111611d1557565b6000546001600160a01b03163303611d7257565b60405163118cdaa760e01b8152336004820152602490fd5b6000198114611d995760010190565b634e487b7160e01b600052601160045260246000fd5b90600182811c92168015611ddf575b6020831014611dc957565b634e487b7160e01b600052602260045260246000fd5b91607f1691611dbe565b8054821015611e015760005260206000200190600090565b634e487b7160e01b600052603260045260246000fd5b805468010000000000000000811015611e5157611e3991600182018155611de9565b819291549060031b91821b91600019901b1916179055565b634e487b7160e01b600052604160045260246000fd5b67ffffffffffffffff8111611e5157604052565b6101e0810190811067ffffffffffffffff821117611e5157604052565b90601f8019910116810190811067ffffffffffffffff821117611e5157604052565b908060209392818452848401376000828201840152601f01601f1916010190565b15611ee257565b60405162461bcd60e51b8152602060048201526011602482015270111a5cdc1d5d19481b9bdd08199bdd5b99607a1b6044820152606490fd5b600260015414611f2c576002600155565b604051633ee5aeb560e01b8152600490fd5b15611f4557565b60405162461bcd60e51b815260206004820152601060248201526f105b1c9958591e481c995cdbdb1d995960821b6044820152606490fd5b9260609295949195608085019685526020850152611f9a81611b8f565b60408401526001600160a01b0316910152565b611fb681611b8f565b15611fc057600190565b600090565b60405190611fd282611e7b565b816101c0600091828152826020820152826040820152826060820152606060808201528260a0820152606060c0820152606060e08201528261010082015282610120820152826101408201528261016082015282610180820152826101a08201520152565b906040519182600082549261204b84611daf565b9081845260019485811690816000146120ba5750600114612077575b505061207592500383611e98565b565b9093915060005260209081600020936000915b8183106120a257505061207593508201013880612067565b8554888401850152948501948794509183019161208a565b91505061207594506020925060ff191682840152151560051b8201013880612067565b906040516120ea81611e7b565b825481526001830154602082015260028301546001600160a01b0390811660408301526003840154811660608301529092839161212960048301612037565b6080840152600582015460a084015261214460068301612037565b60c084015261215560078301612037565b60e084015260ff60088301541661216b81611b8f565b6101008401526009820154610120840152600a820154610140840152600b8201549160ff83166005811015611b99576101c093600c9360ff926101608801528160081c1661018087015260a81c1615156101a08501520154910152565b67ffffffffffffffff8111611e515760051b60200190565b906121ea826121c8565b6121f76040519182611e98565b8281528092612208601f19916121c8565b019060005b82811061221957505050565b602090612224611fc5565b8282850101520161220d565b8051821015611e015760209160051b01019056fea2646970667358221220b58e55c64d7fb4c23f02bf0f70f1d550d0a0678c65507312fbbd72bcdf0eea0864736f6c63430008140033",
  "linkReferences": {},
  "deployedLinkReferences": {}
}