{"contracts/FreelanceDAOEscrowV2.sol":{"FreelanceDAOEscrowV2":{"abi":[{"inputs":[{"internalType":"address","name":"_daoTreasury","type":"address"},{"internalType":"address","name":"_owner","type":"address"}],"stateMutability":"nonpayable","type":"constructor"},{"inputs":[{"internalType":"address","name":"owner","type":"address"}],"name":"OwnableInvalidOwner","type":"error"},{"inputs":[{"internalType":"address","name":"account","type":"address"}],"name":"OwnableUnauthorizedAccount","type":"error"},{"inputs":[],"name":"ReentrancyGuardReentrantCall","type":"error"},{"anonymous":false,"inputs":[{"indexed":true,"internalType":"address","name":"freelancer","type":"address"},{"indexed":false,"internalType":"uint256[]","name":"jobIds","type":"uint256[]"},{"indexed":false,"internalType":"uint256","name":"totalNet","type":"uint256"},{"indexed":false,"internalType":"uint256","name":"totalFee","type":"uint256"}],"name":"BatchWithdrawal","type":"event"},{"anonymous":false,"inputs":[{"indexed":false,"internalType":"address","name":"oldTreasury","type":"address"},{"indexed":false,"internalType":"address","name":"newTreasury","type":"address"}],"name":"DaoTreasuryUpdated","type":"event"},{"anonymous":false,"inputs":[{"indexed":true,"internalType":"uint256","name":"jobId","type":"uint256"},{"indexed":true,"internalType":"uint256","name":"milestoneIndex","type":"uint256"},{"indexed":true,"internalType":"address","name":"provider","type":"address"},{"indexed":false,"internalType":"bool","name":"isLate","type":"bool"}],"name":"DeliveryMarked","type":"event"},{"anonymous":false,"inputs":[{"indexed":false,"internalType":"address","name":"oldContract","type":"address"},{"indexed":false,"internalType":"address","name":"newContract","type":"address"}],"name":"DisputeContractUpdated","type":"event"},{"anonymous":false,"inputs":[{"indexed":true,"internalType":"uint256","name":"jobId","type":"uint256"},{"indexed":true,"internalType":"uint256","name":"disputeId","type":"uint256"},{"indexed":false,"internalType":"enum IEscrow.DisputeReason","name":"reason","type":"uint8"}],"name":"DisputeNotificationReceived","type":"event"},{"anonymous":false,"inputs":[{"indexed":true,"internalType":"uint256","name":"jobId","type":"uint256"},{"indexed":true,"internalType":"uint256","name":"disputeId","type":"uint256"},{"indexed":false,"internalType":"enum IEscrow.DisputeReason","name":"reason","type":"uint8"},{"indexed":false,"internalType":"address","name":"winner","type":"address"}],"name":"DisputeResolutionReceived","type":"event"},{"anonymous":false,"inputs":[{"indexed":true,"internalType":"uint256","name":"jobId","type":"uint256"},{"indexed":false,"internalType":"uint256","name":"amount","type":"uint256"}],"name":"FixedJobConfirmed","type":"event"},{"anonymous":false,"inputs":[{"indexed":true,"internalType":"uint256","name":"jobId","type":"uint256"}],"name":"JobCancelled","type":"event"},{"anonymous":false,"inputs":[{"indexed":true,"internalType":"uint256","name":"jobId","type":"uint256"},{"indexed":false,"internalType":"enum FreelanceDAOEscrowV2.JobType","name":"jobType","type":"uint8"},{"indexed":true,"internalType":"address","name":"client","type":"address"},{"indexed":false,"internalType":"uint256","name":"totalAmount","type":"uint256"},{"indexed":false,"internalType":"uint256","name":"deadline","type":"uint256"}],"name":"JobCreated","type":"event"},{"anonymous":false,"inputs":[{"indexed":true,"internalType":"uint256","name":"jobId","type":"uint256"},{"indexed":false,"internalType":"uint256","name":"amount","type":"uint256"}],"name":"JobFunded","type":"event"},{"anonymous":false,"inputs":[{"indexed":true,"internalType":"uint256","name":"jobId","type":"uint256"},{"indexed":false,"internalType":"uint256","name":"refundedAmount","type":"uint256"}],"name":"JobRefunded","type":"event"},{"anonymous":false,"inputs":[{"indexed":true,"internalType":"uint256","name":"jobId","type":"uint256"}],"name":"LateDeliveryPenaltyApplied","type":"event"},{"anonymous":false,"inputs":[{"indexed":true,"internalType":"uint256","name":"jobId","type":"uint256"},{"indexed":true,"internalType":"uint256","name":"milestoneIndex","type":"uint256"},{"indexed":false,"internalType":"uint256","name":"amount","type":"uint256"}],"name":"MilestoneConfirmed","type":"event"},{"anonymous":false,"inputs":[{"indexed":true,"internalType":"address","name":"previousOwner","type":"address"},{"indexed":true,"internalType":"address","name":"newOwner","type":"address"}],"name":"OwnershipTransferred","type":"event"},{"anonymous":false,"inputs":[{"indexed":true,"internalType":"uint256","name":"jobId","type":"uint256"},{"indexed":true,"internalType":"address","name":"provider","type":"address"}],"name":"ProviderApproved","type":"event"},{"anonymous":false,"inputs":[{"indexed":true,"internalType":"uint256","name":"jobId","type":"uint256"},{"indexed":true,"internalType":"address","name":"provider","type":"address"}],"name":"ProviderRequested","type":"event"},{"anonymous":false,"inputs":[{"indexed":false,"internalType":"address","name":"to","type":"address"},{"indexed":false,"internalType":"uint256","name":"amount","type":"uint256"}],"name":"WithdrawDaoFees","type":"event"},{"anonymous":false,"inputs":[{"indexed":true,"internalType":"uint256","name":"jobId","type":"uint256"},{"indexed":true,"internalType":"address","name":"freelancer","type":"address"},{"indexed":false,"internalType":"uint256","name":"amountNet","type":"uint256"},{"indexed":false,"internalType":"uint256","name":"fee","type":"uint256"},{"indexed":false,"internalType":"bool","name":"isEarlyWithdrawal","type":"bool"}],"name":"WithdrawalMade","type":"event"},{"inputs":[{"internalType":"uint256","name":"jobId","type":"uint256"},{"internalType":"address","name":"provider","type":"address"}],"name":"approveProvider","outputs":[],"stateMutability":"nonpayable","type":"function"},{"inputs":[{"internalType":"uint256[]","name":"jobIds","type":"uint256[]"}],"name":"batchWithdraw","outputs":[],"stateMutability":"nonpayable","type":"function"},{"inputs":[{"internalType":"uint256","name":"jobId","type":"uint256"}],"name":"cancelJob","outputs":[],"stateMutability":"nonpayable","type":"function"},{"inputs":[{"internalType":"uint256","name":"jobId","type":"uint256"}],"name":"clientRequestRefund","outputs":[],"stateMutability":"nonpayable","type":"function"},{"inputs":[{"internalType":"uint256","name":"jobId","type":"uint256"}],"name":"confirmFixedJob","outputs":[],"stateMutability":"nonpayable","type":"function"},{"inputs":[{"internalType":"uint256","name":"jobId","type":"uint256"},{"internalType":"uint256","name":"milestoneIndex","type":"uint256"}],"name":"confirmMilestone","outputs":[],"stateMutability":"nonpayable","type":"function"},{"inputs":[{"components":[{"internalType":"string","name":"jobTitle","type":"string"},{"internalType":"string","name":"jobCategory","type":"string"},{"internalType":"string","name":"projectDescription","type":"string"},{"internalType":"string[]","name":"requiredSkills","type":"string[]"},{"internalType":"string","name":"projectDuration","type":"string"},{"internalType":"uint256","name":"minimumBudget","type":"uint256"},{"internalType":"uint256","name":"maximumBudget","type":"uint256"},{"internalType":"uint256","name":"deadline","type":"uint256"}],"internalType":"struct FreelanceDAOEscrowV2.JobParams","name":"params","type":"tuple"}],"name":"createFixedJob","outputs":[{"internalType":"uint256","name":"","type":"uint256"}],"stateMutability":"payable","type":"function"},{"inputs":[{"internalType":"uint256[]","name":"milestoneAmounts","type":"uint256[]"},{"components":[{"internalType":"string","name":"jobTitle","type":"string"},{"internalType":"string","name":"jobCategory","type":"string"},{"internalType":"string","name":"projectDescription","type":"string"},{"internalType":"string[]","name":"requiredSkills","type":"string[]"},{"internalType":"string","name":"projectDuration","type":"string"},{"internalType":"uint256","name":"minimumBudget","type":"uint256"},{"internalType":"uint256","name":"maximumBudget","type":"uint256"},{"internalType":"uint256","name":"deadline","type":"uint256"}],"internalType":"struct FreelanceDAOEscrowV2.JobParams","name":"params","type":"tuple"}],"name":"createMilestoneJob","outputs":[{"internalType":"uint256","name":"","type":"uint256"}],"stateMutability":"payable","type":"function"},{"inputs":[],"name":"daoTreasury","outputs":[{"internalType":"address","name":"","type":"address"}],"stateMutability":"view","type":"function"},{"inputs":[],"name":"disputeContract","outputs":[{"internalType":"address","name":"","type":"address"}],"stateMutability":"view","type":"function"},{"inputs":[{"internalType":"uint256","name":"","type":"uint256"}],"name":"freelancerEarnings","outputs":[{"internalType":"uint256","name":"","type":"uint256"}],"stateMutability":"view","type":"function"},{"inputs":[{"internalType":"uint256","name":"jobId","type":"uint256"}],"name":"fundJob","outputs":[],"stateMutability":"payable","type":"function"},{"inputs":[],"name":"getAllJobs","outputs":[{"components":[{"internalType":"uint256","name":"jobId","type":"uint256"},{"internalType":"enum FreelanceDAOEscrowV2.JobType","name":"jobType","type":"uint8"},{"internalType":"address","name":"client","type":"address"},{"internalType":"address","name":"freelancer","type":"address"},{"internalType":"uint256","name":"totalAmount","type":"uint256"},{"internalType":"uint256","name":"minimumBudget","type":"uint256"},{"internalType":"uint256","name":"maximumBudget","type":"uint256"},{"internalType":"uint256","name":"confirmedAmount","type":"uint256"},{"internalType":"uint256","name":"withdrawnAmount","type":"uint256"},{"internalType":"uint256","name":"createdAt","type":"uint256"},{"internalType":"uint256","name":"deadline","type":"uint256"},{"internalType":"enum FreelanceDAOEscrowV2.Status","name":"status","type":"uint8"},{"internalType":"bool","name":"funded","type":"bool"},{"internalType":"bool","name":"lateDeliveryPenalty","type":"bool"},{"internalType":"bool","name":"isLate","type":"bool"},{"components":[{"internalType":"uint256","name":"amount","type":"uint256"},{"internalType":"bool","name":"confirmed","type":"bool"},{"internalType":"bool","name":"delivered","type":"bool"},{"internalType":"bool","name":"withdrawn","type":"bool"},{"internalType":"uint256","name":"withdrawnAt","type":"uint256"}],"internalType":"struct FreelanceDAOEscrowV2.Milestone[]","name":"milestones","type":"tuple[]"},{"internalType":"string","name":"jobTitle","type":"string"},{"internalType":"string","name":"jobCategory","type":"string"},{"internalType":"string","name":"projectDescription","type":"string"},{"internalType":"string[]","name":"requiredSkills","type":"string[]"},{"internalType":"string","name":"projectDuration","type":"string"},{"internalType":"bool","name":"exists","type":"bool"}],"internalType":"struct FreelanceDAOEscrowV2.Job[]","name":"","type":"tuple[]"}],"stateMutability":"view","type":"function"},{"inputs":[{"internalType":"uint256","name":"jobId","type":"uint256"}],"name":"getAvailableWithdrawal","outputs":[{"internalType":"uint256","name":"","type":"uint256"}],"stateMutability":"view","type":"function"},{"inputs":[{"internalType":"address","name":"freelancer","type":"address"}],"name":"getFreelancerJobs","outputs":[{"internalType":"uint256[]","name":"","type":"uint256[]"}],"stateMutability":"view","type":"function"},{"inputs":[{"internalType":"uint256","name":"jobId","type":"uint256"}],"name":"getJob","outputs":[{"components":[{"internalType":"uint256","name":"jobId","type":"uint256"},{"internalType":"enum FreelanceDAOEscrowV2.JobType","name":"jobType","type":"uint8"},{"internalType":"address","name":"client","type":"address"},{"internalType":"address","name":"freelancer","type":"address"},{"internalType":"uint256","name":"totalAmount","type":"uint256"},{"internalType":"uint256","name":"minimumBudget","type":"uint256"},{"internalType":"uint256","name":"maximumBudget","type":"uint256"},{"internalType":"uint256","name":"confirmedAmount","type":"uint256"},{"internalType":"uint256","name":"withdrawnAmount","type":"uint256"},{"internalType":"uint256","name":"createdAt","type":"uint256"},{"internalType":"uint256","name":"deadline","type":"uint256"},{"internalType":"enum FreelanceDAOEscrowV2.Status","name":"status","type":"uint8"},{"internalType":"bool","name":"funded","type":"bool"},{"internalType":"bool","name":"lateDeliveryPenalty","type":"bool"},{"internalType":"bool","name":"isLate","type":"bool"},{"components":[{"internalType":"uint256","name":"amount","type":"uint256"},{"internalType":"bool","name":"confirmed","type":"bool"},{"internalType":"bool","name":"delivered","type":"bool"},{"internalType":"bool","name":"withdrawn","type":"bool"},{"internalType":"uint256","name":"withdrawnAt","type":"uint256"}],"internalType":"struct FreelanceDAOEscrowV2.Milestone[]","name":"milestones","type":"tuple[]"},{"internalType":"string","name":"jobTitle","type":"string"},{"internalType":"string","name":"jobCategory","type":"string"},{"internalType":"string","name":"projectDescription","type":"string"},{"internalType":"string[]","name":"requiredSkills","type":"string[]"},{"internalType":"string","name":"projectDuration","type":"string"},{"internalType":"bool","name":"exists","type":"bool"}],"internalType":"struct FreelanceDAOEscrowV2.Job","name":"","type":"tuple"}],"stateMutability":"view","type":"function"},{"inputs":[{"internalType":"address","name":"client","type":"address"}],"name":"getJobsByClient","outputs":[{"components":[{"internalType":"uint256","name":"jobId","type":"uint256"},{"internalType":"enum FreelanceDAOEscrowV2.JobType","name":"jobType","type":"uint8"},{"internalType":"address","name":"client","type":"address"},{"internalType":"address","name":"freelancer","type":"address"},{"internalType":"uint256","name":"totalAmount","type":"uint256"},{"internalType":"uint256","name":"minimumBudget","type":"uint256"},{"internalType":"uint256","name":"maximumBudget","type":"uint256"},{"internalType":"uint256","name":"confirmedAmount","type":"uint256"},{"internalType":"uint256","name":"withdrawnAmount","type":"uint256"},{"internalType":"uint256","name":"createdAt","type":"uint256"},{"internalType":"uint256","name":"deadline","type":"uint256"},{"internalType":"enum FreelanceDAOEscrowV2.Status","name":"status","type":"uint8"},{"internalType":"bool","name":"funded","type":"bool"},{"internalType":"bool","name":"lateDeliveryPenalty","type":"bool"},{"internalType":"bool","name":"isLate","type":"bool"},{"components":[{"internalType":"uint256","name":"amount","type":"uint256"},{"internalType":"bool","name":"confirmed","type":"bool"},{"internalType":"bool","name":"delivered","type":"bool"},{"internalType":"bool","name":"withdrawn","type":"bool"},{"internalType":"uint256","name":"withdrawnAt","type":"uint256"}],"internalType":"struct FreelanceDAOEscrowV2.Milestone[]","name":"milestones","type":"tuple[]"},{"internalType":"string","name":"jobTitle","type":"string"},{"internalType":"string","name":"jobCategory","type":"string"},{"internalType":"string","name":"projectDescription","type":"string"},{"internalType":"string[]","name":"requiredSkills","type":"string[]"},{"internalType":"string","name":"projectDuration","type":"string"},{"internalType":"bool","name":"exists","type":"bool"}],"internalType":"struct FreelanceDAOEscrowV2.Job[]","name":"","type":"tuple[]"}],"stateMutability":"view","type":"function"},{"inputs":[{"internalType":"uint256","name":"jobId","type":"uint256"},{"internalType":"uint256","name":"idx","type":"uint256"}],"name":"getMilestone","outputs":[{"internalType":"uint256","name":"amount","type":"uint256"},{"internalType":"bool","name":"confirmed","type":"bool"},{"internalType":"bool","name":"delivered","type":"bool"},{"internalType":"bool","name":"withdrawn","type":"bool"},{"internalType":"uint256","name":"withdrawnAt","type":"uint256"}],"stateMutability":"view","type":"function"},{"inputs":[{"internalType":"uint256","name":"jobId","type":"uint256"}],"name":"getMilestonesForJob","outputs":[{"components":[{"internalType":"uint256","name":"amount","type":"uint256"},{"internalType":"bool","name":"confirmed","type":"bool"},{"internalType":"bool","name":"delivered","type":"bool"},{"internalType":"bool","name":"withdrawn","type":"bool"},{"internalType":"uint256","name":"withdrawnAt","type":"uint256"}],"internalType":"struct FreelanceDAOEscrowV2.Milestone[]","name":"","type":"tuple[]"}],"stateMutability":"view","type":"function"},{"inputs":[{"internalType":"uint256","name":"jobId","type":"uint256"}],"name":"isJobLate","outputs":[{"internalType":"bool","name":"","type":"bool"}],"stateMutability":"view","type":"function"},{"inputs":[{"internalType":"uint256","name":"jobId","type":"uint256"},{"internalType":"uint256","name":"milestoneIndex","type":"uint256"}],"name":"markDelivery","outputs":[],"stateMutability":"nonpayable","type":"function"},{"inputs":[],"name":"nextJobId","outputs":[{"internalType":"uint256","name":"","type":"uint256"}],"stateMutability":"view","type":"function"},{"inputs":[{"internalType":"uint256","name":"jobId","type":"uint256"},{"internalType":"uint256","name":"disputeId","type":"uint256"},{"internalType":"enum IEscrow.DisputeReason","name":"reason","type":"uint8"}],"name":"notifyDisputeCreated","outputs":[],"stateMutability":"nonpayable","type":"function"},{"inputs":[{"internalType":"uint256","name":"jobId","type":"uint256"},{"internalType":"uint256","name":"disputeId","type":"uint256"},{"internalType":"enum IEscrow.DisputeReason","name":"reason","type":"uint8"},{"internalType":"address","name":"winner","type":"address"}],"name":"notifyDisputeResolved","outputs":[],"stateMutability":"nonpayable","type":"function"},{"inputs":[],"name":"owner","outputs":[{"internalType":"address","name":"","type":"address"}],"stateMutability":"view","type":"function"},{"inputs":[],"name":"renounceOwnership","outputs":[],"stateMutability":"nonpayable","type":"function"},{"inputs":[{"internalType":"uint256","name":"jobId","type":"uint256"}],"name":"requestJob","outputs":[],"stateMutability":"nonpayable","type":"function"},{"inputs":[{"internalType":"address","name":"","type":"address"},{"internalType":"uint256","name":"","type":"uint256"}],"name":"requested","outputs":[{"internalType":"bool","name":"","type":"bool"}],"stateMutability":"view","type":"function"},{"inputs":[{"internalType":"address","name":"_newTreasury","type":"address"}],"name":"setDaoTreasury","outputs":[],"stateMutability":"nonpayable","type":"function"},{"inputs":[{"internalType":"address","name":"_disputeContract","type":"address"}],"name":"setDisputeContract","outputs":[],"stateMutability":"nonpayable","type":"function"},{"inputs":[],"name":"totalDaoFeesCollected","outputs":[{"internalType":"uint256","name":"","type":"uint256"}],"stateMutability":"view","type":"function"},{"inputs":[{"internalType":"address","name":"newOwner","type":"address"}],"name":"transferOwnership","outputs":[],"stateMutability":"nonpayable","type":"function"},{"inputs":[{"internalType":"uint256","name":"jobId","type":"uint256"}],"name":"withdraw","outputs":[],"stateMutability":"nonpayable","type":"function"},{"inputs":[{"internalType":"uint256","name":"amount","type":"uint256"}],"name":"withdrawDaoFees","outputs":[],"stateMutability":"nonpayable","type":"function"},{"stateMutability":"payable","type":"receive"}],"evm":{"bytecode":{"linkReferences":{},"object":"6080346200013557601f620040c738819003918201601f19168301916001600160401b038311848410176200013a578084926040948552833981010312620001355760206200004e8262000150565b916001600160a01b0391829162000066910162000150565b169081156200011c576000549260018060a01b03199280848616176000558260405195167f8be0079c531659141344cd1fd0a4f28419497f9722a3daafe3b4186f6b6457e0600080a360018055600160055516918215620000da57506002541617600255604051613f619081620001668239f35b62461bcd60e51b815260206004820152601460248201527f496e76616c69642044414f2074726561737572790000000000000000000000006044820152606490fd5b604051631e4fbdf760e01b815260006004820152602490fd5b600080fd5b634e487b7160e01b600052604160045260246000fd5b51906001600160a01b0382168203620001355756fe6080604052600436101561001b575b361561001957600080fd5b005b60003560e01c8062440b311461023a578063194a08b1146102355780631dffa3dc1461023057806322a208061461022b5780632a8fe889146102265780632e1a7d4d146102215780633b3e41021461021c5780634010b84e1461021757806340f70be41461021257806344d23d6f1461020d578063641ca008146102085780636754cc2814610203578063715018a6146101fe57806372e55399146101f957806379022a9f146101f45780638c47a94d146101ef5780638d22b863146101ea5780638da5cb5b146101e55780638ed9895c146101e057806394d246c2146101db578063965a79fb146101d65780639aa85dba146101d1578063a124df5d146101cc578063a5188d1f146101c7578063b02f3013146101c2578063b0c2aa5e146101bd578063b0e36b8f146101b8578063b618d5a7146101b3578063ba510a33146101ae578063bf22c457146101a9578063c021f210146101a4578063dc8be2a21461019f578063ded5ae271461019a5763f2fde38b0361000e57612996565b612978565b61267d565b612576565b6123cd565b612362565b612269565b6120a2565b612084565b611dae565b611d82565b611cf6565b611b75565b611ad7565b6116a2565b6115e3565b6115ba565b6114f3565b6114ad565b611484565b61113e565b6110b0565b611063565b610f1e565b610e92565b610e0e565b610d68565b610c5c565b61090f565b610813565b610760565b61058c565b61031c565b346103085760203660031901126103085760043560009080825260066020526102a961029a600a6040852061027560ff6011830154166130e6565b60018101546102929060081c6001600160a01b0316331415613222565b015460ff1690565b6102a3816117f3565b15613266565b3360009081526007602052604090206102df906102d29083905b90600052602052604060002090565b805460ff19166001179055565b33907f56a170713c65629e3fc7b98f93ea5c49d1cd10debfc5f7ef03cbee95a40b722d8380a380f35b600080fd5b90816101009103126103085790565b6020366003190112610308576004356001600160401b03811161030857601161034c61057a92369060040161030d565b610357341515612ada565b61036d6103648280612b1a565b90501515612b4c565b6040810161038761037e8284612b1a565b90501515612b89565b7fb3d4fc97516c83a6ede9502532ca639d72c51f3352812a26a99c1f6940833d5c61053960e0840135936103bc428611612bcc565b6105156005549687956103d66103d188612c18565b600555565b61046a6104606103f0896000526006602052604060002090565b92898455610429600185016104098160ff198154169055565b8054610100600160a81b0319163360081b610100600160a81b0316179055565b6104406104368880612b1a565b90600c8701612cd5565b61045a6104506020890189612b1a565b90600d8701612cd5565b86612b1a565b90600e8401612cd5565b61048461047a6060860186612da1565b90600f8401612dd6565b61049e6104946080860186612b1a565b9060108401612cd5565b34600382019081559360c09060a08101358015610585575b60048401550135801561057e575b60058201556000600682015560006007820155426008820155876009820155610507600a82016104f88160ff198154169055565b805461ff001916610100179055565b01805460ff19166001179055565b54936040519182913396836040909392919360608101946000825260208201520152565b0390a360405134815281907f9d25c5cf940eed311c45e5a0b4c7c8790a356d3c356453b76bb7e232db3f384a90602090a26040519081529081906020820190565b0390f35b50346104c4565b50346104b6565b34610308576020366003190112610308576004356105a8612ab7565b6105bc816000526006602052604060002090565b6105d26105cd601183015460ff1690565b6130e6565b600181018054610600906105f99060081c6001600160a01b03165b6001600160a01b031690565b33146134a3565b600a820191610622610613845460ff1690565b61061c816117f3565b1561384a565b61063060068201541561388a565b825460ff1916600617835561064c6000935460ff9060081c1690565b6106bc575b5050604051827f58243f872c550ad02802199ade99eb4250f6bb19e9abbf2d3de7b969c0eb5e4f600080a28161068b575b61001960018055565b9081527f98cd69b526974edc8f55d210bc89664b6985c7e698453e7aca776048f6efcae590602090a2388080610682565b6003015490549091506106e190829060081c6001600160a01b0316613dd6565b613dd6565b3880610651565b6020908160408183019282815285518094520193019160005b82811061070f575050505090565b9091929382610755600192875190608060a09280518352602081015115156020840152604081015115156040840152606081015115156060840152015160808201520190565b950193929101610701565b34610308576020366003190112610308576004356000526006602052604060002061079160ff6011830154166130e6565b60ff60018201541660028110156107ff576001036107c4576107b8600b61057a9201613b7b565b604051918291826106e8565b60405162461bcd60e51b81526020600482015260136024820152722737ba10309036b4b632b9ba37b732903537b160691b6044820152606490fd5b6117c6565b60443590600482101561030857565b346103085760603660031901126103085760043561082f610804565b9061084560018060a01b036003541633146138d6565b600a61085b826000526006602052604060002090565b61086c6105cd601183015460ff1690565b01805460ff191660041781556108818361391a565b821580610901575b6108c6575b507f4890698d7a54aa813dc8341443ac637e7d5e374f248ce7ed441d68ae4329bfc4604051806108c16024359582613931565b0390a3005b805462ff0000191662010000179055807fc10cc2f1ce72576c34976ef8e590b72e63075a8a21a26e46c3c58fc36eb6c400600080a23861088e565b50805460181c60ff16610889565b346103085760203660031901126103085760043561092b612ab7565b61093f816000526006602052604060002090565b906109516105cd601184015460ff1690565b600282810180546109759061096e906001600160a01b03166105ed565b3314613614565b600a840190610985825460ff1690565b9161098f836117f3565b600383148015610c49575b8015610c36575b6109aa90613651565b6109be856000526008602052604060002090565b54936109d06007880195865490612aaa565b936109dc851515613693565b600080986001926109f08483015460ff1690565b6109f9816117dc565b610ac2575050505050600080516020613f0c833981519152939291610a26610aa7925460ff9060101c1690565b15610ab357610a3483613e89565b935b610a4b610a438686613ebd565b948254612f65565b9055610a61610a5c85600454612f65565b600455565b8054610a779084906001600160a01b0316613dd6565b546001600160a01b039081165b169560405193849384919260409194936060840195845260208401521515910152565b0390a361001960018055565b610abc83613e6f565b93610a36565b8391600b849101938454915b828110610c06575b5050508115610bf2575b5015610b1b57505050600080516020613f0c833981519152939291610b0d610aa7925460ff9060101c1690565b15610ab357610abc83613e89565b919750949150610b2a84613ea3565b948097816000905b610b56575b50505050600080516020613f0c833981519152939291610aa791610a36565b8354811015610bed57610b8a81610b7b85610b72819589612fdb565b50015460ff1690565b80610bc6575b610b9057612c18565b90610b32565b610bb183610b9e8389612fdb565b5001805462ff0000191662010000179055565b610bbb8187612fdb565b508442910155612c18565b50610be8610be484610bd8848a612fdb565b50015460101c60ff1690565b1590565b610b81565b610b37565b60059150610bff816117f3565b1438610ae0565b610c17610be488610b72848a612fdb565b610c2957610c2490612c18565b610ace565b5092503890508080610ad6565b50610c40836117f3565b600583146109a1565b50610c53836117f3565b6001831461099a565b3461030857602036600319011261030857600435610c78612ab7565b610c80612a1e565b8015610d355760045490818111610cfc57610cbf610a5c827f2575d77a1ec3998d286c801d15068d5201ec99248623b8f7b7fc936ac1b62d6a94612aaa565b600254610cd69082906001600160a01b0316613dd6565b600254604080516001600160a01b0390921682526020820192909252a161001960018055565b60405162461bcd60e51b8152602060048201526011602482015270496e73756666696369656e74206665657360781b6044820152606490fd5b60405162461bcd60e51b815260206004820152600b60248201526a1e995c9bc8185b5bdd5b9d60aa1b6044820152606490fd5b34610308576000366003190112610308576003546040516001600160a01b039091168152602090f35b600435906001600160a01b038216820361030857565b602435906001600160a01b038216820361030857565b606435906001600160a01b038216820361030857565b6020908160408183019282815285518094520193019160005b828110610dfa575050505090565b835185529381019392810192600101610dec565b3461030857602080600319360112610308576001600160a01b03610e30610d91565b1660005260098152604060002090604051908181845491828152019360005281600020916000905b828210610e7b5761057a85610e6f81890382612f8d565b60405191829182610dd3565b835486529485019460019384019390910190610e58565b3461030857602036600319011261030857610eab610d91565b610eb3612a1e565b6001600160a01b03818116917fb4211c1c33733c2bb84644db7dfb7bafc2c8f6bb163cc45373b2908dd29f91db90610eec841515612a4a565b600354604080519482166001600160a01b03908116865292909216602085015292a16001600160a01b03191617600355005b3461030857602036600319011261030857600435610f3a612ab7565b7f98cd69b526974edc8f55d210bc89664b6985c7e698453e7aca776048f6efcae5611042611022611032610f78856000526006602052604060002090565b610f896105cd601183015460ff1690565b6106dc60018201610fbe600160ff8354610fae838060a01b038260081c1633146134a3565b16610fb8816117dc565b1461378c565b611007600a840193610ff760ff8654610fdb828260081c166134dd565b16610fe5816117f3565b6005811415908161104e575b506137ce565b6006600382015491015490612aaa565b94859361101585151561380a565b805460ff19166005179055565b5460081c6001600160a01b031690565b6040519081529081906020820190565b0390a261001960018055565b6006915061105b816117f3565b141538610ff1565b34610308576040366003190112610308576001600160a01b03611084610d91565b1660005260076020526040600020602435600052602052602060ff604060002054166040519015158152f35b346103085760008060031936011261110b576110ca612a1e565b80546001600160a01b03198116825581906001600160a01b03167f8be0079c531659141344cd1fd0a4f28419497f9722a3daafe3b4186f6b6457e08280a380f35b80fd5b9181601f84011215610308578235916001600160401b038311610308576020808501948460051b01011161030857565b34610308576020366003190112610308576004356001600160401b0381116103085761116e90369060040161110e565b611176612ab7565b6111818115156136d5565b60009081825b8281106111e857509061104283926111c17f70dbc53a66cff01b9149033c1a027ea0ae024b3e721d7bc9efdabe8969575173951515613693565b6111d0610a5c82600454612f65565b6111da8433613dd6565b604051938493339785613752565b93916111f5858285612f14565b359461120b866000526006602052604060002090565b9561121d6105cd601189015460ff1690565b6002908188019761123a61096e6105ed8b5460018060a01b031690565b600a81019061126861124d835460ff1690565b611256816117f3565b60038114908115611470575b50613714565b61127c836000526008602052604060002090565b549161128e6007830193845490612aaa565b91821561145b57600095866001926112a98482015460ff1690565b6112b2816117dc565b6113555750505050611332611320600080516020613f0c8339815191529461131a61133a9a9b9c9d956112ed611313965460ff9060101c1690565b15611344576112fb81613e89565b9687935b6113098584613ebd565b9788938254612f65565b9055612f65565b9b612f65565b9b546001600160a01b03908116610a84565b0390a3612c18565b9390919293611187565b61134d81613e6f565b9687936112ff565b8390600b839101928354915b82811061142c575b5050506000146113b757505050611332611320600080516020613f0c8339815191529461131a61133a9a9b9c9d956113a9611313965460ff9060101c1690565b156113445761134d81613e89565b919b936113c991975080959350613ea3565b9a8096816000905b611405575b505050506113326113208b61131a600080516020613f0c8339815191529661133a9b9c9d9e96611313966112ff565b83548110156114275761142181610b7b85610b72819589612fdb565b906113d1565b6113d6565b61143d610be488610b728489612fdb565b61144f5761144a90612c18565b611361565b50915050388080611369565b50505050505061133a91929550939293612c18565b6001915061147d816117f3565b1438611262565b34610308576000366003190112610308576002546040516001600160a01b039091168152602090f35b34610308576020366003190112610308576004356000526006602052602060ff600a60406000206114e3836011830154166130e6565b015460181c166040519015158152f35b60203660031901126103085760043561150a612ab7565b806000526006602052611588604060002061152b60ff6011830154166130e6565b6001810154611550906115499060081c6001600160a01b03166105ed565b3314613122565b6104f86003600a83019261157461156f610be4865460ff9060081c1690565b613165565b61157f3415156131a2565b015434146131de565b6040513481527f9d25c5cf940eed311c45e5a0b4c7c8790a356d3c356453b76bb7e232db3f384a908060208101611042565b34610308576000366003190112610308576000546040516001600160a01b039091168152602090f35b3461030857604036600319011261030857602435600435600052600660205260406000209061161860ff6011840154166130e6565b60ff60018301541660028110156107ff5761164d9261163b6001600b9314613558565b0161164881548310613b49565b612fdb565b5080549061057a60026001830154920154604051938360ff869560101c169160ff808360081c16921690869192608093969594919660a084019784521515602084015215156040830152151560608201520152565b34610308576040366003190112610308576004356116be610da7565b906000918183526006602052611772604084206116e26105cd601183015460ff1690565b6001810154611707906117009060081c6001600160a01b03166105ed565b33146132a1565b6102d2836002600a84019361172061029a865460ff1690565b61175261174d6117468a6102c38760018060a01b03166000526007602052604060002090565b5460ff1690565b6132ed565b0180546001600160a01b0319166001600160a01b03909216919091179055565b6001600160a01b0381166000908152600960205260409020611795908390613339565b6001600160a01b0316907f75ddd184e81eb370d30cc019f29184e242488c372a6cccb9b7dec5821c3f6c0d8380a380f35b634e487b7160e01b600052602160045260246000fd5b600211156107ff57565b9060028210156107ff5752565b600711156107ff57565b9060078210156107ff5752565b90815180825260208080930193019160005b82811061182a575050505090565b9091929382611870600192875190608060a09280518352602081015115156020840152604081015115156040840152606081015115156060840152015160808201520190565b95019392910161181c565b919082519283825260005b8481106118a7575050826000602080949584010152601f8019910116010190565b602081830181015184830182015201611886565b90815180825260208092019182818360051b85019501936000915b8483106118e65750505050505090565b909192939495848061190083856001950387528a5161187b565b98019301930191949392906118d6565b90611a72908251815261192b602084015160208301906117e6565b6040838101516001600160a01b0316908201526060838101516001600160a01b0316908201526080830151608082015260a083015160a082015260c083015160c082015260e083015160e08201526101008084015190820152610120808401519082015261014080840151908201526119ad61016080850151908301906117fd565b610180838101511515908201526101a0838101511515908201526101c083810151151590820152611a62611a4e611a3a611a26611a126119fe6101e0808a0151906102c080918a015288019061180a565b610200808a0151908883039089015261187b565b61022080890151908783039088015261187b565b61024080880151908683039087015261187b565b6102608087015190858303908601526118bb565b61028080860151908483039085015261187b565b6102a09384015115159190930152565b90565b602080820190808352835180925260408301928160408460051b8301019501936000915b848310611aa95750505050505090565b9091929394958480611ac7600193603f198682030187528a51611910565b9801930193019194939290611a99565b346103085760008060031936011261110b576005546000198101818111611b7057611b0190613c11565b9160015b828110611b1a576040518061057a8682611a75565b80611b3d91835260066020526040832060ff601182015416611b42575b50612c18565b611b05565b611b6990611b58611b5284612a9b565b91613c75565b611b628289613c61565b5286613c61565b5038611b37565b612a85565b3461030857604036600319011261030857600435602435611ba0826000526006602052604060002090565b91611bb26105cd601185015460ff1690565b6002830154611bd490611bcd906001600160a01b03166105ed565b3314613362565b600a8301611c01611be6825460ff1690565b611bef816117f3565b60018114908115611ce2575b506133ae565b6009840154421193611c17600182015460ff1690565b611c20816117dc565b611ca15750805460ff19166002178155600092505b8380611c8b575b611c74575b50604051921515835233927f207484e8aa7dddd34fe93ab4285ad31e16cf6b69a87db323d588054a6860eee990602090a4005b805463ff0000001916630100000017905538611c41565b508054611c9c9060181c60ff161590565b611c3c565b6001611cba85600b611cd29401611648815483106133eb565b50016104f8611ccd610be4835460ff1690565b613427565b805460ff19166002178155611c35565b60029150611cef816117f3565b1438611bfb565b3461030857602036600319011261030857611d0f610d91565b611d17612a1e565b6001600160a01b03818116917f405b911135779fbe6ca1eb08e756497b632d5fbff59644b7d60ea3ea95caf53990611d50841515612a4a565b600254604080519482166001600160a01b03908116865292909216602085015292a16001600160a01b03191617600255005b346103085760203660031901126103085760043560005260086020526020604060002054604051908152f35b604080600319360112610308576001600160401b0360043581811161030857611ddb90369060040161110e565b92909160243590811161030857611df690369060040161030d565b92611e02811515612ebd565b611e0f6103648580612b1a565b81840192611e2061037e8587612b1a565b60e085013591611e31428411612bcc565b600091825b828110612049575060055495611e4e6103d188612c18565b611e62876000526006602052604060002090565b878155611e7d6001820161040981600160ff19825416179055565b611e94611e8a8a80612b1a565b90600c8401612cd5565b611eb3610460602093611ead6104508d87810190612b1a565b8b612b1a565b606098611ecf611ec58b830183612da1565b90600f8501612dd6565b611eeb611ee160809283810190612b1a565b9060108501612cd5565b8560048301558560058301556003820199868b556000600684015560006007840155426008840155876009840155600a830195611f2c8760ff198154169055565b60118401805460ff19166001179055865461ff0019168755600b60009401935b8181106120035750505050505050611fb061057a9686937fb3d4fc97516c83a6ede9502532ca639d72c51f3352812a26a99c1f6940833d5c9334611fc1575b5050549385519182913396836040909392919360608101946001825260208201520152565b0390a3519081529081906020820190565b6104f8611fcf92341461309a565b855134815284907f9d25c5cf940eed311c45e5a0b4c7c8790a356d3c356453b76bb7e232db3f384a90602090a23880611f8b565b8061203f8c600061201861204495878d612f14565b3591612022612fae565b928352818b84015282015260008682015260008782015287612ff7565b612c18565b611f4c565b9261207961207f9161206761205f878787612f14565b351515612f29565b612072868686612f14565b3590612f65565b93612c18565b611e36565b34610308576000366003190112610308576020600554604051908152f35b3461030857604036600319011261030857600435602435906120ce816000526006602052604060002090565b906120e06105cd601184015460ff1690565b600191612117838201546121018560ff83166120fb816117dc565b14613558565b3360089190911c6001600160a01b0316146134a3565b600a8101805461212c9060081c60ff16613598565b600b820161213c815487106133eb565b6121468682612fdb565b509261216a8685016102d260ff825461216182821615613427565b60081c166135d1565b61217b600685549201918254612f65565b9055825461219e612196866000526008602052604060002090565b918254612f65565b9055846000918054925b838110612210575b50505050906108c1917f586353fe0bfe5314fafe1c8662b942c97ddeaccfbd9a2e13fec40bcf15e8abcb939460001461220057805460ff191660031790555b546040519081529081906020820190565b805460ff191660011790556121ef565b612221610be484610b728486612fdb565b6122335761222e90612c18565b6121a8565b50600096508392507f586353fe0bfe5314fafe1c8662b942c97ddeaccfbd9a2e13fec40bcf15e8abcb91506108c19050386121b0565b346103085760208060031936011261030857612283610d91565b600554906000198201828111611b705761229c90613c11565b916000938492600191825b8481106122bf578587526040518061057a8982611a75565b8088526006825260408820601101546122e5919060ff1680612325575b6122ea57612c18565b6122a7565b611b37612301826000526006602052604060002090565b9761231461230e82612c18565b99613c75565b61231e828c613c61565b5289613c61565b5061234f8561233e836000526006602052604060002090565b015460081c6001600160a01b031690565b6001600160a01b038581169116146122dc565b346103085760203660031901126103085760043580600052600660205260406000209061239560ff6011840154166130e6565b600052600860205260076040600020549101548103908111611b7057602090604051908152f35b906020611a72928181520190611910565b34610308576020366003190112610308576123e6613963565b506004356123fe906000526006602052604060002090565b601181015460ff1661240f816130e6565b815460018301546002840154909391906001600160a01b03166003830154600484015460058501546006860154600787015491600888015493600989015495600a8a01549761245c613a15565b99612465612fbb565b9081529c8d9061247b60ff821660208401613a38565b60081c6001600160a01b03166040909101526001600160a01b031660608d015260808c015260a08b015260c08a015260e08901526101008801526101208701526101408601526124d260ff82166101608701613a44565b60ff600882901c16151561018086015260ff601082901c1615156101a086015260181c60ff1615156101c08501526101e0840152612512600c8201613a50565b610200840152612524600d8201613a50565b610220840152612536600e8201613a50565b610240840152612548600f8201613af4565b61026084015260100161255a90613a50565b61028083015215156102a082015260405161057a8192826123bc565b34610308576020366003190112610308576004357f0f57f3e7b9ef5a0be5fa135392bd0b89d178350d5bc7f4c0b789fadc05324e766126646125c2836000526006602052604060002090565b6125d36105cd601183015460ff1690565b6125f1600182015461210160ff82166125eb816117dc565b15613467565b6121ef600a820161262960ff825461260d828260081c166134dd565b16612617816117f3565b60028114908115612669575b5061351a565b6003600684019361263b855415613427565b01928354809155612656876000526008602052604060002090565b55805460ff19166003179055565b0390a2005b60019150612676816117f3565b1438612623565b3461030857608036600319011261030857600435612699610804565b6126a1610dbd565b6003546126c1906126ba906001600160a01b03166105ed565b33146138d6565b6126d5836000526006602052604060002090565b916126e76105cd601185015460ff1690565b604051847ff14b14c57ad6924ff5c16daeec93bdd189cc7338e991d2967e3e0401bb73dfe2602435928061271c878783613941565b0390a36127288161391a565b8061273f575050600a01805460ff19166001179055005b6127488161391a565b6001908082036128155750820190815460ff8116612765816117dc565b1561276c57005b6001600160a01b0391821660089190911c909116036127df576127986003830154600684015490612aaa565b8061279f57005b611032816106dc61266494611022600a7f98cd69b526974edc8f55d210bc89664b6985c7e698453e7aca776048f6efcae59801600560ff19825416179055565b5080610019926128066003600a940154918260068501556000526008602052604060002090565b5501805460ff19166003179055565b8061282160029261391a565b1461282857005b828101805490926001600160a01b03908116600883901c9091160361285c5750506127986003830154600684015490612aaa565b60ff9192509392931661286e816117dc565b612899575081600a916128066003610019950154918260068501556000526008602052604060002090565b90600b83016000835b6128bb575b50505050600a01805460ff19166003179055005b8154811015612973576128f2816128e3866128d7819587612fdb565b50015460081c60ff1690565b8061295c575b6128f857612c18565b906128a2565b612915836129068387612fdb565b5001805460ff19166001179055565b61291f8185612fdb565b505461293060068901918254612f65565b905561293c8185612fdb565b5054612955612196876000526008602052604060002090565b9055612c18565b5061296e610be484610b728488612fdb565b6128e9565b6128a7565b34610308576000366003190112610308576020600454604051908152f35b34610308576020366003190112610308576129af610d91565b6129b7612a1e565b6001600160a01b039081168015612a0557600080546001600160a01b03198116831782559092167f8be0079c531659141344cd1fd0a4f28419497f9722a3daafe3b4186f6b6457e08380a380f35b604051631e4fbdf760e01b815260006004820152602490fd5b6000546001600160a01b03163303612a3257565b60405163118cdaa760e01b8152336004820152602490fd5b15612a5157565b60405162461bcd60e51b815260206004820152600c60248201526b7a65726f206164647265737360a01b6044820152606490fd5b634e487b7160e01b600052601160045260246000fd5b600019810191908211611b7057565b91908203918211611b7057565b600260015414612ac8576002600155565b604051633ee5aeb560e01b8152600490fd5b15612ae157565b60405162461bcd60e51b815260206004820152601160248201527004d7573742066756e64206a6f62203e203607c1b6044820152606490fd5b903590601e198136030182121561030857018035906001600160401b0382116103085760200191813603831361030857565b15612b5357565b60405162461bcd60e51b815260206004820152600e60248201526d151a5d1b19481c995c5d5a5c995960921b6044820152606490fd5b15612b9057565b60405162461bcd60e51b815260206004820152601460248201527311195cd8dc9a5c1d1a5bdb881c995c5d5a5c995960621b6044820152606490fd5b15612bd357565b60405162461bcd60e51b815260206004820152601760248201527f446561646c696e65206d757374206265206675747572650000000000000000006044820152606490fd5b6000198114611b705760010190565b634e487b7160e01b600052604160045260246000fd5b90600182811c92168015612c6d575b6020831014612c5757565b634e487b7160e01b600052602260045260246000fd5b91607f1691612c4c565b818110612c82575050565b60008155600101612c77565b9190601f8111612c9d57505050565b612cc9926000526020600020906020601f840160051c83019310612ccb575b601f0160051c0190612c77565b565b9091508190612cbc565b9092916001600160401b038111612d9c57612cfa81612cf48454612c3d565b84612c8e565b6000601f8211600114612d345781929394600092612d29575b50508160011b916000199060031b1c1916179055565b013590503880612d13565b601f19821694612d4984600052602060002090565b91805b878110612d84575083600195969710612d6a575b505050811b019055565b0135600019600384901b60f8161c19169055388080612d60565b90926020600181928686013581550194019101612d4c565b612c27565b903590601e198136030182121561030857018035906001600160401b03821161030857602001918160051b3603831361030857565b600160401b8311612d9c578054838255808410612e39575b5090612e008192600052602060002090565b906000925b848410612e13575050505050565b6001602082612e2d612e26849587612b1a565b9088612cd5565b01930193019291612e05565b6000828152846020822092830192015b828110612e57575050612dee565b80612e6460019254612c3d565b80612e71575b5001612e49565b601f908181118414612e895750508281555b38612e6a565b83612eab92612e9d85600052602060002090565b920160051c82019101612c77565b60008181526020812081835555612e83565b15612ec457565b60405162461bcd60e51b81526020600482015260126024820152714e656564203e3d31206d696c6573746f6e6560701b6044820152606490fd5b634e487b7160e01b600052603260045260246000fd5b9190811015612f245760051b0190565b612efe565b15612f3057565b60405162461bcd60e51b815260206004820152600d60248201526c04d696c6573746f6e65203e203609c1b6044820152606490fd5b91908201809211611b7057565b60a081019081106001600160401b03821117612d9c57604052565b90601f801991011681019081106001600160401b03821117612d9c57604052565b60405190612cc982612f72565b604051906102c082018281106001600160401b03821117612d9c57604052565b8054821015612f24576000526003602060002091020190600090565b8054600160401b811015612d9c5761301491600182018155612fdb565b9190916130845760808160029251845561307d6001850161304760208401511515829060ff801983541691151516179055565b6040830151815461ff00191690151560081b61ff00161781556060830151815462ff0000191690151560101b62ff000016179055565b0151910155565b634e487b7160e01b600052600060045260246000fd5b156130a157565b60405162461bcd60e51b815260206004820152601a60248201527f6d73672e76616c7565206d75737420657175616c20746f74616c0000000000006044820152606490fd5b156130ed57565b60405162461bcd60e51b815260206004820152600d60248201526c129bd8881b9bdd08195e1a5cdd609a1b6044820152606490fd5b1561312957565b60405162461bcd60e51b815260206004820152601460248201527313db9b1e4818db1a595b9d0818d85b88199d5b9960621b6044820152606490fd5b1561316c57565b60405162461bcd60e51b815260206004820152600e60248201526d105b1c9958591e48199d5b99195960921b6044820152606490fd5b156131a957565b60405162461bcd60e51b815260206004820152600d60248201526c04d7573742073656e64203e203609c1b6044820152606490fd5b156131e557565b60405162461bcd60e51b8152602060048201526015602482015274135d5cdd081cd95b9908199d5b1b08185b5bdd5b9d605a1b6044820152606490fd5b1561322957565b60405162461bcd60e51b815260206004820152601560248201527410db1a595b9d0818d85b9b9bdd081c995c5d595cdd605a1b6044820152606490fd5b1561326d57565b60405162461bcd60e51b815260206004820152600c60248201526b2537b1103737ba1037b832b760a11b6044820152606490fd5b156132a857565b60405162461bcd60e51b815260206004820152601760248201527f4f6e6c7920636c69656e742063616e20617070726f76650000000000000000006044820152606490fd5b156132f457565b60405162461bcd60e51b815260206004820152601860248201527f50726f766964657220646964206e6f74207265717565737400000000000000006044820152606490fd5b805490600160401b821015612d9c5760018201808255821015612f245760005260206000200155565b1561336957565b60405162461bcd60e51b815260206004820152601760248201527f4e6f742061737369676e656420667265656c616e6365720000000000000000006044820152606490fd5b156133b557565b60405162461bcd60e51b815260206004820152600e60248201526d496e76616c69642073746174757360901b6044820152606490fd5b156133f257565b60405162461bcd60e51b815260206004820152600d60248201526c26b4b632b9ba37b7329027a7a160991b6044820152606490fd5b1561342e57565b60405162461bcd60e51b8152602060048201526011602482015270105b1c9958591e4818dbdb999a5c9b5959607a1b6044820152606490fd5b1561346e57565b60405162461bcd60e51b815260206004820152600d60248201526c2737ba103334bc32b2103537b160991b6044820152606490fd5b156134aa57565b60405162461bcd60e51b815260206004820152600b60248201526a13db9b1e4818db1a595b9d60aa1b6044820152606490fd5b156134e457565b60405162461bcd60e51b815260206004820152600e60248201526d129bd8881b9bdd08199d5b99195960921b6044820152606490fd5b1561352157565b60405162461bcd60e51b815260206004820152600f60248201526e4e6f7420696e2064656c697665727960881b6044820152606490fd5b1561355f57565b60405162461bcd60e51b81526020600482015260116024820152702737ba1036b4b632b9ba37b732903537b160791b6044820152606490fd5b1561359f57565b60405162461bcd60e51b815260206004820152600a602482015269139bdd08199d5b99195960b21b6044820152606490fd5b156135d857565b60405162461bcd60e51b8152602060048201526014602482015273139bdd081b585c9ad9590819195b1a5d995c995960621b6044820152606490fd5b1561361b57565b60405162461bcd60e51b815260206004820152600e60248201526d2737ba10333932b2b630b731b2b960911b6044820152606490fd5b1561365857565b60405162461bcd60e51b815260206004820152601360248201527210d85b9b9bdd081dda5d1a191c985dc81e595d606a1b6044820152606490fd5b1561369a57565b60405162461bcd60e51b81526020600482015260136024820152724e6f7468696e6720746f20776974686472617760681b6044820152606490fd5b156136dc57565b60405162461bcd60e51b815260206004820152601060248201526f139bc81a9bd89cc81c1c9bdd9a59195960821b6044820152606490fd5b1561371b57565b60405162461bcd60e51b815260206004820152600f60248201526e43616e6e6f7420776974686472617760881b6044820152606490fd5b606080825281018390529294939290916001600160fb1b0381116103085760409260809160051b8091838501378201019460208201520152565b1561379357565b60405162461bcd60e51b81526020600482015260136024820152724f6e6c79206d696c6573746f6e65206a6f627360681b6044820152606490fd5b156137d557565b60405162461bcd60e51b815260206004820152600d60248201526c105b1c9958591e48199a5b985b609a1b6044820152606490fd5b1561381157565b60405162461bcd60e51b8152602060048201526011602482015270139bdd1a1a5b99c81d1bc81c99599d5b99607a1b6044820152606490fd5b1561385157565b60405162461bcd60e51b815260206004820152601160248201527043616e6e6f742063616e63656c206e6f7760781b6044820152606490fd5b1561389157565b60405162461bcd60e51b815260206004820152601a60248201527f416c72656164792068617320636f6e6669726d656420776f726b0000000000006044820152606490fd5b156138dd57565b60405162461bcd60e51b815260206004820152601560248201527413db9b1e48191a5cdc1d5d194818dbdb9d1c9858dd605a1b6044820152606490fd5b600411156107ff57565b9060048210156107ff5752565b602081019291612cc99190613924565b909291602090613955836040810196613924565b6001600160a01b0316910152565b61396b612fbb565b906000808352806020840152806040840152606081818501528160808501528160a08501528160c08501528160e08501528161010085015281610120850152816101408501528161016085015281610180850152816101a0850152816101c0850152806101e0850152806102008501528061022085015280610240850152806102608501526102808401526102a0830152565b6001600160401b038111612d9c5760051b60200190565b604051602081018181106001600160401b03821117612d9c576040526000815290565b60028210156107ff5752565b60078210156107ff5752565b9060405191826000825492613a6484612c3d565b908184526001948581169081600014613ad15750600114613a8e575b5050612cc992500383612f8d565b9093915060005260209081600020936000915b818310613ab9575050612cc993508201013880613a80565b85548884018501529485019487945091830191613aa1565b915050612cc994506020925060ff191682840152151560051b8201013880613a80565b908154613b00816139fe565b92613b0e6040519485612f8d565b818452600090815260208082208186015b848410613b2d575050505050565b6001838192613b3b85613a50565b815201920193019290613b1f565b15613b5057565b60405162461bcd60e51b815260206004820152600360248201526227a7a160e91b6044820152606490fd5b908154613b87816139fe565b92604093613b9785519182612f8d565b828152809460208092019260005281600020906000935b858510613bbd57505050505050565b6003846001928451613bce81612f72565b865481528487015460ff90818116151585840152818160081c1615158884015260101c161515606082015260028701546080820152815201930194019391613bae565b90613c1b826139fe565b613c286040519182612f8d565b8281528092613c39601f19916139fe565b019060005b828110613c4a57505050565b602090613c55613963565b82828501015201613c3e565b8051821015612f245760209160051b010190565b90612cc9613dcc6011613c86612fbb565b9480548652613cb66001820154613ca360ff821660208a01613a38565b60081c6001600160a01b03166040880152565b60028101546001600160a01b0316606087015260038101546080870152600481015460a0870152600581015460c0870152600681015460e0870152600781015461010087015260088101546101208701526009810154610140870152613d5860ff600a830154613d2c8282166101608b01613a44565b600881901c821615156101808a0152601081901c821615156101a08a015260181c1615156101c0880152565b613d64600b8201613b7b565b6101e0870152613d76600c8201613a50565b610200870152613d88600d8201613a50565b610220870152613d9a600e8201613a50565b610240870152613dac600f8201613af4565b610260870152613dbe60108201613a50565b610280870152015460ff1690565b15156102a0840152565b8115613e6b576000918291829182916001600160a01b03165af13d15613e66573d6001600160401b038111612d9c5760405190613e1d601f8201601f191660200183612f8d565b8152600060203d92013e5b15613e2f57565b60405162461bcd60e51b815260206004820152600f60248201526e151c985b9cd9995c8819985a5b1959608a1b6044820152606490fd5b613e28565b5050565b600581029080820460051490151715611b70576064900490565b600781029080820460071490151715611b70576064900490565b600a810290808204600a1490151715611b70576064900490565b90808210613ed1578103908111611b705790565b60405162461bcd60e51b815260206004820152601260248201527111995948195e18d959591cc8185b5bdd5b9d60721b6044820152606490fdfe4bd114e74b29bcc339f5c772ff225845f26c7ec2498337596019d1062d90bc42a2646970667358221220d44fb733af93e838b198b02464c73ea75d4c186423b571cead53a1f55c981a9a64736f6c63430008140033","opcodes":"PUSH1 0x80 CALLVALUE PUSH3 0x135 JUMPI PUSH1 0x1F PUSH3 0x40C7 CODESIZE DUP2 SWAP1 SUB SWAP2 DUP3 ADD PUSH1 0x1F NOT AND DUP4 ADD SWAP2 PUSH1 0x1 PUSH1 0x1 PUSH1 0x40 SHL SUB DUP4 GT DUP5 DUP5 LT OR PUSH3 0x13A JUMPI DUP1 DUP5 SWAP3 PUSH1 0x40 SWAP5 DUP6 MSTORE DUP4 CODECOPY DUP2 ADD SUB SLT PUSH3 0x135 JUMPI PUSH1 0x20 PUSH3 0x4E DUP3 PUSH3 0x150 JUMP JUMPDEST SWAP2 PUSH1 0x1 PUSH1 0x1 PUSH1 0xA0 SHL SUB SWAP2 DUP3 SWAP2 PUSH3 0x66 SWAP2 ADD PUSH3 0x150 JUMP JUMPDEST AND SWAP1 DUP2 ISZERO PUSH3 0x11C JUMPI PUSH1 0x0 SLOAD SWAP3 PUSH1 0x1 DUP1 PUSH1 0xA0 SHL SUB NOT SWAP3 DUP1 DUP5 DUP7 AND OR PUSH1 0x0 SSTORE DUP3 PUSH1 0x40 MLOAD SWAP6 AND PUSH32 0x8BE0079C531659141344CD1FD0A4F28419497F9722A3DAAFE3B4186F6B6457E0 PUSH1 0x0 DUP1 LOG3 PUSH1 0x1 DUP1 SSTORE PUSH1 0x1 PUSH1 0x5 SSTORE AND SWAP2 DUP3 ISZERO PUSH3 0xDA JUMPI POP PUSH1 0x2 SLOAD AND OR PUSH1 0x2 SSTORE PUSH1 0x40 MLOAD PUSH2 0x3F61 SWAP1 DUP2 PUSH3 0x166 DUP3 CODECOPY RETURN JUMPDEST PUSH3 0x461BCD PUSH1 0xE5 SHL DUP2 MSTORE PUSH1 0x20 PUSH1 0x4 DUP3 ADD MSTORE PUSH1 0x14 PUSH1 0x24 DUP3 ADD MSTORE PUSH32 0x496E76616C69642044414F207472656173757279000000000000000000000000 PUSH1 0x44 DUP3 ADD MSTORE PUSH1 0x64 SWAP1 REVERT JUMPDEST PUSH1 0x40 MLOAD PUSH4 0x1E4FBDF7 PUSH1 0xE0 SHL DUP2 MSTORE PUSH1 0x0 PUSH1 0x4 DUP3 ADD MSTORE PUSH1 0x24 SWAP1 REVERT JUMPDEST PUSH1 0x0 DUP1 REVERT JUMPDEST PUSH4 0x4E487B71 PUSH1 0xE0 SHL PUSH1 0x0 MSTORE PUSH1 0x41 PUSH1 0x4 MSTORE PUSH1 0x24 PUSH1 0x0 REVERT JUMPDEST MLOAD SWAP1 PUSH1 0x1 PUSH1 0x1 PUSH1 0xA0 SHL SUB DUP3 AND DUP3 SUB PUSH3 0x135 JUMPI JUMP INVALID PUSH1 0x80 PUSH1 0x40 MSTORE PUSH1 0x4 CALLDATASIZE LT ISZERO PUSH2 0x1B JUMPI JUMPDEST CALLDATASIZE ISZERO PUSH2 0x19 JUMPI PUSH1 0x0 DUP1 REVERT JUMPDEST STOP JUMPDEST PUSH1 0x0 CALLDATALOAD PUSH1 0xE0 SHR DUP1 PUSH3 0x440B31 EQ PUSH2 0x23A JUMPI DUP1 PUSH4 0x194A08B1 EQ PUSH2 0x235 JUMPI DUP1 PUSH4 0x1DFFA3DC EQ PUSH2 0x230 JUMPI DUP1 PUSH4 0x22A20806 EQ PUSH2 0x22B JUMPI DUP1 PUSH4 0x2A8FE889 EQ PUSH2 0x226 JUMPI DUP1 PUSH4 0x2E1A7D4D EQ PUSH2 0x221 JUMPI DUP1 PUSH4 0x3B3E4102 EQ PUSH2 0x21C JUMPI DUP1 PUSH4 0x4010B84E EQ PUSH2 0x217 JUMPI DUP1 PUSH4 0x40F70BE4 EQ PUSH2 0x212 JUMPI DUP1 PUSH4 0x44D23D6F EQ PUSH2 0x20D JUMPI DUP1 PUSH4 0x641CA008 EQ PUSH2 0x208 JUMPI DUP1 PUSH4 0x6754CC28 EQ PUSH2 0x203 JUMPI DUP1 PUSH4 0x715018A6 EQ PUSH2 0x1FE JUMPI DUP1 PUSH4 0x72E55399 EQ PUSH2 0x1F9 JUMPI DUP1 PUSH4 0x79022A9F EQ PUSH2 0x1F4 JUMPI DUP1 PUSH4 0x8C47A94D EQ PUSH2 0x1EF JUMPI DUP1 PUSH4 0x8D22B863 EQ PUSH2 0x1EA JUMPI DUP1 PUSH4 0x8DA5CB5B EQ PUSH2 0x1E5 JUMPI DUP1 PUSH4 0x8ED9895C EQ PUSH2 0x1E0 JUMPI DUP1 PUSH4 0x94D246C2 EQ PUSH2 0x1DB JUMPI DUP1 PUSH4 0x965A79FB EQ PUSH2 0x1D6 JUMPI DUP1 PUSH4 0x9AA85DBA EQ PUSH2 0x1D1 JUMPI DUP1 PUSH4 0xA124DF5D EQ PUSH2 0x1CC JUMPI DUP1 PUSH4 0xA5188D1F EQ PUSH2 0x1C7 JUMPI DUP1 PUSH4 0xB02F3013 EQ PUSH2 0x1C2 JUMPI DUP1 PUSH4 0xB0C2AA5E EQ PUSH2 0x1BD JUMPI DUP1 PUSH4 0xB0E36B8F EQ PUSH2 0x1B8 JUMPI DUP1 PUSH4 0xB618D5A7 EQ PUSH2 0x1B3 JUMPI DUP1 PUSH4 0xBA510A33 EQ PUSH2 0x1AE JUMPI DUP1 PUSH4 0xBF22C457 EQ PUSH2 0x1A9 JUMPI DUP1 PUSH4 0xC021F210 EQ PUSH2 0x1A4 JUMPI DUP1 PUSH4 0xDC8BE2A2 EQ PUSH2 0x19F JUMPI DUP1 PUSH4 0xDED5AE27 EQ PUSH2 0x19A JUMPI PUSH4 0xF2FDE38B SUB PUSH2 0xE JUMPI PUSH2 0x2996 JUMP JUMPDEST PUSH2 0x2978 JUMP JUMPDEST PUSH2 0x267D JUMP JUMPDEST PUSH2 0x2576 JUMP JUMPDEST PUSH2 0x23CD JUMP JUMPDEST PUSH2 0x2362 JUMP JUMPDEST PUSH2 0x2269 JUMP JUMPDEST PUSH2 0x20A2 JUMP JUMPDEST PUSH2 0x2084 JUMP JUMPDEST PUSH2 0x1DAE JUMP JUMPDEST PUSH2 0x1D82 JUMP JUMPDEST PUSH2 0x1CF6 JUMP JUMPDEST PUSH2 0x1B75 JUMP JUMPDEST PUSH2 0x1AD7 JUMP JUMPDEST PUSH2 0x16A2 JUMP JUMPDEST PUSH2 0x15E3 JUMP JUMPDEST PUSH2 0x15BA JUMP JUMPDEST PUSH2 0x14F3 JUMP JUMPDEST PUSH2 0x14AD JUMP JUMPDEST PUSH2 0x1484 JUMP JUMPDEST PUSH2 0x113E JUMP JUMPDEST PUSH2 0x10B0 JUMP JUMPDEST PUSH2 0x1063 JUMP JUMPDEST PUSH2 0xF1E JUMP JUMPDEST PUSH2 0xE92 JUMP JUMPDEST PUSH2 0xE0E JUMP JUMPDEST PUSH2 0xD68 JUMP JUMPDEST PUSH2 0xC5C JUMP JUMPDEST PUSH2 0x90F JUMP JUMPDEST PUSH2 0x813 JUMP JUMPDEST PUSH2 0x760 JUMP JUMPDEST PUSH2 0x58C JUMP JUMPDEST PUSH2 0x31C JUMP JUMPDEST CALLVALUE PUSH2 0x308 JUMPI PUSH1 0x20 CALLDATASIZE PUSH1 0x3 NOT ADD SLT PUSH2 0x308 JUMPI PUSH1 0x4 CALLDATALOAD PUSH1 0x0 SWAP1 DUP1 DUP3 MSTORE PUSH1 0x6 PUSH1 0x20 MSTORE PUSH2 0x2A9 PUSH2 0x29A PUSH1 0xA PUSH1 0x40 DUP6 KECCAK256 PUSH2 0x275 PUSH1 0xFF PUSH1 0x11 DUP4 ADD SLOAD AND PUSH2 0x30E6 JUMP JUMPDEST PUSH1 0x1 DUP2 ADD SLOAD PUSH2 0x292 SWAP1 PUSH1 0x8 SHR PUSH1 0x1 PUSH1 0x1 PUSH1 0xA0 SHL SUB AND CALLER EQ ISZERO PUSH2 0x3222 JUMP JUMPDEST ADD SLOAD PUSH1 0xFF AND SWAP1 JUMP JUMPDEST PUSH2 0x2A3 DUP2 PUSH2 0x17F3 JUMP JUMPDEST ISZERO PUSH2 0x3266 JUMP JUMPDEST CALLER PUSH1 0x0 SWAP1 DUP2 MSTORE PUSH1 0x7 PUSH1 0x20 MSTORE PUSH1 0x40 SWAP1 KECCAK256 PUSH2 0x2DF SWAP1 PUSH2 0x2D2 SWAP1 DUP4 SWAP1 JUMPDEST SWAP1 PUSH1 0x0 MSTORE PUSH1 0x20 MSTORE PUSH1 0x40 PUSH1 0x0 KECCAK256 SWAP1 JUMP JUMPDEST DUP1 SLOAD PUSH1 0xFF NOT AND PUSH1 0x1 OR SWAP1 SSTORE JUMP JUMPDEST CALLER SWAP1 PUSH32 0x56A170713C65629E3FC7B98F93EA5C49D1CD10DEBFC5F7EF03CBEE95A40B722D DUP4 DUP1 LOG3 DUP1 RETURN JUMPDEST PUSH1 0x0 DUP1 REVERT JUMPDEST SWAP1 DUP2 PUSH2 0x100 SWAP2 SUB SLT PUSH2 0x308 JUMPI SWAP1 JUMP JUMPDEST PUSH1 0x20 CALLDATASIZE PUSH1 0x3 NOT ADD SLT PUSH2 0x308 JUMPI PUSH1 0x4 CALLDATALOAD PUSH1 0x1 PUSH1 0x1 PUSH1 0x40 SHL SUB DUP2 GT PUSH2 0x308 JUMPI PUSH1 0x11 PUSH2 0x34C PUSH2 0x57A SWAP3 CALLDATASIZE SWAP1 PUSH1 0x4 ADD PUSH2 0x30D JUMP JUMPDEST PUSH2 0x357 CALLVALUE ISZERO ISZERO PUSH2 0x2ADA JUMP JUMPDEST PUSH2 0x36D PUSH2 0x364 DUP3 DUP1 PUSH2 0x2B1A JUMP JUMPDEST SWAP1 POP ISZERO ISZERO PUSH2 0x2B4C JUMP JUMPDEST PUSH1 0x40 DUP2 ADD PUSH2 0x387 PUSH2 0x37E DUP3 DUP5 PUSH2 0x2B1A JUMP JUMPDEST SWAP1 POP ISZERO ISZERO PUSH2 0x2B89 JUMP JUMPDEST PUSH32 0xB3D4FC97516C83A6EDE9502532CA639D72C51F3352812A26A99C1F6940833D5C PUSH2 0x539 PUSH1 0xE0 DUP5 ADD CALLDATALOAD SWAP4 PUSH2 0x3BC TIMESTAMP DUP7 GT PUSH2 0x2BCC JUMP JUMPDEST PUSH2 0x515 PUSH1 0x5 SLOAD SWAP7 DUP8 SWAP6 PUSH2 0x3D6 PUSH2 0x3D1 DUP9 PUSH2 0x2C18 JUMP JUMPDEST PUSH1 0x5 SSTORE JUMP JUMPDEST PUSH2 0x46A PUSH2 0x460 PUSH2 0x3F0 DUP10 PUSH1 0x0 MSTORE PUSH1 0x6 PUSH1 0x20 MSTORE PUSH1 0x40 PUSH1 0x0 KECCAK256 SWAP1 JUMP JUMPDEST SWAP3 DUP10 DUP5 SSTORE PUSH2 0x429 PUSH1 0x1 DUP6 ADD PUSH2 0x409 DUP2 PUSH1 0xFF NOT DUP2 SLOAD AND SWAP1 SSTORE JUMP JUMPDEST DUP1 SLOAD PUSH2 0x100 PUSH1 0x1 PUSH1 0xA8 SHL SUB NOT AND CALLER PUSH1 0x8 SHL PUSH2 0x100 PUSH1 0x1 PUSH1 0xA8 SHL SUB AND OR SWAP1 SSTORE JUMP JUMPDEST PUSH2 0x440 PUSH2 0x436 DUP9 DUP1 PUSH2 0x2B1A JUMP JUMPDEST SWAP1 PUSH1 0xC DUP8 ADD PUSH2 0x2CD5 JUMP JUMPDEST PUSH2 0x45A PUSH2 0x450 PUSH1 0x20 DUP10 ADD DUP10 PUSH2 0x2B1A JUMP JUMPDEST SWAP1 PUSH1 0xD DUP8 ADD PUSH2 0x2CD5 JUMP JUMPDEST DUP7 PUSH2 0x2B1A JUMP JUMPDEST SWAP1 PUSH1 0xE DUP5 ADD PUSH2 0x2CD5 JUMP JUMPDEST PUSH2 0x484 PUSH2 0x47A PUSH1 0x60 DUP7 ADD DUP7 PUSH2 0x2DA1 JUMP JUMPDEST SWAP1 PUSH1 0xF DUP5 ADD PUSH2 0x2DD6 JUMP JUMPDEST PUSH2 0x49E PUSH2 0x494 PUSH1 0x80 DUP7 ADD DUP7 PUSH2 0x2B1A JUMP JUMPDEST SWAP1 PUSH1 0x10 DUP5 ADD PUSH2 0x2CD5 JUMP JUMPDEST CALLVALUE PUSH1 0x3 DUP3 ADD SWAP1 DUP2 SSTORE SWAP4 PUSH1 0xC0 SWAP1 PUSH1 0xA0 DUP2 ADD CALLDATALOAD DUP1 ISZERO PUSH2 0x585 JUMPI JUMPDEST PUSH1 0x4 DUP5 ADD SSTORE ADD CALLDATALOAD DUP1 ISZERO PUSH2 0x57E JUMPI JUMPDEST PUSH1 0x5 DUP3 ADD SSTORE PUSH1 0x0 PUSH1 0x6 DUP3 ADD SSTORE PUSH1 0x0 PUSH1 0x7 DUP3 ADD SSTORE TIMESTAMP PUSH1 0x8 DUP3 ADD SSTORE DUP8 PUSH1 0x9 DUP3 ADD SSTORE PUSH2 0x507 PUSH1 0xA DUP3 ADD PUSH2 0x4F8 DUP2 PUSH1 0xFF NOT DUP2 SLOAD AND SWAP1 SSTORE JUMP JUMPDEST DUP1 SLOAD PUSH2 0xFF00 NOT AND PUSH2 0x100 OR SWAP1 SSTORE JUMP JUMPDEST ADD DUP1 SLOAD PUSH1 0xFF NOT AND PUSH1 0x1 OR SWAP1 SSTORE JUMP JUMPDEST SLOAD SWAP4 PUSH1 0x40 MLOAD SWAP2 DUP3 SWAP2 CALLER SWAP7 DUP4 PUSH1 0x40 SWAP1 SWAP4 SWAP3 SWAP2 SWAP4 PUSH1 0x60 DUP2 ADD SWAP5 PUSH1 0x0 DUP3 MSTORE PUSH1 0x20 DUP3 ADD MSTORE ADD MSTORE JUMP JUMPDEST SUB SWAP1 LOG3 PUSH1 0x40 MLOAD CALLVALUE DUP2 MSTORE DUP2 SWAP1 PUSH32 0x9D25C5CF940EED311C45E5A0B4C7C8790A356D3C356453B76BB7E232DB3F384A SWAP1 PUSH1 0x20 SWAP1 LOG2 PUSH1 0x40 MLOAD SWAP1 DUP2 MSTORE SWAP1 DUP2 SWAP1 PUSH1 0x20 DUP3 ADD SWAP1 JUMP JUMPDEST SUB SWAP1 RETURN JUMPDEST POP CALLVALUE PUSH2 0x4C4 JUMP JUMPDEST POP CALLVALUE PUSH2 0x4B6 JUMP JUMPDEST CALLVALUE PUSH2 0x308 JUMPI PUSH1 0x20 CALLDATASIZE PUSH1 0x3 NOT ADD SLT PUSH2 0x308 JUMPI PUSH1 0x4 CALLDATALOAD PUSH2 0x5A8 PUSH2 0x2AB7 JUMP JUMPDEST PUSH2 0x5BC DUP2 PUSH1 0x0 MSTORE PUSH1 0x6 PUSH1 0x20 MSTORE PUSH1 0x40 PUSH1 0x0 KECCAK256 SWAP1 JUMP JUMPDEST PUSH2 0x5D2 PUSH2 0x5CD PUSH1 0x11 DUP4 ADD SLOAD PUSH1 0xFF AND SWAP1 JUMP JUMPDEST PUSH2 0x30E6 JUMP JUMPDEST PUSH1 0x1 DUP2 ADD DUP1 SLOAD PUSH2 0x600 SWAP1 PUSH2 0x5F9 SWAP1 PUSH1 0x8 SHR PUSH1 0x1 PUSH1 0x1 PUSH1 0xA0 SHL SUB AND JUMPDEST PUSH1 0x1 PUSH1 0x1 PUSH1 0xA0 SHL SUB AND SWAP1 JUMP JUMPDEST CALLER EQ PUSH2 0x34A3 JUMP JUMPDEST PUSH1 0xA DUP3 ADD SWAP2 PUSH2 0x622 PUSH2 0x613 DUP5 SLOAD PUSH1 0xFF AND SWAP1 JUMP JUMPDEST PUSH2 0x61C DUP2 PUSH2 0x17F3 JUMP JUMPDEST ISZERO PUSH2 0x384A JUMP JUMPDEST PUSH2 0x630 PUSH1 0x6 DUP3 ADD SLOAD ISZERO PUSH2 0x388A JUMP JUMPDEST DUP3 SLOAD PUSH1 0xFF NOT AND PUSH1 0x6 OR DUP4 SSTORE PUSH2 0x64C PUSH1 0x0 SWAP4 SLOAD PUSH1 0xFF SWAP1 PUSH1 0x8 SHR AND SWAP1 JUMP JUMPDEST PUSH2 0x6BC JUMPI JUMPDEST POP POP PUSH1 0x40 MLOAD DUP3 PUSH32 0x58243F872C550AD02802199ADE99EB4250F6BB19E9ABBF2D3DE7B969C0EB5E4F PUSH1 0x0 DUP1 LOG2 DUP2 PUSH2 0x68B JUMPI JUMPDEST PUSH2 0x19 PUSH1 0x1 DUP1 SSTORE JUMP JUMPDEST SWAP1 DUP2 MSTORE PUSH32 0x98CD69B526974EDC8F55D210BC89664B6985C7E698453E7ACA776048F6EFCAE5 SWAP1 PUSH1 0x20 SWAP1 LOG2 CODESIZE DUP1 DUP1 PUSH2 0x682 JUMP JUMPDEST PUSH1 0x3 ADD SLOAD SWAP1 SLOAD SWAP1 SWAP2 POP PUSH2 0x6E1 SWAP1 DUP3 SWAP1 PUSH1 0x8 SHR PUSH1 0x1 PUSH1 0x1 PUSH1 0xA0 SHL SUB AND PUSH2 0x3DD6 JUMP JUMPDEST PUSH2 0x3DD6 JUMP JUMPDEST CODESIZE DUP1 PUSH2 0x651 JUMP JUMPDEST PUSH1 0x20 SWAP1 DUP2 PUSH1 0x40 DUP2 DUP4 ADD SWAP3 DUP3 DUP2 MSTORE DUP6 MLOAD DUP1 SWAP5 MSTORE ADD SWAP4 ADD SWAP2 PUSH1 0x0 JUMPDEST DUP3 DUP2 LT PUSH2 0x70F JUMPI POP POP POP POP SWAP1 JUMP JUMPDEST SWAP1 SWAP2 SWAP3 SWAP4 DUP3 PUSH2 0x755 PUSH1 0x1 SWAP3 DUP8 MLOAD SWAP1 PUSH1 0x80 PUSH1 0xA0 SWAP3 DUP1 MLOAD DUP4 MSTORE PUSH1 0x20 DUP2 ADD MLOAD ISZERO ISZERO PUSH1 0x20 DUP5 ADD MSTORE PUSH1 0x40 DUP2 ADD MLOAD ISZERO ISZERO PUSH1 0x40 DUP5 ADD MSTORE PUSH1 0x60 DUP2 ADD MLOAD ISZERO ISZERO PUSH1 0x60 DUP5 ADD MSTORE ADD MLOAD PUSH1 0x80 DUP3 ADD MSTORE ADD SWAP1 JUMP JUMPDEST SWAP6 ADD SWAP4 SWAP3 SWAP2 ADD PUSH2 0x701 JUMP JUMPDEST CALLVALUE PUSH2 0x308 JUMPI PUSH1 0x20 CALLDATASIZE PUSH1 0x3 NOT ADD SLT PUSH2 0x308 JUMPI PUSH1 0x4 CALLDATALOAD PUSH1 0x0 MSTORE PUSH1 0x6 PUSH1 0x20 MSTORE PUSH1 0x40 PUSH1 0x0 KECCAK256 PUSH2 0x791 PUSH1 0xFF PUSH1 0x11 DUP4 ADD SLOAD AND PUSH2 0x30E6 JUMP JUMPDEST PUSH1 0xFF PUSH1 0x1 DUP3 ADD SLOAD AND PUSH1 0x2 DUP2 LT ISZERO PUSH2 0x7FF JUMPI PUSH1 0x1 SUB PUSH2 0x7C4 JUMPI PUSH2 0x7B8 PUSH1 0xB PUSH2 0x57A SWAP3 ADD PUSH2 0x3B7B JUMP JUMPDEST PUSH1 0x40 MLOAD SWAP2 DUP3 SWAP2 DUP3 PUSH2 0x6E8 JUMP JUMPDEST PUSH1 0x40 MLOAD PUSH3 0x461BCD PUSH1 0xE5 SHL DUP2 MSTORE PUSH1 0x20 PUSH1 0x4 DUP3 ADD MSTORE PUSH1 0x13 PUSH1 0x24 DUP3 ADD MSTORE PUSH19 0x2737BA10309036B4B632B9BA37B732903537B1 PUSH1 0x69 SHL PUSH1 0x44 DUP3 ADD MSTORE PUSH1 0x64 SWAP1 REVERT JUMPDEST PUSH2 0x17C6 JUMP JUMPDEST PUSH1 0x44 CALLDATALOAD SWAP1 PUSH1 0x4 DUP3 LT ISZERO PUSH2 0x308 JUMPI JUMP JUMPDEST CALLVALUE PUSH2 0x308 JUMPI PUSH1 0x60 CALLDATASIZE PUSH1 0x3 NOT ADD SLT PUSH2 0x308 JUMPI PUSH1 0x4 CALLDATALOAD PUSH2 0x82F PUSH2 0x804 JUMP JUMPDEST SWAP1 PUSH2 0x845 PUSH1 0x1 DUP1 PUSH1 0xA0 SHL SUB PUSH1 0x3 SLOAD AND CALLER EQ PUSH2 0x38D6 JUMP JUMPDEST PUSH1 0xA PUSH2 0x85B DUP3 PUSH1 0x0 MSTORE PUSH1 0x6 PUSH1 0x20 MSTORE PUSH1 0x40 PUSH1 0x0 KECCAK256 SWAP1 JUMP JUMPDEST PUSH2 0x86C PUSH2 0x5CD PUSH1 0x11 DUP4 ADD SLOAD PUSH1 0xFF AND SWAP1 JUMP JUMPDEST ADD DUP1 SLOAD PUSH1 0xFF NOT AND PUSH1 0x4 OR DUP2 SSTORE PUSH2 0x881 DUP4 PUSH2 0x391A JUMP JUMPDEST DUP3 ISZERO DUP1 PUSH2 0x901 JUMPI JUMPDEST PUSH2 0x8C6 JUMPI JUMPDEST POP PUSH32 0x4890698D7A54AA813DC8341443AC637E7D5E374F248CE7ED441D68AE4329BFC4 PUSH1 0x40 MLOAD DUP1 PUSH2 0x8C1 PUSH1 0x24 CALLDATALOAD SWAP6 DUP3 PUSH2 0x3931 JUMP JUMPDEST SUB SWAP1 LOG3 STOP JUMPDEST DUP1 SLOAD PUSH3 0xFF0000 NOT AND PUSH3 0x10000 OR SWAP1 SSTORE DUP1 PUSH32 0xC10CC2F1CE72576C34976EF8E590B72E63075A8A21A26E46C3C58FC36EB6C400 PUSH1 0x0 DUP1 LOG2 CODESIZE PUSH2 0x88E JUMP JUMPDEST POP DUP1 SLOAD PUSH1 0x18 SHR PUSH1 0xFF AND PUSH2 0x889 JUMP JUMPDEST CALLVALUE PUSH2 0x308 JUMPI PUSH1 0x20 CALLDATASIZE PUSH1 0x3 NOT ADD SLT PUSH2 0x308 JUMPI PUSH1 0x4 CALLDATALOAD PUSH2 0x92B PUSH2 0x2AB7 JUMP JUMPDEST PUSH2 0x93F DUP2 PUSH1 0x0 MSTORE PUSH1 0x6 PUSH1 0x20 MSTORE PUSH1 0x40 PUSH1 0x0 KECCAK256 SWAP1 JUMP JUMPDEST SWAP1 PUSH2 0x951 PUSH2 0x5CD PUSH1 0x11 DUP5 ADD SLOAD PUSH1 0xFF AND SWAP1 JUMP JUMPDEST PUSH1 0x2 DUP3 DUP2 ADD DUP1 SLOAD PUSH2 0x975 SWAP1 PUSH2 0x96E SWAP1 PUSH1 0x1 PUSH1 0x1 PUSH1 0xA0 SHL SUB AND PUSH2 0x5ED JUMP JUMPDEST CALLER EQ PUSH2 0x3614 JUMP JUMPDEST PUSH1 0xA DUP5 ADD SWAP1 PUSH2 0x985 DUP3 SLOAD PUSH1 0xFF AND SWAP1 JUMP JUMPDEST SWAP2 PUSH2 0x98F DUP4 PUSH2 0x17F3 JUMP JUMPDEST PUSH1 0x3 DUP4 EQ DUP1 ISZERO PUSH2 0xC49 JUMPI JUMPDEST DUP1 ISZERO PUSH2 0xC36 JUMPI JUMPDEST PUSH2 0x9AA SWAP1 PUSH2 0x3651 JUMP JUMPDEST PUSH2 0x9BE DUP6 PUSH1 0x0 MSTORE PUSH1 0x8 PUSH1 0x20 MSTORE PUSH1 0x40 PUSH1 0x0 KECCAK256 SWAP1 JUMP JUMPDEST SLOAD SWAP4 PUSH2 0x9D0 PUSH1 0x7 DUP9 ADD SWAP6 DUP7 SLOAD SWAP1 PUSH2 0x2AAA JUMP JUMPDEST SWAP4 PUSH2 0x9DC DUP6 ISZERO ISZERO PUSH2 0x3693 JUMP JUMPDEST PUSH1 0x0 DUP1 SWAP9 PUSH1 0x1 SWAP3 PUSH2 0x9F0 DUP5 DUP4 ADD SLOAD PUSH1 0xFF AND SWAP1 JUMP JUMPDEST PUSH2 0x9F9 DUP2 PUSH2 0x17DC JUMP JUMPDEST PUSH2 0xAC2 JUMPI POP POP POP POP POP PUSH1 0x0 DUP1 MLOAD PUSH1 0x20 PUSH2 0x3F0C DUP4 CODECOPY DUP2 MLOAD SWAP2 MSTORE SWAP4 SWAP3 SWAP2 PUSH2 0xA26 PUSH2 0xAA7 SWAP3 SLOAD PUSH1 0xFF SWAP1 PUSH1 0x10 SHR AND SWAP1 JUMP JUMPDEST ISZERO PUSH2 0xAB3 JUMPI PUSH2 0xA34 DUP4 PUSH2 0x3E89 JUMP JUMPDEST SWAP4 JUMPDEST PUSH2 0xA4B PUSH2 0xA43 DUP7 DUP7 PUSH2 0x3EBD JUMP JUMPDEST SWAP5 DUP3 SLOAD PUSH2 0x2F65 JUMP JUMPDEST SWAP1 SSTORE PUSH2 0xA61 PUSH2 0xA5C DUP6 PUSH1 0x4 SLOAD PUSH2 0x2F65 JUMP JUMPDEST PUSH1 0x4 SSTORE JUMP JUMPDEST DUP1 SLOAD PUSH2 0xA77 SWAP1 DUP5 SWAP1 PUSH1 0x1 PUSH1 0x1 PUSH1 0xA0 SHL SUB AND PUSH2 0x3DD6 JUMP JUMPDEST SLOAD PUSH1 0x1 PUSH1 0x1 PUSH1 0xA0 SHL SUB SWAP1 DUP2 AND JUMPDEST AND SWAP6 PUSH1 0x40 MLOAD SWAP4 DUP5 SWAP4 DUP5 SWAP2 SWAP3 PUSH1 0x40 SWAP2 SWAP5 SWAP4 PUSH1 0x60 DUP5 ADD SWAP6 DUP5 MSTORE PUSH1 0x20 DUP5 ADD MSTORE ISZERO ISZERO SWAP2 ADD MSTORE JUMP JUMPDEST SUB SWAP1 LOG3 PUSH2 0x19 PUSH1 0x1 DUP1 SSTORE JUMP JUMPDEST PUSH2 0xABC DUP4 PUSH2 0x3E6F JUMP JUMPDEST SWAP4 PUSH2 0xA36 JUMP JUMPDEST DUP4 SWAP2 PUSH1 0xB DUP5 SWAP2 ADD SWAP4 DUP5 SLOAD SWAP2 JUMPDEST DUP3 DUP2 LT PUSH2 0xC06 JUMPI JUMPDEST POP POP POP DUP2 ISZERO PUSH2 0xBF2 JUMPI JUMPDEST POP ISZERO PUSH2 0xB1B JUMPI POP POP POP PUSH1 0x0 DUP1 MLOAD PUSH1 0x20 PUSH2 0x3F0C DUP4 CODECOPY DUP2 MLOAD SWAP2 MSTORE SWAP4 SWAP3 SWAP2 PUSH2 0xB0D PUSH2 0xAA7 SWAP3 SLOAD PUSH1 0xFF SWAP1 PUSH1 0x10 SHR AND SWAP1 JUMP JUMPDEST ISZERO PUSH2 0xAB3 JUMPI PUSH2 0xABC DUP4 PUSH2 0x3E89 JUMP JUMPDEST SWAP2 SWAP8 POP SWAP5 SWAP2 POP PUSH2 0xB2A DUP5 PUSH2 0x3EA3 JUMP JUMPDEST SWAP5 DUP1 SWAP8 DUP2 PUSH1 0x0 SWAP1 JUMPDEST PUSH2 0xB56 JUMPI JUMPDEST POP POP POP POP PUSH1 0x0 DUP1 MLOAD PUSH1 0x20 PUSH2 0x3F0C DUP4 CODECOPY DUP2 MLOAD SWAP2 MSTORE SWAP4 SWAP3 SWAP2 PUSH2 0xAA7 SWAP2 PUSH2 0xA36 JUMP JUMPDEST DUP4 SLOAD DUP2 LT ISZERO PUSH2 0xBED JUMPI PUSH2 0xB8A DUP2 PUSH2 0xB7B DUP6 PUSH2 0xB72 DUP2 SWAP6 DUP10 PUSH2 0x2FDB JUMP JUMPDEST POP ADD SLOAD PUSH1 0xFF AND SWAP1 JUMP JUMPDEST DUP1 PUSH2 0xBC6 JUMPI JUMPDEST PUSH2 0xB90 JUMPI PUSH2 0x2C18 JUMP JUMPDEST SWAP1 PUSH2 0xB32 JUMP JUMPDEST PUSH2 0xBB1 DUP4 PUSH2 0xB9E DUP4 DUP10 PUSH2 0x2FDB JUMP JUMPDEST POP ADD DUP1 SLOAD PUSH3 0xFF0000 NOT AND PUSH3 0x10000 OR SWAP1 SSTORE JUMP JUMPDEST PUSH2 0xBBB DUP2 DUP8 PUSH2 0x2FDB JUMP JUMPDEST POP DUP5 TIMESTAMP SWAP2 ADD SSTORE PUSH2 0x2C18 JUMP JUMPDEST POP PUSH2 0xBE8 PUSH2 0xBE4 DUP5 PUSH2 0xBD8 DUP5 DUP11 PUSH2 0x2FDB JUMP JUMPDEST POP ADD SLOAD PUSH1 0x10 SHR PUSH1 0xFF AND SWAP1 JUMP JUMPDEST ISZERO SWAP1 JUMP JUMPDEST PUSH2 0xB81 JUMP JUMPDEST PUSH2 0xB37 JUMP JUMPDEST PUSH1 0x5 SWAP2 POP PUSH2 0xBFF DUP2 PUSH2 0x17F3 JUMP JUMPDEST EQ CODESIZE PUSH2 0xAE0 JUMP JUMPDEST PUSH2 0xC17 PUSH2 0xBE4 DUP9 PUSH2 0xB72 DUP5 DUP11 PUSH2 0x2FDB JUMP JUMPDEST PUSH2 0xC29 JUMPI PUSH2 0xC24 SWAP1 PUSH2 0x2C18 JUMP JUMPDEST PUSH2 0xACE JUMP JUMPDEST POP SWAP3 POP CODESIZE SWAP1 POP DUP1 DUP1 PUSH2 0xAD6 JUMP JUMPDEST POP PUSH2 0xC40 DUP4 PUSH2 0x17F3 JUMP JUMPDEST PUSH1 0x5 DUP4 EQ PUSH2 0x9A1 JUMP JUMPDEST POP PUSH2 0xC53 DUP4 PUSH2 0x17F3 JUMP JUMPDEST PUSH1 0x1 DUP4 EQ PUSH2 0x99A JUMP JUMPDEST CALLVALUE PUSH2 0x308 JUMPI PUSH1 0x20 CALLDATASIZE PUSH1 0x3 NOT ADD SLT PUSH2 0x308 JUMPI PUSH1 0x4 CALLDATALOAD PUSH2 0xC78 PUSH2 0x2AB7 JUMP JUMPDEST PUSH2 0xC80 PUSH2 0x2A1E JUMP JUMPDEST DUP1 ISZERO PUSH2 0xD35 JUMPI PUSH1 0x4 SLOAD SWAP1 DUP2 DUP2 GT PUSH2 0xCFC JUMPI PUSH2 0xCBF PUSH2 0xA5C DUP3 PUSH32 0x2575D77A1EC3998D286C801D15068D5201EC99248623B8F7B7FC936AC1B62D6A SWAP5 PUSH2 0x2AAA JUMP JUMPDEST PUSH1 0x2 SLOAD PUSH2 0xCD6 SWAP1 DUP3 SWAP1 PUSH1 0x1 PUSH1 0x1 PUSH1 0xA0 SHL SUB AND PUSH2 0x3DD6 JUMP JUMPDEST PUSH1 0x2 SLOAD PUSH1 0x40 DUP1 MLOAD PUSH1 0x1 PUSH1 0x1 PUSH1 0xA0 SHL SUB SWAP1 SWAP3 AND DUP3 MSTORE PUSH1 0x20 DUP3 ADD SWAP3 SWAP1 SWAP3 MSTORE LOG1 PUSH2 0x19 PUSH1 0x1 DUP1 SSTORE JUMP JUMPDEST PUSH1 0x40 MLOAD PUSH3 0x461BCD PUSH1 0xE5 SHL DUP2 MSTORE PUSH1 0x20 PUSH1 0x4 DUP3 ADD MSTORE PUSH1 0x11 PUSH1 0x24 DUP3 ADD MSTORE PUSH17 0x496E73756666696369656E742066656573 PUSH1 0x78 SHL PUSH1 0x44 DUP3 ADD MSTORE PUSH1 0x64 SWAP1 REVERT JUMPDEST PUSH1 0x40 MLOAD PUSH3 0x461BCD PUSH1 0xE5 SHL DUP2 MSTORE PUSH1 0x20 PUSH1 0x4 DUP3 ADD MSTORE PUSH1 0xB PUSH1 0x24 DUP3 ADD MSTORE PUSH11 0x1E995C9BC8185B5BDD5B9D PUSH1 0xAA SHL PUSH1 0x44 DUP3 ADD MSTORE PUSH1 0x64 SWAP1 REVERT JUMPDEST CALLVALUE PUSH2 0x308 JUMPI PUSH1 0x0 CALLDATASIZE PUSH1 0x3 NOT ADD SLT PUSH2 0x308 JUMPI PUSH1 0x3 SLOAD PUSH1 0x40 MLOAD PUSH1 0x1 PUSH1 0x1 PUSH1 0xA0 SHL SUB SWAP1 SWAP2 AND DUP2 MSTORE PUSH1 0x20 SWAP1 RETURN JUMPDEST PUSH1 0x4 CALLDATALOAD SWAP1 PUSH1 0x1 PUSH1 0x1 PUSH1 0xA0 SHL SUB DUP3 AND DUP3 SUB PUSH2 0x308 JUMPI JUMP JUMPDEST PUSH1 0x24 CALLDATALOAD SWAP1 PUSH1 0x1 PUSH1 0x1 PUSH1 0xA0 SHL SUB DUP3 AND DUP3 SUB PUSH2 0x308 JUMPI JUMP JUMPDEST PUSH1 0x64 CALLDATALOAD SWAP1 PUSH1 0x1 PUSH1 0x1 PUSH1 0xA0 SHL SUB DUP3 AND DUP3 SUB PUSH2 0x308 JUMPI JUMP JUMPDEST PUSH1 0x20 SWAP1 DUP2 PUSH1 0x40 DUP2 DUP4 ADD SWAP3 DUP3 DUP2 MSTORE DUP6 MLOAD DUP1 SWAP5 MSTORE ADD SWAP4 ADD SWAP2 PUSH1 0x0 JUMPDEST DUP3 DUP2 LT PUSH2 0xDFA JUMPI POP POP POP POP SWAP1 JUMP JUMPDEST DUP4 MLOAD DUP6 MSTORE SWAP4 DUP2 ADD SWAP4 SWAP3 DUP2 ADD SWAP3 PUSH1 0x1 ADD PUSH2 0xDEC JUMP JUMPDEST CALLVALUE PUSH2 0x308 JUMPI PUSH1 0x20 DUP1 PUSH1 0x3 NOT CALLDATASIZE ADD SLT PUSH2 0x308 JUMPI PUSH1 0x1 PUSH1 0x1 PUSH1 0xA0 SHL SUB PUSH2 0xE30 PUSH2 0xD91 JUMP JUMPDEST AND PUSH1 0x0 MSTORE PUSH1 0x9 DUP2 MSTORE PUSH1 0x40 PUSH1 0x0 KECCAK256 SWAP1 PUSH1 0x40 MLOAD SWAP1 DUP2 DUP2 DUP5 SLOAD SWAP2 DUP3 DUP2 MSTORE ADD SWAP4 PUSH1 0x0 MSTORE DUP2 PUSH1 0x0 KECCAK256 SWAP2 PUSH1 0x0 SWAP1 JUMPDEST DUP3 DUP3 LT PUSH2 0xE7B JUMPI PUSH2 0x57A DUP6 PUSH2 0xE6F DUP2 DUP10 SUB DUP3 PUSH2 0x2F8D JUMP JUMPDEST PUSH1 0x40 MLOAD SWAP2 DUP3 SWAP2 DUP3 PUSH2 0xDD3 JUMP JUMPDEST DUP4 SLOAD DUP7 MSTORE SWAP5 DUP6 ADD SWAP5 PUSH1 0x1 SWAP4 DUP5 ADD SWAP4 SWAP1 SWAP2 ADD SWAP1 PUSH2 0xE58 JUMP JUMPDEST CALLVALUE PUSH2 0x308 JUMPI PUSH1 0x20 CALLDATASIZE PUSH1 0x3 NOT ADD SLT PUSH2 0x308 JUMPI PUSH2 0xEAB PUSH2 0xD91 JUMP JUMPDEST PUSH2 0xEB3 PUSH2 0x2A1E JUMP JUMPDEST PUSH1 0x1 PUSH1 0x1 PUSH1 0xA0 SHL SUB DUP2 DUP2 AND SWAP2 PUSH32 0xB4211C1C33733C2BB84644DB7DFB7BAFC2C8F6BB163CC45373B2908DD29F91DB SWAP1 PUSH2 0xEEC DUP5 ISZERO ISZERO PUSH2 0x2A4A JUMP JUMPDEST PUSH1 0x3 SLOAD PUSH1 0x40 DUP1 MLOAD SWAP5 DUP3 AND PUSH1 0x1 PUSH1 0x1 PUSH1 0xA0 SHL SUB SWAP1 DUP2 AND DUP7 MSTORE SWAP3 SWAP1 SWAP3 AND PUSH1 0x20 DUP6 ADD MSTORE SWAP3 LOG1 PUSH1 0x1 PUSH1 0x1 PUSH1 0xA0 SHL SUB NOT AND OR PUSH1 0x3 SSTORE STOP JUMPDEST CALLVALUE PUSH2 0x308 JUMPI PUSH1 0x20 CALLDATASIZE PUSH1 0x3 NOT ADD SLT PUSH2 0x308 JUMPI PUSH1 0x4 CALLDATALOAD PUSH2 0xF3A PUSH2 0x2AB7 JUMP JUMPDEST PUSH32 0x98CD69B526974EDC8F55D210BC89664B6985C7E698453E7ACA776048F6EFCAE5 PUSH2 0x1042 PUSH2 0x1022 PUSH2 0x1032 PUSH2 0xF78 DUP6 PUSH1 0x0 MSTORE PUSH1 0x6 PUSH1 0x20 MSTORE PUSH1 0x40 PUSH1 0x0 KECCAK256 SWAP1 JUMP JUMPDEST PUSH2 0xF89 PUSH2 0x5CD PUSH1 0x11 DUP4 ADD SLOAD PUSH1 0xFF AND SWAP1 JUMP JUMPDEST PUSH2 0x6DC PUSH1 0x1 DUP3 ADD PUSH2 0xFBE PUSH1 0x1 PUSH1 0xFF DUP4 SLOAD PUSH2 0xFAE DUP4 DUP1 PUSH1 0xA0 SHL SUB DUP3 PUSH1 0x8 SHR AND CALLER EQ PUSH2 0x34A3 JUMP JUMPDEST AND PUSH2 0xFB8 DUP2 PUSH2 0x17DC JUMP JUMPDEST EQ PUSH2 0x378C JUMP JUMPDEST PUSH2 0x1007 PUSH1 0xA DUP5 ADD SWAP4 PUSH2 0xFF7 PUSH1 0xFF DUP7 SLOAD PUSH2 0xFDB DUP3 DUP3 PUSH1 0x8 SHR AND PUSH2 0x34DD JUMP JUMPDEST AND PUSH2 0xFE5 DUP2 PUSH2 0x17F3 JUMP JUMPDEST PUSH1 0x5 DUP2 EQ ISZERO SWAP1 DUP2 PUSH2 0x104E JUMPI JUMPDEST POP PUSH2 0x37CE JUMP JUMPDEST PUSH1 0x6 PUSH1 0x3 DUP3 ADD SLOAD SWAP2 ADD SLOAD SWAP1 PUSH2 0x2AAA JUMP JUMPDEST SWAP5 DUP6 SWAP4 PUSH2 0x1015 DUP6 ISZERO ISZERO PUSH2 0x380A JUMP JUMPDEST DUP1 SLOAD PUSH1 0xFF NOT AND PUSH1 0x5 OR SWAP1 SSTORE JUMP JUMPDEST SLOAD PUSH1 0x8 SHR PUSH1 0x1 PUSH1 0x1 PUSH1 0xA0 SHL SUB AND SWAP1 JUMP JUMPDEST PUSH1 0x40 MLOAD SWAP1 DUP2 MSTORE SWAP1 DUP2 SWAP1 PUSH1 0x20 DUP3 ADD SWAP1 JUMP JUMPDEST SUB SWAP1 LOG2 PUSH2 0x19 PUSH1 0x1 DUP1 SSTORE JUMP JUMPDEST PUSH1 0x6 SWAP2 POP PUSH2 0x105B DUP2 PUSH2 0x17F3 JUMP JUMPDEST EQ ISZERO CODESIZE PUSH2 0xFF1 JUMP JUMPDEST CALLVALUE PUSH2 0x308 JUMPI PUSH1 0x40 CALLDATASIZE PUSH1 0x3 NOT ADD SLT PUSH2 0x308 JUMPI PUSH1 0x1 PUSH1 0x1 PUSH1 0xA0 SHL SUB PUSH2 0x1084 PUSH2 0xD91 JUMP JUMPDEST AND PUSH1 0x0 MSTORE PUSH1 0x7 PUSH1 0x20 MSTORE PUSH1 0x40 PUSH1 0x0 KECCAK256 PUSH1 0x24 CALLDATALOAD PUSH1 0x0 MSTORE PUSH1 0x20 MSTORE PUSH1 0x20 PUSH1 0xFF PUSH1 0x40 PUSH1 0x0 KECCAK256 SLOAD AND PUSH1 0x40 MLOAD SWAP1 ISZERO ISZERO DUP2 MSTORE RETURN JUMPDEST CALLVALUE PUSH2 0x308 JUMPI PUSH1 0x0 DUP1 PUSH1 0x3 NOT CALLDATASIZE ADD SLT PUSH2 0x110B JUMPI PUSH2 0x10CA PUSH2 0x2A1E JUMP JUMPDEST DUP1 SLOAD PUSH1 0x1 PUSH1 0x1 PUSH1 0xA0 SHL SUB NOT DUP2 AND DUP3 SSTORE DUP2 SWAP1 PUSH1 0x1 PUSH1 0x1 PUSH1 0xA0 SHL SUB AND PUSH32 0x8BE0079C531659141344CD1FD0A4F28419497F9722A3DAAFE3B4186F6B6457E0 DUP3 DUP1 LOG3 DUP1 RETURN JUMPDEST DUP1 REVERT JUMPDEST SWAP2 DUP2 PUSH1 0x1F DUP5 ADD SLT ISZERO PUSH2 0x308 JUMPI DUP3 CALLDATALOAD SWAP2 PUSH1 0x1 PUSH1 0x1 PUSH1 0x40 SHL SUB DUP4 GT PUSH2 0x308 JUMPI PUSH1 0x20 DUP1 DUP6 ADD SWAP5 DUP5 PUSH1 0x5 SHL ADD ADD GT PUSH2 0x308 JUMPI JUMP JUMPDEST CALLVALUE PUSH2 0x308 JUMPI PUSH1 0x20 CALLDATASIZE PUSH1 0x3 NOT ADD SLT PUSH2 0x308 JUMPI PUSH1 0x4 CALLDATALOAD PUSH1 0x1 PUSH1 0x1 PUSH1 0x40 SHL SUB DUP2 GT PUSH2 0x308 JUMPI PUSH2 0x116E SWAP1 CALLDATASIZE SWAP1 PUSH1 0x4 ADD PUSH2 0x110E JUMP JUMPDEST PUSH2 0x1176 PUSH2 0x2AB7 JUMP JUMPDEST PUSH2 0x1181 DUP2 ISZERO ISZERO PUSH2 0x36D5 JUMP JUMPDEST PUSH1 0x0 SWAP1 DUP2 DUP3 JUMPDEST DUP3 DUP2 LT PUSH2 0x11E8 JUMPI POP SWAP1 PUSH2 0x1042 DUP4 SWAP3 PUSH2 0x11C1 PUSH32 0x70DBC53A66CFF01B9149033C1A027EA0AE024B3E721D7BC9EFDABE8969575173 SWAP6 ISZERO ISZERO PUSH2 0x3693 JUMP JUMPDEST PUSH2 0x11D0 PUSH2 0xA5C DUP3 PUSH1 0x4 SLOAD PUSH2 0x2F65 JUMP JUMPDEST PUSH2 0x11DA DUP5 CALLER PUSH2 0x3DD6 JUMP JUMPDEST PUSH1 0x40 MLOAD SWAP4 DUP5 SWAP4 CALLER SWAP8 DUP6 PUSH2 0x3752 JUMP JUMPDEST SWAP4 SWAP2 PUSH2 0x11F5 DUP6 DUP3 DUP6 PUSH2 0x2F14 JUMP JUMPDEST CALLDATALOAD SWAP5 PUSH2 0x120B DUP7 PUSH1 0x0 MSTORE PUSH1 0x6 PUSH1 0x20 MSTORE PUSH1 0x40 PUSH1 0x0 KECCAK256 SWAP1 JUMP JUMPDEST SWAP6 PUSH2 0x121D PUSH2 0x5CD PUSH1 0x11 DUP10 ADD SLOAD PUSH1 0xFF AND SWAP1 JUMP JUMPDEST PUSH1 0x2 SWAP1 DUP2 DUP9 ADD SWAP8 PUSH2 0x123A PUSH2 0x96E PUSH2 0x5ED DUP12 SLOAD PUSH1 0x1 DUP1 PUSH1 0xA0 SHL SUB AND SWAP1 JUMP JUMPDEST PUSH1 0xA DUP2 ADD SWAP1 PUSH2 0x1268 PUSH2 0x124D DUP4 SLOAD PUSH1 0xFF AND SWAP1 JUMP JUMPDEST PUSH2 0x1256 DUP2 PUSH2 0x17F3 JUMP JUMPDEST PUSH1 0x3 DUP2 EQ SWAP1 DUP2 ISZERO PUSH2 0x1470 JUMPI JUMPDEST POP PUSH2 0x3714 JUMP JUMPDEST PUSH2 0x127C DUP4 PUSH1 0x0 MSTORE PUSH1 0x8 PUSH1 0x20 MSTORE PUSH1 0x40 PUSH1 0x0 KECCAK256 SWAP1 JUMP JUMPDEST SLOAD SWAP2 PUSH2 0x128E PUSH1 0x7 DUP4 ADD SWAP4 DUP5 SLOAD SWAP1 PUSH2 0x2AAA JUMP JUMPDEST SWAP2 DUP3 ISZERO PUSH2 0x145B JUMPI PUSH1 0x0 SWAP6 DUP7 PUSH1 0x1 SWAP3 PUSH2 0x12A9 DUP5 DUP3 ADD SLOAD PUSH1 0xFF AND SWAP1 JUMP JUMPDEST PUSH2 0x12B2 DUP2 PUSH2 0x17DC JUMP JUMPDEST PUSH2 0x1355 JUMPI POP POP POP POP PUSH2 0x1332 PUSH2 0x1320 PUSH1 0x0 DUP1 MLOAD PUSH1 0x20 PUSH2 0x3F0C DUP4 CODECOPY DUP2 MLOAD SWAP2 MSTORE SWAP5 PUSH2 0x131A PUSH2 0x133A SWAP11 SWAP12 SWAP13 SWAP14 SWAP6 PUSH2 0x12ED PUSH2 0x1313 SWAP7 SLOAD PUSH1 0xFF SWAP1 PUSH1 0x10 SHR AND SWAP1 JUMP JUMPDEST ISZERO PUSH2 0x1344 JUMPI PUSH2 0x12FB DUP2 PUSH2 0x3E89 JUMP JUMPDEST SWAP7 DUP8 SWAP4 JUMPDEST PUSH2 0x1309 DUP6 DUP5 PUSH2 0x3EBD JUMP JUMPDEST SWAP8 DUP9 SWAP4 DUP3 SLOAD PUSH2 0x2F65 JUMP JUMPDEST SWAP1 SSTORE PUSH2 0x2F65 JUMP JUMPDEST SWAP12 PUSH2 0x2F65 JUMP JUMPDEST SWAP12 SLOAD PUSH1 0x1 PUSH1 0x1 PUSH1 0xA0 SHL SUB SWAP1 DUP2 AND PUSH2 0xA84 JUMP JUMPDEST SUB SWAP1 LOG3 PUSH2 0x2C18 JUMP JUMPDEST SWAP4 SWAP1 SWAP2 SWAP3 SWAP4 PUSH2 0x1187 JUMP JUMPDEST PUSH2 0x134D DUP2 PUSH2 0x3E6F JUMP JUMPDEST SWAP7 DUP8 SWAP4 PUSH2 0x12FF JUMP JUMPDEST DUP4 SWAP1 PUSH1 0xB DUP4 SWAP2 ADD SWAP3 DUP4 SLOAD SWAP2 JUMPDEST DUP3 DUP2 LT PUSH2 0x142C JUMPI JUMPDEST POP POP POP PUSH1 0x0 EQ PUSH2 0x13B7 JUMPI POP POP POP PUSH2 0x1332 PUSH2 0x1320 PUSH1 0x0 DUP1 MLOAD PUSH1 0x20 PUSH2 0x3F0C DUP4 CODECOPY DUP2 MLOAD SWAP2 MSTORE SWAP5 PUSH2 0x131A PUSH2 0x133A SWAP11 SWAP12 SWAP13 SWAP14 SWAP6 PUSH2 0x13A9 PUSH2 0x1313 SWAP7 SLOAD PUSH1 0xFF SWAP1 PUSH1 0x10 SHR AND SWAP1 JUMP JUMPDEST ISZERO PUSH2 0x1344 JUMPI PUSH2 0x134D DUP2 PUSH2 0x3E89 JUMP JUMPDEST SWAP2 SWAP12 SWAP4 PUSH2 0x13C9 SWAP2 SWAP8 POP DUP1 SWAP6 SWAP4 POP PUSH2 0x3EA3 JUMP JUMPDEST SWAP11 DUP1 SWAP7 DUP2 PUSH1 0x0 SWAP1 JUMPDEST PUSH2 0x1405 JUMPI JUMPDEST POP POP POP POP PUSH2 0x1332 PUSH2 0x1320 DUP12 PUSH2 0x131A PUSH1 0x0 DUP1 MLOAD PUSH1 0x20 PUSH2 0x3F0C DUP4 CODECOPY DUP2 MLOAD SWAP2 MSTORE SWAP7 PUSH2 0x133A SWAP12 SWAP13 SWAP14 SWAP15 SWAP7 PUSH2 0x1313 SWAP7 PUSH2 0x12FF JUMP JUMPDEST DUP4 SLOAD DUP2 LT ISZERO PUSH2 0x1427 JUMPI PUSH2 0x1421 DUP2 PUSH2 0xB7B DUP6 PUSH2 0xB72 DUP2 SWAP6 DUP10 PUSH2 0x2FDB JUMP JUMPDEST SWAP1 PUSH2 0x13D1 JUMP JUMPDEST PUSH2 0x13D6 JUMP JUMPDEST PUSH2 0x143D PUSH2 0xBE4 DUP9 PUSH2 0xB72 DUP5 DUP10 PUSH2 0x2FDB JUMP JUMPDEST PUSH2 0x144F JUMPI PUSH2 0x144A SWAP1 PUSH2 0x2C18 JUMP JUMPDEST PUSH2 0x1361 JUMP JUMPDEST POP SWAP2 POP POP CODESIZE DUP1 DUP1 PUSH2 0x1369 JUMP JUMPDEST POP POP POP POP POP POP PUSH2 0x133A SWAP2 SWAP3 SWAP6 POP SWAP4 SWAP3 SWAP4 PUSH2 0x2C18 JUMP JUMPDEST PUSH1 0x1 SWAP2 POP PUSH2 0x147D DUP2 PUSH2 0x17F3 JUMP JUMPDEST EQ CODESIZE PUSH2 0x1262 JUMP JUMPDEST CALLVALUE PUSH2 0x308 JUMPI PUSH1 0x0 CALLDATASIZE PUSH1 0x3 NOT ADD SLT PUSH2 0x308 JUMPI PUSH1 0x2 SLOAD PUSH1 0x40 MLOAD PUSH1 0x1 PUSH1 0x1 PUSH1 0xA0 SHL SUB SWAP1 SWAP2 AND DUP2 MSTORE PUSH1 0x20 SWAP1 RETURN JUMPDEST CALLVALUE PUSH2 0x308 JUMPI PUSH1 0x20 CALLDATASIZE PUSH1 0x3 NOT ADD SLT PUSH2 0x308 JUMPI PUSH1 0x4 CALLDATALOAD PUSH1 0x0 MSTORE PUSH1 0x6 PUSH1 0x20 MSTORE PUSH1 0x20 PUSH1 0xFF PUSH1 0xA PUSH1 0x40 PUSH1 0x0 KECCAK256 PUSH2 0x14E3 DUP4 PUSH1 0x11 DUP4 ADD SLOAD AND PUSH2 0x30E6 JUMP JUMPDEST ADD SLOAD PUSH1 0x18 SHR AND PUSH1 0x40 MLOAD SWAP1 ISZERO ISZERO DUP2 MSTORE RETURN JUMPDEST PUSH1 0x20 CALLDATASIZE PUSH1 0x3 NOT ADD SLT PUSH2 0x308 JUMPI PUSH1 0x4 CALLDATALOAD PUSH2 0x150A PUSH2 0x2AB7 JUMP JUMPDEST DUP1 PUSH1 0x0 MSTORE PUSH1 0x6 PUSH1 0x20 MSTORE PUSH2 0x1588 PUSH1 0x40 PUSH1 0x0 KECCAK256 PUSH2 0x152B PUSH1 0xFF PUSH1 0x11 DUP4 ADD SLOAD AND PUSH2 0x30E6 JUMP JUMPDEST PUSH1 0x1 DUP2 ADD SLOAD PUSH2 0x1550 SWAP1 PUSH2 0x1549 SWAP1 PUSH1 0x8 SHR PUSH1 0x1 PUSH1 0x1 PUSH1 0xA0 SHL SUB AND PUSH2 0x5ED JUMP JUMPDEST CALLER EQ PUSH2 0x3122 JUMP JUMPDEST PUSH2 0x4F8 PUSH1 0x3 PUSH1 0xA DUP4 ADD SWAP3 PUSH2 0x1574 PUSH2 0x156F PUSH2 0xBE4 DUP7 SLOAD PUSH1 0xFF SWAP1 PUSH1 0x8 SHR AND SWAP1 JUMP JUMPDEST PUSH2 0x3165 JUMP JUMPDEST PUSH2 0x157F CALLVALUE ISZERO ISZERO PUSH2 0x31A2 JUMP JUMPDEST ADD SLOAD CALLVALUE EQ PUSH2 0x31DE JUMP JUMPDEST PUSH1 0x40 MLOAD CALLVALUE DUP2 MSTORE PUSH32 0x9D25C5CF940EED311C45E5A0B4C7C8790A356D3C356453B76BB7E232DB3F384A SWAP1 DUP1 PUSH1 0x20 DUP2 ADD PUSH2 0x1042 JUMP JUMPDEST CALLVALUE PUSH2 0x308 JUMPI PUSH1 0x0 CALLDATASIZE PUSH1 0x3 NOT ADD SLT PUSH2 0x308 JUMPI PUSH1 0x0 SLOAD PUSH1 0x40 MLOAD PUSH1 0x1 PUSH1 0x1 PUSH1 0xA0 SHL SUB SWAP1 SWAP2 AND DUP2 MSTORE PUSH1 0x20 SWAP1 RETURN JUMPDEST CALLVALUE PUSH2 0x308 JUMPI PUSH1 0x40 CALLDATASIZE PUSH1 0x3 NOT ADD SLT PUSH2 0x308 JUMPI PUSH1 0x24 CALLDATALOAD PUSH1 0x4 CALLDATALOAD PUSH1 0x0 MSTORE PUSH1 0x6 PUSH1 0x20 MSTORE PUSH1 0x40 PUSH1 0x0 KECCAK256 SWAP1 PUSH2 0x1618 PUSH1 0xFF PUSH1 0x11 DUP5 ADD SLOAD AND PUSH2 0x30E6 JUMP JUMPDEST PUSH1 0xFF PUSH1 0x1 DUP4 ADD SLOAD AND PUSH1 0x2 DUP2 LT ISZERO PUSH2 0x7FF JUMPI PUSH2 0x164D SWAP3 PUSH2 0x163B PUSH1 0x1 PUSH1 0xB SWAP4 EQ PUSH2 0x3558 JUMP JUMPDEST ADD PUSH2 0x1648 DUP2 SLOAD DUP4 LT PUSH2 0x3B49 JUMP JUMPDEST PUSH2 0x2FDB JUMP JUMPDEST POP DUP1 SLOAD SWAP1 PUSH2 0x57A PUSH1 0x2 PUSH1 0x1 DUP4 ADD SLOAD SWAP3 ADD SLOAD PUSH1 0x40 MLOAD SWAP4 DUP4 PUSH1 0xFF DUP7 SWAP6 PUSH1 0x10 SHR AND SWAP2 PUSH1 0xFF DUP1 DUP4 PUSH1 0x8 SHR AND SWAP3 AND SWAP1 DUP7 SWAP2 SWAP3 PUSH1 0x80 SWAP4 SWAP7 SWAP6 SWAP5 SWAP2 SWAP7 PUSH1 0xA0 DUP5 ADD SWAP8 DUP5 MSTORE ISZERO ISZERO PUSH1 0x20 DUP5 ADD MSTORE ISZERO ISZERO PUSH1 0x40 DUP4 ADD MSTORE ISZERO ISZERO PUSH1 0x60 DUP3 ADD MSTORE ADD MSTORE JUMP JUMPDEST CALLVALUE PUSH2 0x308 JUMPI PUSH1 0x40 CALLDATASIZE PUSH1 0x3 NOT ADD SLT PUSH2 0x308 JUMPI PUSH1 0x4 CALLDATALOAD PUSH2 0x16BE PUSH2 0xDA7 JUMP JUMPDEST SWAP1 PUSH1 0x0 SWAP2 DUP2 DUP4 MSTORE PUSH1 0x6 PUSH1 0x20 MSTORE PUSH2 0x1772 PUSH1 0x40 DUP5 KECCAK256 PUSH2 0x16E2 PUSH2 0x5CD PUSH1 0x11 DUP4 ADD SLOAD PUSH1 0xFF AND SWAP1 JUMP JUMPDEST PUSH1 0x1 DUP2 ADD SLOAD PUSH2 0x1707 SWAP1 PUSH2 0x1700 SWAP1 PUSH1 0x8 SHR PUSH1 0x1 PUSH1 0x1 PUSH1 0xA0 SHL SUB AND PUSH2 0x5ED JUMP JUMPDEST CALLER EQ PUSH2 0x32A1 JUMP JUMPDEST PUSH2 0x2D2 DUP4 PUSH1 0x2 PUSH1 0xA DUP5 ADD SWAP4 PUSH2 0x1720 PUSH2 0x29A DUP7 SLOAD PUSH1 0xFF AND SWAP1 JUMP JUMPDEST PUSH2 0x1752 PUSH2 0x174D PUSH2 0x1746 DUP11 PUSH2 0x2C3 DUP8 PUSH1 0x1 DUP1 PUSH1 0xA0 SHL SUB AND PUSH1 0x0 MSTORE PUSH1 0x7 PUSH1 0x20 MSTORE PUSH1 0x40 PUSH1 0x0 KECCAK256 SWAP1 JUMP JUMPDEST SLOAD PUSH1 0xFF AND SWAP1 JUMP JUMPDEST PUSH2 0x32ED JUMP JUMPDEST ADD DUP1 SLOAD PUSH1 0x1 PUSH1 0x1 PUSH1 0xA0 SHL SUB NOT AND PUSH1 0x1 PUSH1 0x1 PUSH1 0xA0 SHL SUB SWAP1 SWAP3 AND SWAP2 SWAP1 SWAP2 OR SWAP1 SSTORE JUMP JUMPDEST PUSH1 0x1 PUSH1 0x1 PUSH1 0xA0 SHL SUB DUP2 AND PUSH1 0x0 SWAP1 DUP2 MSTORE PUSH1 0x9 PUSH1 0x20 MSTORE PUSH1 0x40 SWAP1 KECCAK256 PUSH2 0x1795 SWAP1 DUP4 SWAP1 PUSH2 0x3339 JUMP JUMPDEST PUSH1 0x1 PUSH1 0x1 PUSH1 0xA0 SHL SUB AND SWAP1 PUSH32 0x75DDD184E81EB370D30CC019F29184E242488C372A6CCCB9B7DEC5821C3F6C0D DUP4 DUP1 LOG3 DUP1 RETURN JUMPDEST PUSH4 0x4E487B71 PUSH1 0xE0 SHL PUSH1 0x0 MSTORE PUSH1 0x21 PUSH1 0x4 MSTORE PUSH1 0x24 PUSH1 0x0 REVERT JUMPDEST PUSH1 0x2 GT ISZERO PUSH2 0x7FF JUMPI JUMP JUMPDEST SWAP1 PUSH1 0x2 DUP3 LT ISZERO PUSH2 0x7FF JUMPI MSTORE JUMP JUMPDEST PUSH1 0x7 GT ISZERO PUSH2 0x7FF JUMPI JUMP JUMPDEST SWAP1 PUSH1 0x7 DUP3 LT ISZERO PUSH2 0x7FF JUMPI MSTORE JUMP JUMPDEST SWAP1 DUP2 MLOAD DUP1 DUP3 MSTORE PUSH1 0x20 DUP1 DUP1 SWAP4 ADD SWAP4 ADD SWAP2 PUSH1 0x0 JUMPDEST DUP3 DUP2 LT PUSH2 0x182A JUMPI POP POP POP POP SWAP1 JUMP JUMPDEST SWAP1 SWAP2 SWAP3 SWAP4 DUP3 PUSH2 0x1870 PUSH1 0x1 SWAP3 DUP8 MLOAD SWAP1 PUSH1 0x80 PUSH1 0xA0 SWAP3 DUP1 MLOAD DUP4 MSTORE PUSH1 0x20 DUP2 ADD MLOAD ISZERO ISZERO PUSH1 0x20 DUP5 ADD MSTORE PUSH1 0x40 DUP2 ADD MLOAD ISZERO ISZERO PUSH1 0x40 DUP5 ADD MSTORE PUSH1 0x60 DUP2 ADD MLOAD ISZERO ISZERO PUSH1 0x60 DUP5 ADD MSTORE ADD MLOAD PUSH1 0x80 DUP3 ADD MSTORE ADD SWAP1 JUMP JUMPDEST SWAP6 ADD SWAP4 SWAP3 SWAP2 ADD PUSH2 0x181C JUMP JUMPDEST SWAP2 SWAP1 DUP3 MLOAD SWAP3 DUP4 DUP3 MSTORE PUSH1 0x0 JUMPDEST DUP5 DUP2 LT PUSH2 0x18A7 JUMPI POP POP DUP3 PUSH1 0x0 PUSH1 0x20 DUP1 SWAP5 SWAP6 DUP5 ADD ADD MSTORE PUSH1 0x1F DUP1 NOT SWAP2 ADD AND ADD ADD SWAP1 JUMP JUMPDEST PUSH1 0x20 DUP2 DUP4 ADD DUP2 ADD MLOAD DUP5 DUP4 ADD DUP3 ADD MSTORE ADD PUSH2 0x1886 JUMP JUMPDEST SWAP1 DUP2 MLOAD DUP1 DUP3 MSTORE PUSH1 0x20 DUP1 SWAP3 ADD SWAP2 DUP3 DUP2 DUP4 PUSH1 0x5 SHL DUP6 ADD SWAP6 ADD SWAP4 PUSH1 0x0 SWAP2 JUMPDEST DUP5 DUP4 LT PUSH2 0x18E6 JUMPI POP POP POP POP POP POP SWAP1 JUMP JUMPDEST SWAP1 SWAP2 SWAP3 SWAP4 SWAP5 SWAP6 DUP5 DUP1 PUSH2 0x1900 DUP4 DUP6 PUSH1 0x1 SWAP6 SUB DUP8 MSTORE DUP11 MLOAD PUSH2 0x187B JUMP JUMPDEST SWAP9 ADD SWAP4 ADD SWAP4 ADD SWAP2 SWAP5 SWAP4 SWAP3 SWAP1 PUSH2 0x18D6 JUMP JUMPDEST SWAP1 PUSH2 0x1A72 SWAP1 DUP3 MLOAD DUP2 MSTORE PUSH2 0x192B PUSH1 0x20 DUP5 ADD MLOAD PUSH1 0x20 DUP4 ADD SWAP1 PUSH2 0x17E6 JUMP JUMPDEST PUSH1 0x40 DUP4 DUP2 ADD MLOAD PUSH1 0x1 PUSH1 0x1 PUSH1 0xA0 SHL SUB AND SWAP1 DUP3 ADD MSTORE PUSH1 0x60 DUP4 DUP2 ADD MLOAD PUSH1 0x1 PUSH1 0x1 PUSH1 0xA0 SHL SUB AND SWAP1 DUP3 ADD MSTORE PUSH1 0x80 DUP4 ADD MLOAD PUSH1 0x80 DUP3 ADD MSTORE PUSH1 0xA0 DUP4 ADD MLOAD PUSH1 0xA0 DUP3 ADD MSTORE PUSH1 0xC0 DUP4 ADD MLOAD PUSH1 0xC0 DUP3 ADD MSTORE PUSH1 0xE0 DUP4 ADD MLOAD PUSH1 0xE0 DUP3 ADD MSTORE PUSH2 0x100 DUP1 DUP5 ADD MLOAD SWAP1 DUP3 ADD MSTORE PUSH2 0x120 DUP1 DUP5 ADD MLOAD SWAP1 DUP3 ADD MSTORE PUSH2 0x140 DUP1 DUP5 ADD MLOAD SWAP1 DUP3 ADD MSTORE PUSH2 0x19AD PUSH2 0x160 DUP1 DUP6 ADD MLOAD SWAP1 DUP4 ADD SWAP1 PUSH2 0x17FD JUMP JUMPDEST PUSH2 0x180 DUP4 DUP2 ADD MLOAD ISZERO ISZERO SWAP1 DUP3 ADD MSTORE PUSH2 0x1A0 DUP4 DUP2 ADD MLOAD ISZERO ISZERO SWAP1 DUP3 ADD MSTORE PUSH2 0x1C0 DUP4 DUP2 ADD MLOAD ISZERO ISZERO SWAP1 DUP3 ADD MSTORE PUSH2 0x1A62 PUSH2 0x1A4E PUSH2 0x1A3A PUSH2 0x1A26 PUSH2 0x1A12 PUSH2 0x19FE PUSH2 0x1E0 DUP1 DUP11 ADD MLOAD SWAP1 PUSH2 0x2C0 DUP1 SWAP2 DUP11 ADD MSTORE DUP9 ADD SWAP1 PUSH2 0x180A JUMP JUMPDEST PUSH2 0x200 DUP1 DUP11 ADD MLOAD SWAP1 DUP9 DUP4 SUB SWAP1 DUP10 ADD MSTORE PUSH2 0x187B JUMP JUMPDEST PUSH2 0x220 DUP1 DUP10 ADD MLOAD SWAP1 DUP8 DUP4 SUB SWAP1 DUP9 ADD MSTORE PUSH2 0x187B JUMP JUMPDEST PUSH2 0x240 DUP1 DUP9 ADD MLOAD SWAP1 DUP7 DUP4 SUB SWAP1 DUP8 ADD MSTORE PUSH2 0x187B JUMP JUMPDEST PUSH2 0x260 DUP1 DUP8 ADD MLOAD SWAP1 DUP6 DUP4 SUB SWAP1 DUP7 ADD MSTORE PUSH2 0x18BB JUMP JUMPDEST PUSH2 0x280 DUP1 DUP7 ADD MLOAD SWAP1 DUP5 DUP4 SUB SWAP1 DUP6 ADD MSTORE PUSH2 0x187B JUMP JUMPDEST PUSH2 0x2A0 SWAP4 DUP5 ADD MLOAD ISZERO ISZERO SWAP2 SWAP1 SWAP4 ADD MSTORE JUMP JUMPDEST SWAP1 JUMP JUMPDEST PUSH1 0x20 DUP1 DUP3 ADD SWAP1 DUP1 DUP4 MSTORE DUP4 MLOAD DUP1 SWAP3 MSTORE PUSH1 0x40 DUP4 ADD SWAP3 DUP2 PUSH1 0x40 DUP5 PUSH1 0x5 SHL DUP4 ADD ADD SWAP6 ADD SWAP4 PUSH1 0x0 SWAP2 JUMPDEST DUP5 DUP4 LT PUSH2 0x1AA9 JUMPI POP POP POP POP POP POP SWAP1 JUMP JUMPDEST SWAP1 SWAP2 SWAP3 SWAP4 SWAP5 SWAP6 DUP5 DUP1 PUSH2 0x1AC7 PUSH1 0x1 SWAP4 PUSH1 0x3F NOT DUP7 DUP3 SUB ADD DUP8 MSTORE DUP11 MLOAD PUSH2 0x1910 JUMP JUMPDEST SWAP9 ADD SWAP4 ADD SWAP4 ADD SWAP2 SWAP5 SWAP4 SWAP3 SWAP1 PUSH2 0x1A99 JUMP JUMPDEST CALLVALUE PUSH2 0x308 JUMPI PUSH1 0x0 DUP1 PUSH1 0x3 NOT CALLDATASIZE ADD SLT PUSH2 0x110B JUMPI PUSH1 0x5 SLOAD PUSH1 0x0 NOT DUP2 ADD DUP2 DUP2 GT PUSH2 0x1B70 JUMPI PUSH2 0x1B01 SWAP1 PUSH2 0x3C11 JUMP JUMPDEST SWAP2 PUSH1 0x1 JUMPDEST DUP3 DUP2 LT PUSH2 0x1B1A JUMPI PUSH1 0x40 MLOAD DUP1 PUSH2 0x57A DUP7 DUP3 PUSH2 0x1A75 JUMP JUMPDEST DUP1 PUSH2 0x1B3D SWAP2 DUP4 MSTORE PUSH1 0x6 PUSH1 0x20 MSTORE PUSH1 0x40 DUP4 KECCAK256 PUSH1 0xFF PUSH1 0x11 DUP3 ADD SLOAD AND PUSH2 0x1B42 JUMPI JUMPDEST POP PUSH2 0x2C18 JUMP JUMPDEST PUSH2 0x1B05 JUMP JUMPDEST PUSH2 0x1B69 SWAP1 PUSH2 0x1B58 PUSH2 0x1B52 DUP5 PUSH2 0x2A9B JUMP JUMPDEST SWAP2 PUSH2 0x3C75 JUMP JUMPDEST PUSH2 0x1B62 DUP3 DUP10 PUSH2 0x3C61 JUMP JUMPDEST MSTORE DUP7 PUSH2 0x3C61 JUMP JUMPDEST POP CODESIZE PUSH2 0x1B37 JUMP JUMPDEST PUSH2 0x2A85 JUMP JUMPDEST CALLVALUE PUSH2 0x308 JUMPI PUSH1 0x40 CALLDATASIZE PUSH1 0x3 NOT ADD SLT PUSH2 0x308 JUMPI PUSH1 0x4 CALLDATALOAD PUSH1 0x24 CALLDATALOAD PUSH2 0x1BA0 DUP3 PUSH1 0x0 MSTORE PUSH1 0x6 PUSH1 0x20 MSTORE PUSH1 0x40 PUSH1 0x0 KECCAK256 SWAP1 JUMP JUMPDEST SWAP2 PUSH2 0x1BB2 PUSH2 0x5CD PUSH1 0x11 DUP6 ADD SLOAD PUSH1 0xFF AND SWAP1 JUMP JUMPDEST PUSH1 0x2 DUP4 ADD SLOAD PUSH2 0x1BD4 SWAP1 PUSH2 0x1BCD SWAP1 PUSH1 0x1 PUSH1 0x1 PUSH1 0xA0 SHL SUB AND PUSH2 0x5ED JUMP JUMPDEST CALLER EQ PUSH2 0x3362 JUMP JUMPDEST PUSH1 0xA DUP4 ADD PUSH2 0x1C01 PUSH2 0x1BE6 DUP3 SLOAD PUSH1 0xFF AND SWAP1 JUMP JUMPDEST PUSH2 0x1BEF DUP2 PUSH2 0x17F3 JUMP JUMPDEST PUSH1 0x1 DUP2 EQ SWAP1 DUP2 ISZERO PUSH2 0x1CE2 JUMPI JUMPDEST POP PUSH2 0x33AE JUMP JUMPDEST PUSH1 0x9 DUP5 ADD SLOAD TIMESTAMP GT SWAP4 PUSH2 0x1C17 PUSH1 0x1 DUP3 ADD SLOAD PUSH1 0xFF AND SWAP1 JUMP JUMPDEST PUSH2 0x1C20 DUP2 PUSH2 0x17DC JUMP JUMPDEST PUSH2 0x1CA1 JUMPI POP DUP1 SLOAD PUSH1 0xFF NOT AND PUSH1 0x2 OR DUP2 SSTORE PUSH1 0x0 SWAP3 POP JUMPDEST DUP4 DUP1 PUSH2 0x1C8B JUMPI JUMPDEST PUSH2 0x1C74 JUMPI JUMPDEST POP PUSH1 0x40 MLOAD SWAP3 ISZERO ISZERO DUP4 MSTORE CALLER SWAP3 PUSH32 0x207484E8AA7DDDD34FE93AB4285AD31E16CF6B69A87DB323D588054A6860EEE9 SWAP1 PUSH1 0x20 SWAP1 LOG4 STOP JUMPDEST DUP1 SLOAD PUSH4 0xFF000000 NOT AND PUSH4 0x1000000 OR SWAP1 SSTORE CODESIZE PUSH2 0x1C41 JUMP JUMPDEST POP DUP1 SLOAD PUSH2 0x1C9C SWAP1 PUSH1 0x18 SHR PUSH1 0xFF AND ISZERO SWAP1 JUMP JUMPDEST PUSH2 0x1C3C JUMP JUMPDEST PUSH1 0x1 PUSH2 0x1CBA DUP6 PUSH1 0xB PUSH2 0x1CD2 SWAP5 ADD PUSH2 0x1648 DUP2 SLOAD DUP4 LT PUSH2 0x33EB JUMP JUMPDEST POP ADD PUSH2 0x4F8 PUSH2 0x1CCD PUSH2 0xBE4 DUP4 SLOAD PUSH1 0xFF AND SWAP1 JUMP JUMPDEST PUSH2 0x3427 JUMP JUMPDEST DUP1 SLOAD PUSH1 0xFF NOT AND PUSH1 0x2 OR DUP2 SSTORE PUSH2 0x1C35 JUMP JUMPDEST PUSH1 0x2 SWAP2 POP PUSH2 0x1CEF DUP2 PUSH2 0x17F3 JUMP JUMPDEST EQ CODESIZE PUSH2 0x1BFB JUMP JUMPDEST CALLVALUE PUSH2 0x308 JUMPI PUSH1 0x20 CALLDATASIZE PUSH1 0x3 NOT ADD SLT PUSH2 0x308 JUMPI PUSH2 0x1D0F PUSH2 0xD91 JUMP JUMPDEST PUSH2 0x1D17 PUSH2 0x2A1E JUMP JUMPDEST PUSH1 0x1 PUSH1 0x1 PUSH1 0xA0 SHL SUB DUP2 DUP2 AND SWAP2 PUSH32 0x405B911135779FBE6CA1EB08E756497B632D5FBFF59644B7D60EA3EA95CAF539 SWAP1 PUSH2 0x1D50 DUP5 ISZERO ISZERO PUSH2 0x2A4A JUMP JUMPDEST PUSH1 0x2 SLOAD PUSH1 0x40 DUP1 MLOAD SWAP5 DUP3 AND PUSH1 0x1 PUSH1 0x1 PUSH1 0xA0 SHL SUB SWAP1 DUP2 AND DUP7 MSTORE SWAP3 SWAP1 SWAP3 AND PUSH1 0x20 DUP6 ADD MSTORE SWAP3 LOG1 PUSH1 0x1 PUSH1 0x1 PUSH1 0xA0 SHL SUB NOT AND OR PUSH1 0x2 SSTORE STOP JUMPDEST CALLVALUE PUSH2 0x308 JUMPI PUSH1 0x20 CALLDATASIZE PUSH1 0x3 NOT ADD SLT PUSH2 0x308 JUMPI PUSH1 0x4 CALLDATALOAD PUSH1 0x0 MSTORE PUSH1 0x8 PUSH1 0x20 MSTORE PUSH1 0x20 PUSH1 0x40 PUSH1 0x0 KECCAK256 SLOAD PUSH1 0x40 MLOAD SWAP1 DUP2 MSTORE RETURN JUMPDEST PUSH1 0x40 DUP1 PUSH1 0x3 NOT CALLDATASIZE ADD SLT PUSH2 0x308 JUMPI PUSH1 0x1 PUSH1 0x1 PUSH1 0x40 SHL SUB PUSH1 0x4 CALLDATALOAD DUP2 DUP2 GT PUSH2 0x308 JUMPI PUSH2 0x1DDB SWAP1 CALLDATASIZE SWAP1 PUSH1 0x4 ADD PUSH2 0x110E JUMP JUMPDEST SWAP3 SWAP1 SWAP2 PUSH1 0x24 CALLDATALOAD SWAP1 DUP2 GT PUSH2 0x308 JUMPI PUSH2 0x1DF6 SWAP1 CALLDATASIZE SWAP1 PUSH1 0x4 ADD PUSH2 0x30D JUMP JUMPDEST SWAP3 PUSH2 0x1E02 DUP2 ISZERO ISZERO PUSH2 0x2EBD JUMP JUMPDEST PUSH2 0x1E0F PUSH2 0x364 DUP6 DUP1 PUSH2 0x2B1A JUMP JUMPDEST DUP2 DUP5 ADD SWAP3 PUSH2 0x1E20 PUSH2 0x37E DUP6 DUP8 PUSH2 0x2B1A JUMP JUMPDEST PUSH1 0xE0 DUP6 ADD CALLDATALOAD SWAP2 PUSH2 0x1E31 TIMESTAMP DUP5 GT PUSH2 0x2BCC JUMP JUMPDEST PUSH1 0x0 SWAP2 DUP3 JUMPDEST DUP3 DUP2 LT PUSH2 0x2049 JUMPI POP PUSH1 0x5 SLOAD SWAP6 PUSH2 0x1E4E PUSH2 0x3D1 DUP9 PUSH2 0x2C18 JUMP JUMPDEST PUSH2 0x1E62 DUP8 PUSH1 0x0 MSTORE PUSH1 0x6 PUSH1 0x20 MSTORE PUSH1 0x40 PUSH1 0x0 KECCAK256 SWAP1 JUMP JUMPDEST DUP8 DUP2 SSTORE PUSH2 0x1E7D PUSH1 0x1 DUP3 ADD PUSH2 0x409 DUP2 PUSH1 0x1 PUSH1 0xFF NOT DUP3 SLOAD AND OR SWAP1 SSTORE JUMP JUMPDEST PUSH2 0x1E94 PUSH2 0x1E8A DUP11 DUP1 PUSH2 0x2B1A JUMP JUMPDEST SWAP1 PUSH1 0xC DUP5 ADD PUSH2 0x2CD5 JUMP JUMPDEST PUSH2 0x1EB3 PUSH2 0x460 PUSH1 0x20 SWAP4 PUSH2 0x1EAD PUSH2 0x450 DUP14 DUP8 DUP2 ADD SWAP1 PUSH2 0x2B1A JUMP JUMPDEST DUP12 PUSH2 0x2B1A JUMP JUMPDEST PUSH1 0x60 SWAP9 PUSH2 0x1ECF PUSH2 0x1EC5 DUP12 DUP4 ADD DUP4 PUSH2 0x2DA1 JUMP JUMPDEST SWAP1 PUSH1 0xF DUP6 ADD PUSH2 0x2DD6 JUMP JUMPDEST PUSH2 0x1EEB PUSH2 0x1EE1 PUSH1 0x80 SWAP3 DUP4 DUP2 ADD SWAP1 PUSH2 0x2B1A JUMP JUMPDEST SWAP1 PUSH1 0x10 DUP6 ADD PUSH2 0x2CD5 JUMP JUMPDEST DUP6 PUSH1 0x4 DUP4 ADD SSTORE DUP6 PUSH1 0x5 DUP4 ADD SSTORE PUSH1 0x3 DUP3 ADD SWAP10 DUP7 DUP12 SSTORE PUSH1 0x0 PUSH1 0x6 DUP5 ADD SSTORE PUSH1 0x0 PUSH1 0x7 DUP5 ADD SSTORE TIMESTAMP PUSH1 0x8 DUP5 ADD SSTORE DUP8 PUSH1 0x9 DUP5 ADD SSTORE PUSH1 0xA DUP4 ADD SWAP6 PUSH2 0x1F2C DUP8 PUSH1 0xFF NOT DUP2 SLOAD AND SWAP1 SSTORE JUMP JUMPDEST PUSH1 0x11 DUP5 ADD DUP1 SLOAD PUSH1 0xFF NOT AND PUSH1 0x1 OR SWAP1 SSTORE DUP7 SLOAD PUSH2 0xFF00 NOT AND DUP8 SSTORE PUSH1 0xB PUSH1 0x0 SWAP5 ADD SWAP4 JUMPDEST DUP2 DUP2 LT PUSH2 0x2003 JUMPI POP POP POP POP POP POP POP PUSH2 0x1FB0 PUSH2 0x57A SWAP7 DUP7 SWAP4 PUSH32 0xB3D4FC97516C83A6EDE9502532CA639D72C51F3352812A26A99C1F6940833D5C SWAP4 CALLVALUE PUSH2 0x1FC1 JUMPI JUMPDEST POP POP SLOAD SWAP4 DUP6 MLOAD SWAP2 DUP3 SWAP2 CALLER SWAP7 DUP4 PUSH1 0x40 SWAP1 SWAP4 SWAP3 SWAP2 SWAP4 PUSH1 0x60 DUP2 ADD SWAP5 PUSH1 0x1 DUP3 MSTORE PUSH1 0x20 DUP3 ADD MSTORE ADD MSTORE JUMP JUMPDEST SUB SWAP1 LOG3 MLOAD SWAP1 DUP2 MSTORE SWAP1 DUP2 SWAP1 PUSH1 0x20 DUP3 ADD SWAP1 JUMP JUMPDEST PUSH2 0x4F8 PUSH2 0x1FCF SWAP3 CALLVALUE EQ PUSH2 0x309A JUMP JUMPDEST DUP6 MLOAD CALLVALUE DUP2 MSTORE DUP5 SWAP1 PUSH32 0x9D25C5CF940EED311C45E5A0B4C7C8790A356D3C356453B76BB7E232DB3F384A SWAP1 PUSH1 0x20 SWAP1 LOG2 CODESIZE DUP1 PUSH2 0x1F8B JUMP JUMPDEST DUP1 PUSH2 0x203F DUP13 PUSH1 0x0 PUSH2 0x2018 PUSH2 0x2044 SWAP6 DUP8 DUP14 PUSH2 0x2F14 JUMP JUMPDEST CALLDATALOAD SWAP2 PUSH2 0x2022 PUSH2 0x2FAE JUMP JUMPDEST SWAP3 DUP4 MSTORE DUP2 DUP12 DUP5 ADD MSTORE DUP3 ADD MSTORE PUSH1 0x0 DUP7 DUP3 ADD MSTORE PUSH1 0x0 DUP8 DUP3 ADD MSTORE DUP8 PUSH2 0x2FF7 JUMP JUMPDEST PUSH2 0x2C18 JUMP JUMPDEST PUSH2 0x1F4C JUMP JUMPDEST SWAP3 PUSH2 0x2079 PUSH2 0x207F SWAP2 PUSH2 0x2067 PUSH2 0x205F DUP8 DUP8 DUP8 PUSH2 0x2F14 JUMP JUMPDEST CALLDATALOAD ISZERO ISZERO PUSH2 0x2F29 JUMP JUMPDEST PUSH2 0x2072 DUP7 DUP7 DUP7 PUSH2 0x2F14 JUMP JUMPDEST CALLDATALOAD SWAP1 PUSH2 0x2F65 JUMP JUMPDEST SWAP4 PUSH2 0x2C18 JUMP JUMPDEST PUSH2 0x1E36 JUMP JUMPDEST CALLVALUE PUSH2 0x308 JUMPI PUSH1 0x0 CALLDATASIZE PUSH1 0x3 NOT ADD SLT PUSH2 0x308 JUMPI PUSH1 0x20 PUSH1 0x5 SLOAD PUSH1 0x40 MLOAD SWAP1 DUP2 MSTORE RETURN JUMPDEST CALLVALUE PUSH2 0x308 JUMPI PUSH1 0x40 CALLDATASIZE PUSH1 0x3 NOT ADD SLT PUSH2 0x308 JUMPI PUSH1 0x4 CALLDATALOAD PUSH1 0x24 CALLDATALOAD SWAP1 PUSH2 0x20CE DUP2 PUSH1 0x0 MSTORE PUSH1 0x6 PUSH1 0x20 MSTORE PUSH1 0x40 PUSH1 0x0 KECCAK256 SWAP1 JUMP JUMPDEST SWAP1 PUSH2 0x20E0 PUSH2 0x5CD PUSH1 0x11 DUP5 ADD SLOAD PUSH1 0xFF AND SWAP1 JUMP JUMPDEST PUSH1 0x1 SWAP2 PUSH2 0x2117 DUP4 DUP3 ADD SLOAD PUSH2 0x2101 DUP6 PUSH1 0xFF DUP4 AND PUSH2 0x20FB DUP2 PUSH2 0x17DC JUMP JUMPDEST EQ PUSH2 0x3558 JUMP JUMPDEST CALLER PUSH1 0x8 SWAP2 SWAP1 SWAP2 SHR PUSH1 0x1 PUSH1 0x1 PUSH1 0xA0 SHL SUB AND EQ PUSH2 0x34A3 JUMP JUMPDEST PUSH1 0xA DUP2 ADD DUP1 SLOAD PUSH2 0x212C SWAP1 PUSH1 0x8 SHR PUSH1 0xFF AND PUSH2 0x3598 JUMP JUMPDEST PUSH1 0xB DUP3 ADD PUSH2 0x213C DUP2 SLOAD DUP8 LT PUSH2 0x33EB JUMP JUMPDEST PUSH2 0x2146 DUP7 DUP3 PUSH2 0x2FDB JUMP JUMPDEST POP SWAP3 PUSH2 0x216A DUP7 DUP6 ADD PUSH2 0x2D2 PUSH1 0xFF DUP3 SLOAD PUSH2 0x2161 DUP3 DUP3 AND ISZERO PUSH2 0x3427 JUMP JUMPDEST PUSH1 0x8 SHR AND PUSH2 0x35D1 JUMP JUMPDEST PUSH2 0x217B PUSH1 0x6 DUP6 SLOAD SWAP3 ADD SWAP2 DUP3 SLOAD PUSH2 0x2F65 JUMP JUMPDEST SWAP1 SSTORE DUP3 SLOAD PUSH2 0x219E PUSH2 0x2196 DUP7 PUSH1 0x0 MSTORE PUSH1 0x8 PUSH1 0x20 MSTORE PUSH1 0x40 PUSH1 0x0 KECCAK256 SWAP1 JUMP JUMPDEST SWAP2 DUP3 SLOAD PUSH2 0x2F65 JUMP JUMPDEST SWAP1 SSTORE DUP5 PUSH1 0x0 SWAP2 DUP1 SLOAD SWAP3 JUMPDEST DUP4 DUP2 LT PUSH2 0x2210 JUMPI JUMPDEST POP POP POP POP SWAP1 PUSH2 0x8C1 SWAP2 PUSH32 0x586353FE0BFE5314FAFE1C8662B942C97DDEACCFBD9A2E13FEC40BCF15E8ABCB SWAP4 SWAP5 PUSH1 0x0 EQ PUSH2 0x2200 JUMPI DUP1 SLOAD PUSH1 0xFF NOT AND PUSH1 0x3 OR SWAP1 SSTORE JUMPDEST SLOAD PUSH1 0x40 MLOAD SWAP1 DUP2 MSTORE SWAP1 DUP2 SWAP1 PUSH1 0x20 DUP3 ADD SWAP1 JUMP JUMPDEST DUP1 SLOAD PUSH1 0xFF NOT AND PUSH1 0x1 OR SWAP1 SSTORE PUSH2 0x21EF JUMP JUMPDEST PUSH2 0x2221 PUSH2 0xBE4 DUP5 PUSH2 0xB72 DUP5 DUP7 PUSH2 0x2FDB JUMP JUMPDEST PUSH2 0x2233 JUMPI PUSH2 0x222E SWAP1 PUSH2 0x2C18 JUMP JUMPDEST PUSH2 0x21A8 JUMP JUMPDEST POP PUSH1 0x0 SWAP7 POP DUP4 SWAP3 POP PUSH32 0x586353FE0BFE5314FAFE1C8662B942C97DDEACCFBD9A2E13FEC40BCF15E8ABCB SWAP2 POP PUSH2 0x8C1 SWAP1 POP CODESIZE PUSH2 0x21B0 JUMP JUMPDEST CALLVALUE PUSH2 0x308 JUMPI PUSH1 0x20 DUP1 PUSH1 0x3 NOT CALLDATASIZE ADD SLT PUSH2 0x308 JUMPI PUSH2 0x2283 PUSH2 0xD91 JUMP JUMPDEST PUSH1 0x5 SLOAD SWAP1 PUSH1 0x0 NOT DUP3 ADD DUP3 DUP2 GT PUSH2 0x1B70 JUMPI PUSH2 0x229C SWAP1 PUSH2 0x3C11 JUMP JUMPDEST SWAP2 PUSH1 0x0 SWAP4 DUP5 SWAP3 PUSH1 0x1 SWAP2 DUP3 JUMPDEST DUP5 DUP2 LT PUSH2 0x22BF JUMPI DUP6 DUP8 MSTORE PUSH1 0x40 MLOAD DUP1 PUSH2 0x57A DUP10 DUP3 PUSH2 0x1A75 JUMP JUMPDEST DUP1 DUP9 MSTORE PUSH1 0x6 DUP3 MSTORE PUSH1 0x40 DUP9 KECCAK256 PUSH1 0x11 ADD SLOAD PUSH2 0x22E5 SWAP2 SWAP1 PUSH1 0xFF AND DUP1 PUSH2 0x2325 JUMPI JUMPDEST PUSH2 0x22EA JUMPI PUSH2 0x2C18 JUMP JUMPDEST PUSH2 0x22A7 JUMP JUMPDEST PUSH2 0x1B37 PUSH2 0x2301 DUP3 PUSH1 0x0 MSTORE PUSH1 0x6 PUSH1 0x20 MSTORE PUSH1 0x40 PUSH1 0x0 KECCAK256 SWAP1 JUMP JUMPDEST SWAP8 PUSH2 0x2314 PUSH2 0x230E DUP3 PUSH2 0x2C18 JUMP JUMPDEST SWAP10 PUSH2 0x3C75 JUMP JUMPDEST PUSH2 0x231E DUP3 DUP13 PUSH2 0x3C61 JUMP JUMPDEST MSTORE DUP10 PUSH2 0x3C61 JUMP JUMPDEST POP PUSH2 0x234F DUP6 PUSH2 0x233E DUP4 PUSH1 0x0 MSTORE PUSH1 0x6 PUSH1 0x20 MSTORE PUSH1 0x40 PUSH1 0x0 KECCAK256 SWAP1 JUMP JUMPDEST ADD SLOAD PUSH1 0x8 SHR PUSH1 0x1 PUSH1 0x1 PUSH1 0xA0 SHL SUB AND SWAP1 JUMP JUMPDEST PUSH1 0x1 PUSH1 0x1 PUSH1 0xA0 SHL SUB DUP6 DUP2 AND SWAP2 AND EQ PUSH2 0x22DC JUMP JUMPDEST CALLVALUE PUSH2 0x308 JUMPI PUSH1 0x20 CALLDATASIZE PUSH1 0x3 NOT ADD SLT PUSH2 0x308 JUMPI PUSH1 0x4 CALLDATALOAD DUP1 PUSH1 0x0 MSTORE PUSH1 0x6 PUSH1 0x20 MSTORE PUSH1 0x40 PUSH1 0x0 KECCAK256 SWAP1 PUSH2 0x2395 PUSH1 0xFF PUSH1 0x11 DUP5 ADD SLOAD AND PUSH2 0x30E6 JUMP JUMPDEST PUSH1 0x0 MSTORE PUSH1 0x8 PUSH1 0x20 MSTORE PUSH1 0x7 PUSH1 0x40 PUSH1 0x0 KECCAK256 SLOAD SWAP2 ADD SLOAD DUP2 SUB SWAP1 DUP2 GT PUSH2 0x1B70 JUMPI PUSH1 0x20 SWAP1 PUSH1 0x40 MLOAD SWAP1 DUP2 MSTORE RETURN JUMPDEST SWAP1 PUSH1 0x20 PUSH2 0x1A72 SWAP3 DUP2 DUP2 MSTORE ADD SWAP1 PUSH2 0x1910 JUMP JUMPDEST CALLVALUE PUSH2 0x308 JUMPI PUSH1 0x20 CALLDATASIZE PUSH1 0x3 NOT ADD SLT PUSH2 0x308 JUMPI PUSH2 0x23E6 PUSH2 0x3963 JUMP JUMPDEST POP PUSH1 0x4 CALLDATALOAD PUSH2 0x23FE SWAP1 PUSH1 0x0 MSTORE PUSH1 0x6 PUSH1 0x20 MSTORE PUSH1 0x40 PUSH1 0x0 KECCAK256 SWAP1 JUMP JUMPDEST PUSH1 0x11 DUP2 ADD SLOAD PUSH1 0xFF AND PUSH2 0x240F DUP2 PUSH2 0x30E6 JUMP JUMPDEST DUP2 SLOAD PUSH1 0x1 DUP4 ADD SLOAD PUSH1 0x2 DUP5 ADD SLOAD SWAP1 SWAP4 SWAP2 SWAP1 PUSH1 0x1 PUSH1 0x1 PUSH1 0xA0 SHL SUB AND PUSH1 0x3 DUP4 ADD SLOAD PUSH1 0x4 DUP5 ADD SLOAD PUSH1 0x5 DUP6 ADD SLOAD PUSH1 0x6 DUP7 ADD SLOAD PUSH1 0x7 DUP8 ADD SLOAD SWAP2 PUSH1 0x8 DUP9 ADD SLOAD SWAP4 PUSH1 0x9 DUP10 ADD SLOAD SWAP6 PUSH1 0xA DUP11 ADD SLOAD SWAP8 PUSH2 0x245C PUSH2 0x3A15 JUMP JUMPDEST SWAP10 PUSH2 0x2465 PUSH2 0x2FBB JUMP JUMPDEST SWAP1 DUP2 MSTORE SWAP13 DUP14 SWAP1 PUSH2 0x247B PUSH1 0xFF DUP3 AND PUSH1 0x20 DUP5 ADD PUSH2 0x3A38 JUMP JUMPDEST PUSH1 0x8 SHR PUSH1 0x1 PUSH1 0x1 PUSH1 0xA0 SHL SUB AND PUSH1 0x40 SWAP1 SWAP2 ADD MSTORE PUSH1 0x1 PUSH1 0x1 PUSH1 0xA0 SHL SUB AND PUSH1 0x60 DUP14 ADD MSTORE PUSH1 0x80 DUP13 ADD MSTORE PUSH1 0xA0 DUP12 ADD MSTORE PUSH1 0xC0 DUP11 ADD MSTORE PUSH1 0xE0 DUP10 ADD MSTORE PUSH2 0x100 DUP9 ADD MSTORE PUSH2 0x120 DUP8 ADD MSTORE PUSH2 0x140 DUP7 ADD MSTORE PUSH2 0x24D2 PUSH1 0xFF DUP3 AND PUSH2 0x160 DUP8 ADD PUSH2 0x3A44 JUMP JUMPDEST PUSH1 0xFF PUSH1 0x8 DUP3 SWAP1 SHR AND ISZERO ISZERO PUSH2 0x180 DUP7 ADD MSTORE PUSH1 0xFF PUSH1 0x10 DUP3 SWAP1 SHR AND ISZERO ISZERO PUSH2 0x1A0 DUP7 ADD MSTORE PUSH1 0x18 SHR PUSH1 0xFF AND ISZERO ISZERO PUSH2 0x1C0 DUP6 ADD MSTORE PUSH2 0x1E0 DUP5 ADD MSTORE PUSH2 0x2512 PUSH1 0xC DUP3 ADD PUSH2 0x3A50 JUMP JUMPDEST PUSH2 0x200 DUP5 ADD MSTORE PUSH2 0x2524 PUSH1 0xD DUP3 ADD PUSH2 0x3A50 JUMP JUMPDEST PUSH2 0x220 DUP5 ADD MSTORE PUSH2 0x2536 PUSH1 0xE DUP3 ADD PUSH2 0x3A50 JUMP JUMPDEST PUSH2 0x240 DUP5 ADD MSTORE PUSH2 0x2548 PUSH1 0xF DUP3 ADD PUSH2 0x3AF4 JUMP JUMPDEST PUSH2 0x260 DUP5 ADD MSTORE PUSH1 0x10 ADD PUSH2 0x255A SWAP1 PUSH2 0x3A50 JUMP JUMPDEST PUSH2 0x280 DUP4 ADD MSTORE ISZERO ISZERO PUSH2 0x2A0 DUP3 ADD MSTORE PUSH1 0x40 MLOAD PUSH2 0x57A DUP2 SWAP3 DUP3 PUSH2 0x23BC JUMP JUMPDEST CALLVALUE PUSH2 0x308 JUMPI PUSH1 0x20 CALLDATASIZE PUSH1 0x3 NOT ADD SLT PUSH2 0x308 JUMPI PUSH1 0x4 CALLDATALOAD PUSH32 0xF57F3E7B9EF5A0BE5FA135392BD0B89D178350D5BC7F4C0B789FADC05324E76 PUSH2 0x2664 PUSH2 0x25C2 DUP4 PUSH1 0x0 MSTORE PUSH1 0x6 PUSH1 0x20 MSTORE PUSH1 0x40 PUSH1 0x0 KECCAK256 SWAP1 JUMP JUMPDEST PUSH2 0x25D3 PUSH2 0x5CD PUSH1 0x11 DUP4 ADD SLOAD PUSH1 0xFF AND SWAP1 JUMP JUMPDEST PUSH2 0x25F1 PUSH1 0x1 DUP3 ADD SLOAD PUSH2 0x2101 PUSH1 0xFF DUP3 AND PUSH2 0x25EB DUP2 PUSH2 0x17DC JUMP JUMPDEST ISZERO PUSH2 0x3467 JUMP JUMPDEST PUSH2 0x21EF PUSH1 0xA DUP3 ADD PUSH2 0x2629 PUSH1 0xFF DUP3 SLOAD PUSH2 0x260D DUP3 DUP3 PUSH1 0x8 SHR AND PUSH2 0x34DD JUMP JUMPDEST AND PUSH2 0x2617 DUP2 PUSH2 0x17F3 JUMP JUMPDEST PUSH1 0x2 DUP2 EQ SWAP1 DUP2 ISZERO PUSH2 0x2669 JUMPI JUMPDEST POP PUSH2 0x351A JUMP JUMPDEST PUSH1 0x3 PUSH1 0x6 DUP5 ADD SWAP4 PUSH2 0x263B DUP6 SLOAD ISZERO PUSH2 0x3427 JUMP JUMPDEST ADD SWAP3 DUP4 SLOAD DUP1 SWAP2 SSTORE PUSH2 0x2656 DUP8 PUSH1 0x0 MSTORE PUSH1 0x8 PUSH1 0x20 MSTORE PUSH1 0x40 PUSH1 0x0 KECCAK256 SWAP1 JUMP JUMPDEST SSTORE DUP1 SLOAD PUSH1 0xFF NOT AND PUSH1 0x3 OR SWAP1 SSTORE JUMP JUMPDEST SUB SWAP1 LOG2 STOP JUMPDEST PUSH1 0x1 SWAP2 POP PUSH2 0x2676 DUP2 PUSH2 0x17F3 JUMP JUMPDEST EQ CODESIZE PUSH2 0x2623 JUMP JUMPDEST CALLVALUE PUSH2 0x308 JUMPI PUSH1 0x80 CALLDATASIZE PUSH1 0x3 NOT ADD SLT PUSH2 0x308 JUMPI PUSH1 0x4 CALLDATALOAD PUSH2 0x2699 PUSH2 0x804 JUMP JUMPDEST PUSH2 0x26A1 PUSH2 0xDBD JUMP JUMPDEST PUSH1 0x3 SLOAD PUSH2 0x26C1 SWAP1 PUSH2 0x26BA SWAP1 PUSH1 0x1 PUSH1 0x1 PUSH1 0xA0 SHL SUB AND PUSH2 0x5ED JUMP JUMPDEST CALLER EQ PUSH2 0x38D6 JUMP JUMPDEST PUSH2 0x26D5 DUP4 PUSH1 0x0 MSTORE PUSH1 0x6 PUSH1 0x20 MSTORE PUSH1 0x40 PUSH1 0x0 KECCAK256 SWAP1 JUMP JUMPDEST SWAP2 PUSH2 0x26E7 PUSH2 0x5CD PUSH1 0x11 DUP6 ADD SLOAD PUSH1 0xFF AND SWAP1 JUMP JUMPDEST PUSH1 0x40 MLOAD DUP5 PUSH32 0xF14B14C57AD6924FF5C16DAEEC93BDD189CC7338E991D2967E3E0401BB73DFE2 PUSH1 0x24 CALLDATALOAD SWAP3 DUP1 PUSH2 0x271C DUP8 DUP8 DUP4 PUSH2 0x3941 JUMP JUMPDEST SUB SWAP1 LOG3 PUSH2 0x2728 DUP2 PUSH2 0x391A JUMP JUMPDEST DUP1 PUSH2 0x273F JUMPI POP POP PUSH1 0xA ADD DUP1 SLOAD PUSH1 0xFF NOT AND PUSH1 0x1 OR SWAP1 SSTORE STOP JUMPDEST PUSH2 0x2748 DUP2 PUSH2 0x391A JUMP JUMPDEST PUSH1 0x1 SWAP1 DUP1 DUP3 SUB PUSH2 0x2815 JUMPI POP DUP3 ADD SWAP1 DUP2 SLOAD PUSH1 0xFF DUP2 AND PUSH2 0x2765 DUP2 PUSH2 0x17DC JUMP JUMPDEST ISZERO PUSH2 0x276C JUMPI STOP JUMPDEST PUSH1 0x1 PUSH1 0x1 PUSH1 0xA0 SHL SUB SWAP2 DUP3 AND PUSH1 0x8 SWAP2 SWAP1 SWAP2 SHR SWAP1 SWAP2 AND SUB PUSH2 0x27DF JUMPI PUSH2 0x2798 PUSH1 0x3 DUP4 ADD SLOAD PUSH1 0x6 DUP5 ADD SLOAD SWAP1 PUSH2 0x2AAA JUMP JUMPDEST DUP1 PUSH2 0x279F JUMPI STOP JUMPDEST PUSH2 0x1032 DUP2 PUSH2 0x6DC PUSH2 0x2664 SWAP5 PUSH2 0x1022 PUSH1 0xA PUSH32 0x98CD69B526974EDC8F55D210BC89664B6985C7E698453E7ACA776048F6EFCAE5 SWAP9 ADD PUSH1 0x5 PUSH1 0xFF NOT DUP3 SLOAD AND OR SWAP1 SSTORE JUMP JUMPDEST POP DUP1 PUSH2 0x19 SWAP3 PUSH2 0x2806 PUSH1 0x3 PUSH1 0xA SWAP5 ADD SLOAD SWAP2 DUP3 PUSH1 0x6 DUP6 ADD SSTORE PUSH1 0x0 MSTORE PUSH1 0x8 PUSH1 0x20 MSTORE PUSH1 0x40 PUSH1 0x0 KECCAK256 SWAP1 JUMP JUMPDEST SSTORE ADD DUP1 SLOAD PUSH1 0xFF NOT AND PUSH1 0x3 OR SWAP1 SSTORE JUMP JUMPDEST DUP1 PUSH2 0x2821 PUSH1 0x2 SWAP3 PUSH2 0x391A JUMP JUMPDEST EQ PUSH2 0x2828 JUMPI STOP JUMPDEST DUP3 DUP2 ADD DUP1 SLOAD SWAP1 SWAP3 PUSH1 0x1 PUSH1 0x1 PUSH1 0xA0 SHL SUB SWAP1 DUP2 AND PUSH1 0x8 DUP4 SWAP1 SHR SWAP1 SWAP2 AND SUB PUSH2 0x285C JUMPI POP POP PUSH2 0x2798 PUSH1 0x3 DUP4 ADD SLOAD PUSH1 0x6 DUP5 ADD SLOAD SWAP1 PUSH2 0x2AAA JUMP JUMPDEST PUSH1 0xFF SWAP2 SWAP3 POP SWAP4 SWAP3 SWAP4 AND PUSH2 0x286E DUP2 PUSH2 0x17DC JUMP JUMPDEST PUSH2 0x2899 JUMPI POP DUP2 PUSH1 0xA SWAP2 PUSH2 0x2806 PUSH1 0x3 PUSH2 0x19 SWAP6 ADD SLOAD SWAP2 DUP3 PUSH1 0x6 DUP6 ADD SSTORE PUSH1 0x0 MSTORE PUSH1 0x8 PUSH1 0x20 MSTORE PUSH1 0x40 PUSH1 0x0 KECCAK256 SWAP1 JUMP JUMPDEST SWAP1 PUSH1 0xB DUP4 ADD PUSH1 0x0 DUP4 JUMPDEST PUSH2 0x28BB JUMPI JUMPDEST POP POP POP POP PUSH1 0xA ADD DUP1 SLOAD PUSH1 0xFF NOT AND PUSH1 0x3 OR SWAP1 SSTORE STOP JUMPDEST DUP2 SLOAD DUP2 LT ISZERO PUSH2 0x2973 JUMPI PUSH2 0x28F2 DUP2 PUSH2 0x28E3 DUP7 PUSH2 0x28D7 DUP2 SWAP6 DUP8 PUSH2 0x2FDB JUMP JUMPDEST POP ADD SLOAD PUSH1 0x8 SHR PUSH1 0xFF AND SWAP1 JUMP JUMPDEST DUP1 PUSH2 0x295C JUMPI JUMPDEST PUSH2 0x28F8 JUMPI PUSH2 0x2C18 JUMP JUMPDEST SWAP1 PUSH2 0x28A2 JUMP JUMPDEST PUSH2 0x2915 DUP4 PUSH2 0x2906 DUP4 DUP8 PUSH2 0x2FDB JUMP JUMPDEST POP ADD DUP1 SLOAD PUSH1 0xFF NOT AND PUSH1 0x1 OR SWAP1 SSTORE JUMP JUMPDEST PUSH2 0x291F DUP2 DUP6 PUSH2 0x2FDB JUMP JUMPDEST POP SLOAD PUSH2 0x2930 PUSH1 0x6 DUP10 ADD SWAP2 DUP3 SLOAD PUSH2 0x2F65 JUMP JUMPDEST SWAP1 SSTORE PUSH2 0x293C DUP2 DUP6 PUSH2 0x2FDB JUMP JUMPDEST POP SLOAD PUSH2 0x2955 PUSH2 0x2196 DUP8 PUSH1 0x0 MSTORE PUSH1 0x8 PUSH1 0x20 MSTORE PUSH1 0x40 PUSH1 0x0 KECCAK256 SWAP1 JUMP JUMPDEST SWAP1 SSTORE PUSH2 0x2C18 JUMP JUMPDEST POP PUSH2 0x296E PUSH2 0xBE4 DUP5 PUSH2 0xB72 DUP5 DUP9 PUSH2 0x2FDB JUMP JUMPDEST PUSH2 0x28E9 JUMP JUMPDEST PUSH2 0x28A7 JUMP JUMPDEST CALLVALUE PUSH2 0x308 JUMPI PUSH1 0x0 CALLDATASIZE PUSH1 0x3 NOT ADD SLT PUSH2 0x308 JUMPI PUSH1 0x20 PUSH1 0x4 SLOAD PUSH1 0x40 MLOAD SWAP1 DUP2 MSTORE RETURN JUMPDEST CALLVALUE PUSH2 0x308 JUMPI PUSH1 0x20 CALLDATASIZE PUSH1 0x3 NOT ADD SLT PUSH2 0x308 JUMPI PUSH2 0x29AF PUSH2 0xD91 JUMP JUMPDEST PUSH2 0x29B7 PUSH2 0x2A1E JUMP JUMPDEST PUSH1 0x1 PUSH1 0x1 PUSH1 0xA0 SHL SUB SWAP1 DUP2 AND DUP1 ISZERO PUSH2 0x2A05 JUMPI PUSH1 0x0 DUP1 SLOAD PUSH1 0x1 PUSH1 0x1 PUSH1 0xA0 SHL SUB NOT DUP2 AND DUP4 OR DUP3 SSTORE SWAP1 SWAP3 AND PUSH32 0x8BE0079C531659141344CD1FD0A4F28419497F9722A3DAAFE3B4186F6B6457E0 DUP4 DUP1 LOG3 DUP1 RETURN JUMPDEST PUSH1 0x40 MLOAD PUSH4 0x1E4FBDF7 PUSH1 0xE0 SHL DUP2 MSTORE PUSH1 0x0 PUSH1 0x4 DUP3 ADD MSTORE PUSH1 0x24 SWAP1 REVERT JUMPDEST PUSH1 0x0 SLOAD PUSH1 0x1 PUSH1 0x1 PUSH1 0xA0 SHL SUB AND CALLER SUB PUSH2 0x2A32 JUMPI JUMP JUMPDEST PUSH1 0x40 MLOAD PUSH4 0x118CDAA7 PUSH1 0xE0 SHL DUP2 MSTORE CALLER PUSH1 0x4 DUP3 ADD MSTORE PUSH1 0x24 SWAP1 REVERT JUMPDEST ISZERO PUSH2 0x2A51 JUMPI JUMP JUMPDEST PUSH1 0x40 MLOAD PUSH3 0x461BCD PUSH1 0xE5 SHL DUP2 MSTORE PUSH1 0x20 PUSH1 0x4 DUP3 ADD MSTORE PUSH1 0xC PUSH1 0x24 DUP3 ADD MSTORE PUSH12 0x7A65726F2061646472657373 PUSH1 0xA0 SHL PUSH1 0x44 DUP3 ADD MSTORE PUSH1 0x64 SWAP1 REVERT JUMPDEST PUSH4 0x4E487B71 PUSH1 0xE0 SHL PUSH1 0x0 MSTORE PUSH1 0x11 PUSH1 0x4 MSTORE PUSH1 0x24 PUSH1 0x0 REVERT JUMPDEST PUSH1 0x0 NOT DUP2 ADD SWAP2 SWAP1 DUP3 GT PUSH2 0x1B70 JUMPI JUMP JUMPDEST SWAP2 SWAP1 DUP3 SUB SWAP2 DUP3 GT PUSH2 0x1B70 JUMPI JUMP JUMPDEST PUSH1 0x2 PUSH1 0x1 SLOAD EQ PUSH2 0x2AC8 JUMPI PUSH1 0x2 PUSH1 0x1 SSTORE JUMP JUMPDEST PUSH1 0x40 MLOAD PUSH4 0x3EE5AEB5 PUSH1 0xE0 SHL DUP2 MSTORE PUSH1 0x4 SWAP1 REVERT JUMPDEST ISZERO PUSH2 0x2AE1 JUMPI JUMP JUMPDEST PUSH1 0x40 MLOAD PUSH3 0x461BCD PUSH1 0xE5 SHL DUP2 MSTORE PUSH1 0x20 PUSH1 0x4 DUP3 ADD MSTORE PUSH1 0x11 PUSH1 0x24 DUP3 ADD MSTORE PUSH17 0x4D7573742066756E64206A6F62203E203 PUSH1 0x7C SHL PUSH1 0x44 DUP3 ADD MSTORE PUSH1 0x64 SWAP1 REVERT JUMPDEST SWAP1 CALLDATALOAD SWAP1 PUSH1 0x1E NOT DUP2 CALLDATASIZE SUB ADD DUP3 SLT ISZERO PUSH2 0x308 JUMPI ADD DUP1 CALLDATALOAD SWAP1 PUSH1 0x1 PUSH1 0x1 PUSH1 0x40 SHL SUB DUP3 GT PUSH2 0x308 JUMPI PUSH1 0x20 ADD SWAP2 DUP2 CALLDATASIZE SUB DUP4 SGT PUSH2 0x308 JUMPI JUMP JUMPDEST ISZERO PUSH2 0x2B53 JUMPI JUMP JUMPDEST PUSH1 0x40 MLOAD PUSH3 0x461BCD PUSH1 0xE5 SHL DUP2 MSTORE PUSH1 0x20 PUSH1 0x4 DUP3 ADD MSTORE PUSH1 0xE PUSH1 0x24 DUP3 ADD MSTORE PUSH14 0x151A5D1B19481C995C5D5A5C9959 PUSH1 0x92 SHL PUSH1 0x44 DUP3 ADD MSTORE PUSH1 0x64 SWAP1 REVERT JUMPDEST ISZERO PUSH2 0x2B90 JUMPI JUMP JUMPDEST PUSH1 0x40 MLOAD PUSH3 0x461BCD PUSH1 0xE5 SHL DUP2 MSTORE PUSH1 0x20 PUSH1 0x4 DUP3 ADD MSTORE PUSH1 0x14 PUSH1 0x24 DUP3 ADD MSTORE PUSH20 0x11195CD8DC9A5C1D1A5BDB881C995C5D5A5C9959 PUSH1 0x62 SHL PUSH1 0x44 DUP3 ADD MSTORE PUSH1 0x64 SWAP1 REVERT JUMPDEST ISZERO PUSH2 0x2BD3 JUMPI JUMP JUMPDEST PUSH1 0x40 MLOAD PUSH3 0x461BCD PUSH1 0xE5 SHL DUP2 MSTORE PUSH1 0x20 PUSH1 0x4 DUP3 ADD MSTORE PUSH1 0x17 PUSH1 0x24 DUP3 ADD MSTORE PUSH32 0x446561646C696E65206D75737420626520667574757265000000000000000000 PUSH1 0x44 DUP3 ADD MSTORE PUSH1 0x64 SWAP1 REVERT JUMPDEST PUSH1 0x0 NOT DUP2 EQ PUSH2 0x1B70 JUMPI PUSH1 0x1 ADD SWAP1 JUMP JUMPDEST PUSH4 0x4E487B71 PUSH1 0xE0 SHL PUSH1 0x0 MSTORE PUSH1 0x41 PUSH1 0x4 MSTORE PUSH1 0x24 PUSH1 0x0 REVERT JUMPDEST SWAP1 PUSH1 0x1 DUP3 DUP2 SHR SWAP3 AND DUP1 ISZERO PUSH2 0x2C6D JUMPI JUMPDEST PUSH1 0x20 DUP4 LT EQ PUSH2 0x2C57 JUMPI JUMP JUMPDEST PUSH4 0x4E487B71 PUSH1 0xE0 SHL PUSH1 0x0 MSTORE PUSH1 0x22 PUSH1 0x4 MSTORE PUSH1 0x24 PUSH1 0x0 REVERT JUMPDEST SWAP2 PUSH1 0x7F AND SWAP2 PUSH2 0x2C4C JUMP JUMPDEST DUP2 DUP2 LT PUSH2 0x2C82 JUMPI POP POP JUMP JUMPDEST PUSH1 0x0 DUP2 SSTORE PUSH1 0x1 ADD PUSH2 0x2C77 JUMP JUMPDEST SWAP2 SWAP1 PUSH1 0x1F DUP2 GT PUSH2 0x2C9D JUMPI POP POP POP JUMP JUMPDEST PUSH2 0x2CC9 SWAP3 PUSH1 0x0 MSTORE PUSH1 0x20 PUSH1 0x0 KECCAK256 SWAP1 PUSH1 0x20 PUSH1 0x1F DUP5 ADD PUSH1 0x5 SHR DUP4 ADD SWAP4 LT PUSH2 0x2CCB JUMPI JUMPDEST PUSH1 0x1F ADD PUSH1 0x5 SHR ADD SWAP1 PUSH2 0x2C77 JUMP JUMPDEST JUMP JUMPDEST SWAP1 SWAP2 POP DUP2 SWAP1 PUSH2 0x2CBC JUMP JUMPDEST SWAP1 SWAP3 SWAP2 PUSH1 0x1 PUSH1 0x1 PUSH1 0x40 SHL SUB DUP2 GT PUSH2 0x2D9C JUMPI PUSH2 0x2CFA DUP2 PUSH2 0x2CF4 DUP5 SLOAD PUSH2 0x2C3D JUMP JUMPDEST DUP5 PUSH2 0x2C8E JUMP JUMPDEST PUSH1 0x0 PUSH1 0x1F DUP3 GT PUSH1 0x1 EQ PUSH2 0x2D34 JUMPI DUP2 SWAP3 SWAP4 SWAP5 PUSH1 0x0 SWAP3 PUSH2 0x2D29 JUMPI JUMPDEST POP POP DUP2 PUSH1 0x1 SHL SWAP2 PUSH1 0x0 NOT SWAP1 PUSH1 0x3 SHL SHR NOT AND OR SWAP1 SSTORE JUMP JUMPDEST ADD CALLDATALOAD SWAP1 POP CODESIZE DUP1 PUSH2 0x2D13 JUMP JUMPDEST PUSH1 0x1F NOT DUP3 AND SWAP5 PUSH2 0x2D49 DUP5 PUSH1 0x0 MSTORE PUSH1 0x20 PUSH1 0x0 KECCAK256 SWAP1 JUMP JUMPDEST SWAP2 DUP1 JUMPDEST DUP8 DUP2 LT PUSH2 0x2D84 JUMPI POP DUP4 PUSH1 0x1 SWAP6 SWAP7 SWAP8 LT PUSH2 0x2D6A JUMPI JUMPDEST POP POP POP DUP2 SHL ADD SWAP1 SSTORE JUMP JUMPDEST ADD CALLDATALOAD PUSH1 0x0 NOT PUSH1 0x3 DUP5 SWAP1 SHL PUSH1 0xF8 AND SHR NOT AND SWAP1 SSTORE CODESIZE DUP1 DUP1 PUSH2 0x2D60 JUMP JUMPDEST SWAP1 SWAP3 PUSH1 0x20 PUSH1 0x1 DUP2 SWAP3 DUP7 DUP7 ADD CALLDATALOAD DUP2 SSTORE ADD SWAP5 ADD SWAP2 ADD PUSH2 0x2D4C JUMP JUMPDEST PUSH2 0x2C27 JUMP JUMPDEST SWAP1 CALLDATALOAD SWAP1 PUSH1 0x1E NOT DUP2 CALLDATASIZE SUB ADD DUP3 SLT ISZERO PUSH2 0x308 JUMPI ADD DUP1 CALLDATALOAD SWAP1 PUSH1 0x1 PUSH1 0x1 PUSH1 0x40 SHL SUB DUP3 GT PUSH2 0x308 JUMPI PUSH1 0x20 ADD SWAP2 DUP2 PUSH1 0x5 SHL CALLDATASIZE SUB DUP4 SGT PUSH2 0x308 JUMPI JUMP JUMPDEST PUSH1 0x1 PUSH1 0x40 SHL DUP4 GT PUSH2 0x2D9C JUMPI DUP1 SLOAD DUP4 DUP3 SSTORE DUP1 DUP5 LT PUSH2 0x2E39 JUMPI JUMPDEST POP SWAP1 PUSH2 0x2E00 DUP2 SWAP3 PUSH1 0x0 MSTORE PUSH1 0x20 PUSH1 0x0 KECCAK256 SWAP1 JUMP JUMPDEST SWAP1 PUSH1 0x0 SWAP3 JUMPDEST DUP5 DUP5 LT PUSH2 0x2E13 JUMPI POP POP POP POP POP JUMP JUMPDEST PUSH1 0x1 PUSH1 0x20 DUP3 PUSH2 0x2E2D PUSH2 0x2E26 DUP5 SWAP6 DUP8 PUSH2 0x2B1A JUMP JUMPDEST SWAP1 DUP9 PUSH2 0x2CD5 JUMP JUMPDEST ADD SWAP4 ADD SWAP4 ADD SWAP3 SWAP2 PUSH2 0x2E05 JUMP JUMPDEST PUSH1 0x0 DUP3 DUP2 MSTORE DUP5 PUSH1 0x20 DUP3 KECCAK256 SWAP3 DUP4 ADD SWAP3 ADD JUMPDEST DUP3 DUP2 LT PUSH2 0x2E57 JUMPI POP POP PUSH2 0x2DEE JUMP JUMPDEST DUP1 PUSH2 0x2E64 PUSH1 0x1 SWAP3 SLOAD PUSH2 0x2C3D JUMP JUMPDEST DUP1 PUSH2 0x2E71 JUMPI JUMPDEST POP ADD PUSH2 0x2E49 JUMP JUMPDEST PUSH1 0x1F SWAP1 DUP2 DUP2 GT DUP5 EQ PUSH2 0x2E89 JUMPI POP POP DUP3 DUP2 SSTORE JUMPDEST CODESIZE PUSH2 0x2E6A JUMP JUMPDEST DUP4 PUSH2 0x2EAB SWAP3 PUSH2 0x2E9D DUP6 PUSH1 0x0 MSTORE PUSH1 0x20 PUSH1 0x0 KECCAK256 SWAP1 JUMP JUMPDEST SWAP3 ADD PUSH1 0x5 SHR DUP3 ADD SWAP2 ADD PUSH2 0x2C77 JUMP JUMPDEST PUSH1 0x0 DUP2 DUP2 MSTORE PUSH1 0x20 DUP2 KECCAK256 DUP2 DUP4 SSTORE SSTORE PUSH2 0x2E83 JUMP JUMPDEST ISZERO PUSH2 0x2EC4 JUMPI JUMP JUMPDEST PUSH1 0x40 MLOAD PUSH3 0x461BCD PUSH1 0xE5 SHL DUP2 MSTORE PUSH1 0x20 PUSH1 0x4 DUP3 ADD MSTORE PUSH1 0x12 PUSH1 0x24 DUP3 ADD MSTORE PUSH18 0x4E656564203E3D31206D696C6573746F6E65 PUSH1 0x70 SHL PUSH1 0x44 DUP3 ADD MSTORE PUSH1 0x64 SWAP1 REVERT JUMPDEST PUSH4 0x4E487B71 PUSH1 0xE0 SHL PUSH1 0x0 MSTORE PUSH1 0x32 PUSH1 0x4 MSTORE PUSH1 0x24 PUSH1 0x0 REVERT JUMPDEST SWAP2 SWAP1 DUP2 LT ISZERO PUSH2 0x2F24 JUMPI PUSH1 0x5 SHL ADD SWAP1 JUMP JUMPDEST PUSH2 0x2EFE JUMP JUMPDEST ISZERO PUSH2 0x2F30 JUMPI JUMP JUMPDEST PUSH1 0x40 MLOAD PUSH3 0x461BCD PUSH1 0xE5 SHL DUP2 MSTORE PUSH1 0x20 PUSH1 0x4 DUP3 ADD MSTORE PUSH1 0xD PUSH1 0x24 DUP3 ADD MSTORE PUSH13 0x4D696C6573746F6E65203E203 PUSH1 0x9C SHL PUSH1 0x44 DUP3 ADD MSTORE PUSH1 0x64 SWAP1 REVERT JUMPDEST SWAP2 SWAP1 DUP3 ADD DUP1 SWAP3 GT PUSH2 0x1B70 JUMPI JUMP JUMPDEST PUSH1 0xA0 DUP2 ADD SWAP1 DUP2 LT PUSH1 0x1 PUSH1 0x1 PUSH1 0x40 SHL SUB DUP3 GT OR PUSH2 0x2D9C JUMPI PUSH1 0x40 MSTORE JUMP JUMPDEST SWAP1 PUSH1 0x1F DUP1 NOT SWAP2 ADD AND DUP2 ADD SWAP1 DUP2 LT PUSH1 0x1 PUSH1 0x1 PUSH1 0x40 SHL SUB DUP3 GT OR PUSH2 0x2D9C JUMPI PUSH1 0x40 MSTORE JUMP JUMPDEST PUSH1 0x40 MLOAD SWAP1 PUSH2 0x2CC9 DUP3 PUSH2 0x2F72 JUMP JUMPDEST PUSH1 0x40 MLOAD SWAP1 PUSH2 0x2C0 DUP3 ADD DUP3 DUP2 LT PUSH1 0x1 PUSH1 0x1 PUSH1 0x40 SHL SUB DUP3 GT OR PUSH2 0x2D9C JUMPI PUSH1 0x40 MSTORE JUMP JUMPDEST DUP1 SLOAD DUP3 LT ISZERO PUSH2 0x2F24 JUMPI PUSH1 0x0 MSTORE PUSH1 0x3 PUSH1 0x20 PUSH1 0x0 KECCAK256 SWAP2 MUL ADD SWAP1 PUSH1 0x0 SWAP1 JUMP JUMPDEST DUP1 SLOAD PUSH1 0x1 PUSH1 0x40 SHL DUP2 LT ISZERO PUSH2 0x2D9C JUMPI PUSH2 0x3014 SWAP2 PUSH1 0x1 DUP3 ADD DUP2 SSTORE PUSH2 0x2FDB JUMP JUMPDEST SWAP2 SWAP1 SWAP2 PUSH2 0x3084 JUMPI PUSH1 0x80 DUP2 PUSH1 0x2 SWAP3 MLOAD DUP5 SSTORE PUSH2 0x307D PUSH1 0x1 DUP6 ADD PUSH2 0x3047 PUSH1 0x20 DUP5 ADD MLOAD ISZERO ISZERO DUP3 SWAP1 PUSH1 0xFF DUP1 NOT DUP4 SLOAD AND SWAP2 ISZERO ISZERO AND OR SWAP1 SSTORE JUMP JUMPDEST PUSH1 0x40 DUP4 ADD MLOAD DUP2 SLOAD PUSH2 0xFF00 NOT AND SWAP1 ISZERO ISZERO PUSH1 0x8 SHL PUSH2 0xFF00 AND OR DUP2 SSTORE PUSH1 0x60 DUP4 ADD MLOAD DUP2 SLOAD PUSH3 0xFF0000 NOT AND SWAP1 ISZERO ISZERO PUSH1 0x10 SHL PUSH3 0xFF0000 AND OR SWAP1 SSTORE JUMP JUMPDEST ADD MLOAD SWAP2 ADD SSTORE JUMP JUMPDEST PUSH4 0x4E487B71 PUSH1 0xE0 SHL PUSH1 0x0 MSTORE PUSH1 0x0 PUSH1 0x4 MSTORE PUSH1 0x24 PUSH1 0x0 REVERT JUMPDEST ISZERO PUSH2 0x30A1 JUMPI JUMP JUMPDEST PUSH1 0x40 MLOAD PUSH3 0x461BCD PUSH1 0xE5 SHL DUP2 MSTORE PUSH1 0x20 PUSH1 0x4 DUP3 ADD MSTORE PUSH1 0x1A PUSH1 0x24 DUP3 ADD MSTORE PUSH32 0x6D73672E76616C7565206D75737420657175616C20746F74616C000000000000 PUSH1 0x44 DUP3 ADD MSTORE PUSH1 0x64 SWAP1 REVERT JUMPDEST ISZERO PUSH2 0x30ED JUMPI JUMP JUMPDEST PUSH1 0x40 MLOAD PUSH3 0x461BCD PUSH1 0xE5 SHL DUP2 MSTORE PUSH1 0x20 PUSH1 0x4 DUP3 ADD MSTORE PUSH1 0xD PUSH1 0x24 DUP3 ADD MSTORE PUSH13 0x129BD8881B9BDD08195E1A5CDD PUSH1 0x9A SHL PUSH1 0x44 DUP3 ADD MSTORE PUSH1 0x64 SWAP1 REVERT JUMPDEST ISZERO PUSH2 0x3129 JUMPI JUMP JUMPDEST PUSH1 0x40 MLOAD PUSH3 0x461BCD PUSH1 0xE5 SHL DUP2 MSTORE PUSH1 0x20 PUSH1 0x4 DUP3 ADD MSTORE PUSH1 0x14 PUSH1 0x24 DUP3 ADD MSTORE PUSH20 0x13DB9B1E4818DB1A595B9D0818D85B88199D5B99 PUSH1 0x62 SHL PUSH1 0x44 DUP3 ADD MSTORE PUSH1 0x64 SWAP1 REVERT JUMPDEST ISZERO PUSH2 0x316C JUMPI JUMP JUMPDEST PUSH1 0x40 MLOAD PUSH3 0x461BCD PUSH1 0xE5 SHL DUP2 MSTORE PUSH1 0x20 PUSH1 0x4 DUP3 ADD MSTORE PUSH1 0xE PUSH1 0x24 DUP3 ADD MSTORE PUSH14 0x105B1C9958591E48199D5B991959 PUSH1 0x92 SHL PUSH1 0x44 DUP3 ADD MSTORE PUSH1 0x64 SWAP1 REVERT JUMPDEST ISZERO PUSH2 0x31A9 JUMPI JUMP JUMPDEST PUSH1 0x40 MLOAD PUSH3 0x461BCD PUSH1 0xE5 SHL DUP2 MSTORE PUSH1 0x20 PUSH1 0x4 DUP3 ADD MSTORE PUSH1 0xD PUSH1 0x24 DUP3 ADD MSTORE PUSH13 0x4D7573742073656E64203E203 PUSH1 0x9C SHL PUSH1 0x44 DUP3 ADD MSTORE PUSH1 0x64 SWAP1 REVERT JUMPDEST ISZERO PUSH2 0x31E5 JUMPI JUMP JUMPDEST PUSH1 0x40 MLOAD PUSH3 0x461BCD PUSH1 0xE5 SHL DUP2 MSTORE PUSH1 0x20 PUSH1 0x4 DUP3 ADD MSTORE PUSH1 0x15 PUSH1 0x24 DUP3 ADD MSTORE PUSH21 0x135D5CDD081CD95B9908199D5B1B08185B5BDD5B9D PUSH1 0x5A SHL PUSH1 0x44 DUP3 ADD MSTORE PUSH1 0x64 SWAP1 REVERT JUMPDEST ISZERO PUSH2 0x3229 JUMPI JUMP JUMPDEST PUSH1 0x40 MLOAD PUSH3 0x461BCD PUSH1 0xE5 SHL DUP2 MSTORE PUSH1 0x20 PUSH1 0x4 DUP3 ADD MSTORE PUSH1 0x15 PUSH1 0x24 DUP3 ADD MSTORE PUSH21 0x10DB1A595B9D0818D85B9B9BDD081C995C5D595CDD PUSH1 0x5A SHL PUSH1 0x44 DUP3 ADD MSTORE PUSH1 0x64 SWAP1 REVERT JUMPDEST ISZERO PUSH2 0x326D JUMPI JUMP JUMPDEST PUSH1 0x40 MLOAD PUSH3 0x461BCD PUSH1 0xE5 SHL DUP2 MSTORE PUSH1 0x20 PUSH1 0x4 DUP3 ADD MSTORE PUSH1 0xC PUSH1 0x24 DUP3 ADD MSTORE PUSH12 0x2537B1103737BA1037B832B7 PUSH1 0xA1 SHL PUSH1 0x44 DUP3 ADD MSTORE PUSH1 0x64 SWAP1 REVERT JUMPDEST ISZERO PUSH2 0x32A8 JUMPI JUMP JUMPDEST PUSH1 0x40 MLOAD PUSH3 0x461BCD PUSH1 0xE5 SHL DUP2 MSTORE PUSH1 0x20 PUSH1 0x4 DUP3 ADD MSTORE PUSH1 0x17 PUSH1 0x24 DUP3 ADD MSTORE PUSH32 0x4F6E6C7920636C69656E742063616E20617070726F7665000000000000000000 PUSH1 0x44 DUP3 ADD MSTORE PUSH1 0x64 SWAP1 REVERT JUMPDEST ISZERO PUSH2 0x32F4 JUMPI JUMP JUMPDEST PUSH1 0x40 MLOAD PUSH3 0x461BCD PUSH1 0xE5 SHL DUP2 MSTORE PUSH1 0x20 PUSH1 0x4 DUP3 ADD MSTORE PUSH1 0x18 PUSH1 0x24 DUP3 ADD MSTORE PUSH32 0x50726F766964657220646964206E6F7420726571756573740000000000000000 PUSH1 0x44 DUP3 ADD MSTORE PUSH1 0x64 SWAP1 REVERT JUMPDEST DUP1 SLOAD SWAP1 PUSH1 0x1 PUSH1 0x40 SHL DUP3 LT ISZERO PUSH2 0x2D9C JUMPI PUSH1 0x1 DUP3 ADD DUP1 DUP3 SSTORE DUP3 LT ISZERO PUSH2 0x2F24 JUMPI PUSH1 0x0 MSTORE PUSH1 0x20 PUSH1 0x0 KECCAK256 ADD SSTORE JUMP JUMPDEST ISZERO PUSH2 0x3369 JUMPI JUMP JUMPDEST PUSH1 0x40 MLOAD PUSH3 0x461BCD PUSH1 0xE5 SHL DUP2 MSTORE PUSH1 0x20 PUSH1 0x4 DUP3 ADD MSTORE PUSH1 0x17 PUSH1 0x24 DUP3 ADD MSTORE PUSH32 0x4E6F742061737369676E656420667265656C616E636572000000000000000000 PUSH1 0x44 DUP3 ADD MSTORE PUSH1 0x64 SWAP1 REVERT JUMPDEST ISZERO PUSH2 0x33B5 JUMPI JUMP JUMPDEST PUSH1 0x40 MLOAD PUSH3 0x461BCD PUSH1 0xE5 SHL DUP2 MSTORE PUSH1 0x20 PUSH1 0x4 DUP3 ADD MSTORE PUSH1 0xE PUSH1 0x24 DUP3 ADD MSTORE PUSH14 0x496E76616C696420737461747573 PUSH1 0x90 SHL PUSH1 0x44 DUP3 ADD MSTORE PUSH1 0x64 SWAP1 REVERT JUMPDEST ISZERO PUSH2 0x33F2 JUMPI JUMP JUMPDEST PUSH1 0x40 MLOAD PUSH3 0x461BCD PUSH1 0xE5 SHL DUP2 MSTORE PUSH1 0x20 PUSH1 0x4 DUP3 ADD MSTORE PUSH1 0xD PUSH1 0x24 DUP3 ADD MSTORE PUSH13 0x26B4B632B9BA37B7329027A7A1 PUSH1 0x99 SHL PUSH1 0x44 DUP3 ADD MSTORE PUSH1 0x64 SWAP1 REVERT JUMPDEST ISZERO PUSH2 0x342E JUMPI JUMP JUMPDEST PUSH1 0x40 MLOAD PUSH3 0x461BCD PUSH1 0xE5 SHL DUP2 MSTORE PUSH1 0x20 PUSH1 0x4 DUP3 ADD MSTORE PUSH1 0x11 PUSH1 0x24 DUP3 ADD MSTORE PUSH17 0x105B1C9958591E4818DBDB999A5C9B5959 PUSH1 0x7A SHL PUSH1 0x44 DUP3 ADD MSTORE PUSH1 0x64 SWAP1 REVERT JUMPDEST ISZERO PUSH2 0x346E JUMPI JUMP JUMPDEST PUSH1 0x40 MLOAD PUSH3 0x461BCD PUSH1 0xE5 SHL DUP2 MSTORE PUSH1 0x20 PUSH1 0x4 DUP3 ADD MSTORE PUSH1 0xD PUSH1 0x24 DUP3 ADD MSTORE PUSH13 0x2737BA103334BC32B2103537B1 PUSH1 0x99 SHL PUSH1 0x44 DUP3 ADD MSTORE PUSH1 0x64 SWAP1 REVERT JUMPDEST ISZERO PUSH2 0x34AA JUMPI JUMP JUMPDEST PUSH1 0x40 MLOAD PUSH3 0x461BCD PUSH1 0xE5 SHL DUP2 MSTORE PUSH1 0x20 PUSH1 0x4 DUP3 ADD MSTORE PUSH1 0xB PUSH1 0x24 DUP3 ADD MSTORE PUSH11 0x13DB9B1E4818DB1A595B9D PUSH1 0xAA SHL PUSH1 0x44 DUP3 ADD MSTORE PUSH1 0x64 SWAP1 REVERT JUMPDEST ISZERO PUSH2 0x34E4 JUMPI JUMP JUMPDEST PUSH1 0x40 MLOAD PUSH3 0x461BCD PUSH1 0xE5 SHL DUP2 MSTORE PUSH1 0x20 PUSH1 0x4 DUP3 ADD MSTORE PUSH1 0xE PUSH1 0x24 DUP3 ADD MSTORE PUSH14 0x129BD8881B9BDD08199D5B991959 PUSH1 0x92 SHL PUSH1 0x44 DUP3 ADD MSTORE PUSH1 0x64 SWAP1 REVERT JUMPDEST ISZERO PUSH2 0x3521 JUMPI JUMP JUMPDEST PUSH1 0x40 MLOAD PUSH3 0x461BCD PUSH1 0xE5 SHL DUP2 MSTORE PUSH1 0x20 PUSH1 0x4 DUP3 ADD MSTORE PUSH1 0xF PUSH1 0x24 DUP3 ADD MSTORE PUSH15 0x4E6F7420696E2064656C6976657279 PUSH1 0x88 SHL PUSH1 0x44 DUP3 ADD MSTORE PUSH1 0x64 SWAP1 REVERT JUMPDEST ISZERO PUSH2 0x355F JUMPI JUMP JUMPDEST PUSH1 0x40 MLOAD PUSH3 0x461BCD PUSH1 0xE5 SHL DUP2 MSTORE PUSH1 0x20 PUSH1 0x4 DUP3 ADD MSTORE PUSH1 0x11 PUSH1 0x24 DUP3 ADD MSTORE PUSH17 0x2737BA1036B4B632B9BA37B732903537B1 PUSH1 0x79 SHL PUSH1 0x44 DUP3 ADD MSTORE PUSH1 0x64 SWAP1 REVERT JUMPDEST ISZERO PUSH2 0x359F JUMPI JUMP JUMPDEST PUSH1 0x40 MLOAD PUSH3 0x461BCD PUSH1 0xE5 SHL DUP2 MSTORE PUSH1 0x20 PUSH1 0x4 DUP3 ADD MSTORE PUSH1 0xA PUSH1 0x24 DUP3 ADD MSTORE PUSH10 0x139BDD08199D5B991959 PUSH1 0xB2 SHL PUSH1 0x44 DUP3 ADD MSTORE PUSH1 0x64 SWAP1 REVERT JUMPDEST ISZERO PUSH2 0x35D8 JUMPI JUMP JUMPDEST PUSH1 0x40 MLOAD PUSH3 0x461BCD PUSH1 0xE5 SHL DUP2 MSTORE PUSH1 0x20 PUSH1 0x4 DUP3 ADD MSTORE PUSH1 0x14 PUSH1 0x24 DUP3 ADD MSTORE PUSH20 0x139BDD081B585C9AD9590819195B1A5D995C9959 PUSH1 0x62 SHL PUSH1 0x44 DUP3 ADD MSTORE PUSH1 0x64 SWAP1 REVERT JUMPDEST ISZERO PUSH2 0x361B JUMPI JUMP JUMPDEST PUSH1 0x40 MLOAD PUSH3 0x461BCD PUSH1 0xE5 SHL DUP2 MSTORE PUSH1 0x20 PUSH1 0x4 DUP3 ADD MSTORE PUSH1 0xE PUSH1 0x24 DUP3 ADD MSTORE PUSH14 0x2737BA10333932B2B630B731B2B9 PUSH1 0x91 SHL PUSH1 0x44 DUP3 ADD MSTORE PUSH1 0x64 SWAP1 REVERT JUMPDEST ISZERO PUSH2 0x3658 JUMPI JUMP JUMPDEST PUSH1 0x40 MLOAD PUSH3 0x461BCD PUSH1 0xE5 SHL DUP2 MSTORE PUSH1 0x20 PUSH1 0x4 DUP3 ADD MSTORE PUSH1 0x13 PUSH1 0x24 DUP3 ADD MSTORE PUSH19 0x10D85B9B9BDD081DDA5D1A191C985DC81E595D PUSH1 0x6A SHL PUSH1 0x44 DUP3 ADD MSTORE PUSH1 0x64 SWAP1 REVERT JUMPDEST ISZERO PUSH2 0x369A JUMPI JUMP JUMPDEST PUSH1 0x40 MLOAD PUSH3 0x461BCD PUSH1 0xE5 SHL DUP2 MSTORE PUSH1 0x20 PUSH1 0x4 DUP3 ADD MSTORE PUSH1 0x13 PUSH1 0x24 DUP3 ADD MSTORE PUSH19 0x4E6F7468696E6720746F207769746864726177 PUSH1 0x68 SHL PUSH1 0x44 DUP3 ADD MSTORE PUSH1 0x64 SWAP1 REVERT JUMPDEST ISZERO PUSH2 0x36DC JUMPI JUMP JUMPDEST PUSH1 0x40 MLOAD PUSH3 0x461BCD PUSH1 0xE5 SHL DUP2 MSTORE PUSH1 0x20 PUSH1 0x4 DUP3 ADD MSTORE PUSH1 0x10 PUSH1 0x24 DUP3 ADD MSTORE PUSH16 0x139BC81A9BD89CC81C1C9BDD9A591959 PUSH1 0x82 SHL PUSH1 0x44 DUP3 ADD MSTORE PUSH1 0x64 SWAP1 REVERT JUMPDEST ISZERO PUSH2 0x371B JUMPI JUMP JUMPDEST PUSH1 0x40 MLOAD PUSH3 0x461BCD PUSH1 0xE5 SHL DUP2 MSTORE PUSH1 0x20 PUSH1 0x4 DUP3 ADD MSTORE PUSH1 0xF PUSH1 0x24 DUP3 ADD MSTORE PUSH15 0x43616E6E6F74207769746864726177 PUSH1 0x88 SHL PUSH1 0x44 DUP3 ADD MSTORE PUSH1 0x64 SWAP1 REVERT JUMPDEST PUSH1 0x60 DUP1 DUP3 MSTORE DUP2 ADD DUP4 SWAP1 MSTORE SWAP3 SWAP5 SWAP4 SWAP3 SWAP1 SWAP2 PUSH1 0x1 PUSH1 0x1 PUSH1 0xFB SHL SUB DUP2 GT PUSH2 0x308 JUMPI PUSH1 0x40 SWAP3 PUSH1 0x80 SWAP2 PUSH1 0x5 SHL DUP1 SWAP2 DUP4 DUP6 ADD CALLDATACOPY DUP3 ADD ADD SWAP5 PUSH1 0x20 DUP3 ADD MSTORE ADD MSTORE JUMP JUMPDEST ISZERO PUSH2 0x3793 JUMPI JUMP JUMPDEST PUSH1 0x40 MLOAD PUSH3 0x461BCD PUSH1 0xE5 SHL DUP2 MSTORE PUSH1 0x20 PUSH1 0x4 DUP3 ADD MSTORE PUSH1 0x13 PUSH1 0x24 DUP3 ADD MSTORE PUSH19 0x4F6E6C79206D696C6573746F6E65206A6F6273 PUSH1 0x68 SHL PUSH1 0x44 DUP3 ADD MSTORE PUSH1 0x64 SWAP1 REVERT JUMPDEST ISZERO PUSH2 0x37D5 JUMPI JUMP JUMPDEST PUSH1 0x40 MLOAD PUSH3 0x461BCD PUSH1 0xE5 SHL DUP2 MSTORE PUSH1 0x20 PUSH1 0x4 DUP3 ADD MSTORE PUSH1 0xD PUSH1 0x24 DUP3 ADD MSTORE PUSH13 0x105B1C9958591E48199A5B985B PUSH1 0x9A SHL PUSH1 0x44 DUP3 ADD MSTORE PUSH1 0x64 SWAP1 REVERT JUMPDEST ISZERO PUSH2 0x3811 JUMPI JUMP JUMPDEST PUSH1 0x40 MLOAD PUSH3 0x461BCD PUSH1 0xE5 SHL DUP2 MSTORE PUSH1 0x20 PUSH1 0x4 DUP3 ADD MSTORE PUSH1 0x11 PUSH1 0x24 DUP3 ADD MSTORE PUSH17 0x139BDD1A1A5B99C81D1BC81C99599D5B99 PUSH1 0x7A SHL PUSH1 0x44 DUP3 ADD MSTORE PUSH1 0x64 SWAP1 REVERT JUMPDEST ISZERO PUSH2 0x3851 JUMPI JUMP JUMPDEST PUSH1 0x40 MLOAD PUSH3 0x461BCD PUSH1 0xE5 SHL DUP2 MSTORE PUSH1 0x20 PUSH1 0x4 DUP3 ADD MSTORE PUSH1 0x11 PUSH1 0x24 DUP3 ADD MSTORE PUSH17 0x43616E6E6F742063616E63656C206E6F77 PUSH1 0x78 SHL PUSH1 0x44 DUP3 ADD MSTORE PUSH1 0x64 SWAP1 REVERT JUMPDEST ISZERO PUSH2 0x3891 JUMPI JUMP JUMPDEST PUSH1 0x40 MLOAD PUSH3 0x461BCD PUSH1 0xE5 SHL DUP2 MSTORE PUSH1 0x20 PUSH1 0x4 DUP3 ADD MSTORE PUSH1 0x1A PUSH1 0x24 DUP3 ADD MSTORE PUSH32 0x416C72656164792068617320636F6E6669726D656420776F726B000000000000 PUSH1 0x44 DUP3 ADD MSTORE PUSH1 0x64 SWAP1 REVERT JUMPDEST ISZERO PUSH2 0x38DD JUMPI JUMP JUMPDEST PUSH1 0x40 MLOAD PUSH3 0x461BCD PUSH1 0xE5 SHL DUP2 MSTORE PUSH1 0x20 PUSH1 0x4 DUP3 ADD MSTORE PUSH1 0x15 PUSH1 0x24 DUP3 ADD MSTORE PUSH21 0x13DB9B1E48191A5CDC1D5D194818DBDB9D1C9858DD PUSH1 0x5A SHL PUSH1 0x44 DUP3 ADD MSTORE PUSH1 0x64 SWAP1 REVERT JUMPDEST PUSH1 0x4 GT ISZERO PUSH2 0x7FF JUMPI JUMP JUMPDEST SWAP1 PUSH1 0x4 DUP3 LT ISZERO PUSH2 0x7FF JUMPI MSTORE JUMP JUMPDEST PUSH1 0x20 DUP2 ADD SWAP3 SWAP2 PUSH2 0x2CC9 SWAP2 SWAP1 PUSH2 0x3924 JUMP JUMPDEST SWAP1 SWAP3 SWAP2 PUSH1 0x20 SWAP1 PUSH2 0x3955 DUP4 PUSH1 0x40 DUP2 ADD SWAP7 PUSH2 0x3924 JUMP JUMPDEST PUSH1 0x1 PUSH1 0x1 PUSH1 0xA0 SHL SUB AND SWAP2 ADD MSTORE JUMP JUMPDEST PUSH2 0x396B PUSH2 0x2FBB JUMP JUMPDEST SWAP1 PUSH1 0x0 DUP1 DUP4 MSTORE DUP1 PUSH1 0x20 DUP5 ADD MSTORE DUP1 PUSH1 0x40 DUP5 ADD MSTORE PUSH1 0x60 DUP2 DUP2 DUP6 ADD MSTORE DUP2 PUSH1 0x80 DUP6 ADD MSTORE DUP2 PUSH1 0xA0 DUP6 ADD MSTORE DUP2 PUSH1 0xC0 DUP6 ADD MSTORE DUP2 PUSH1 0xE0 DUP6 ADD MSTORE DUP2 PUSH2 0x100 DUP6 ADD MSTORE DUP2 PUSH2 0x120 DUP6 ADD MSTORE DUP2 PUSH2 0x140 DUP6 ADD MSTORE DUP2 PUSH2 0x160 DUP6 ADD MSTORE DUP2 PUSH2 0x180 DUP6 ADD MSTORE DUP2 PUSH2 0x1A0 DUP6 ADD MSTORE DUP2 PUSH2 0x1C0 DUP6 ADD MSTORE DUP1 PUSH2 0x1E0 DUP6 ADD MSTORE DUP1 PUSH2 0x200 DUP6 ADD MSTORE DUP1 PUSH2 0x220 DUP6 ADD MSTORE DUP1 PUSH2 0x240 DUP6 ADD MSTORE DUP1 PUSH2 0x260 DUP6 ADD MSTORE PUSH2 0x280 DUP5 ADD MSTORE PUSH2 0x2A0 DUP4 ADD MSTORE JUMP JUMPDEST PUSH1 0x1 PUSH1 0x1 PUSH1 0x40 SHL SUB DUP2 GT PUSH2 0x2D9C JUMPI PUSH1 0x5 SHL PUSH1 0x20 ADD SWAP1 JUMP JUMPDEST PUSH1 0x40 MLOAD PUSH1 0x20 DUP2 ADD DUP2 DUP2 LT PUSH1 0x1 PUSH1 0x1 PUSH1 0x40 SHL SUB DUP3 GT OR PUSH2 0x2D9C JUMPI PUSH1 0x40 MSTORE PUSH1 0x0 DUP2 MSTORE SWAP1 JUMP JUMPDEST PUSH1 0x2 DUP3 LT ISZERO PUSH2 0x7FF JUMPI MSTORE JUMP JUMPDEST PUSH1 0x7 DUP3 LT ISZERO PUSH2 0x7FF JUMPI MSTORE JUMP JUMPDEST SWAP1 PUSH1 0x40 MLOAD SWAP2 DUP3 PUSH1 0x0 DUP3 SLOAD SWAP3 PUSH2 0x3A64 DUP5 PUSH2 0x2C3D JUMP JUMPDEST SWAP1 DUP2 DUP5 MSTORE PUSH1 0x1 SWAP5 DUP6 DUP2 AND SWAP1 DUP2 PUSH1 0x0 EQ PUSH2 0x3AD1 JUMPI POP PUSH1 0x1 EQ PUSH2 0x3A8E JUMPI JUMPDEST POP POP PUSH2 0x2CC9 SWAP3 POP SUB DUP4 PUSH2 0x2F8D JUMP JUMPDEST SWAP1 SWAP4 SWAP2 POP PUSH1 0x0 MSTORE PUSH1 0x20 SWAP1 DUP2 PUSH1 0x0 KECCAK256 SWAP4 PUSH1 0x0 SWAP2 JUMPDEST DUP2 DUP4 LT PUSH2 0x3AB9 JUMPI POP POP PUSH2 0x2CC9 SWAP4 POP DUP3 ADD ADD CODESIZE DUP1 PUSH2 0x3A80 JUMP JUMPDEST DUP6 SLOAD DUP9 DUP5 ADD DUP6 ADD MSTORE SWAP5 DUP6 ADD SWAP5 DUP8 SWAP5 POP SWAP2 DUP4 ADD SWAP2 PUSH2 0x3AA1 JUMP JUMPDEST SWAP2 POP POP PUSH2 0x2CC9 SWAP5 POP PUSH1 0x20 SWAP3 POP PUSH1 0xFF NOT AND DUP3 DUP5 ADD MSTORE ISZERO ISZERO PUSH1 0x5 SHL DUP3 ADD ADD CODESIZE DUP1 PUSH2 0x3A80 JUMP JUMPDEST SWAP1 DUP2 SLOAD PUSH2 0x3B00 DUP2 PUSH2 0x39FE JUMP JUMPDEST SWAP3 PUSH2 0x3B0E PUSH1 0x40 MLOAD SWAP5 DUP6 PUSH2 0x2F8D JUMP JUMPDEST DUP2 DUP5 MSTORE PUSH1 0x0 SWAP1 DUP2 MSTORE PUSH1 0x20 DUP1 DUP3 KECCAK256 DUP2 DUP7 ADD JUMPDEST DUP5 DUP5 LT PUSH2 0x3B2D JUMPI POP POP POP POP POP JUMP JUMPDEST PUSH1 0x1 DUP4 DUP2 SWAP3 PUSH2 0x3B3B DUP6 PUSH2 0x3A50 JUMP JUMPDEST DUP2 MSTORE ADD SWAP3 ADD SWAP4 ADD SWAP3 SWAP1 PUSH2 0x3B1F JUMP JUMPDEST ISZERO PUSH2 0x3B50 JUMPI JUMP JUMPDEST PUSH1 0x40 MLOAD PUSH3 0x461BCD PUSH1 0xE5 SHL DUP2 MSTORE PUSH1 0x20 PUSH1 0x4 DUP3 ADD MSTORE PUSH1 0x3 PUSH1 0x24 DUP3 ADD MSTORE PUSH3 0x27A7A1 PUSH1 0xE9 SHL PUSH1 0x44 DUP3 ADD MSTORE PUSH1 0x64 SWAP1 REVERT JUMPDEST SWAP1 DUP2 SLOAD PUSH2 0x3B87 DUP2 PUSH2 0x39FE JUMP JUMPDEST SWAP3 PUSH1 0x40 SWAP4 PUSH2 0x3B97 DUP6 MLOAD SWAP2 DUP3 PUSH2 0x2F8D JUMP JUMPDEST DUP3 DUP2 MSTORE DUP1 SWAP5 PUSH1 0x20 DUP1 SWAP3 ADD SWAP3 PUSH1 0x0 MSTORE DUP2 PUSH1 0x0 KECCAK256 SWAP1 PUSH1 0x0 SWAP4 JUMPDEST DUP6 DUP6 LT PUSH2 0x3BBD JUMPI POP POP POP POP POP POP JUMP JUMPDEST PUSH1 0x3 DUP5 PUSH1 0x1 SWAP3 DUP5 MLOAD PUSH2 0x3BCE DUP2 PUSH2 0x2F72 JUMP JUMPDEST DUP7 SLOAD DUP2 MSTORE DUP5 DUP8 ADD SLOAD PUSH1 0xFF SWAP1 DUP2 DUP2 AND ISZERO ISZERO DUP6 DUP5 ADD MSTORE DUP2 DUP2 PUSH1 0x8 SHR AND ISZERO ISZERO DUP9 DUP5 ADD MSTORE PUSH1 0x10 SHR AND ISZERO ISZERO PUSH1 0x60 DUP3 ADD MSTORE PUSH1 0x2 DUP8 ADD SLOAD PUSH1 0x80 DUP3 ADD MSTORE DUP2 MSTORE ADD SWAP4 ADD SWAP5 ADD SWAP4 SWAP2 PUSH2 0x3BAE JUMP JUMPDEST SWAP1 PUSH2 0x3C1B DUP3 PUSH2 0x39FE JUMP JUMPDEST PUSH2 0x3C28 PUSH1 0x40 MLOAD SWAP2 DUP3 PUSH2 0x2F8D JUMP JUMPDEST DUP3 DUP2 MSTORE DUP1 SWAP3 PUSH2 0x3C39 PUSH1 0x1F NOT SWAP2 PUSH2 0x39FE JUMP JUMPDEST ADD SWAP1 PUSH1 0x0 JUMPDEST DUP3 DUP2 LT PUSH2 0x3C4A JUMPI POP POP POP JUMP JUMPDEST PUSH1 0x20 SWAP1 PUSH2 0x3C55 PUSH2 0x3963 JUMP JUMPDEST DUP3 DUP3 DUP6 ADD ADD MSTORE ADD PUSH2 0x3C3E JUMP JUMPDEST DUP1 MLOAD DUP3 LT ISZERO PUSH2 0x2F24 JUMPI PUSH1 0x20 SWAP2 PUSH1 0x5 SHL ADD ADD SWAP1 JUMP JUMPDEST SWAP1 PUSH2 0x2CC9 PUSH2 0x3DCC PUSH1 0x11 PUSH2 0x3C86 PUSH2 0x2FBB JUMP JUMPDEST SWAP5 DUP1 SLOAD DUP7 MSTORE PUSH2 0x3CB6 PUSH1 0x1 DUP3 ADD SLOAD PUSH2 0x3CA3 PUSH1 0xFF DUP3 AND PUSH1 0x20 DUP11 ADD PUSH2 0x3A38 JUMP JUMPDEST PUSH1 0x8 SHR PUSH1 0x1 PUSH1 0x1 PUSH1 0xA0 SHL SUB AND PUSH1 0x40 DUP9 ADD MSTORE JUMP JUMPDEST PUSH1 0x2 DUP2 ADD SLOAD PUSH1 0x1 PUSH1 0x1 PUSH1 0xA0 SHL SUB AND PUSH1 0x60 DUP8 ADD MSTORE PUSH1 0x3 DUP2 ADD SLOAD PUSH1 0x80 DUP8 ADD MSTORE PUSH1 0x4 DUP2 ADD SLOAD PUSH1 0xA0 DUP8 ADD MSTORE PUSH1 0x5 DUP2 ADD SLOAD PUSH1 0xC0 DUP8 ADD MSTORE PUSH1 0x6 DUP2 ADD SLOAD PUSH1 0xE0 DUP8 ADD MSTORE PUSH1 0x7 DUP2 ADD SLOAD PUSH2 0x100 DUP8 ADD MSTORE PUSH1 0x8 DUP2 ADD SLOAD PUSH2 0x120 DUP8 ADD MSTORE PUSH1 0x9 DUP2 ADD SLOAD PUSH2 0x140 DUP8 ADD MSTORE PUSH2 0x3D58 PUSH1 0xFF PUSH1 0xA DUP4 ADD SLOAD PUSH2 0x3D2C DUP3 DUP3 AND PUSH2 0x160 DUP12 ADD PUSH2 0x3A44 JUMP JUMPDEST PUSH1 0x8 DUP2 SWAP1 SHR DUP3 AND ISZERO ISZERO PUSH2 0x180 DUP11 ADD MSTORE PUSH1 0x10 DUP2 SWAP1 SHR DUP3 AND ISZERO ISZERO PUSH2 0x1A0 DUP11 ADD MSTORE PUSH1 0x18 SHR AND ISZERO ISZERO PUSH2 0x1C0 DUP9 ADD MSTORE JUMP JUMPDEST PUSH2 0x3D64 PUSH1 0xB DUP3 ADD PUSH2 0x3B7B JUMP JUMPDEST PUSH2 0x1E0 DUP8 ADD MSTORE PUSH2 0x3D76 PUSH1 0xC DUP3 ADD PUSH2 0x3A50 JUMP JUMPDEST PUSH2 0x200 DUP8 ADD MSTORE PUSH2 0x3D88 PUSH1 0xD DUP3 ADD PUSH2 0x3A50 JUMP JUMPDEST PUSH2 0x220 DUP8 ADD MSTORE PUSH2 0x3D9A PUSH1 0xE DUP3 ADD PUSH2 0x3A50 JUMP JUMPDEST PUSH2 0x240 DUP8 ADD MSTORE PUSH2 0x3DAC PUSH1 0xF DUP3 ADD PUSH2 0x3AF4 JUMP JUMPDEST PUSH2 0x260 DUP8 ADD MSTORE PUSH2 0x3DBE PUSH1 0x10 DUP3 ADD PUSH2 0x3A50 JUMP JUMPDEST PUSH2 0x280 DUP8 ADD MSTORE ADD SLOAD PUSH1 0xFF AND SWAP1 JUMP JUMPDEST ISZERO ISZERO PUSH2 0x2A0 DUP5 ADD MSTORE JUMP JUMPDEST DUP2 ISZERO PUSH2 0x3E6B JUMPI PUSH1 0x0 SWAP2 DUP3 SWAP2 DUP3 SWAP2 DUP3 SWAP2 PUSH1 0x1 PUSH1 0x1 PUSH1 0xA0 SHL SUB AND GAS CALL RETURNDATASIZE ISZERO PUSH2 0x3E66 JUMPI RETURNDATASIZE PUSH1 0x1 PUSH1 0x1 PUSH1 0x40 SHL SUB DUP2 GT PUSH2 0x2D9C JUMPI PUSH1 0x40 MLOAD SWAP1 PUSH2 0x3E1D PUSH1 0x1F DUP3 ADD PUSH1 0x1F NOT AND PUSH1 0x20 ADD DUP4 PUSH2 0x2F8D JUMP JUMPDEST DUP2 MSTORE PUSH1 0x0 PUSH1 0x20 RETURNDATASIZE SWAP3 ADD RETURNDATACOPY JUMPDEST ISZERO PUSH2 0x3E2F JUMPI JUMP JUMPDEST PUSH1 0x40 MLOAD PUSH3 0x461BCD PUSH1 0xE5 SHL DUP2 MSTORE PUSH1 0x20 PUSH1 0x4 DUP3 ADD MSTORE PUSH1 0xF PUSH1 0x24 DUP3 ADD MSTORE PUSH15 0x151C985B9CD9995C8819985A5B1959 PUSH1 0x8A SHL PUSH1 0x44 DUP3 ADD MSTORE PUSH1 0x64 SWAP1 REVERT JUMPDEST PUSH2 0x3E28 JUMP JUMPDEST POP POP JUMP JUMPDEST PUSH1 0x5 DUP2 MUL SWAP1 DUP1 DUP3 DIV PUSH1 0x5 EQ SWAP1 ISZERO OR ISZERO PUSH2 0x1B70 JUMPI PUSH1 0x64 SWAP1 DIV SWAP1 JUMP JUMPDEST PUSH1 0x7 DUP2 MUL SWAP1 DUP1 DUP3 DIV PUSH1 0x7 EQ SWAP1 ISZERO OR ISZERO PUSH2 0x1B70 JUMPI PUSH1 0x64 SWAP1 DIV SWAP1 JUMP JUMPDEST PUSH1 0xA DUP2 MUL SWAP1 DUP1 DUP3 DIV PUSH1 0xA EQ SWAP1 ISZERO OR ISZERO PUSH2 0x1B70 JUMPI PUSH1 0x64 SWAP1 DIV SWAP1 JUMP JUMPDEST SWAP1 DUP1 DUP3 LT PUSH2 0x3ED1 JUMPI DUP2 SUB SWAP1 DUP2 GT PUSH2 0x1B70 JUMPI SWAP1 JUMP JUMPDEST PUSH1 0x40 MLOAD PUSH3 0x461BCD PUSH1 0xE5 SHL DUP2 MSTORE PUSH1 0x20 PUSH1 0x4 DUP3 ADD MSTORE PUSH1 0x12 PUSH1 0x24 DUP3 ADD MSTORE PUSH18 0x11995948195E18D959591CC8185B5BDD5B9D PUSH1 0x72 SHL PUSH1 0x44 DUP3 ADD MSTORE PUSH1 0x64 SWAP1 REVERT INVALID 0x4B 0xD1 EQ 0xE7 0x4B 0x29 0xBC 0xC3 CODECOPY CREATE2 0xC7 PUSH19 0xFF225845F26C7EC2498337596019D1062D90BC TIMESTAMP LOG2 PUSH5 0x6970667358 0x22 SLT KECCAK256 0xD4 0x4F 0xB7 CALLER 0xAF SWAP4 0xE8 CODESIZE 0xB1 SWAP9 0xB0 0x24 PUSH5 0xC73EA75D4C XOR PUSH5 0x23B571CEAD MSTORE8 LOG1 CREATE2 0x5C SWAP9 BYTE SWAP11 PUSH5 0x736F6C6343 STOP ADDMOD EQ STOP CALLER "},"methodIdentifiers":{"approveProvider(uint256,address)":"94d246c2","batchWithdraw(uint256[])":"72e55399","cancelJob(uint256)":"1dffa3dc","clientRequestRefund(uint256)":"641ca008","confirmFixedJob(uint256)":"c021f210","confirmMilestone(uint256,uint256)":"b0e36b8f","createFixedJob((string,string,string,string[],string,uint256,uint256,uint256))":"194a08b1","createMilestoneJob(uint256[],(string,string,string,string[],string,uint256,uint256,uint256))":"b02f3013","daoTreasury()":"79022a9f","disputeContract()":"4010b84e","freelancerEarnings(uint256)":"a5188d1f","fundJob(uint256)":"8d22b863","getAllJobs()":"965a79fb","getAvailableWithdrawal(uint256)":"ba510a33","getFreelancerJobs(address)":"40f70be4","getJob(uint256)":"bf22c457","getJobsByClient(address)":"b618d5a7","getMilestone(uint256,uint256)":"8ed9895c","getMilestonesForJob(uint256)":"22a20806","isJobLate(uint256)":"8c47a94d","markDelivery(uint256,uint256)":"9aa85dba","nextJobId()":"b0c2aa5e","notifyDisputeCreated(uint256,uint256,uint8)":"2a8fe889","notifyDisputeResolved(uint256,uint256,uint8,address)":"dc8be2a2","owner()":"8da5cb5b","renounceOwnership()":"715018a6","requestJob(uint256)":"00440b31","requested(address,uint256)":"6754cc28","setDaoTreasury(address)":"a124df5d","setDisputeContract(address)":"44d23d6f","totalDaoFeesCollected()":"ded5ae27","transferOwnership(address)":"f2fde38b","withdraw(uint256)":"2e1a7d4d","withdrawDaoFees(uint256)":"3b3e4102"}}}}}