{"contracts/FreelanceDAODisputeV2.sol":{"FreelanceDAODisputeV2":{"abi":[{"inputs":[{"internalType":"uint256","name":"_quorum","type":"uint256"},{"internalType":"address","name":"_daoTreasury","type":"address"}],"stateMutability":"nonpayable","type":"constructor"},{"inputs":[{"internalType":"address","name":"owner","type":"address"}],"name":"OwnableInvalidOwner","type":"error"},{"inputs":[{"internalType":"address","name":"account","type":"address"}],"name":"OwnableUnauthorizedAccount","type":"error"},{"inputs":[],"name":"ReentrancyGuardReentrantCall","type":"error"},{"anonymous":false,"inputs":[{"indexed":true,"internalType":"address","name":"member","type":"address"}],"name":"DaoMemberAdded","type":"event"},{"anonymous":false,"inputs":[{"indexed":true,"internalType":"address","name":"member","type":"address"}],"name":"DaoMemberRemoved","type":"event"},{"anonymous":false,"inputs":[{"indexed":false,"internalType":"address","name":"oldTreasury","type":"address"},{"indexed":false,"internalType":"address","name":"newTreasury","type":"address"}],"name":"DaoTreasuryUpdated","type":"event"},{"anonymous":false,"inputs":[{"indexed":true,"internalType":"uint256","name":"disputeId","type":"uint256"},{"indexed":true,"internalType":"uint256","name":"jobId","type":"uint256"},{"indexed":true,"internalType":"address","name":"client","type":"address"},{"indexed":false,"internalType":"address","name":"freelancer","type":"address"},{"indexed":false,"internalType":"string","name":"title","type":"string"},{"indexed":false,"internalType":"uint256","name":"amount","type":"uint256"},{"indexed":false,"internalType":"string","name":"category","type":"string"},{"indexed":false,"internalType":"string","name":"description","type":"string"},{"indexed":false,"internalType":"enum IDisputeResolution.DisputeReason","name":"reason","type":"uint8"}],"name":"DisputeCreated","type":"event"},{"anonymous":false,"inputs":[{"indexed":true,"internalType":"uint256","name":"disputeId","type":"uint256"}],"name":"DisputeExecuted","type":"event"},{"anonymous":false,"inputs":[{"indexed":false,"internalType":"uint256","name":"oldFee","type":"uint256"},{"indexed":false,"internalType":"uint256","name":"newFee","type":"uint256"}],"name":"DisputeFeeUpdated","type":"event"},{"anonymous":false,"inputs":[{"indexed":true,"internalType":"uint256","name":"disputeId","type":"uint256"},{"indexed":true,"internalType":"address","name":"winner","type":"address"},{"indexed":false,"internalType":"enum IDisputeResolution.DisputeStatus","name":"status","type":"uint8"},{"indexed":false,"internalType":"enum IDisputeResolution.DisputeReason","name":"reason","type":"uint8"}],"name":"DisputeResolved","type":"event"},{"anonymous":false,"inputs":[{"indexed":false,"internalType":"address","name":"oldContract","type":"address"},{"indexed":false,"internalType":"address","name":"newContract","type":"address"}],"name":"EscrowContractUpdated","type":"event"},{"anonymous":false,"inputs":[{"indexed":true,"internalType":"address","name":"previousOwner","type":"address"},{"indexed":true,"internalType":"address","name":"newOwner","type":"address"}],"name":"OwnershipTransferred","type":"event"},{"anonymous":false,"inputs":[{"indexed":false,"internalType":"uint256","name":"oldQuorum","type":"uint256"},{"indexed":false,"internalType":"uint256","name":"newQuorum","type":"uint256"}],"name":"QuorumUpdated","type":"event"},{"anonymous":false,"inputs":[{"indexed":true,"internalType":"uint256","name":"disputeId","type":"uint256"},{"indexed":true,"internalType":"address","name":"voter","type":"address"},{"indexed":false,"internalType":"string","name":"side","type":"string"}],"name":"VoteCast","type":"event"},{"inputs":[{"internalType":"address","name":"member","type":"address"}],"name":"addDaoMember","outputs":[],"stateMutability":"nonpayable","type":"function"},{"inputs":[{"internalType":"uint256","name":"disputeId","type":"uint256"}],"name":"autoResolveDispute","outputs":[],"stateMutability":"nonpayable","type":"function"},{"inputs":[{"internalType":"uint256","name":"jobId","type":"uint256"},{"internalType":"address","name":"freelancer","type":"address"},{"internalType":"string","name":"title","type":"string"},{"internalType":"uint256","name":"amount","type":"uint256"},{"internalType":"string","name":"category","type":"string"},{"internalType":"string","name":"description","type":"string"},{"internalType":"enum IDisputeResolution.DisputeReason","name":"reason","type":"uint8"}],"name":"createDispute","outputs":[{"internalType":"uint256","name":"","type":"uint256"}],"stateMutability":"payable","type":"function"},{"inputs":[{"internalType":"address","name":"","type":"address"}],"name":"daoMembers","outputs":[{"internalType":"bool","name":"","type":"bool"}],"stateMutability":"view","type":"function"},{"inputs":[],"name":"daoTreasury","outputs":[{"internalType":"address","name":"","type":"address"}],"stateMutability":"view","type":"function"},{"inputs":[],"name":"disputeCreationFee","outputs":[{"internalType":"uint256","name":"","type":"uint256"}],"stateMutability":"view","type":"function"},{"inputs":[{"internalType":"uint256","name":"","type":"uint256"},{"internalType":"address","name":"","type":"address"}],"name":"disputeVotes","outputs":[{"internalType":"bool","name":"","type":"bool"}],"stateMutability":"view","type":"function"},{"inputs":[],"name":"escrowContract","outputs":[{"internalType":"address","name":"","type":"address"}],"stateMutability":"view","type":"function"},{"inputs":[],"name":"getAllDisputes","outputs":[{"components":[{"internalType":"uint256","name":"disputeId","type":"uint256"},{"internalType":"uint256","name":"jobId","type":"uint256"},{"internalType":"address","name":"client","type":"address"},{"internalType":"address","name":"freelancer","type":"address"},{"internalType":"string","name":"title","type":"string"},{"internalType":"uint256","name":"amount","type":"uint256"},{"internalType":"string","name":"category","type":"string"},{"internalType":"string","name":"description","type":"string"},{"internalType":"enum IDisputeResolution.DisputeReason","name":"reason","type":"uint8"},{"internalType":"uint256","name":"votesForClient","type":"uint256"},{"internalType":"uint256","name":"votesForFreelancer","type":"uint256"},{"internalType":"enum IDisputeResolution.DisputeStatus","name":"status","type":"uint8"},{"internalType":"address","name":"winner","type":"address"},{"internalType":"bool","name":"exists","type":"bool"},{"internalType":"uint256","name":"createdAt","type":"uint256"}],"internalType":"struct FreelanceDAODisputeV2.Dispute[]","name":"","type":"tuple[]"}],"stateMutability":"view","type":"function"},{"inputs":[{"internalType":"uint256","name":"disputeId","type":"uint256"}],"name":"getDispute","outputs":[{"components":[{"internalType":"uint256","name":"disputeId","type":"uint256"},{"internalType":"uint256","name":"jobId","type":"uint256"},{"internalType":"address","name":"client","type":"address"},{"internalType":"address","name":"freelancer","type":"address"},{"internalType":"string","name":"title","type":"string"},{"internalType":"uint256","name":"amount","type":"uint256"},{"internalType":"string","name":"category","type":"string"},{"internalType":"string","name":"description","type":"string"},{"internalType":"enum IDisputeResolution.DisputeReason","name":"reason","type":"uint8"},{"internalType":"uint256","name":"votesForClient","type":"uint256"},{"internalType":"uint256","name":"votesForFreelancer","type":"uint256"},{"internalType":"enum IDisputeResolution.DisputeStatus","name":"status","type":"uint8"},{"internalType":"address","name":"winner","type":"address"},{"internalType":"bool","name":"exists","type":"bool"},{"internalType":"uint256","name":"createdAt","type":"uint256"}],"internalType":"struct FreelanceDAODisputeV2.Dispute","name":"","type":"tuple"}],"stateMutability":"view","type":"function"},{"inputs":[{"internalType":"uint256","name":"disputeId","type":"uint256"}],"name":"getDisputeOutcome","outputs":[{"internalType":"address","name":"winner","type":"address"},{"internalType":"enum IDisputeResolution.DisputeReason","name":"reason","type":"uint8"},{"internalType":"enum IDisputeResolution.DisputeStatus","name":"status","type":"uint8"}],"stateMutability":"view","type":"function"},{"inputs":[{"internalType":"enum IDisputeResolution.DisputeReason","name":"reason","type":"uint8"}],"name":"getDisputesByReason","outputs":[{"components":[{"internalType":"uint256","name":"disputeId","type":"uint256"},{"internalType":"uint256","name":"jobId","type":"uint256"},{"internalType":"address","name":"client","type":"address"},{"internalType":"address","name":"freelancer","type":"address"},{"internalType":"string","name":"title","type":"string"},{"internalType":"uint256","name":"amount","type":"uint256"},{"internalType":"string","name":"category","type":"string"},{"internalType":"string","name":"description","type":"string"},{"internalType":"enum IDisputeResolution.DisputeReason","name":"reason","type":"uint8"},{"internalType":"uint256","name":"votesForClient","type":"uint256"},{"internalType":"uint256","name":"votesForFreelancer","type":"uint256"},{"internalType":"enum IDisputeResolution.DisputeStatus","name":"status","type":"uint8"},{"internalType":"address","name":"winner","type":"address"},{"internalType":"bool","name":"exists","type":"bool"},{"internalType":"uint256","name":"createdAt","type":"uint256"}],"internalType":"struct FreelanceDAODisputeV2.Dispute[]","name":"","type":"tuple[]"}],"stateMutability":"view","type":"function"},{"inputs":[],"name":"getOpenDisputes","outputs":[{"components":[{"internalType":"uint256","name":"disputeId","type":"uint256"},{"internalType":"uint256","name":"jobId","type":"uint256"},{"internalType":"address","name":"client","type":"address"},{"internalType":"address","name":"freelancer","type":"address"},{"internalType":"string","name":"title","type":"string"},{"internalType":"uint256","name":"amount","type":"uint256"},{"internalType":"string","name":"category","type":"string"},{"internalType":"string","name":"description","type":"string"},{"internalType":"enum IDisputeResolution.DisputeReason","name":"reason","type":"uint8"},{"internalType":"uint256","name":"votesForClient","type":"uint256"},{"internalType":"uint256","name":"votesForFreelancer","type":"uint256"},{"internalType":"enum IDisputeResolution.DisputeStatus","name":"status","type":"uint8"},{"internalType":"address","name":"winner","type":"address"},{"internalType":"bool","name":"exists","type":"bool"},{"internalType":"uint256","name":"createdAt","type":"uint256"}],"internalType":"struct FreelanceDAODisputeV2.Dispute[]","name":"","type":"tuple[]"}],"stateMutability":"view","type":"function"},{"inputs":[{"internalType":"address","name":"user","type":"address"}],"name":"getUserDisputes","outputs":[{"components":[{"internalType":"uint256","name":"disputeId","type":"uint256"},{"internalType":"uint256","name":"jobId","type":"uint256"},{"internalType":"address","name":"client","type":"address"},{"internalType":"address","name":"freelancer","type":"address"},{"internalType":"string","name":"title","type":"string"},{"internalType":"uint256","name":"amount","type":"uint256"},{"internalType":"string","name":"category","type":"string"},{"internalType":"string","name":"description","type":"string"},{"internalType":"enum IDisputeResolution.DisputeReason","name":"reason","type":"uint8"},{"internalType":"uint256","name":"votesForClient","type":"uint256"},{"internalType":"uint256","name":"votesForFreelancer","type":"uint256"},{"internalType":"enum IDisputeResolution.DisputeStatus","name":"status","type":"uint8"},{"internalType":"address","name":"winner","type":"address"},{"internalType":"bool","name":"exists","type":"bool"},{"internalType":"uint256","name":"createdAt","type":"uint256"}],"internalType":"struct FreelanceDAODisputeV2.Dispute[]","name":"","type":"tuple[]"}],"stateMutability":"view","type":"function"},{"inputs":[{"internalType":"uint256","name":"disputeId","type":"uint256"}],"name":"markDisputeExecuted","outputs":[],"stateMutability":"nonpayable","type":"function"},{"inputs":[],"name":"nextDisputeId","outputs":[{"internalType":"uint256","name":"","type":"uint256"}],"stateMutability":"view","type":"function"},{"inputs":[],"name":"owner","outputs":[{"internalType":"address","name":"","type":"address"}],"stateMutability":"view","type":"function"},{"inputs":[],"name":"quorum","outputs":[{"internalType":"uint256","name":"","type":"uint256"}],"stateMutability":"view","type":"function"},{"inputs":[{"internalType":"address","name":"member","type":"address"}],"name":"removeDaoMember","outputs":[],"stateMutability":"nonpayable","type":"function"},{"inputs":[],"name":"renounceOwnership","outputs":[],"stateMutability":"nonpayable","type":"function"},{"inputs":[{"internalType":"enum IDisputeResolution.DisputeReason","name":"reason","type":"uint8"}],"name":"requiresDAOVote","outputs":[{"internalType":"bool","name":"","type":"bool"}],"stateMutability":"pure","type":"function"},{"inputs":[{"internalType":"address","name":"_newTreasury","type":"address"}],"name":"setDaoTreasury","outputs":[],"stateMutability":"nonpayable","type":"function"},{"inputs":[{"internalType":"uint256","name":"_newFee","type":"uint256"}],"name":"setDisputeCreationFee","outputs":[],"stateMutability":"nonpayable","type":"function"},{"inputs":[{"internalType":"address","name":"_escrowContract","type":"address"}],"name":"setEscrowContract","outputs":[],"stateMutability":"nonpayable","type":"function"},{"inputs":[{"internalType":"uint256","name":"_newQuorum","type":"uint256"}],"name":"setQuorum","outputs":[],"stateMutability":"nonpayable","type":"function"},{"inputs":[{"internalType":"address","name":"newOwner","type":"address"}],"name":"transferOwnership","outputs":[],"stateMutability":"nonpayable","type":"function"},{"inputs":[{"internalType":"uint256","name":"disputeId","type":"uint256"},{"internalType":"bool","name":"voteForClient","type":"bool"}],"name":"voteOnDispute","outputs":[],"stateMutability":"nonpayable","type":"function"},{"stateMutability":"payable","type":"receive"}],"evm":{"bytecode":{"linkReferences":{},"object":"6080346200016c576200240290601f38839003908101601f19168201906001600160401b038211838310176200017157808391604095869485528339810103126200016c5780516020909101516001600160a01b038082169290918390036200016c57331562000154576000549160018060a01b03199233848216176000558551913391167f8be0079c531659141344cd1fd0a4f28419497f9722a3daafe3b4186f6b6457e0600080a3600180556001600255671bc16d674ec8000060045581156200011d57508215620000e65760035560065416176006555161227a9081620001888239f35b835162461bcd60e51b815260206004820152601060248201526f496e76616c696420747265617375727960801b6044820152606490fd5b62461bcd60e51b8152602060048201526012602482015271051756f72756d206d757374206265203e20360741b6044820152606490fd5b8351631e4fbdf760e01b815260006004820152602490fd5b600080fd5b634e487b7160e01b600052604160045260246000fdfe608080604052600436101561001d575b50361561001b57600080fd5b005b600090813560e01c9081630db3993414611b33575080631703a01814611b155780631dd9997f14611a6f578063203d82cb14611a2657806324bfe9c9146119f257806339f0a71114611980578063578573951461188d5780635feaa01c146117da578063715018a61461178057806379022a9f14611757578063802f022c14611599578063864defa2146114a85780638da5cb5b14611481578063959068ea146114425780639d28c026146112f25780639ff2369f14610b97578063a124df5d14610ad7578063a4f5df1214610622578063b699e4ed146104cd578063bd0d429a146104af578063bfb0a55b14610411578063c1ba4e591461037c578063dc726df714610327578063e3a96cbd146102c8578063e42a96e71461029f578063f2fde38b1461020f5763f42375b50361000f573461020c57602036600319011261020c57610168611d1a565b610170611d5e565b6001600160a01b038181169182156101d657600554604080516001600160a01b0394831685168152929093166020830152917fb4314795ba509f4f6e4f54698ebcf794fed2c1ba8199f5d0024b3f792eb606d191a16001600160a01b0319161760055580f35b60405162461bcd60e51b815260206004820152600e60248201526d496e76616c696420657363726f7760901b6044820152606490fd5b80fd5b503461020c57602036600319011261020c57610229611d1a565b610231611d5e565b6001600160a01b0390811690811561028657600054826bffffffffffffffffffffffff60a01b821617600055167f8be0079c531659141344cd1fd0a4f28419497f9722a3daafe3b4186f6b6457e0600080a380f35b604051631e4fbdf760e01b815260048101849052602490fd5b503461020c578060031936011261020c576005546040516001600160a01b039091168152602090f35b503461020c57602036600319011261020c5761030f6040610323926102eb611fc5565b50600435815260086020522061030a60ff600b83015460a81c16611edb565b6120dd565b604051918291602083526020830190611bbc565b0390f35b503461020c57602036600319011261020c57600435610344611d5e565b7fe8fc23e21608aa8e92faee11af5686b6aa7531796f68f2f943bb0d893c4312c960406004548151908152836020820152a160045580f35b503461020c57602036600319011261020c57600435610399611d5e565b80156103d7577f6784e9bcb845caaa98267d7b0918f97d3d17f7cb35a05b52010f7eb587a0acb060406003548151908152836020820152a160035580f35b60405162461bcd60e51b8152602060048201526012602482015271051756f72756d206d757374206265203e20360741b6044820152606490fd5b503461020c576020806003193601126104ab576001600160a01b03610434611d1a565b168252600a8152604082209182549161044c836121e0565b93825b84811061046457604051806103238882611c9d565b806104726104a69284611de9565b90549060031b1c85526008845261048b604086206120dd565b6104958289612230565b526104a08188612230565b50611d8a565b61044f565b5080fd5b503461020c578060031936011261020c576020600454604051908152f35b503461020c576020806003193601126104ab5760043591600483101561020c57600254918160015b8481106105b25750610506906121e0565b93829160015b85811061052157604051806103238982611c9d565b806105549186526008808452604087208560ff8381600b85015460a81c169384610590575b505050506105595750611d8a565b61050c565b8187528352610589604087209561057861057282611d8a565b976120dd565b610582828c612230565b5289612230565b50386104a0565b01549192501661059f82611b8f565b6105a881611b8f565b1485388381610546565b808452600880845286604086209160ff9081600b85015460a81c169384610600575b505050506105eb575b6105e690611d8a565b6104f5565b906105f86105e691611d8a565b9190506105dd565b01549192501661060f82611b8f565b61061881611b8f565b14863880806105d4565b503461020c57604036600319011261020c5760249081356004358115158203610ad35761064d611f1b565b3383526020906007825260ff918260408620541615610a9057818552600881526040852083600b820154610685828260a81c16611edb565b166005811015610a7d57610a485782865260098252604086203360005282528360406000205416610a14576106bf84600883015416611fad565b156109bd57828652600982526040862033600052825260406000209060019560ff1992878482541617905560001461096257600981016106ff8154611d8a565b90556040518381526006848201526510d31251539560d21b6040820152847ff707341d6361ac6d7fe6b6db1fbb91b1d8634754ce51f2244ccbfab475d327f460603393a35b600a6009820154910154810180911161094d576003541115610768575b8585805580f35b828652600882526040862090600b820180549186831690600582101561093a5787936107958a9315611f3e565b6009860154600a870154808211156108eb575050835491909116919091178083556002850154610100600160a81b031990911660089190911b610100600160a81b0316178255505b549760018060a01b0398857f06bf88bd8b6aff59b88535f2f8f640d7fed506a8d91627944e53073b12afdc5760408c8460081c16998a941695600888015416978882519161082b838a611baf565b61083482611b8f565b820152a360058210156108d957509486978180989714610859575b5050949394610761565b600554169101549261086a83611b8f565b61087383611b8f565b813b156108d55785809461089d60405197889687958694636e45f15160e11b865260048601611f7d565b03925af180156108ca576108b6575b808080858161084f565b6108bf90611e67565b6104ab5781386108ac565b6040513d84823e3d90fd5b8580fd5b634e487b7160e01b8852602160045287fd5b11156109235750825416178082556003840154610100600160a81b031990911660089190911b610100600160a81b03161781556107dd565b6001600160a81b0319166002178355506107dd9050565b634e487b7160e01b8a5260216004528a8afd5b87634e487b7160e01b60005260116004526000fd5b600a81016109708154611d8a565b9055604051838152600a8482015269232922a2a620a721a2a960b11b6040820152847ff707341d6361ac6d7fe6b6db1fbb91b1d8634754ce51f2244ccbfab475d327f460603393a3610744565b60405162461bcd60e51b815260048101839052602a818901527f546869732064697370757465207479706520646f65736e277420726571756972604482015269652044414f20766f746560b01b6064820152608490fd5b60405162461bcd60e51b815260048101839052600d818901526c105b1c9958591e481d9bdd1959609a1b6044820152606490fd5b60405162461bcd60e51b815260048101839052600e818901526d111a5cdc1d5d194818db1bdcd95960921b6044820152606490fd5b634e487b7160e01b875260216004528787fd5b6064906019876040519262461bcd60e51b845260048401528201527f4f6e6c792044414f206d656d626572732063616e20766f7465000000000000006044820152fd5b8280fd5b503461020c57602036600319011261020c57610af1611d1a565b610af9611d5e565b6001600160a01b03818116918215610b5f57600654604080516001600160a01b0394831685168152929093166020830152917f405b911135779fbe6ca1eb08e756497b632d5fbff59644b7d60ea3ea95caf53991a16001600160a01b0319161760065580f35b60405162461bcd60e51b815260206004820152601060248201526f496e76616c696420747265617375727960801b6044820152606490fd5b5060e036600319011261020c57610bac611cff565b9060443567ffffffffffffffff81116104ab57610bcd903690600401611d30565b929060843567ffffffffffffffff81116112ee57610bef903690600401611d30565b60a43567ffffffffffffffff81116108d557610c0f903690600401611d30565b939096600460c43510156112ea5760045434106112a5576001600160a01b0386161561126b576005546001600160a01b0316156112355760025496610c5388611d8a565b6002908155888252600860205260408220898155600435600182015590810180546001600160a01b031990811633179091556003820180549091166001600160a01b038a1617905567ffffffffffffffff83116110ad57610cb76004820154611daf565b601f81116111f0575b508282601f821160011461118657839161117b575b508360011b906000198560031b1c19161760048201555b606435600582015567ffffffffffffffff85116110ad57610d106006820154611daf565b601f8111611136575b508482601f82116001146110cc5783916110c1575b508560011b906000198760031b1c19161760068201555b67ffffffffffffffff87116110ad57610d616007820154611daf565b601f8111611068575b508682601f8211600114610ffc578391610ff1575b508760011b906000198960031b1c19161760078201555b60088101610da560c435611b8f565b805460ff191660ff60c43516179055600b81018054600160a81b60ff60ff60a81b011990911617905542600c90910155338152600a60205260408120610dec908990611e17565b336001600160a01b03881603610fcc575b34610f2a575b6005546001600160a01b0316610e1a60c435611b8f565b610e2860ff60c43516611b8f565b803b156104ab5781809160648b6040519485938492632a8fe88960e01b845260043560048501526024840152610e6260ff60c43516611b8f565b60ff60c4351660448401525af180156108ca57610f16575b505092610ecf9492610eab610ec19360209a966040519960018060a01b03168a5260c08c8b015260c08a0191611eba565b9160643560408901528783036060890152611eba565b918483036080860152611eba565b610eda60c435611b8f565b60c43560a0830152827f954ddec16589082fc2358352dacd04c7f0b9e1c9201289852a96f471a12bdb19339380600435940390a4604051908152f35b610f208291611e67565b61020c5780610e7a565b808080803460018060a01b03600654165af13d15610fc7573d67ffffffffffffffff8111610fb35760405190610f6a601f8201601f191660200183611e98565b81528260203d92013e5b610e035760405162461bcd60e51b8152602060048201526013602482015272119959481d1c985b9cd9995c8819985a5b1959606a1b6044820152606490fd5b634e487b7160e01b83526041600452602483fd5b610f74565b6001600160a01b0387168152600a60205260408120610fec908990611e17565b610dfd565b90508a013538610d7f565b600783018452602084209150835b8c601f198b16821061105057505088601f19811610611036575b5050600187811b016007820155610d96565b8b013560001960038a901b60f8161c191690553880611024565b6001839460209394849301358155019301910161100a565b60078201835260208320601f890160051c810160208a106110a6575b601f830160051c8201811061109a575050610d6a565b60008155600101611084565b5080611084565b634e487b7160e01b82526041600452602482fd5b905086013538610d2e565b600683018452602084209150835b601f198816811061111e575086601f19811610611104575b5050600185811b016006820155610d45565b870135600019600388901b60f8161c1916905538806110f2565b9091602060018192858c0135815501930191016110da565b60068201835260208320601f870160051c810160208810611174575b601f830160051c82018110611168575050610d19565b60008155600101611152565b5080611152565b905084013538610cd5565b600483018452602084209150835b601f19861681106111d8575084601f198116106111be575b5050600183811b016004820155610cec565b850135600019600386901b60f8161c1916905538806111ac565b9091602060018192858a013581550193019101611194565b60048201835260208320601f850160051c81016020861061122e575b601f830160051c82018110611222575050610cc0565b6000815560010161120c565b508061120c565b60405162461bcd60e51b815260206004820152600e60248201526d115cd8dc9bddc81b9bdd081cd95d60921b6044820152606490fd5b60405162461bcd60e51b815260206004820152601260248201527124b73b30b634b210333932b2b630b731b2b960711b6044820152606490fd5b60405162461bcd60e51b815260206004820152601860248201527f496e73756666696369656e7420646973707574652066656500000000000000006044820152606490fd5b8680fd5b8380fd5b503461020c578060031936011261020c576002548160015b8281106113d1575061131b906121e0565b918060015b83811061133557604051806103238782611c9d565b80835260086020818152600b60408620015460ff808260a81c1691826113a7575b50509061136b939291611370575b5050611d8a565b611320565b8286525261139f604085209361138e61138882611d8a565b956120dd565b611398828a612230565b5287612230565b503880611364565b16905060058110156113bd571561136b38611356565b634e487b7160e01b86526021600452602486fd5b8084526008602052600b60408520015460ff808260a81c16918261141a575b5050611405575b61140090611d8a565b61130a565b9061141261140091611d8a565b9190506113f7565b169050600581101561142e571538806113f0565b634e487b7160e01b85526021600452602485fd5b503461020c57602036600319011261020c5760209060ff906040906001600160a01b0361146d611d1a565b168152600784522054166040519015158152f35b503461020c578060031936011261020c57546040516001600160a01b039091168152602090f35b503461020c57602036600319011261020c576114c2611d1a565b6114ca611d5e565b6001600160a01b0316801561156357808252600760205260ff60408320541661152b57808252600760205260408220805460ff191660011790557f35b658d712e45f976c17007529cd1cb687614e83ce49a1ee563570ac818452e68280a280f35b60405162461bcd60e51b815260206004820152601060248201526f20b63932b0b23c90309036b2b6b132b960811b6044820152606490fd5b60405162461bcd60e51b815260206004820152600e60248201526d24b73b30b634b21036b2b6b132b960911b6044820152606490fd5b503461020c57602036600319011261020c576004356115b6611f1b565b808252600860205260408220600b8101918254916115d960ff8460a81c16611edb565b60ff831660058110156113bd576115f09015611f3e565b600881019160ff83541661160381611fad565b61171e5760ff95879582611618600194611b8f565b156116e3575b505493818060a01b0390837f06bf88bd8b6aff59b88535f2f8f640d7fed506a8d91627944e53073b12afdc5760408a611667868b60081c169c8d9654169a835192839116611baf565b6116708a611b8f565b896020820152a36005541692015461168784611b8f565b61169084611b8f565b823b156116df5784906116b960405197889687958694636e45f15160e11b865260048601611f7d565b03925af180156108ca576116d0575b506001805580f35b6116d990611e67565b386116c8565b8480fd5b87191682178082556003850154610100600160a81b0360a085901b85900390911660081b16610100600160a81b03199091161781553861161e565b60405162461bcd60e51b815260206004820152601160248201527052657175697265732044414f20766f746560781b6044820152606490fd5b503461020c578060031936011261020c576006546040516001600160a01b039091168152602090f35b503461020c578060031936011261020c57611799611d5e565b80546001600160a01b03198116825581906001600160a01b03167f8be0079c531659141344cd1fd0a4f28419497f9722a3daafe3b4186f6b6457e08280a380f35b503461020c57602036600319011261020c576117f4611d1a565b6117fc611d5e565b6001600160a01b03168082526007602052604082205460ff161561185557808252600760205260408220805460ff191690557f1806bec4ba806283d7bedad066d84ceeaac768b71c22e1743d9508650135a3f38280a280f35b60405162461bcd60e51b815260206004820152601060248201526f2737ba1030902220a79036b2b6b132b960811b6044820152606490fd5b503461020c57602036600319011261020c57600554600435906001600160a01b0316330361194d578082526008602052600b604083200180546118d560ff8260a81c16611edb565b60ff8116600581101561142e576001036119195760ff191660041790557fc69f94b4c4525853939f5f9788c75d9a798c6e4b56150e398191cf0ec9cc76f08280a280f35b60405162461bcd60e51b815260206004820152600c60248201526b139bdd081c995cdbdb1d995960a21b6044820152606490fd5b60405162461bcd60e51b815260206004820152600b60248201526a4f6e6c7920657363726f7760a81b6044820152606490fd5b503461020c57602036600319011261020c57604060609160043581526008602052206119f060ff6008600b840154936119bd838660a81c16611edb565b0154604051600885901c6001600160a01b031681529391166119de81611b8f565b602084015260ff604084019116611baf565bf35b503461020c57602036600319011261020c5760043590600482101561020c576020611a1c83611fad565b6040519015158152f35b503461020c57604036600319011261020c5760ff6040602092611a47611cff565b6004358252600985528282206001600160a01b03909116825284522054604051911615158152f35b503461020c578060031936011261020c576002546000198101908111611b0157611a98816121e0565b90825b818110611ab057604051806103238582611c9d565b60018101808211611aed5790611ae89185526008602052611ad3604086206120dd565b611add8286612230565b526104a08185612230565b611a9b565b634e487b7160e01b85526011600452602485fd5b634e487b7160e01b82526011600452602482fd5b503461020c578060031936011261020c576020600354604051908152f35b9050346104ab57816003193601126104ab576020906002548152f35b919082519283825260005b848110611b7b575050826000602080949584010152601f8019910116010190565b602081830181015184830182015201611b5a565b60041115611b9957565b634e487b7160e01b600052602160045260246000fd5b906005821015611b995752565b90815181526020820151602082015260018060a01b0391826040820151166040830152826060820151166060830152611c38611c26611c0a60808401516101e0806080880152860190611b4f565b60a084015160a086015260c084015185820360c0870152611b4f565b60e083015184820360e0860152611b4f565b926101008083015190611c4a82611b8f565b84015261012080830151908401526101408083015190840152611c766101608084015190850190611baf565b610180908183015116908301526101a0808201511515908301526101c08091015191015290565b602080820190808352835180925260408301928160408460051b8301019501936000915b848310611cd15750505050505090565b9091929394958480611cef600193603f198682030187528a51611bbc565b9801930193019194939290611cc1565b602435906001600160a01b0382168203611d1557565b600080fd5b600435906001600160a01b0382168203611d1557565b9181601f84011215611d155782359167ffffffffffffffff8311611d155760208381860195010111611d1557565b6000546001600160a01b03163303611d7257565b60405163118cdaa760e01b8152336004820152602490fd5b6000198114611d995760010190565b634e487b7160e01b600052601160045260246000fd5b90600182811c92168015611ddf575b6020831014611dc957565b634e487b7160e01b600052602260045260246000fd5b91607f1691611dbe565b8054821015611e015760005260206000200190600090565b634e487b7160e01b600052603260045260246000fd5b805468010000000000000000811015611e5157611e3991600182018155611de9565b819291549060031b91821b91600019901b1916179055565b634e487b7160e01b600052604160045260246000fd5b67ffffffffffffffff8111611e5157604052565b6101e0810190811067ffffffffffffffff821117611e5157604052565b90601f8019910116810190811067ffffffffffffffff821117611e5157604052565b908060209392818452848401376000828201840152601f01601f1916010190565b15611ee257565b60405162461bcd60e51b8152602060048201526011602482015270111a5cdc1d5d19481b9bdd08199bdd5b99607a1b6044820152606490fd5b600260015414611f2c576002600155565b604051633ee5aeb560e01b8152600490fd5b15611f4557565b60405162461bcd60e51b815260206004820152601060248201526f105b1c9958591e481c995cdbdb1d995960821b6044820152606490fd5b9260609295949195608085019685526020850152611f9a81611b8f565b60408401526001600160a01b0316910152565b611fb681611b8f565b15611fc057600190565b600090565b60405190611fd282611e7b565b816101c0600091828152826020820152826040820152826060820152606060808201528260a0820152606060c0820152606060e08201528261010082015282610120820152826101408201528261016082015282610180820152826101a08201520152565b906040519182600082549261204b84611daf565b9081845260019485811690816000146120ba5750600114612077575b505061207592500383611e98565b565b9093915060005260209081600020936000915b8183106120a257505061207593508201013880612067565b8554888401850152948501948794509183019161208a565b91505061207594506020925060ff191682840152151560051b8201013880612067565b906040516120ea81611e7b565b825481526001830154602082015260028301546001600160a01b0390811660408301526003840154811660608301529092839161212960048301612037565b6080840152600582015460a084015261214460068301612037565b60c084015261215560078301612037565b60e084015260ff60088301541661216b81611b8f565b6101008401526009820154610120840152600a820154610140840152600b8201549160ff83166005811015611b99576101c093600c9360ff926101608801528160081c1661018087015260a81c1615156101a08501520154910152565b67ffffffffffffffff8111611e515760051b60200190565b906121ea826121c8565b6121f76040519182611e98565b8281528092612208601f19916121c8565b019060005b82811061221957505050565b602090612224611fc5565b8282850101520161220d565b8051821015611e015760209160051b01019056fea2646970667358221220b58e55c64d7fb4c23f02bf0f70f1d550d0a0678c65507312fbbd72bcdf0eea0864736f6c63430008140033","opcodes":"PUSH1 0x80 CALLVALUE PUSH3 0x16C JUMPI PUSH3 0x2402 SWAP1 PUSH1 0x1F CODESIZE DUP4 SWAP1 SUB SWAP1 DUP2 ADD PUSH1 0x1F NOT AND DUP3 ADD SWAP1 PUSH1 0x1 PUSH1 0x1 PUSH1 0x40 SHL SUB DUP3 GT DUP4 DUP4 LT OR PUSH3 0x171 JUMPI DUP1 DUP4 SWAP2 PUSH1 0x40 SWAP6 DUP7 SWAP5 DUP6 MSTORE DUP4 CODECOPY DUP2 ADD SUB SLT PUSH3 0x16C JUMPI DUP1 MLOAD PUSH1 0x20 SWAP1 SWAP2 ADD MLOAD PUSH1 0x1 PUSH1 0x1 PUSH1 0xA0 SHL SUB DUP1 DUP3 AND SWAP3 SWAP1 SWAP2 DUP4 SWAP1 SUB PUSH3 0x16C JUMPI CALLER ISZERO PUSH3 0x154 JUMPI PUSH1 0x0 SLOAD SWAP2 PUSH1 0x1 DUP1 PUSH1 0xA0 SHL SUB NOT SWAP3 CALLER DUP5 DUP3 AND OR PUSH1 0x0 SSTORE DUP6 MLOAD SWAP2 CALLER SWAP2 AND PUSH32 0x8BE0079C531659141344CD1FD0A4F28419497F9722A3DAAFE3B4186F6B6457E0 PUSH1 0x0 DUP1 LOG3 PUSH1 0x1 DUP1 SSTORE PUSH1 0x1 PUSH1 0x2 SSTORE PUSH8 0x1BC16D674EC80000 PUSH1 0x4 SSTORE DUP2 ISZERO PUSH3 0x11D JUMPI POP DUP3 ISZERO PUSH3 0xE6 JUMPI PUSH1 0x3 SSTORE PUSH1 0x6 SLOAD AND OR PUSH1 0x6 SSTORE MLOAD PUSH2 0x227A SWAP1 DUP2 PUSH3 0x188 DUP3 CODECOPY RETURN JUMPDEST DUP4 MLOAD PUSH3 0x461BCD PUSH1 0xE5 SHL DUP2 MSTORE PUSH1 0x20 PUSH1 0x4 DUP3 ADD MSTORE PUSH1 0x10 PUSH1 0x24 DUP3 ADD MSTORE PUSH16 0x496E76616C6964207472656173757279 PUSH1 0x80 SHL PUSH1 0x44 DUP3 ADD MSTORE PUSH1 0x64 SWAP1 REVERT JUMPDEST PUSH3 0x461BCD PUSH1 0xE5 SHL DUP2 MSTORE PUSH1 0x20 PUSH1 0x4 DUP3 ADD MSTORE PUSH1 0x12 PUSH1 0x24 DUP3 ADD MSTORE PUSH18 0x51756F72756D206D757374206265203E203 PUSH1 0x74 SHL PUSH1 0x44 DUP3 ADD MSTORE PUSH1 0x64 SWAP1 REVERT JUMPDEST DUP4 MLOAD PUSH4 0x1E4FBDF7 PUSH1 0xE0 SHL DUP2 MSTORE PUSH1 0x0 PUSH1 0x4 DUP3 ADD MSTORE PUSH1 0x24 SWAP1 REVERT JUMPDEST PUSH1 0x0 DUP1 REVERT JUMPDEST PUSH4 0x4E487B71 PUSH1 0xE0 SHL PUSH1 0x0 MSTORE PUSH1 0x41 PUSH1 0x4 MSTORE PUSH1 0x24 PUSH1 0x0 REVERT INVALID PUSH1 0x80 DUP1 PUSH1 0x40 MSTORE PUSH1 0x4 CALLDATASIZE LT ISZERO PUSH2 0x1D JUMPI JUMPDEST POP CALLDATASIZE ISZERO PUSH2 0x1B JUMPI PUSH1 0x0 DUP1 REVERT JUMPDEST STOP JUMPDEST PUSH1 0x0 SWAP1 DUP2 CALLDATALOAD PUSH1 0xE0 SHR SWAP1 DUP2 PUSH4 0xDB39934 EQ PUSH2 0x1B33 JUMPI POP DUP1 PUSH4 0x1703A018 EQ PUSH2 0x1B15 JUMPI DUP1 PUSH4 0x1DD9997F EQ PUSH2 0x1A6F JUMPI DUP1 PUSH4 0x203D82CB EQ PUSH2 0x1A26 JUMPI DUP1 PUSH4 0x24BFE9C9 EQ PUSH2 0x19F2 JUMPI DUP1 PUSH4 0x39F0A711 EQ PUSH2 0x1980 JUMPI DUP1 PUSH4 0x57857395 EQ PUSH2 0x188D JUMPI DUP1 PUSH4 0x5FEAA01C EQ PUSH2 0x17DA JUMPI DUP1 PUSH4 0x715018A6 EQ PUSH2 0x1780 JUMPI DUP1 PUSH4 0x79022A9F EQ PUSH2 0x1757 JUMPI DUP1 PUSH4 0x802F022C EQ PUSH2 0x1599 JUMPI DUP1 PUSH4 0x864DEFA2 EQ PUSH2 0x14A8 JUMPI DUP1 PUSH4 0x8DA5CB5B EQ PUSH2 0x1481 JUMPI DUP1 PUSH4 0x959068EA EQ PUSH2 0x1442 JUMPI DUP1 PUSH4 0x9D28C026 EQ PUSH2 0x12F2 JUMPI DUP1 PUSH4 0x9FF2369F EQ PUSH2 0xB97 JUMPI DUP1 PUSH4 0xA124DF5D EQ PUSH2 0xAD7 JUMPI DUP1 PUSH4 0xA4F5DF12 EQ PUSH2 0x622 JUMPI DUP1 PUSH4 0xB699E4ED EQ PUSH2 0x4CD JUMPI DUP1 PUSH4 0xBD0D429A EQ PUSH2 0x4AF JUMPI DUP1 PUSH4 0xBFB0A55B EQ PUSH2 0x411 JUMPI DUP1 PUSH4 0xC1BA4E59 EQ PUSH2 0x37C JUMPI DUP1 PUSH4 0xDC726DF7 EQ PUSH2 0x327 JUMPI DUP1 PUSH4 0xE3A96CBD EQ PUSH2 0x2C8 JUMPI DUP1 PUSH4 0xE42A96E7 EQ PUSH2 0x29F JUMPI DUP1 PUSH4 0xF2FDE38B EQ PUSH2 0x20F JUMPI PUSH4 0xF42375B5 SUB PUSH2 0xF JUMPI CALLVALUE PUSH2 0x20C JUMPI PUSH1 0x20 CALLDATASIZE PUSH1 0x3 NOT ADD SLT PUSH2 0x20C JUMPI PUSH2 0x168 PUSH2 0x1D1A JUMP JUMPDEST PUSH2 0x170 PUSH2 0x1D5E JUMP JUMPDEST PUSH1 0x1 PUSH1 0x1 PUSH1 0xA0 SHL SUB DUP2 DUP2 AND SWAP2 DUP3 ISZERO PUSH2 0x1D6 JUMPI PUSH1 0x5 SLOAD PUSH1 0x40 DUP1 MLOAD PUSH1 0x1 PUSH1 0x1 PUSH1 0xA0 SHL SUB SWAP5 DUP4 AND DUP6 AND DUP2 MSTORE SWAP3 SWAP1 SWAP4 AND PUSH1 0x20 DUP4 ADD MSTORE SWAP2 PUSH32 0xB4314795BA509F4F6E4F54698EBCF794FED2C1BA8199F5D0024B3F792EB606D1 SWAP2 LOG1 PUSH1 0x1 PUSH1 0x1 PUSH1 0xA0 SHL SUB NOT AND OR PUSH1 0x5 SSTORE DUP1 RETURN JUMPDEST PUSH1 0x40 MLOAD PUSH3 0x461BCD PUSH1 0xE5 SHL DUP2 MSTORE PUSH1 0x20 PUSH1 0x4 DUP3 ADD MSTORE PUSH1 0xE PUSH1 0x24 DUP3 ADD MSTORE PUSH14 0x496E76616C696420657363726F77 PUSH1 0x90 SHL PUSH1 0x44 DUP3 ADD MSTORE PUSH1 0x64 SWAP1 REVERT JUMPDEST DUP1 REVERT JUMPDEST POP CALLVALUE PUSH2 0x20C JUMPI PUSH1 0x20 CALLDATASIZE PUSH1 0x3 NOT ADD SLT PUSH2 0x20C JUMPI PUSH2 0x229 PUSH2 0x1D1A JUMP JUMPDEST PUSH2 0x231 PUSH2 0x1D5E JUMP JUMPDEST PUSH1 0x1 PUSH1 0x1 PUSH1 0xA0 SHL SUB SWAP1 DUP2 AND SWAP1 DUP2 ISZERO PUSH2 0x286 JUMPI PUSH1 0x0 SLOAD DUP3 PUSH12 0xFFFFFFFFFFFFFFFFFFFFFFFF PUSH1 0xA0 SHL DUP3 AND OR PUSH1 0x0 SSTORE AND PUSH32 0x8BE0079C531659141344CD1FD0A4F28419497F9722A3DAAFE3B4186F6B6457E0 PUSH1 0x0 DUP1 LOG3 DUP1 RETURN JUMPDEST PUSH1 0x40 MLOAD PUSH4 0x1E4FBDF7 PUSH1 0xE0 SHL DUP2 MSTORE PUSH1 0x4 DUP2 ADD DUP5 SWAP1 MSTORE PUSH1 0x24 SWAP1 REVERT JUMPDEST POP CALLVALUE PUSH2 0x20C JUMPI DUP1 PUSH1 0x3 NOT CALLDATASIZE ADD SLT PUSH2 0x20C JUMPI PUSH1 0x5 SLOAD PUSH1 0x40 MLOAD PUSH1 0x1 PUSH1 0x1 PUSH1 0xA0 SHL SUB SWAP1 SWAP2 AND DUP2 MSTORE PUSH1 0x20 SWAP1 RETURN JUMPDEST POP CALLVALUE PUSH2 0x20C JUMPI PUSH1 0x20 CALLDATASIZE PUSH1 0x3 NOT ADD SLT PUSH2 0x20C JUMPI PUSH2 0x30F PUSH1 0x40 PUSH2 0x323 SWAP3 PUSH2 0x2EB PUSH2 0x1FC5 JUMP JUMPDEST POP PUSH1 0x4 CALLDATALOAD DUP2 MSTORE PUSH1 0x8 PUSH1 0x20 MSTORE KECCAK256 PUSH2 0x30A PUSH1 0xFF PUSH1 0xB DUP4 ADD SLOAD PUSH1 0xA8 SHR AND PUSH2 0x1EDB JUMP JUMPDEST PUSH2 0x20DD JUMP JUMPDEST PUSH1 0x40 MLOAD SWAP2 DUP3 SWAP2 PUSH1 0x20 DUP4 MSTORE PUSH1 0x20 DUP4 ADD SWAP1 PUSH2 0x1BBC JUMP JUMPDEST SUB SWAP1 RETURN JUMPDEST POP CALLVALUE PUSH2 0x20C JUMPI PUSH1 0x20 CALLDATASIZE PUSH1 0x3 NOT ADD SLT PUSH2 0x20C JUMPI PUSH1 0x4 CALLDATALOAD PUSH2 0x344 PUSH2 0x1D5E JUMP JUMPDEST PUSH32 0xE8FC23E21608AA8E92FAEE11AF5686B6AA7531796F68F2F943BB0D893C4312C9 PUSH1 0x40 PUSH1 0x4 SLOAD DUP2 MLOAD SWAP1 DUP2 MSTORE DUP4 PUSH1 0x20 DUP3 ADD MSTORE LOG1 PUSH1 0x4 SSTORE DUP1 RETURN JUMPDEST POP CALLVALUE PUSH2 0x20C JUMPI PUSH1 0x20 CALLDATASIZE PUSH1 0x3 NOT ADD SLT PUSH2 0x20C JUMPI PUSH1 0x4 CALLDATALOAD PUSH2 0x399 PUSH2 0x1D5E JUMP JUMPDEST DUP1 ISZERO PUSH2 0x3D7 JUMPI PUSH32 0x6784E9BCB845CAAA98267D7B0918F97D3D17F7CB35A05B52010F7EB587A0ACB0 PUSH1 0x40 PUSH1 0x3 SLOAD DUP2 MLOAD SWAP1 DUP2 MSTORE DUP4 PUSH1 0x20 DUP3 ADD MSTORE LOG1 PUSH1 0x3 SSTORE DUP1 RETURN JUMPDEST PUSH1 0x40 MLOAD PUSH3 0x461BCD PUSH1 0xE5 SHL DUP2 MSTORE PUSH1 0x20 PUSH1 0x4 DUP3 ADD MSTORE PUSH1 0x12 PUSH1 0x24 DUP3 ADD MSTORE PUSH18 0x51756F72756D206D757374206265203E203 PUSH1 0x74 SHL PUSH1 0x44 DUP3 ADD MSTORE PUSH1 0x64 SWAP1 REVERT JUMPDEST POP CALLVALUE PUSH2 0x20C JUMPI PUSH1 0x20 DUP1 PUSH1 0x3 NOT CALLDATASIZE ADD SLT PUSH2 0x4AB JUMPI PUSH1 0x1 PUSH1 0x1 PUSH1 0xA0 SHL SUB PUSH2 0x434 PUSH2 0x1D1A JUMP JUMPDEST AND DUP3 MSTORE PUSH1 0xA DUP2 MSTORE PUSH1 0x40 DUP3 KECCAK256 SWAP2 DUP3 SLOAD SWAP2 PUSH2 0x44C DUP4 PUSH2 0x21E0 JUMP JUMPDEST SWAP4 DUP3 JUMPDEST DUP5 DUP2 LT PUSH2 0x464 JUMPI PUSH1 0x40 MLOAD DUP1 PUSH2 0x323 DUP9 DUP3 PUSH2 0x1C9D JUMP JUMPDEST DUP1 PUSH2 0x472 PUSH2 0x4A6 SWAP3 DUP5 PUSH2 0x1DE9 JUMP JUMPDEST SWAP1 SLOAD SWAP1 PUSH1 0x3 SHL SHR DUP6 MSTORE PUSH1 0x8 DUP5 MSTORE PUSH2 0x48B PUSH1 0x40 DUP7 KECCAK256 PUSH2 0x20DD JUMP JUMPDEST PUSH2 0x495 DUP3 DUP10 PUSH2 0x2230 JUMP JUMPDEST MSTORE PUSH2 0x4A0 DUP2 DUP9 PUSH2 0x2230 JUMP JUMPDEST POP PUSH2 0x1D8A JUMP JUMPDEST PUSH2 0x44F JUMP JUMPDEST POP DUP1 REVERT JUMPDEST POP CALLVALUE PUSH2 0x20C JUMPI DUP1 PUSH1 0x3 NOT CALLDATASIZE ADD SLT PUSH2 0x20C JUMPI PUSH1 0x20 PUSH1 0x4 SLOAD PUSH1 0x40 MLOAD SWAP1 DUP2 MSTORE RETURN JUMPDEST POP CALLVALUE PUSH2 0x20C JUMPI PUSH1 0x20 DUP1 PUSH1 0x3 NOT CALLDATASIZE ADD SLT PUSH2 0x4AB JUMPI PUSH1 0x4 CALLDATALOAD SWAP2 PUSH1 0x4 DUP4 LT ISZERO PUSH2 0x20C JUMPI PUSH1 0x2 SLOAD SWAP2 DUP2 PUSH1 0x1 JUMPDEST DUP5 DUP2 LT PUSH2 0x5B2 JUMPI POP PUSH2 0x506 SWAP1 PUSH2 0x21E0 JUMP JUMPDEST SWAP4 DUP3 SWAP2 PUSH1 0x1 JUMPDEST DUP6 DUP2 LT PUSH2 0x521 JUMPI PUSH1 0x40 MLOAD DUP1 PUSH2 0x323 DUP10 DUP3 PUSH2 0x1C9D JUMP JUMPDEST DUP1 PUSH2 0x554 SWAP2 DUP7 MSTORE PUSH1 0x8 DUP1 DUP5 MSTORE PUSH1 0x40 DUP8 KECCAK256 DUP6 PUSH1 0xFF DUP4 DUP2 PUSH1 0xB DUP6 ADD SLOAD PUSH1 0xA8 SHR AND SWAP4 DUP5 PUSH2 0x590 JUMPI JUMPDEST POP POP POP POP PUSH2 0x559 JUMPI POP PUSH2 0x1D8A JUMP JUMPDEST PUSH2 0x50C JUMP JUMPDEST DUP2 DUP8 MSTORE DUP4 MSTORE PUSH2 0x589 PUSH1 0x40 DUP8 KECCAK256 SWAP6 PUSH2 0x578 PUSH2 0x572 DUP3 PUSH2 0x1D8A JUMP JUMPDEST SWAP8 PUSH2 0x20DD JUMP JUMPDEST PUSH2 0x582 DUP3 DUP13 PUSH2 0x2230 JUMP JUMPDEST MSTORE DUP10 PUSH2 0x2230 JUMP JUMPDEST POP CODESIZE PUSH2 0x4A0 JUMP JUMPDEST ADD SLOAD SWAP2 SWAP3 POP AND PUSH2 0x59F DUP3 PUSH2 0x1B8F JUMP JUMPDEST PUSH2 0x5A8 DUP2 PUSH2 0x1B8F JUMP JUMPDEST EQ DUP6 CODESIZE DUP4 DUP2 PUSH2 0x546 JUMP JUMPDEST DUP1 DUP5 MSTORE PUSH1 0x8 DUP1 DUP5 MSTORE DUP7 PUSH1 0x40 DUP7 KECCAK256 SWAP2 PUSH1 0xFF SWAP1 DUP2 PUSH1 0xB DUP6 ADD SLOAD PUSH1 0xA8 SHR AND SWAP4 DUP5 PUSH2 0x600 JUMPI JUMPDEST POP POP POP POP PUSH2 0x5EB JUMPI JUMPDEST PUSH2 0x5E6 SWAP1 PUSH2 0x1D8A JUMP JUMPDEST PUSH2 0x4F5 JUMP JUMPDEST SWAP1 PUSH2 0x5F8 PUSH2 0x5E6 SWAP2 PUSH2 0x1D8A JUMP JUMPDEST SWAP2 SWAP1 POP PUSH2 0x5DD JUMP JUMPDEST ADD SLOAD SWAP2 SWAP3 POP AND PUSH2 0x60F DUP3 PUSH2 0x1B8F JUMP JUMPDEST PUSH2 0x618 DUP2 PUSH2 0x1B8F JUMP JUMPDEST EQ DUP7 CODESIZE DUP1 DUP1 PUSH2 0x5D4 JUMP JUMPDEST POP CALLVALUE PUSH2 0x20C JUMPI PUSH1 0x40 CALLDATASIZE PUSH1 0x3 NOT ADD SLT PUSH2 0x20C JUMPI PUSH1 0x24 SWAP1 DUP2 CALLDATALOAD PUSH1 0x4 CALLDATALOAD DUP2 ISZERO ISZERO DUP3 SUB PUSH2 0xAD3 JUMPI PUSH2 0x64D PUSH2 0x1F1B JUMP JUMPDEST CALLER DUP4 MSTORE PUSH1 0x20 SWAP1 PUSH1 0x7 DUP3 MSTORE PUSH1 0xFF SWAP2 DUP3 PUSH1 0x40 DUP7 KECCAK256 SLOAD AND ISZERO PUSH2 0xA90 JUMPI DUP2 DUP6 MSTORE PUSH1 0x8 DUP2 MSTORE PUSH1 0x40 DUP6 KECCAK256 DUP4 PUSH1 0xB DUP3 ADD SLOAD PUSH2 0x685 DUP3 DUP3 PUSH1 0xA8 SHR AND PUSH2 0x1EDB JUMP JUMPDEST AND PUSH1 0x5 DUP2 LT ISZERO PUSH2 0xA7D JUMPI PUSH2 0xA48 JUMPI DUP3 DUP7 MSTORE PUSH1 0x9 DUP3 MSTORE PUSH1 0x40 DUP7 KECCAK256 CALLER PUSH1 0x0 MSTORE DUP3 MSTORE DUP4 PUSH1 0x40 PUSH1 0x0 KECCAK256 SLOAD AND PUSH2 0xA14 JUMPI PUSH2 0x6BF DUP5 PUSH1 0x8 DUP4 ADD SLOAD AND PUSH2 0x1FAD JUMP JUMPDEST ISZERO PUSH2 0x9BD JUMPI DUP3 DUP7 MSTORE PUSH1 0x9 DUP3 MSTORE PUSH1 0x40 DUP7 KECCAK256 CALLER PUSH1 0x0 MSTORE DUP3 MSTORE PUSH1 0x40 PUSH1 0x0 KECCAK256 SWAP1 PUSH1 0x1 SWAP6 PUSH1 0xFF NOT SWAP3 DUP8 DUP5 DUP3 SLOAD AND OR SWAP1 SSTORE PUSH1 0x0 EQ PUSH2 0x962 JUMPI PUSH1 0x9 DUP2 ADD PUSH2 0x6FF DUP2 SLOAD PUSH2 0x1D8A JUMP JUMPDEST SWAP1 SSTORE PUSH1 0x40 MLOAD DUP4 DUP2 MSTORE PUSH1 0x6 DUP5 DUP3 ADD MSTORE PUSH6 0x10D312515395 PUSH1 0xD2 SHL PUSH1 0x40 DUP3 ADD MSTORE DUP5 PUSH32 0xF707341D6361AC6D7FE6B6DB1FBB91B1D8634754CE51F2244CCBFAB475D327F4 PUSH1 0x60 CALLER SWAP4 LOG3 JUMPDEST PUSH1 0xA PUSH1 0x9 DUP3 ADD SLOAD SWAP2 ADD SLOAD DUP2 ADD DUP1 SWAP2 GT PUSH2 0x94D JUMPI PUSH1 0x3 SLOAD GT ISZERO PUSH2 0x768 JUMPI JUMPDEST DUP6 DUP6 DUP1 SSTORE DUP1 RETURN JUMPDEST DUP3 DUP7 MSTORE PUSH1 0x8 DUP3 MSTORE PUSH1 0x40 DUP7 KECCAK256 SWAP1 PUSH1 0xB DUP3 ADD DUP1 SLOAD SWAP2 DUP7 DUP4 AND SWAP1 PUSH1 0x5 DUP3 LT ISZERO PUSH2 0x93A JUMPI DUP8 SWAP4 PUSH2 0x795 DUP11 SWAP4 ISZERO PUSH2 0x1F3E JUMP JUMPDEST PUSH1 0x9 DUP7 ADD SLOAD PUSH1 0xA DUP8 ADD SLOAD DUP1 DUP3 GT ISZERO PUSH2 0x8EB JUMPI POP POP DUP4 SLOAD SWAP2 SWAP1 SWAP2 AND SWAP2 SWAP1 SWAP2 OR DUP1 DUP4 SSTORE PUSH1 0x2 DUP6 ADD SLOAD PUSH2 0x100 PUSH1 0x1 PUSH1 0xA8 SHL SUB NOT SWAP1 SWAP2 AND PUSH1 0x8 SWAP2 SWAP1 SWAP2 SHL PUSH2 0x100 PUSH1 0x1 PUSH1 0xA8 SHL SUB AND OR DUP3 SSTORE POP JUMPDEST SLOAD SWAP8 PUSH1 0x1 DUP1 PUSH1 0xA0 SHL SUB SWAP9 DUP6 PUSH32 0x6BF88BD8B6AFF59B88535F2F8F640D7FED506A8D91627944E53073B12AFDC57 PUSH1 0x40 DUP13 DUP5 PUSH1 0x8 SHR AND SWAP10 DUP11 SWAP5 AND SWAP6 PUSH1 0x8 DUP9 ADD SLOAD AND SWAP8 DUP9 DUP3 MLOAD SWAP2 PUSH2 0x82B DUP4 DUP11 PUSH2 0x1BAF JUMP JUMPDEST PUSH2 0x834 DUP3 PUSH2 0x1B8F JUMP JUMPDEST DUP3 ADD MSTORE LOG3 PUSH1 0x5 DUP3 LT ISZERO PUSH2 0x8D9 JUMPI POP SWAP5 DUP7 SWAP8 DUP2 DUP1 SWAP9 SWAP8 EQ PUSH2 0x859 JUMPI JUMPDEST POP POP SWAP5 SWAP4 SWAP5 PUSH2 0x761 JUMP JUMPDEST PUSH1 0x5 SLOAD AND SWAP2 ADD SLOAD SWAP3 PUSH2 0x86A DUP4 PUSH2 0x1B8F JUMP JUMPDEST PUSH2 0x873 DUP4 PUSH2 0x1B8F JUMP JUMPDEST DUP2 EXTCODESIZE ISZERO PUSH2 0x8D5 JUMPI DUP6 DUP1 SWAP5 PUSH2 0x89D PUSH1 0x40 MLOAD SWAP8 DUP9 SWAP7 DUP8 SWAP6 DUP7 SWAP5 PUSH4 0x6E45F151 PUSH1 0xE1 SHL DUP7 MSTORE PUSH1 0x4 DUP7 ADD PUSH2 0x1F7D JUMP JUMPDEST SUB SWAP3 GAS CALL DUP1 ISZERO PUSH2 0x8CA JUMPI PUSH2 0x8B6 JUMPI JUMPDEST DUP1 DUP1 DUP1 DUP6 DUP2 PUSH2 0x84F JUMP JUMPDEST PUSH2 0x8BF SWAP1 PUSH2 0x1E67 JUMP JUMPDEST PUSH2 0x4AB JUMPI DUP2 CODESIZE PUSH2 0x8AC JUMP JUMPDEST PUSH1 0x40 MLOAD RETURNDATASIZE DUP5 DUP3 RETURNDATACOPY RETURNDATASIZE SWAP1 REVERT JUMPDEST DUP6 DUP1 REVERT JUMPDEST PUSH4 0x4E487B71 PUSH1 0xE0 SHL DUP9 MSTORE PUSH1 0x21 PUSH1 0x4 MSTORE DUP8 REVERT JUMPDEST GT ISZERO PUSH2 0x923 JUMPI POP DUP3 SLOAD AND OR DUP1 DUP3 SSTORE PUSH1 0x3 DUP5 ADD SLOAD PUSH2 0x100 PUSH1 0x1 PUSH1 0xA8 SHL SUB NOT SWAP1 SWAP2 AND PUSH1 0x8 SWAP2 SWAP1 SWAP2 SHL PUSH2 0x100 PUSH1 0x1 PUSH1 0xA8 SHL SUB AND OR DUP2 SSTORE PUSH2 0x7DD JUMP JUMPDEST PUSH1 0x1 PUSH1 0x1 PUSH1 0xA8 SHL SUB NOT AND PUSH1 0x2 OR DUP4 SSTORE POP PUSH2 0x7DD SWAP1 POP JUMP JUMPDEST PUSH4 0x4E487B71 PUSH1 0xE0 SHL DUP11 MSTORE PUSH1 0x21 PUSH1 0x4 MSTORE DUP11 DUP11 REVERT JUMPDEST DUP8 PUSH4 0x4E487B71 PUSH1 0xE0 SHL PUSH1 0x0 MSTORE PUSH1 0x11 PUSH1 0x4 MSTORE PUSH1 0x0 REVERT JUMPDEST PUSH1 0xA DUP2 ADD PUSH2 0x970 DUP2 SLOAD PUSH2 0x1D8A JUMP JUMPDEST SWAP1 SSTORE PUSH1 0x40 MLOAD DUP4 DUP2 MSTORE PUSH1 0xA DUP5 DUP3 ADD MSTORE PUSH10 0x232922A2A620A721A2A9 PUSH1 0xB1 SHL PUSH1 0x40 DUP3 ADD MSTORE DUP5 PUSH32 0xF707341D6361AC6D7FE6B6DB1FBB91B1D8634754CE51F2244CCBFAB475D327F4 PUSH1 0x60 CALLER SWAP4 LOG3 PUSH2 0x744 JUMP JUMPDEST PUSH1 0x40 MLOAD PUSH3 0x461BCD PUSH1 0xE5 SHL DUP2 MSTORE PUSH1 0x4 DUP2 ADD DUP4 SWAP1 MSTORE PUSH1 0x2A DUP2 DUP10 ADD MSTORE PUSH32 0x546869732064697370757465207479706520646F65736E277420726571756972 PUSH1 0x44 DUP3 ADD MSTORE PUSH10 0x652044414F20766F7465 PUSH1 0xB0 SHL PUSH1 0x64 DUP3 ADD MSTORE PUSH1 0x84 SWAP1 REVERT JUMPDEST PUSH1 0x40 MLOAD PUSH3 0x461BCD PUSH1 0xE5 SHL DUP2 MSTORE PUSH1 0x4 DUP2 ADD DUP4 SWAP1 MSTORE PUSH1 0xD DUP2 DUP10 ADD MSTORE PUSH13 0x105B1C9958591E481D9BDD1959 PUSH1 0x9A SHL PUSH1 0x44 DUP3 ADD MSTORE PUSH1 0x64 SWAP1 REVERT JUMPDEST PUSH1 0x40 MLOAD PUSH3 0x461BCD PUSH1 0xE5 SHL DUP2 MSTORE PUSH1 0x4 DUP2 ADD DUP4 SWAP1 MSTORE PUSH1 0xE DUP2 DUP10 ADD MSTORE PUSH14 0x111A5CDC1D5D194818DB1BDCD959 PUSH1 0x92 SHL PUSH1 0x44 DUP3 ADD MSTORE PUSH1 0x64 SWAP1 REVERT JUMPDEST PUSH4 0x4E487B71 PUSH1 0xE0 SHL DUP8 MSTORE PUSH1 0x21 PUSH1 0x4 MSTORE DUP8 DUP8 REVERT JUMPDEST PUSH1 0x64 SWAP1 PUSH1 0x19 DUP8 PUSH1 0x40 MLOAD SWAP3 PUSH3 0x461BCD PUSH1 0xE5 SHL DUP5 MSTORE PUSH1 0x4 DUP5 ADD MSTORE DUP3 ADD MSTORE PUSH32 0x4F6E6C792044414F206D656D626572732063616E20766F746500000000000000 PUSH1 0x44 DUP3 ADD MSTORE REVERT JUMPDEST DUP3 DUP1 REVERT JUMPDEST POP CALLVALUE PUSH2 0x20C JUMPI PUSH1 0x20 CALLDATASIZE PUSH1 0x3 NOT ADD SLT PUSH2 0x20C JUMPI PUSH2 0xAF1 PUSH2 0x1D1A JUMP JUMPDEST PUSH2 0xAF9 PUSH2 0x1D5E JUMP JUMPDEST PUSH1 0x1 PUSH1 0x1 PUSH1 0xA0 SHL SUB DUP2 DUP2 AND SWAP2 DUP3 ISZERO PUSH2 0xB5F JUMPI PUSH1 0x6 SLOAD PUSH1 0x40 DUP1 MLOAD PUSH1 0x1 PUSH1 0x1 PUSH1 0xA0 SHL SUB SWAP5 DUP4 AND DUP6 AND DUP2 MSTORE SWAP3 SWAP1 SWAP4 AND PUSH1 0x20 DUP4 ADD MSTORE SWAP2 PUSH32 0x405B911135779FBE6CA1EB08E756497B632D5FBFF59644B7D60EA3EA95CAF539 SWAP2 LOG1 PUSH1 0x1 PUSH1 0x1 PUSH1 0xA0 SHL SUB NOT AND OR PUSH1 0x6 SSTORE DUP1 RETURN JUMPDEST PUSH1 0x40 MLOAD PUSH3 0x461BCD PUSH1 0xE5 SHL DUP2 MSTORE PUSH1 0x20 PUSH1 0x4 DUP3 ADD MSTORE PUSH1 0x10 PUSH1 0x24 DUP3 ADD MSTORE PUSH16 0x496E76616C6964207472656173757279 PUSH1 0x80 SHL PUSH1 0x44 DUP3 ADD MSTORE PUSH1 0x64 SWAP1 REVERT JUMPDEST POP PUSH1 0xE0 CALLDATASIZE PUSH1 0x3 NOT ADD SLT PUSH2 0x20C JUMPI PUSH2 0xBAC PUSH2 0x1CFF JUMP JUMPDEST SWAP1 PUSH1 0x44 CALLDATALOAD PUSH8 0xFFFFFFFFFFFFFFFF DUP2 GT PUSH2 0x4AB JUMPI PUSH2 0xBCD SWAP1 CALLDATASIZE SWAP1 PUSH1 0x4 ADD PUSH2 0x1D30 JUMP JUMPDEST SWAP3 SWAP1 PUSH1 0x84 CALLDATALOAD PUSH8 0xFFFFFFFFFFFFFFFF DUP2 GT PUSH2 0x12EE JUMPI PUSH2 0xBEF SWAP1 CALLDATASIZE SWAP1 PUSH1 0x4 ADD PUSH2 0x1D30 JUMP JUMPDEST PUSH1 0xA4 CALLDATALOAD PUSH8 0xFFFFFFFFFFFFFFFF DUP2 GT PUSH2 0x8D5 JUMPI PUSH2 0xC0F SWAP1 CALLDATASIZE SWAP1 PUSH1 0x4 ADD PUSH2 0x1D30 JUMP JUMPDEST SWAP4 SWAP1 SWAP7 PUSH1 0x4 PUSH1 0xC4 CALLDATALOAD LT ISZERO PUSH2 0x12EA JUMPI PUSH1 0x4 SLOAD CALLVALUE LT PUSH2 0x12A5 JUMPI PUSH1 0x1 PUSH1 0x1 PUSH1 0xA0 SHL SUB DUP7 AND ISZERO PUSH2 0x126B JUMPI PUSH1 0x5 SLOAD PUSH1 0x1 PUSH1 0x1 PUSH1 0xA0 SHL SUB AND ISZERO PUSH2 0x1235 JUMPI PUSH1 0x2 SLOAD SWAP7 PUSH2 0xC53 DUP9 PUSH2 0x1D8A JUMP JUMPDEST PUSH1 0x2 SWAP1 DUP2 SSTORE DUP9 DUP3 MSTORE PUSH1 0x8 PUSH1 0x20 MSTORE PUSH1 0x40 DUP3 KECCAK256 DUP10 DUP2 SSTORE PUSH1 0x4 CALLDATALOAD PUSH1 0x1 DUP3 ADD SSTORE SWAP1 DUP2 ADD DUP1 SLOAD PUSH1 0x1 PUSH1 0x1 PUSH1 0xA0 SHL SUB NOT SWAP1 DUP2 AND CALLER OR SWAP1 SWAP2 SSTORE PUSH1 0x3 DUP3 ADD DUP1 SLOAD SWAP1 SWAP2 AND PUSH1 0x1 PUSH1 0x1 PUSH1 0xA0 SHL SUB DUP11 AND OR SWAP1 SSTORE PUSH8 0xFFFFFFFFFFFFFFFF DUP4 GT PUSH2 0x10AD JUMPI PUSH2 0xCB7 PUSH1 0x4 DUP3 ADD SLOAD PUSH2 0x1DAF JUMP JUMPDEST PUSH1 0x1F DUP2 GT PUSH2 0x11F0 JUMPI JUMPDEST POP DUP3 DUP3 PUSH1 0x1F DUP3 GT PUSH1 0x1 EQ PUSH2 0x1186 JUMPI DUP4 SWAP2 PUSH2 0x117B JUMPI JUMPDEST POP DUP4 PUSH1 0x1 SHL SWAP1 PUSH1 0x0 NOT DUP6 PUSH1 0x3 SHL SHR NOT AND OR PUSH1 0x4 DUP3 ADD SSTORE JUMPDEST PUSH1 0x64 CALLDATALOAD PUSH1 0x5 DUP3 ADD SSTORE PUSH8 0xFFFFFFFFFFFFFFFF DUP6 GT PUSH2 0x10AD JUMPI PUSH2 0xD10 PUSH1 0x6 DUP3 ADD SLOAD PUSH2 0x1DAF JUMP JUMPDEST PUSH1 0x1F DUP2 GT PUSH2 0x1136 JUMPI JUMPDEST POP DUP5 DUP3 PUSH1 0x1F DUP3 GT PUSH1 0x1 EQ PUSH2 0x10CC JUMPI DUP4 SWAP2 PUSH2 0x10C1 JUMPI JUMPDEST POP DUP6 PUSH1 0x1 SHL SWAP1 PUSH1 0x0 NOT DUP8 PUSH1 0x3 SHL SHR NOT AND OR PUSH1 0x6 DUP3 ADD SSTORE JUMPDEST PUSH8 0xFFFFFFFFFFFFFFFF DUP8 GT PUSH2 0x10AD JUMPI PUSH2 0xD61 PUSH1 0x7 DUP3 ADD SLOAD PUSH2 0x1DAF JUMP JUMPDEST PUSH1 0x1F DUP2 GT PUSH2 0x1068 JUMPI JUMPDEST POP DUP7 DUP3 PUSH1 0x1F DUP3 GT PUSH1 0x1 EQ PUSH2 0xFFC JUMPI DUP4 SWAP2 PUSH2 0xFF1 JUMPI JUMPDEST POP DUP8 PUSH1 0x1 SHL SWAP1 PUSH1 0x0 NOT DUP10 PUSH1 0x3 SHL SHR NOT AND OR PUSH1 0x7 DUP3 ADD SSTORE JUMPDEST PUSH1 0x8 DUP2 ADD PUSH2 0xDA5 PUSH1 0xC4 CALLDATALOAD PUSH2 0x1B8F JUMP JUMPDEST DUP1 SLOAD PUSH1 0xFF NOT AND PUSH1 0xFF PUSH1 0xC4 CALLDATALOAD AND OR SWAP1 SSTORE PUSH1 0xB DUP2 ADD DUP1 SLOAD PUSH1 0x1 PUSH1 0xA8 SHL PUSH1 0xFF PUSH1 0xFF PUSH1 0xA8 SHL ADD NOT SWAP1 SWAP2 AND OR SWAP1 SSTORE TIMESTAMP PUSH1 0xC SWAP1 SWAP2 ADD SSTORE CALLER DUP2 MSTORE PUSH1 0xA PUSH1 0x20 MSTORE PUSH1 0x40 DUP2 KECCAK256 PUSH2 0xDEC SWAP1 DUP10 SWAP1 PUSH2 0x1E17 JUMP JUMPDEST CALLER PUSH1 0x1 PUSH1 0x1 PUSH1 0xA0 SHL SUB DUP9 AND SUB PUSH2 0xFCC JUMPI JUMPDEST CALLVALUE PUSH2 0xF2A JUMPI JUMPDEST PUSH1 0x5 SLOAD PUSH1 0x1 PUSH1 0x1 PUSH1 0xA0 SHL SUB AND PUSH2 0xE1A PUSH1 0xC4 CALLDATALOAD PUSH2 0x1B8F JUMP JUMPDEST PUSH2 0xE28 PUSH1 0xFF PUSH1 0xC4 CALLDATALOAD AND PUSH2 0x1B8F JUMP JUMPDEST DUP1 EXTCODESIZE ISZERO PUSH2 0x4AB JUMPI DUP2 DUP1 SWAP2 PUSH1 0x64 DUP12 PUSH1 0x40 MLOAD SWAP5 DUP6 SWAP4 DUP5 SWAP3 PUSH4 0x2A8FE889 PUSH1 0xE0 SHL DUP5 MSTORE PUSH1 0x4 CALLDATALOAD PUSH1 0x4 DUP6 ADD MSTORE PUSH1 0x24 DUP5 ADD MSTORE PUSH2 0xE62 PUSH1 0xFF PUSH1 0xC4 CALLDATALOAD AND PUSH2 0x1B8F JUMP JUMPDEST PUSH1 0xFF PUSH1 0xC4 CALLDATALOAD AND PUSH1 0x44 DUP5 ADD MSTORE GAS CALL DUP1 ISZERO PUSH2 0x8CA JUMPI PUSH2 0xF16 JUMPI JUMPDEST POP POP SWAP3 PUSH2 0xECF SWAP5 SWAP3 PUSH2 0xEAB PUSH2 0xEC1 SWAP4 PUSH1 0x20 SWAP11 SWAP7 PUSH1 0x40 MLOAD SWAP10 PUSH1 0x1 DUP1 PUSH1 0xA0 SHL SUB AND DUP11 MSTORE PUSH1 0xC0 DUP13 DUP12 ADD MSTORE PUSH1 0xC0 DUP11 ADD SWAP2 PUSH2 0x1EBA JUMP JUMPDEST SWAP2 PUSH1 0x64 CALLDATALOAD PUSH1 0x40 DUP10 ADD MSTORE DUP8 DUP4 SUB PUSH1 0x60 DUP10 ADD MSTORE PUSH2 0x1EBA JUMP JUMPDEST SWAP2 DUP5 DUP4 SUB PUSH1 0x80 DUP7 ADD MSTORE PUSH2 0x1EBA JUMP JUMPDEST PUSH2 0xEDA PUSH1 0xC4 CALLDATALOAD PUSH2 0x1B8F JUMP JUMPDEST PUSH1 0xC4 CALLDATALOAD PUSH1 0xA0 DUP4 ADD MSTORE DUP3 PUSH32 0x954DDEC16589082FC2358352DACD04C7F0B9E1C9201289852A96F471A12BDB19 CALLER SWAP4 DUP1 PUSH1 0x4 CALLDATALOAD SWAP5 SUB SWAP1 LOG4 PUSH1 0x40 MLOAD SWAP1 DUP2 MSTORE RETURN JUMPDEST PUSH2 0xF20 DUP3 SWAP2 PUSH2 0x1E67 JUMP JUMPDEST PUSH2 0x20C JUMPI DUP1 PUSH2 0xE7A JUMP JUMPDEST DUP1 DUP1 DUP1 DUP1 CALLVALUE PUSH1 0x1 DUP1 PUSH1 0xA0 SHL SUB PUSH1 0x6 SLOAD AND GAS CALL RETURNDATASIZE ISZERO PUSH2 0xFC7 JUMPI RETURNDATASIZE PUSH8 0xFFFFFFFFFFFFFFFF DUP2 GT PUSH2 0xFB3 JUMPI PUSH1 0x40 MLOAD SWAP1 PUSH2 0xF6A PUSH1 0x1F DUP3 ADD PUSH1 0x1F NOT AND PUSH1 0x20 ADD DUP4 PUSH2 0x1E98 JUMP JUMPDEST DUP2 MSTORE DUP3 PUSH1 0x20 RETURNDATASIZE SWAP3 ADD RETURNDATACOPY JUMPDEST PUSH2 0xE03 JUMPI PUSH1 0x40 MLOAD PUSH3 0x461BCD PUSH1 0xE5 SHL DUP2 MSTORE PUSH1 0x20 PUSH1 0x4 DUP3 ADD MSTORE PUSH1 0x13 PUSH1 0x24 DUP3 ADD MSTORE PUSH19 0x119959481D1C985B9CD9995C8819985A5B1959 PUSH1 0x6A SHL PUSH1 0x44 DUP3 ADD MSTORE PUSH1 0x64 SWAP1 REVERT JUMPDEST PUSH4 0x4E487B71 PUSH1 0xE0 SHL DUP4 MSTORE PUSH1 0x41 PUSH1 0x4 MSTORE PUSH1 0x24 DUP4 REVERT JUMPDEST PUSH2 0xF74 JUMP JUMPDEST PUSH1 0x1 PUSH1 0x1 PUSH1 0xA0 SHL SUB DUP8 AND DUP2 MSTORE PUSH1 0xA PUSH1 0x20 MSTORE PUSH1 0x40 DUP2 KECCAK256 PUSH2 0xFEC SWAP1 DUP10 SWAP1 PUSH2 0x1E17 JUMP JUMPDEST PUSH2 0xDFD JUMP JUMPDEST SWAP1 POP DUP11 ADD CALLDATALOAD CODESIZE PUSH2 0xD7F JUMP JUMPDEST PUSH1 0x7 DUP4 ADD DUP5 MSTORE PUSH1 0x20 DUP5 KECCAK256 SWAP2 POP DUP4 JUMPDEST DUP13 PUSH1 0x1F NOT DUP12 AND DUP3 LT PUSH2 0x1050 JUMPI POP POP DUP9 PUSH1 0x1F NOT DUP2 AND LT PUSH2 0x1036 JUMPI JUMPDEST POP POP PUSH1 0x1 DUP8 DUP2 SHL ADD PUSH1 0x7 DUP3 ADD SSTORE PUSH2 0xD96 JUMP JUMPDEST DUP12 ADD CALLDATALOAD PUSH1 0x0 NOT PUSH1 0x3 DUP11 SWAP1 SHL PUSH1 0xF8 AND SHR NOT AND SWAP1 SSTORE CODESIZE DUP1 PUSH2 0x1024 JUMP JUMPDEST PUSH1 0x1 DUP4 SWAP5 PUSH1 0x20 SWAP4 SWAP5 DUP5 SWAP4 ADD CALLDATALOAD DUP2 SSTORE ADD SWAP4 ADD SWAP2 ADD PUSH2 0x100A JUMP JUMPDEST PUSH1 0x7 DUP3 ADD DUP4 MSTORE PUSH1 0x20 DUP4 KECCAK256 PUSH1 0x1F DUP10 ADD PUSH1 0x5 SHR DUP2 ADD PUSH1 0x20 DUP11 LT PUSH2 0x10A6 JUMPI JUMPDEST PUSH1 0x1F DUP4 ADD PUSH1 0x5 SHR DUP3 ADD DUP2 LT PUSH2 0x109A JUMPI POP POP PUSH2 0xD6A JUMP JUMPDEST PUSH1 0x0 DUP2 SSTORE PUSH1 0x1 ADD PUSH2 0x1084 JUMP JUMPDEST POP DUP1 PUSH2 0x1084 JUMP JUMPDEST PUSH4 0x4E487B71 PUSH1 0xE0 SHL DUP3 MSTORE PUSH1 0x41 PUSH1 0x4 MSTORE PUSH1 0x24 DUP3 REVERT JUMPDEST SWAP1 POP DUP7 ADD CALLDATALOAD CODESIZE PUSH2 0xD2E JUMP JUMPDEST PUSH1 0x6 DUP4 ADD DUP5 MSTORE PUSH1 0x20 DUP5 KECCAK256 SWAP2 POP DUP4 JUMPDEST PUSH1 0x1F NOT DUP9 AND DUP2 LT PUSH2 0x111E JUMPI POP DUP7 PUSH1 0x1F NOT DUP2 AND LT PUSH2 0x1104 JUMPI JUMPDEST POP POP PUSH1 0x1 DUP6 DUP2 SHL ADD PUSH1 0x6 DUP3 ADD SSTORE PUSH2 0xD45 JUMP JUMPDEST DUP8 ADD CALLDATALOAD PUSH1 0x0 NOT PUSH1 0x3 DUP9 SWAP1 SHL PUSH1 0xF8 AND SHR NOT AND SWAP1 SSTORE CODESIZE DUP1 PUSH2 0x10F2 JUMP JUMPDEST SWAP1 SWAP2 PUSH1 0x20 PUSH1 0x1 DUP2 SWAP3 DUP6 DUP13 ADD CALLDATALOAD DUP2 SSTORE ADD SWAP4 ADD SWAP2 ADD PUSH2 0x10DA JUMP JUMPDEST PUSH1 0x6 DUP3 ADD DUP4 MSTORE PUSH1 0x20 DUP4 KECCAK256 PUSH1 0x1F DUP8 ADD PUSH1 0x5 SHR DUP2 ADD PUSH1 0x20 DUP9 LT PUSH2 0x1174 JUMPI JUMPDEST PUSH1 0x1F DUP4 ADD PUSH1 0x5 SHR DUP3 ADD DUP2 LT PUSH2 0x1168 JUMPI POP POP PUSH2 0xD19 JUMP JUMPDEST PUSH1 0x0 DUP2 SSTORE PUSH1 0x1 ADD PUSH2 0x1152 JUMP JUMPDEST POP DUP1 PUSH2 0x1152 JUMP JUMPDEST SWAP1 POP DUP5 ADD CALLDATALOAD CODESIZE PUSH2 0xCD5 JUMP JUMPDEST PUSH1 0x4 DUP4 ADD DUP5 MSTORE PUSH1 0x20 DUP5 KECCAK256 SWAP2 POP DUP4 JUMPDEST PUSH1 0x1F NOT DUP7 AND DUP2 LT PUSH2 0x11D8 JUMPI POP DUP5 PUSH1 0x1F NOT DUP2 AND LT PUSH2 0x11BE JUMPI JUMPDEST POP POP PUSH1 0x1 DUP4 DUP2 SHL ADD PUSH1 0x4 DUP3 ADD SSTORE PUSH2 0xCEC JUMP JUMPDEST DUP6 ADD CALLDATALOAD PUSH1 0x0 NOT PUSH1 0x3 DUP7 SWAP1 SHL PUSH1 0xF8 AND SHR NOT AND SWAP1 SSTORE CODESIZE DUP1 PUSH2 0x11AC JUMP JUMPDEST SWAP1 SWAP2 PUSH1 0x20 PUSH1 0x1 DUP2 SWAP3 DUP6 DUP11 ADD CALLDATALOAD DUP2 SSTORE ADD SWAP4 ADD SWAP2 ADD PUSH2 0x1194 JUMP JUMPDEST PUSH1 0x4 DUP3 ADD DUP4 MSTORE PUSH1 0x20 DUP4 KECCAK256 PUSH1 0x1F DUP6 ADD PUSH1 0x5 SHR DUP2 ADD PUSH1 0x20 DUP7 LT PUSH2 0x122E JUMPI JUMPDEST PUSH1 0x1F DUP4 ADD PUSH1 0x5 SHR DUP3 ADD DUP2 LT PUSH2 0x1222 JUMPI POP POP PUSH2 0xCC0 JUMP JUMPDEST PUSH1 0x0 DUP2 SSTORE PUSH1 0x1 ADD PUSH2 0x120C JUMP JUMPDEST POP DUP1 PUSH2 0x120C JUMP JUMPDEST PUSH1 0x40 MLOAD PUSH3 0x461BCD PUSH1 0xE5 SHL DUP2 MSTORE PUSH1 0x20 PUSH1 0x4 DUP3 ADD MSTORE PUSH1 0xE PUSH1 0x24 DUP3 ADD MSTORE PUSH14 0x115CD8DC9BDDC81B9BDD081CD95D PUSH1 0x92 SHL PUSH1 0x44 DUP3 ADD MSTORE PUSH1 0x64 SWAP1 REVERT JUMPDEST PUSH1 0x40 MLOAD PUSH3 0x461BCD PUSH1 0xE5 SHL DUP2 MSTORE PUSH1 0x20 PUSH1 0x4 DUP3 ADD MSTORE PUSH1 0x12 PUSH1 0x24 DUP3 ADD MSTORE PUSH18 0x24B73B30B634B210333932B2B630B731B2B9 PUSH1 0x71 SHL PUSH1 0x44 DUP3 ADD MSTORE PUSH1 0x64 SWAP1 REVERT JUMPDEST PUSH1 0x40 MLOAD PUSH3 0x461BCD PUSH1 0xE5 SHL DUP2 MSTORE PUSH1 0x20 PUSH1 0x4 DUP3 ADD MSTORE PUSH1 0x18 PUSH1 0x24 DUP3 ADD MSTORE PUSH32 0x496E73756666696369656E742064697370757465206665650000000000000000 PUSH1 0x44 DUP3 ADD MSTORE PUSH1 0x64 SWAP1 REVERT JUMPDEST DUP7 DUP1 REVERT JUMPDEST DUP4 DUP1 REVERT JUMPDEST POP CALLVALUE PUSH2 0x20C JUMPI DUP1 PUSH1 0x3 NOT CALLDATASIZE ADD SLT PUSH2 0x20C JUMPI PUSH1 0x2 SLOAD DUP2 PUSH1 0x1 JUMPDEST DUP3 DUP2 LT PUSH2 0x13D1 JUMPI POP PUSH2 0x131B SWAP1 PUSH2 0x21E0 JUMP JUMPDEST SWAP2 DUP1 PUSH1 0x1 JUMPDEST DUP4 DUP2 LT PUSH2 0x1335 JUMPI PUSH1 0x40 MLOAD DUP1 PUSH2 0x323 DUP8 DUP3 PUSH2 0x1C9D JUMP JUMPDEST DUP1 DUP4 MSTORE PUSH1 0x8 PUSH1 0x20 DUP2 DUP2 MSTORE PUSH1 0xB PUSH1 0x40 DUP7 KECCAK256 ADD SLOAD PUSH1 0xFF DUP1 DUP3 PUSH1 0xA8 SHR AND SWAP2 DUP3 PUSH2 0x13A7 JUMPI JUMPDEST POP POP SWAP1 PUSH2 0x136B SWAP4 SWAP3 SWAP2 PUSH2 0x1370 JUMPI JUMPDEST POP POP PUSH2 0x1D8A JUMP JUMPDEST PUSH2 0x1320 JUMP JUMPDEST DUP3 DUP7 MSTORE MSTORE PUSH2 0x139F PUSH1 0x40 DUP6 KECCAK256 SWAP4 PUSH2 0x138E PUSH2 0x1388 DUP3 PUSH2 0x1D8A JUMP JUMPDEST SWAP6 PUSH2 0x20DD JUMP JUMPDEST PUSH2 0x1398 DUP3 DUP11 PUSH2 0x2230 JUMP JUMPDEST MSTORE DUP8 PUSH2 0x2230 JUMP JUMPDEST POP CODESIZE DUP1 PUSH2 0x1364 JUMP JUMPDEST AND SWAP1 POP PUSH1 0x5 DUP2 LT ISZERO PUSH2 0x13BD JUMPI ISZERO PUSH2 0x136B CODESIZE PUSH2 0x1356 JUMP JUMPDEST PUSH4 0x4E487B71 PUSH1 0xE0 SHL DUP7 MSTORE PUSH1 0x21 PUSH1 0x4 MSTORE PUSH1 0x24 DUP7 REVERT JUMPDEST DUP1 DUP5 MSTORE PUSH1 0x8 PUSH1 0x20 MSTORE PUSH1 0xB PUSH1 0x40 DUP6 KECCAK256 ADD SLOAD PUSH1 0xFF DUP1 DUP3 PUSH1 0xA8 SHR AND SWAP2 DUP3 PUSH2 0x141A JUMPI JUMPDEST POP POP PUSH2 0x1405 JUMPI JUMPDEST PUSH2 0x1400 SWAP1 PUSH2 0x1D8A JUMP JUMPDEST PUSH2 0x130A JUMP JUMPDEST SWAP1 PUSH2 0x1412 PUSH2 0x1400 SWAP2 PUSH2 0x1D8A JUMP JUMPDEST SWAP2 SWAP1 POP PUSH2 0x13F7 JUMP JUMPDEST AND SWAP1 POP PUSH1 0x5 DUP2 LT ISZERO PUSH2 0x142E JUMPI ISZERO CODESIZE DUP1 PUSH2 0x13F0 JUMP JUMPDEST PUSH4 0x4E487B71 PUSH1 0xE0 SHL DUP6 MSTORE PUSH1 0x21 PUSH1 0x4 MSTORE PUSH1 0x24 DUP6 REVERT JUMPDEST POP CALLVALUE PUSH2 0x20C JUMPI PUSH1 0x20 CALLDATASIZE PUSH1 0x3 NOT ADD SLT PUSH2 0x20C JUMPI PUSH1 0x20 SWAP1 PUSH1 0xFF SWAP1 PUSH1 0x40 SWAP1 PUSH1 0x1 PUSH1 0x1 PUSH1 0xA0 SHL SUB PUSH2 0x146D PUSH2 0x1D1A JUMP JUMPDEST AND DUP2 MSTORE PUSH1 0x7 DUP5 MSTORE KECCAK256 SLOAD AND PUSH1 0x40 MLOAD SWAP1 ISZERO ISZERO DUP2 MSTORE RETURN JUMPDEST POP CALLVALUE PUSH2 0x20C JUMPI DUP1 PUSH1 0x3 NOT CALLDATASIZE ADD SLT PUSH2 0x20C JUMPI SLOAD PUSH1 0x40 MLOAD PUSH1 0x1 PUSH1 0x1 PUSH1 0xA0 SHL SUB SWAP1 SWAP2 AND DUP2 MSTORE PUSH1 0x20 SWAP1 RETURN JUMPDEST POP CALLVALUE PUSH2 0x20C JUMPI PUSH1 0x20 CALLDATASIZE PUSH1 0x3 NOT ADD SLT PUSH2 0x20C JUMPI PUSH2 0x14C2 PUSH2 0x1D1A JUMP JUMPDEST PUSH2 0x14CA PUSH2 0x1D5E JUMP JUMPDEST PUSH1 0x1 PUSH1 0x1 PUSH1 0xA0 SHL SUB AND DUP1 ISZERO PUSH2 0x1563 JUMPI DUP1 DUP3 MSTORE PUSH1 0x7 PUSH1 0x20 MSTORE PUSH1 0xFF PUSH1 0x40 DUP4 KECCAK256 SLOAD AND PUSH2 0x152B JUMPI DUP1 DUP3 MSTORE PUSH1 0x7 PUSH1 0x20 MSTORE PUSH1 0x40 DUP3 KECCAK256 DUP1 SLOAD PUSH1 0xFF NOT AND PUSH1 0x1 OR SWAP1 SSTORE PUSH32 0x35B658D712E45F976C17007529CD1CB687614E83CE49A1EE563570AC818452E6 DUP3 DUP1 LOG2 DUP1 RETURN JUMPDEST PUSH1 0x40 MLOAD PUSH3 0x461BCD PUSH1 0xE5 SHL DUP2 MSTORE PUSH1 0x20 PUSH1 0x4 DUP3 ADD MSTORE PUSH1 0x10 PUSH1 0x24 DUP3 ADD MSTORE PUSH16 0x20B63932B0B23C90309036B2B6B132B9 PUSH1 0x81 SHL PUSH1 0x44 DUP3 ADD MSTORE PUSH1 0x64 SWAP1 REVERT JUMPDEST PUSH1 0x40 MLOAD PUSH3 0x461BCD PUSH1 0xE5 SHL DUP2 MSTORE PUSH1 0x20 PUSH1 0x4 DUP3 ADD MSTORE PUSH1 0xE PUSH1 0x24 DUP3 ADD MSTORE PUSH14 0x24B73B30B634B21036B2B6B132B9 PUSH1 0x91 SHL PUSH1 0x44 DUP3 ADD MSTORE PUSH1 0x64 SWAP1 REVERT JUMPDEST POP CALLVALUE PUSH2 0x20C JUMPI PUSH1 0x20 CALLDATASIZE PUSH1 0x3 NOT ADD SLT PUSH2 0x20C JUMPI PUSH1 0x4 CALLDATALOAD PUSH2 0x15B6 PUSH2 0x1F1B JUMP JUMPDEST DUP1 DUP3 MSTORE PUSH1 0x8 PUSH1 0x20 MSTORE PUSH1 0x40 DUP3 KECCAK256 PUSH1 0xB DUP2 ADD SWAP2 DUP3 SLOAD SWAP2 PUSH2 0x15D9 PUSH1 0xFF DUP5 PUSH1 0xA8 SHR AND PUSH2 0x1EDB JUMP JUMPDEST PUSH1 0xFF DUP4 AND PUSH1 0x5 DUP2 LT ISZERO PUSH2 0x13BD JUMPI PUSH2 0x15F0 SWAP1 ISZERO PUSH2 0x1F3E JUMP JUMPDEST PUSH1 0x8 DUP2 ADD SWAP2 PUSH1 0xFF DUP4 SLOAD AND PUSH2 0x1603 DUP2 PUSH2 0x1FAD JUMP JUMPDEST PUSH2 0x171E JUMPI PUSH1 0xFF SWAP6 DUP8 SWAP6 DUP3 PUSH2 0x1618 PUSH1 0x1 SWAP5 PUSH2 0x1B8F JUMP JUMPDEST ISZERO PUSH2 0x16E3 JUMPI JUMPDEST POP SLOAD SWAP4 DUP2 DUP1 PUSH1 0xA0 SHL SUB SWAP1 DUP4 PUSH32 0x6BF88BD8B6AFF59B88535F2F8F640D7FED506A8D91627944E53073B12AFDC57 PUSH1 0x40 DUP11 PUSH2 0x1667 DUP7 DUP12 PUSH1 0x8 SHR AND SWAP13 DUP14 SWAP7 SLOAD AND SWAP11 DUP4 MLOAD SWAP3 DUP4 SWAP2 AND PUSH2 0x1BAF JUMP JUMPDEST PUSH2 0x1670 DUP11 PUSH2 0x1B8F JUMP JUMPDEST DUP10 PUSH1 0x20 DUP3 ADD MSTORE LOG3 PUSH1 0x5 SLOAD AND SWAP3 ADD SLOAD PUSH2 0x1687 DUP5 PUSH2 0x1B8F JUMP JUMPDEST PUSH2 0x1690 DUP5 PUSH2 0x1B8F JUMP JUMPDEST DUP3 EXTCODESIZE ISZERO PUSH2 0x16DF JUMPI DUP5 SWAP1 PUSH2 0x16B9 PUSH1 0x40 MLOAD SWAP8 DUP9 SWAP7 DUP8 SWAP6 DUP7 SWAP5 PUSH4 0x6E45F151 PUSH1 0xE1 SHL DUP7 MSTORE PUSH1 0x4 DUP7 ADD PUSH2 0x1F7D JUMP JUMPDEST SUB SWAP3 GAS CALL DUP1 ISZERO PUSH2 0x8CA JUMPI PUSH2 0x16D0 JUMPI JUMPDEST POP PUSH1 0x1 DUP1 SSTORE DUP1 RETURN JUMPDEST PUSH2 0x16D9 SWAP1 PUSH2 0x1E67 JUMP JUMPDEST CODESIZE PUSH2 0x16C8 JUMP JUMPDEST DUP5 DUP1 REVERT JUMPDEST DUP8 NOT AND DUP3 OR DUP1 DUP3 SSTORE PUSH1 0x3 DUP6 ADD SLOAD PUSH2 0x100 PUSH1 0x1 PUSH1 0xA8 SHL SUB PUSH1 0xA0 DUP6 SWAP1 SHL DUP6 SWAP1 SUB SWAP1 SWAP2 AND PUSH1 0x8 SHL AND PUSH2 0x100 PUSH1 0x1 PUSH1 0xA8 SHL SUB NOT SWAP1 SWAP2 AND OR DUP2 SSTORE CODESIZE PUSH2 0x161E JUMP JUMPDEST PUSH1 0x40 MLOAD PUSH3 0x461BCD PUSH1 0xE5 SHL DUP2 MSTORE PUSH1 0x20 PUSH1 0x4 DUP3 ADD MSTORE PUSH1 0x11 PUSH1 0x24 DUP3 ADD MSTORE PUSH17 0x52657175697265732044414F20766F7465 PUSH1 0x78 SHL PUSH1 0x44 DUP3 ADD MSTORE PUSH1 0x64 SWAP1 REVERT JUMPDEST POP CALLVALUE PUSH2 0x20C JUMPI DUP1 PUSH1 0x3 NOT CALLDATASIZE ADD SLT PUSH2 0x20C JUMPI PUSH1 0x6 SLOAD PUSH1 0x40 MLOAD PUSH1 0x1 PUSH1 0x1 PUSH1 0xA0 SHL SUB SWAP1 SWAP2 AND DUP2 MSTORE PUSH1 0x20 SWAP1 RETURN JUMPDEST POP CALLVALUE PUSH2 0x20C JUMPI DUP1 PUSH1 0x3 NOT CALLDATASIZE ADD SLT PUSH2 0x20C JUMPI PUSH2 0x1799 PUSH2 0x1D5E JUMP JUMPDEST DUP1 SLOAD PUSH1 0x1 PUSH1 0x1 PUSH1 0xA0 SHL SUB NOT DUP2 AND DUP3 SSTORE DUP2 SWAP1 PUSH1 0x1 PUSH1 0x1 PUSH1 0xA0 SHL SUB AND PUSH32 0x8BE0079C531659141344CD1FD0A4F28419497F9722A3DAAFE3B4186F6B6457E0 DUP3 DUP1 LOG3 DUP1 RETURN JUMPDEST POP CALLVALUE PUSH2 0x20C JUMPI PUSH1 0x20 CALLDATASIZE PUSH1 0x3 NOT ADD SLT PUSH2 0x20C JUMPI PUSH2 0x17F4 PUSH2 0x1D1A JUMP JUMPDEST PUSH2 0x17FC PUSH2 0x1D5E JUMP JUMPDEST PUSH1 0x1 PUSH1 0x1 PUSH1 0xA0 SHL SUB AND DUP1 DUP3 MSTORE PUSH1 0x7 PUSH1 0x20 MSTORE PUSH1 0x40 DUP3 KECCAK256 SLOAD PUSH1 0xFF AND ISZERO PUSH2 0x1855 JUMPI DUP1 DUP3 MSTORE PUSH1 0x7 PUSH1 0x20 MSTORE PUSH1 0x40 DUP3 KECCAK256 DUP1 SLOAD PUSH1 0xFF NOT AND SWAP1 SSTORE PUSH32 0x1806BEC4BA806283D7BEDAD066D84CEEAAC768B71C22E1743D9508650135A3F3 DUP3 DUP1 LOG2 DUP1 RETURN JUMPDEST PUSH1 0x40 MLOAD PUSH3 0x461BCD PUSH1 0xE5 SHL DUP2 MSTORE PUSH1 0x20 PUSH1 0x4 DUP3 ADD MSTORE PUSH1 0x10 PUSH1 0x24 DUP3 ADD MSTORE PUSH16 0x2737BA1030902220A79036B2B6B132B9 PUSH1 0x81 SHL PUSH1 0x44 DUP3 ADD MSTORE PUSH1 0x64 SWAP1 REVERT JUMPDEST POP CALLVALUE PUSH2 0x20C JUMPI PUSH1 0x20 CALLDATASIZE PUSH1 0x3 NOT ADD SLT PUSH2 0x20C JUMPI PUSH1 0x5 SLOAD PUSH1 0x4 CALLDATALOAD SWAP1 PUSH1 0x1 PUSH1 0x1 PUSH1 0xA0 SHL SUB AND CALLER SUB PUSH2 0x194D JUMPI DUP1 DUP3 MSTORE PUSH1 0x8 PUSH1 0x20 MSTORE PUSH1 0xB PUSH1 0x40 DUP4 KECCAK256 ADD DUP1 SLOAD PUSH2 0x18D5 PUSH1 0xFF DUP3 PUSH1 0xA8 SHR AND PUSH2 0x1EDB JUMP JUMPDEST PUSH1 0xFF DUP2 AND PUSH1 0x5 DUP2 LT ISZERO PUSH2 0x142E JUMPI PUSH1 0x1 SUB PUSH2 0x1919 JUMPI PUSH1 0xFF NOT AND PUSH1 0x4 OR SWAP1 SSTORE PUSH32 0xC69F94B4C4525853939F5F9788C75D9A798C6E4B56150E398191CF0EC9CC76F0 DUP3 DUP1 LOG2 DUP1 RETURN JUMPDEST PUSH1 0x40 MLOAD PUSH3 0x461BCD PUSH1 0xE5 SHL DUP2 MSTORE PUSH1 0x20 PUSH1 0x4 DUP3 ADD MSTORE PUSH1 0xC PUSH1 0x24 DUP3 ADD MSTORE PUSH12 0x139BDD081C995CDBDB1D9959 PUSH1 0xA2 SHL PUSH1 0x44 DUP3 ADD MSTORE PUSH1 0x64 SWAP1 REVERT JUMPDEST PUSH1 0x40 MLOAD PUSH3 0x461BCD PUSH1 0xE5 SHL DUP2 MSTORE PUSH1 0x20 PUSH1 0x4 DUP3 ADD MSTORE PUSH1 0xB PUSH1 0x24 DUP3 ADD MSTORE PUSH11 0x4F6E6C7920657363726F77 PUSH1 0xA8 SHL PUSH1 0x44 DUP3 ADD MSTORE PUSH1 0x64 SWAP1 REVERT JUMPDEST POP CALLVALUE PUSH2 0x20C JUMPI PUSH1 0x20 CALLDATASIZE PUSH1 0x3 NOT ADD SLT PUSH2 0x20C JUMPI PUSH1 0x40 PUSH1 0x60 SWAP2 PUSH1 0x4 CALLDATALOAD DUP2 MSTORE PUSH1 0x8 PUSH1 0x20 MSTORE KECCAK256 PUSH2 0x19F0 PUSH1 0xFF PUSH1 0x8 PUSH1 0xB DUP5 ADD SLOAD SWAP4 PUSH2 0x19BD DUP4 DUP7 PUSH1 0xA8 SHR AND PUSH2 0x1EDB JUMP JUMPDEST ADD SLOAD PUSH1 0x40 MLOAD PUSH1 0x8 DUP6 SWAP1 SHR PUSH1 0x1 PUSH1 0x1 PUSH1 0xA0 SHL SUB AND DUP2 MSTORE SWAP4 SWAP2 AND PUSH2 0x19DE DUP2 PUSH2 0x1B8F JUMP JUMPDEST PUSH1 0x20 DUP5 ADD MSTORE PUSH1 0xFF PUSH1 0x40 DUP5 ADD SWAP2 AND PUSH2 0x1BAF JUMP JUMPDEST RETURN JUMPDEST POP CALLVALUE PUSH2 0x20C JUMPI PUSH1 0x20 CALLDATASIZE PUSH1 0x3 NOT ADD SLT PUSH2 0x20C JUMPI PUSH1 0x4 CALLDATALOAD SWAP1 PUSH1 0x4 DUP3 LT ISZERO PUSH2 0x20C JUMPI PUSH1 0x20 PUSH2 0x1A1C DUP4 PUSH2 0x1FAD JUMP JUMPDEST PUSH1 0x40 MLOAD SWAP1 ISZERO ISZERO DUP2 MSTORE RETURN JUMPDEST POP CALLVALUE PUSH2 0x20C JUMPI PUSH1 0x40 CALLDATASIZE PUSH1 0x3 NOT ADD SLT PUSH2 0x20C JUMPI PUSH1 0xFF PUSH1 0x40 PUSH1 0x20 SWAP3 PUSH2 0x1A47 PUSH2 0x1CFF JUMP JUMPDEST PUSH1 0x4 CALLDATALOAD DUP3 MSTORE PUSH1 0x9 DUP6 MSTORE DUP3 DUP3 KECCAK256 PUSH1 0x1 PUSH1 0x1 PUSH1 0xA0 SHL SUB SWAP1 SWAP2 AND DUP3 MSTORE DUP5 MSTORE KECCAK256 SLOAD PUSH1 0x40 MLOAD SWAP2 AND ISZERO ISZERO DUP2 MSTORE RETURN JUMPDEST POP CALLVALUE PUSH2 0x20C JUMPI DUP1 PUSH1 0x3 NOT CALLDATASIZE ADD SLT PUSH2 0x20C JUMPI PUSH1 0x2 SLOAD PUSH1 0x0 NOT DUP2 ADD SWAP1 DUP2 GT PUSH2 0x1B01 JUMPI PUSH2 0x1A98 DUP2 PUSH2 0x21E0 JUMP JUMPDEST SWAP1 DUP3 JUMPDEST DUP2 DUP2 LT PUSH2 0x1AB0 JUMPI PUSH1 0x40 MLOAD DUP1 PUSH2 0x323 DUP6 DUP3 PUSH2 0x1C9D JUMP JUMPDEST PUSH1 0x1 DUP2 ADD DUP1 DUP3 GT PUSH2 0x1AED JUMPI SWAP1 PUSH2 0x1AE8 SWAP2 DUP6 MSTORE PUSH1 0x8 PUSH1 0x20 MSTORE PUSH2 0x1AD3 PUSH1 0x40 DUP7 KECCAK256 PUSH2 0x20DD JUMP JUMPDEST PUSH2 0x1ADD DUP3 DUP7 PUSH2 0x2230 JUMP JUMPDEST MSTORE PUSH2 0x4A0 DUP2 DUP6 PUSH2 0x2230 JUMP JUMPDEST PUSH2 0x1A9B JUMP JUMPDEST PUSH4 0x4E487B71 PUSH1 0xE0 SHL DUP6 MSTORE PUSH1 0x11 PUSH1 0x4 MSTORE PUSH1 0x24 DUP6 REVERT JUMPDEST PUSH4 0x4E487B71 PUSH1 0xE0 SHL DUP3 MSTORE PUSH1 0x11 PUSH1 0x4 MSTORE PUSH1 0x24 DUP3 REVERT JUMPDEST POP CALLVALUE PUSH2 0x20C JUMPI DUP1 PUSH1 0x3 NOT CALLDATASIZE ADD SLT PUSH2 0x20C JUMPI PUSH1 0x20 PUSH1 0x3 SLOAD PUSH1 0x40 MLOAD SWAP1 DUP2 MSTORE RETURN JUMPDEST SWAP1 POP CALLVALUE PUSH2 0x4AB JUMPI DUP2 PUSH1 0x3 NOT CALLDATASIZE ADD SLT PUSH2 0x4AB JUMPI PUSH1 0x20 SWAP1 PUSH1 0x2 SLOAD DUP2 MSTORE RETURN JUMPDEST SWAP2 SWAP1 DUP3 MLOAD SWAP3 DUP4 DUP3 MSTORE PUSH1 0x0 JUMPDEST DUP5 DUP2 LT PUSH2 0x1B7B JUMPI POP POP DUP3 PUSH1 0x0 PUSH1 0x20 DUP1 SWAP5 SWAP6 DUP5 ADD ADD MSTORE PUSH1 0x1F DUP1 NOT SWAP2 ADD AND ADD ADD SWAP1 JUMP JUMPDEST PUSH1 0x20 DUP2 DUP4 ADD DUP2 ADD MLOAD DUP5 DUP4 ADD DUP3 ADD MSTORE ADD PUSH2 0x1B5A JUMP JUMPDEST PUSH1 0x4 GT ISZERO PUSH2 0x1B99 JUMPI JUMP JUMPDEST PUSH4 0x4E487B71 PUSH1 0xE0 SHL PUSH1 0x0 MSTORE PUSH1 0x21 PUSH1 0x4 MSTORE PUSH1 0x24 PUSH1 0x0 REVERT JUMPDEST SWAP1 PUSH1 0x5 DUP3 LT ISZERO PUSH2 0x1B99 JUMPI MSTORE JUMP JUMPDEST SWAP1 DUP2 MLOAD DUP2 MSTORE PUSH1 0x20 DUP3 ADD MLOAD PUSH1 0x20 DUP3 ADD MSTORE PUSH1 0x1 DUP1 PUSH1 0xA0 SHL SUB SWAP2 DUP3 PUSH1 0x40 DUP3 ADD MLOAD AND PUSH1 0x40 DUP4 ADD MSTORE DUP3 PUSH1 0x60 DUP3 ADD MLOAD AND PUSH1 0x60 DUP4 ADD MSTORE PUSH2 0x1C38 PUSH2 0x1C26 PUSH2 0x1C0A PUSH1 0x80 DUP5 ADD MLOAD PUSH2 0x1E0 DUP1 PUSH1 0x80 DUP9 ADD MSTORE DUP7 ADD SWAP1 PUSH2 0x1B4F JUMP JUMPDEST PUSH1 0xA0 DUP5 ADD MLOAD PUSH1 0xA0 DUP7 ADD MSTORE PUSH1 0xC0 DUP5 ADD MLOAD DUP6 DUP3 SUB PUSH1 0xC0 DUP8 ADD MSTORE PUSH2 0x1B4F JUMP JUMPDEST PUSH1 0xE0 DUP4 ADD MLOAD DUP5 DUP3 SUB PUSH1 0xE0 DUP7 ADD MSTORE PUSH2 0x1B4F JUMP JUMPDEST SWAP3 PUSH2 0x100 DUP1 DUP4 ADD MLOAD SWAP1 PUSH2 0x1C4A DUP3 PUSH2 0x1B8F JUMP JUMPDEST DUP5 ADD MSTORE PUSH2 0x120 DUP1 DUP4 ADD MLOAD SWAP1 DUP5 ADD MSTORE PUSH2 0x140 DUP1 DUP4 ADD MLOAD SWAP1 DUP5 ADD MSTORE PUSH2 0x1C76 PUSH2 0x160 DUP1 DUP5 ADD MLOAD SWAP1 DUP6 ADD SWAP1 PUSH2 0x1BAF JUMP JUMPDEST PUSH2 0x180 SWAP1 DUP2 DUP4 ADD MLOAD AND SWAP1 DUP4 ADD MSTORE PUSH2 0x1A0 DUP1 DUP3 ADD MLOAD ISZERO ISZERO SWAP1 DUP4 ADD MSTORE PUSH2 0x1C0 DUP1 SWAP2 ADD MLOAD SWAP2 ADD MSTORE SWAP1 JUMP JUMPDEST PUSH1 0x20 DUP1 DUP3 ADD SWAP1 DUP1 DUP4 MSTORE DUP4 MLOAD DUP1 SWAP3 MSTORE PUSH1 0x40 DUP4 ADD SWAP3 DUP2 PUSH1 0x40 DUP5 PUSH1 0x5 SHL DUP4 ADD ADD SWAP6 ADD SWAP4 PUSH1 0x0 SWAP2 JUMPDEST DUP5 DUP4 LT PUSH2 0x1CD1 JUMPI POP POP POP POP POP POP SWAP1 JUMP JUMPDEST SWAP1 SWAP2 SWAP3 SWAP4 SWAP5 SWAP6 DUP5 DUP1 PUSH2 0x1CEF PUSH1 0x1 SWAP4 PUSH1 0x3F NOT DUP7 DUP3 SUB ADD DUP8 MSTORE DUP11 MLOAD PUSH2 0x1BBC JUMP JUMPDEST SWAP9 ADD SWAP4 ADD SWAP4 ADD SWAP2 SWAP5 SWAP4 SWAP3 SWAP1 PUSH2 0x1CC1 JUMP JUMPDEST PUSH1 0x24 CALLDATALOAD SWAP1 PUSH1 0x1 PUSH1 0x1 PUSH1 0xA0 SHL SUB DUP3 AND DUP3 SUB PUSH2 0x1D15 JUMPI JUMP JUMPDEST PUSH1 0x0 DUP1 REVERT JUMPDEST PUSH1 0x4 CALLDATALOAD SWAP1 PUSH1 0x1 PUSH1 0x1 PUSH1 0xA0 SHL SUB DUP3 AND DUP3 SUB PUSH2 0x1D15 JUMPI JUMP JUMPDEST SWAP2 DUP2 PUSH1 0x1F DUP5 ADD SLT ISZERO PUSH2 0x1D15 JUMPI DUP3 CALLDATALOAD SWAP2 PUSH8 0xFFFFFFFFFFFFFFFF DUP4 GT PUSH2 0x1D15 JUMPI PUSH1 0x20 DUP4 DUP2 DUP7 ADD SWAP6 ADD ADD GT PUSH2 0x1D15 JUMPI JUMP JUMPDEST PUSH1 0x0 SLOAD PUSH1 0x1 PUSH1 0x1 PUSH1 0xA0 SHL SUB AND CALLER SUB PUSH2 0x1D72 JUMPI JUMP JUMPDEST PUSH1 0x40 MLOAD PUSH4 0x118CDAA7 PUSH1 0xE0 SHL DUP2 MSTORE CALLER PUSH1 0x4 DUP3 ADD MSTORE PUSH1 0x24 SWAP1 REVERT JUMPDEST PUSH1 0x0 NOT DUP2 EQ PUSH2 0x1D99 JUMPI PUSH1 0x1 ADD SWAP1 JUMP JUMPDEST PUSH4 0x4E487B71 PUSH1 0xE0 SHL PUSH1 0x0 MSTORE PUSH1 0x11 PUSH1 0x4 MSTORE PUSH1 0x24 PUSH1 0x0 REVERT JUMPDEST SWAP1 PUSH1 0x1 DUP3 DUP2 SHR SWAP3 AND DUP1 ISZERO PUSH2 0x1DDF JUMPI JUMPDEST PUSH1 0x20 DUP4 LT EQ PUSH2 0x1DC9 JUMPI JUMP JUMPDEST PUSH4 0x4E487B71 PUSH1 0xE0 SHL PUSH1 0x0 MSTORE PUSH1 0x22 PUSH1 0x4 MSTORE PUSH1 0x24 PUSH1 0x0 REVERT JUMPDEST SWAP2 PUSH1 0x7F AND SWAP2 PUSH2 0x1DBE JUMP JUMPDEST DUP1 SLOAD DUP3 LT ISZERO PUSH2 0x1E01 JUMPI PUSH1 0x0 MSTORE PUSH1 0x20 PUSH1 0x0 KECCAK256 ADD SWAP1 PUSH1 0x0 SWAP1 JUMP JUMPDEST PUSH4 0x4E487B71 PUSH1 0xE0 SHL PUSH1 0x0 MSTORE PUSH1 0x32 PUSH1 0x4 MSTORE PUSH1 0x24 PUSH1 0x0 REVERT JUMPDEST DUP1 SLOAD PUSH9 0x10000000000000000 DUP2 LT ISZERO PUSH2 0x1E51 JUMPI PUSH2 0x1E39 SWAP2 PUSH1 0x1 DUP3 ADD DUP2 SSTORE PUSH2 0x1DE9 JUMP JUMPDEST DUP2 SWAP3 SWAP2 SLOAD SWAP1 PUSH1 0x3 SHL SWAP2 DUP3 SHL SWAP2 PUSH1 0x0 NOT SWAP1 SHL NOT AND OR SWAP1 SSTORE JUMP JUMPDEST PUSH4 0x4E487B71 PUSH1 0xE0 SHL PUSH1 0x0 MSTORE PUSH1 0x41 PUSH1 0x4 MSTORE PUSH1 0x24 PUSH1 0x0 REVERT JUMPDEST PUSH8 0xFFFFFFFFFFFFFFFF DUP2 GT PUSH2 0x1E51 JUMPI PUSH1 0x40 MSTORE JUMP JUMPDEST PUSH2 0x1E0 DUP2 ADD SWAP1 DUP2 LT PUSH8 0xFFFFFFFFFFFFFFFF DUP3 GT OR PUSH2 0x1E51 JUMPI PUSH1 0x40 MSTORE JUMP JUMPDEST SWAP1 PUSH1 0x1F DUP1 NOT SWAP2 ADD AND DUP2 ADD SWAP1 DUP2 LT PUSH8 0xFFFFFFFFFFFFFFFF DUP3 GT OR PUSH2 0x1E51 JUMPI PUSH1 0x40 MSTORE JUMP JUMPDEST SWAP1 DUP1 PUSH1 0x20 SWAP4 SWAP3 DUP2 DUP5 MSTORE DUP5 DUP5 ADD CALLDATACOPY PUSH1 0x0 DUP3 DUP3 ADD DUP5 ADD MSTORE PUSH1 0x1F ADD PUSH1 0x1F NOT AND ADD ADD SWAP1 JUMP JUMPDEST ISZERO PUSH2 0x1EE2 JUMPI JUMP JUMPDEST PUSH1 0x40 MLOAD PUSH3 0x461BCD PUSH1 0xE5 SHL DUP2 MSTORE PUSH1 0x20 PUSH1 0x4 DUP3 ADD MSTORE PUSH1 0x11 PUSH1 0x24 DUP3 ADD MSTORE PUSH17 0x111A5CDC1D5D19481B9BDD08199BDD5B99 PUSH1 0x7A SHL PUSH1 0x44 DUP3 ADD MSTORE PUSH1 0x64 SWAP1 REVERT JUMPDEST PUSH1 0x2 PUSH1 0x1 SLOAD EQ PUSH2 0x1F2C JUMPI PUSH1 0x2 PUSH1 0x1 SSTORE JUMP JUMPDEST PUSH1 0x40 MLOAD PUSH4 0x3EE5AEB5 PUSH1 0xE0 SHL DUP2 MSTORE PUSH1 0x4 SWAP1 REVERT JUMPDEST ISZERO PUSH2 0x1F45 JUMPI JUMP JUMPDEST PUSH1 0x40 MLOAD PUSH3 0x461BCD PUSH1 0xE5 SHL DUP2 MSTORE PUSH1 0x20 PUSH1 0x4 DUP3 ADD MSTORE PUSH1 0x10 PUSH1 0x24 DUP3 ADD MSTORE PUSH16 0x105B1C9958591E481C995CDBDB1D9959 PUSH1 0x82 SHL PUSH1 0x44 DUP3 ADD MSTORE PUSH1 0x64 SWAP1 REVERT JUMPDEST SWAP3 PUSH1 0x60 SWAP3 SWAP6 SWAP5 SWAP2 SWAP6 PUSH1 0x80 DUP6 ADD SWAP7 DUP6 MSTORE PUSH1 0x20 DUP6 ADD MSTORE PUSH2 0x1F9A DUP2 PUSH2 0x1B8F JUMP JUMPDEST PUSH1 0x40 DUP5 ADD MSTORE PUSH1 0x1 PUSH1 0x1 PUSH1 0xA0 SHL SUB AND SWAP2 ADD MSTORE JUMP JUMPDEST PUSH2 0x1FB6 DUP2 PUSH2 0x1B8F JUMP JUMPDEST ISZERO PUSH2 0x1FC0 JUMPI PUSH1 0x1 SWAP1 JUMP JUMPDEST PUSH1 0x0 SWAP1 JUMP JUMPDEST PUSH1 0x40 MLOAD SWAP1 PUSH2 0x1FD2 DUP3 PUSH2 0x1E7B JUMP JUMPDEST DUP2 PUSH2 0x1C0 PUSH1 0x0 SWAP2 DUP3 DUP2 MSTORE DUP3 PUSH1 0x20 DUP3 ADD MSTORE DUP3 PUSH1 0x40 DUP3 ADD MSTORE DUP3 PUSH1 0x60 DUP3 ADD MSTORE PUSH1 0x60 PUSH1 0x80 DUP3 ADD MSTORE DUP3 PUSH1 0xA0 DUP3 ADD MSTORE PUSH1 0x60 PUSH1 0xC0 DUP3 ADD MSTORE PUSH1 0x60 PUSH1 0xE0 DUP3 ADD MSTORE DUP3 PUSH2 0x100 DUP3 ADD MSTORE DUP3 PUSH2 0x120 DUP3 ADD MSTORE DUP3 PUSH2 0x140 DUP3 ADD MSTORE DUP3 PUSH2 0x160 DUP3 ADD MSTORE DUP3 PUSH2 0x180 DUP3 ADD MSTORE DUP3 PUSH2 0x1A0 DUP3 ADD MSTORE ADD MSTORE JUMP JUMPDEST SWAP1 PUSH1 0x40 MLOAD SWAP2 DUP3 PUSH1 0x0 DUP3 SLOAD SWAP3 PUSH2 0x204B DUP5 PUSH2 0x1DAF JUMP JUMPDEST SWAP1 DUP2 DUP5 MSTORE PUSH1 0x1 SWAP5 DUP6 DUP2 AND SWAP1 DUP2 PUSH1 0x0 EQ PUSH2 0x20BA JUMPI POP PUSH1 0x1 EQ PUSH2 0x2077 JUMPI JUMPDEST POP POP PUSH2 0x2075 SWAP3 POP SUB DUP4 PUSH2 0x1E98 JUMP JUMPDEST JUMP JUMPDEST SWAP1 SWAP4 SWAP2 POP PUSH1 0x0 MSTORE PUSH1 0x20 SWAP1 DUP2 PUSH1 0x0 KECCAK256 SWAP4 PUSH1 0x0 SWAP2 JUMPDEST DUP2 DUP4 LT PUSH2 0x20A2 JUMPI POP POP PUSH2 0x2075 SWAP4 POP DUP3 ADD ADD CODESIZE DUP1 PUSH2 0x2067 JUMP JUMPDEST DUP6 SLOAD DUP9 DUP5 ADD DUP6 ADD MSTORE SWAP5 DUP6 ADD SWAP5 DUP8 SWAP5 POP SWAP2 DUP4 ADD SWAP2 PUSH2 0x208A JUMP JUMPDEST SWAP2 POP POP PUSH2 0x2075 SWAP5 POP PUSH1 0x20 SWAP3 POP PUSH1 0xFF NOT AND DUP3 DUP5 ADD MSTORE ISZERO ISZERO PUSH1 0x5 SHL DUP3 ADD ADD CODESIZE DUP1 PUSH2 0x2067 JUMP JUMPDEST SWAP1 PUSH1 0x40 MLOAD PUSH2 0x20EA DUP2 PUSH2 0x1E7B JUMP JUMPDEST DUP3 SLOAD DUP2 MSTORE PUSH1 0x1 DUP4 ADD SLOAD PUSH1 0x20 DUP3 ADD MSTORE PUSH1 0x2 DUP4 ADD SLOAD PUSH1 0x1 PUSH1 0x1 PUSH1 0xA0 SHL SUB SWAP1 DUP2 AND PUSH1 0x40 DUP4 ADD MSTORE PUSH1 0x3 DUP5 ADD SLOAD DUP2 AND PUSH1 0x60 DUP4 ADD MSTORE SWAP1 SWAP3 DUP4 SWAP2 PUSH2 0x2129 PUSH1 0x4 DUP4 ADD PUSH2 0x2037 JUMP JUMPDEST PUSH1 0x80 DUP5 ADD MSTORE PUSH1 0x5 DUP3 ADD SLOAD PUSH1 0xA0 DUP5 ADD MSTORE PUSH2 0x2144 PUSH1 0x6 DUP4 ADD PUSH2 0x2037 JUMP JUMPDEST PUSH1 0xC0 DUP5 ADD MSTORE PUSH2 0x2155 PUSH1 0x7 DUP4 ADD PUSH2 0x2037 JUMP JUMPDEST PUSH1 0xE0 DUP5 ADD MSTORE PUSH1 0xFF PUSH1 0x8 DUP4 ADD SLOAD AND PUSH2 0x216B DUP2 PUSH2 0x1B8F JUMP JUMPDEST PUSH2 0x100 DUP5 ADD MSTORE PUSH1 0x9 DUP3 ADD SLOAD PUSH2 0x120 DUP5 ADD MSTORE PUSH1 0xA DUP3 ADD SLOAD PUSH2 0x140 DUP5 ADD MSTORE PUSH1 0xB DUP3 ADD SLOAD SWAP2 PUSH1 0xFF DUP4 AND PUSH1 0x5 DUP2 LT ISZERO PUSH2 0x1B99 JUMPI PUSH2 0x1C0 SWAP4 PUSH1 0xC SWAP4 PUSH1 0xFF SWAP3 PUSH2 0x160 DUP9 ADD MSTORE DUP2 PUSH1 0x8 SHR AND PUSH2 0x180 DUP8 ADD MSTORE PUSH1 0xA8 SHR AND ISZERO ISZERO PUSH2 0x1A0 DUP6 ADD MSTORE ADD SLOAD SWAP2 ADD MSTORE JUMP JUMPDEST PUSH8 0xFFFFFFFFFFFFFFFF DUP2 GT PUSH2 0x1E51 JUMPI PUSH1 0x5 SHL PUSH1 0x20 ADD SWAP1 JUMP JUMPDEST SWAP1 PUSH2 0x21EA DUP3 PUSH2 0x21C8 JUMP JUMPDEST PUSH2 0x21F7 PUSH1 0x40 MLOAD SWAP2 DUP3 PUSH2 0x1E98 JUMP JUMPDEST DUP3 DUP2 MSTORE DUP1 SWAP3 PUSH2 0x2208 PUSH1 0x1F NOT SWAP2 PUSH2 0x21C8 JUMP JUMPDEST ADD SWAP1 PUSH1 0x0 JUMPDEST DUP3 DUP2 LT PUSH2 0x2219 JUMPI POP POP POP JUMP JUMPDEST PUSH1 0x20 SWAP1 PUSH2 0x2224 PUSH2 0x1FC5 JUMP JUMPDEST DUP3 DUP3 DUP6 ADD ADD MSTORE ADD PUSH2 0x220D JUMP JUMPDEST DUP1 MLOAD DUP3 LT ISZERO PUSH2 0x1E01 JUMPI PUSH1 0x20 SWAP2 PUSH1 0x5 SHL ADD ADD SWAP1 JUMP INVALID LOG2 PUSH5 0x6970667358 0x22 SLT KECCAK256 0xB5 DUP15 SSTORE 0xC6 0x4D PUSH32 0xB4C23F02BF0F70F1D550D0A0678C65507312FBBD72BCDF0EEA0864736F6C6343 STOP ADDMOD EQ STOP CALLER "},"methodIdentifiers":{"addDaoMember(address)":"864defa2","autoResolveDispute(uint256)":"802f022c","createDispute(uint256,address,string,uint256,string,string,uint8)":"9ff2369f","daoMembers(address)":"959068ea","daoTreasury()":"79022a9f","disputeCreationFee()":"bd0d429a","disputeVotes(uint256,address)":"203d82cb","escrowContract()":"e42a96e7","getAllDisputes()":"1dd9997f","getDispute(uint256)":"e3a96cbd","getDisputeOutcome(uint256)":"39f0a711","getDisputesByReason(uint8)":"b699e4ed","getOpenDisputes()":"9d28c026","getUserDisputes(address)":"bfb0a55b","markDisputeExecuted(uint256)":"57857395","nextDisputeId()":"0db39934","owner()":"8da5cb5b","quorum()":"1703a018","removeDaoMember(address)":"5feaa01c","renounceOwnership()":"715018a6","requiresDAOVote(uint8)":"24bfe9c9","setDaoTreasury(address)":"a124df5d","setDisputeCreationFee(uint256)":"dc726df7","setEscrowContract(address)":"f42375b5","setQuorum(uint256)":"c1ba4e59","transferOwnership(address)":"f2fde38b","voteOnDispute(uint256,bool)":"a4f5df12"}}}}}