{"contracts/libraries/FeeCalculator.sol":{"FeeCalculator":{"abi":[{"inputs":[],"name":"EARLY_WITHDRAWAL_FEE","outputs":[{"internalType":"uint256","name":"","type":"uint256"}],"stateMutability":"view","type":"function"},{"inputs":[],"name":"LATE_DELIVERY_FEE","outputs":[{"internalType":"uint256","name":"","type":"uint256"}],"stateMutability":"view","type":"function"},{"inputs":[],"name":"NORMAL_FEE","outputs":[{"internalType":"uint256","name":"","type":"uint256"}],"stateMutability":"view","type":"function"},{"inputs":[],"name":"PCT_BASE","outputs":[{"internalType":"uint256","name":"","type":"uint256"}],"stateMutability":"view","type":"function"}],"evm":{"bytecode":{"linkReferences":{},"object":"608080604052346100195760db908161001f823930815050f35b600080fdfe6080806040526004361015601257600080fd5b600090813560e01c9081632c72eb0b14608c5750806353ae00ad146076578063d0b7f3be1460605763fc157cb414604857600080fd5b80600319360112605d57602060405160648152f35b80fd5b5080600319360112605d57602060405160078152f35b5080600319360112605d57602060405160058152f35b90508160031936011260a15780600a60209252f35b5080fdfea2646970667358221220227b977cbe4e7786ef5ddd6b247582635f02685ba93cf5008c61490ad02fad3764736f6c63430008140033","opcodes":"PUSH1 0x80 DUP1 PUSH1 0x40 MSTORE CALLVALUE PUSH2 0x19 JUMPI PUSH1 0xDB SWAP1 DUP2 PUSH2 0x1F DUP3 CODECOPY ADDRESS DUP2 POP POP RETURN JUMPDEST PUSH1 0x0 DUP1 REVERT INVALID PUSH1 0x80 DUP1 PUSH1 0x40 MSTORE PUSH1 0x4 CALLDATASIZE LT ISZERO PUSH1 0x12 JUMPI PUSH1 0x0 DUP1 REVERT JUMPDEST PUSH1 0x0 SWAP1 DUP2 CALLDATALOAD PUSH1 0xE0 SHR SWAP1 DUP2 PUSH4 0x2C72EB0B EQ PUSH1 0x8C JUMPI POP DUP1 PUSH4 0x53AE00AD EQ PUSH1 0x76 JUMPI DUP1 PUSH4 0xD0B7F3BE EQ PUSH1 0x60 JUMPI PUSH4 0xFC157CB4 EQ PUSH1 0x48 JUMPI PUSH1 0x0 DUP1 REVERT JUMPDEST DUP1 PUSH1 0x3 NOT CALLDATASIZE ADD SLT PUSH1 0x5D JUMPI PUSH1 0x20 PUSH1 0x40 MLOAD PUSH1 0x64 DUP2 MSTORE RETURN JUMPDEST DUP1 REVERT JUMPDEST POP DUP1 PUSH1 0x3 NOT CALLDATASIZE ADD SLT PUSH1 0x5D JUMPI PUSH1 0x20 PUSH1 0x40 MLOAD PUSH1 0x7 DUP2 MSTORE RETURN JUMPDEST POP DUP1 PUSH1 0x3 NOT CALLDATASIZE ADD SLT PUSH1 0x5D JUMPI PUSH1 0x20 PUSH1 0x40 MLOAD PUSH1 0x5 DUP2 MSTORE RETURN JUMPDEST SWAP1 POP DUP2 PUSH1 0x3 NOT CALLDATASIZE ADD SLT PUSH1 0xA1 JUMPI DUP1 PUSH1 0xA PUSH1 0x20 SWAP3 MSTORE RETURN JUMPDEST POP DUP1 REVERT INVALID LOG2 PUSH5 0x6970667358 0x22 SLT KECCAK256 0x22 PUSH28 0x977CBE4E7786EF5DDD6B247582635F02685BA93CF5008C61490AD02F 0xAD CALLDATACOPY PUSH5 0x736F6C6343 STOP ADDMOD EQ STOP CALLER "},"methodIdentifiers":{"EARLY_WITHDRAWAL_FEE()":"2c72eb0b","LATE_DELIVERY_FEE()":"d0b7f3be","NORMAL_FEE()":"53ae00ad","PCT_BASE()":"fc157cb4"}}}}}