{
  "_format": "hh-sol-artifact-1",
  "contractName": "FreeLanceDAOEscrowPayment",
  "sourceName": "contracts/FreeLanceDAOEscrowPayment.sol",
  "abi": [
    {
      "inputs": [
        {
          "internalType": "address",
          "name": "_daoTreasury",
          "type": "address"
        },
        {
          "internalType": "uint256",
          "name": "_daoFeePct",
          "type": "uint256"
        },
        {
          "internalType": "address",
          "name": "_owner",
          "type": "address"
        }
      ],
      "stateMutability": "nonpayable",
      "type": "constructor"
    },
    {
      "inputs": [
        {
          "internalType": "address",
          "name": "owner",
          "type": "address"
        }
      ],
      "name": "OwnableInvalidOwner",
      "type": "error"
    },
    {
      "inputs": [
        {
          "internalType": "address",
          "name": "account",
          "type": "address"
        }
      ],
      "name": "OwnableUnauthorizedAccount",
      "type": "error"
    },
    {
      "inputs": [],
      "name": "ReentrancyGuardReentrantCall",
      "type": "error"
    },
    {
      "anonymous": false,
      "inputs": [
        {
          "indexed": false,
          "internalType": "uint256",
          "name": "oldPct",
          "type": "uint256"
        },
        {
          "indexed": false,
          "internalType": "uint256",
          "name": "newPct",
          "type": "uint256"
        }
      ],
      "name": "DaoFeePctUpdated",
      "type": "event"
    },
    {
      "anonymous": false,
      "inputs": [
        {
          "indexed": false,
          "internalType": "address",
          "name": "oldTreasury",
          "type": "address"
        },
        {
          "indexed": false,
          "internalType": "address",
          "name": "newTreasury",
          "type": "address"
        }
      ],
      "name": "DaoTreasuryUpdated",
      "type": "event"
    },
    {
      "anonymous": false,
      "inputs": [
        {
          "indexed": true,
          "internalType": "uint256",
          "name": "jobId",
          "type": "uint256"
        },
        {
          "indexed": true,
          "internalType": "uint256",
          "name": "milestoneIndex",
          "type": "uint256"
        },
        {
          "indexed": true,
          "internalType": "address",
          "name": "provider",
          "type": "address"
        }
      ],
      "name": "DeliveryMarked",
      "type": "event"
    },
    {
      "anonymous": false,
      "inputs": [
        {
          "indexed": true,
          "internalType": "uint256",
          "name": "jobId",
          "type": "uint256"
        },
        {
          "indexed": false,
          "internalType": "uint256",
          "name": "amountNet",
          "type": "uint256"
        },
        {
          "indexed": false,
          "internalType": "uint256",
          "name": "daoFee",
          "type": "uint256"
        }
      ],
      "name": "FixedJobReleased",
      "type": "event"
    },
    {
      "anonymous": false,
      "inputs": [
        {
          "indexed": true,
          "internalType": "uint256",
          "name": "jobId",
          "type": "uint256"
        }
      ],
      "name": "JobCancelled",
      "type": "event"
    },
    {
      "anonymous": false,
      "inputs": [
        {
          "indexed": true,
          "internalType": "uint256",
          "name": "jobId",
          "type": "uint256"
        },
        {
          "indexed": false,
          "internalType": "enum FreeLanceDAOEscrowPayment.JobType",
          "name": "jobType",
          "type": "uint8"
        },
        {
          "indexed": true,
          "internalType": "address",
          "name": "client",
          "type": "address"
        },
        {
          "indexed": false,
          "internalType": "uint256",
          "name": "totalAmount",
          "type": "uint256"
        }
      ],
      "name": "JobCreated",
      "type": "event"
    },
    {
      "anonymous": false,
      "inputs": [
        {
          "indexed": true,
          "internalType": "uint256",
          "name": "jobId",
          "type": "uint256"
        },
        {
          "indexed": false,
          "internalType": "uint256",
          "name": "amount",
          "type": "uint256"
        }
      ],
      "name": "JobFunded",
      "type": "event"
    },
    {
      "anonymous": false,
      "inputs": [
        {
          "indexed": true,
          "internalType": "uint256",
          "name": "jobId",
          "type": "uint256"
        },
        {
          "indexed": false,
          "internalType": "uint256",
          "name": "refundedAmount",
          "type": "uint256"
        }
      ],
      "name": "JobRefunded",
      "type": "event"
    },
    {
      "anonymous": false,
      "inputs": [
        {
          "indexed": true,
          "internalType": "uint256",
          "name": "jobId",
          "type": "uint256"
        },
        {
          "indexed": true,
          "internalType": "uint256",
          "name": "milestoneIndex",
          "type": "uint256"
        },
        {
          "indexed": false,
          "internalType": "uint256",
          "name": "amountNet",
          "type": "uint256"
        },
        {
          "indexed": false,
          "internalType": "uint256",
          "name": "daoFee",
          "type": "uint256"
        }
      ],
      "name": "MilestoneReleased",
      "type": "event"
    },
    {
      "anonymous": false,
      "inputs": [
        {
          "indexed": true,
          "internalType": "address",
          "name": "previousOwner",
          "type": "address"
        },
        {
          "indexed": true,
          "internalType": "address",
          "name": "newOwner",
          "type": "address"
        }
      ],
      "name": "OwnershipTransferred",
      "type": "event"
    },
    {
      "anonymous": false,
      "inputs": [
        {
          "indexed": true,
          "internalType": "uint256",
          "name": "jobId",
          "type": "uint256"
        },
        {
          "indexed": true,
          "internalType": "address",
          "name": "provider",
          "type": "address"
        }
      ],
      "name": "ProviderApproved",
      "type": "event"
    },
    {
      "anonymous": false,
      "inputs": [
        {
          "indexed": true,
          "internalType": "uint256",
          "name": "jobId",
          "type": "uint256"
        },
        {
          "indexed": true,
          "internalType": "address",
          "name": "provider",
          "type": "address"
        }
      ],
      "name": "ProviderRequested",
      "type": "event"
    },
    {
      "anonymous": false,
      "inputs": [
        {
          "indexed": false,
          "internalType": "address",
          "name": "to",
          "type": "address"
        },
        {
          "indexed": false,
          "internalType": "uint256",
          "name": "amount",
          "type": "uint256"
        }
      ],
      "name": "WithdrawDaoFees",
      "type": "event"
    },
    {
      "stateMutability": "payable",
      "type": "fallback"
    },
    {
      "inputs": [],
      "name": "PCT_BASE",
      "outputs": [
        {
          "internalType": "uint256",
          "name": "",
          "type": "uint256"
        }
      ],
      "stateMutability": "view",
      "type": "function"
    },
    {
      "inputs": [
        {
          "internalType": "uint256",
          "name": "jobId",
          "type": "uint256"
        }
      ],
      "name": "adminRefundJob",
      "outputs": [],
      "stateMutability": "nonpayable",
      "type": "function"
    },
    {
      "inputs": [
        {
          "internalType": "uint256",
          "name": "jobId",
          "type": "uint256"
        },
        {
          "internalType": "address",
          "name": "provider",
          "type": "address"
        }
      ],
      "name": "approveProvider",
      "outputs": [],
      "stateMutability": "nonpayable",
      "type": "function"
    },
    {
      "inputs": [
        {
          "internalType": "uint256",
          "name": "jobId",
          "type": "uint256"
        }
      ],
      "name": "cancelJob",
      "outputs": [],
      "stateMutability": "nonpayable",
      "type": "function"
    },
    {
      "inputs": [
        {
          "internalType": "uint256",
          "name": "jobId",
          "type": "uint256"
        }
      ],
      "name": "confirmFixedJob",
      "outputs": [],
      "stateMutability": "nonpayable",
      "type": "function"
    },
    {
      "inputs": [
        {
          "components": [
            {
              "internalType": "string",
              "name": "jobTitle",
              "type": "string"
            },
            {
              "internalType": "string",
              "name": "jobCategory",
              "type": "string"
            },
            {
              "internalType": "string",
              "name": "projectDescription",
              "type": "string"
            },
            {
              "internalType": "string[]",
              "name": "requiredSkills",
              "type": "string[]"
            },
            {
              "internalType": "string",
              "name": "projectDuration",
              "type": "string"
            },
            {
              "internalType": "uint256",
              "name": "minimumBudget",
              "type": "uint256"
            },
            {
              "internalType": "uint256",
              "name": "maximumBudget",
              "type": "uint256"
            }
          ],
          "internalType": "struct FreeLanceDAOEscrowPayment.JobParams",
          "name": "params",
          "type": "tuple"
        }
      ],
      "name": "createFixedJob",
      "outputs": [
        {
          "internalType": "uint256",
          "name": "",
          "type": "uint256"
        }
      ],
      "stateMutability": "payable",
      "type": "function"
    },
    {
      "inputs": [
        {
          "internalType": "uint256[]",
          "name": "milestoneAmounts",
          "type": "uint256[]"
        },
        {
          "components": [
            {
              "internalType": "string",
              "name": "jobTitle",
              "type": "string"
            },
            {
              "internalType": "string",
              "name": "jobCategory",
              "type": "string"
            },
            {
              "internalType": "string",
              "name": "projectDescription",
              "type": "string"
            },
            {
              "internalType": "string[]",
              "name": "requiredSkills",
              "type": "string[]"
            },
            {
              "internalType": "string",
              "name": "projectDuration",
              "type": "string"
            },
            {
              "internalType": "uint256",
              "name": "minimumBudget",
              "type": "uint256"
            },
            {
              "internalType": "uint256",
              "name": "maximumBudget",
              "type": "uint256"
            }
          ],
          "internalType": "struct FreeLanceDAOEscrowPayment.JobParams",
          "name": "params",
          "type": "tuple"
        }
      ],
      "name": "createMilestoneJob",
      "outputs": [
        {
          "internalType": "uint256",
          "name": "",
          "type": "uint256"
        }
      ],
      "stateMutability": "payable",
      "type": "function"
    },
    {
      "inputs": [],
      "name": "daoFeePct",
      "outputs": [
        {
          "internalType": "uint256",
          "name": "",
          "type": "uint256"
        }
      ],
      "stateMutability": "view",
      "type": "function"
    },
    {
      "inputs": [],
      "name": "daoTreasury",
      "outputs": [
        {
          "internalType": "address",
          "name": "",
          "type": "address"
        }
      ],
      "stateMutability": "view",
      "type": "function"
    },
    {
      "inputs": [
        {
          "internalType": "uint256",
          "name": "jobId",
          "type": "uint256"
        }
      ],
      "name": "fundJob",
      "outputs": [],
      "stateMutability": "payable",
      "type": "function"
    },
    {
      "inputs": [],
      "name": "getAllJobs",
      "outputs": [
        {
          "components": [
            {
              "internalType": "uint256",
              "name": "jobId",
              "type": "uint256"
            },
            {
              "internalType": "enum FreeLanceDAOEscrowPayment.JobType",
              "name": "jobType",
              "type": "uint8"
            },
            {
              "internalType": "address",
              "name": "client",
              "type": "address"
            },
            {
              "internalType": "address",
              "name": "freelancer",
              "type": "address"
            },
            {
              "internalType": "uint256",
              "name": "totalAmount",
              "type": "uint256"
            },
            {
              "internalType": "uint256",
              "name": "minimumBudget",
              "type": "uint256"
            },
            {
              "internalType": "uint256",
              "name": "maximumBudget",
              "type": "uint256"
            },
            {
              "internalType": "uint256",
              "name": "releasedAmount",
              "type": "uint256"
            },
            {
              "internalType": "uint256",
              "name": "createdAt",
              "type": "uint256"
            },
            {
              "internalType": "enum FreeLanceDAOEscrowPayment.Status",
              "name": "status",
              "type": "uint8"
            },
            {
              "internalType": "bool",
              "name": "funded",
              "type": "bool"
            },
            {
              "components": [
                {
                  "internalType": "uint256",
                  "name": "amount",
                  "type": "uint256"
                },
                {
                  "internalType": "bool",
                  "name": "released",
                  "type": "bool"
                },
                {
                  "internalType": "bool",
                  "name": "delivered",
                  "type": "bool"
                }
              ],
              "internalType": "struct FreeLanceDAOEscrowPayment.Milestone[]",
              "name": "milestones",
              "type": "tuple[]"
            },
            {
              "internalType": "string",
              "name": "jobTitle",
              "type": "string"
            },
            {
              "internalType": "string",
              "name": "jobCategory",
              "type": "string"
            },
            {
              "internalType": "string",
              "name": "projectDescription",
              "type": "string"
            },
            {
              "internalType": "string[]",
              "name": "requiredSkills",
              "type": "string[]"
            },
            {
              "internalType": "string",
              "name": "projectDuration",
              "type": "string"
            },
            {
              "internalType": "bool",
              "name": "confirmed",
              "type": "bool"
            },
            {
              "internalType": "bool",
              "name": "exists",
              "type": "bool"
            },
            {
              "internalType": "bool",
              "name": "feeTaken",
              "type": "bool"
            }
          ],
          "internalType": "struct FreeLanceDAOEscrowPayment.Job[]",
          "name": "",
          "type": "tuple[]"
        }
      ],
      "stateMutability": "view",
      "type": "function"
    },
    {
      "inputs": [
        {
          "internalType": "uint256",
          "name": "jobId",
          "type": "uint256"
        }
      ],
      "name": "getJob",
      "outputs": [
        {
          "components": [
            {
              "internalType": "uint256",
              "name": "jobId",
              "type": "uint256"
            },
            {
              "internalType": "enum FreeLanceDAOEscrowPayment.JobType",
              "name": "jobType",
              "type": "uint8"
            },
            {
              "internalType": "address",
              "name": "client",
              "type": "address"
            },
            {
              "internalType": "address",
              "name": "freelancer",
              "type": "address"
            },
            {
              "internalType": "uint256",
              "name": "totalAmount",
              "type": "uint256"
            },
            {
              "internalType": "uint256",
              "name": "minimumBudget",
              "type": "uint256"
            },
            {
              "internalType": "uint256",
              "name": "maximumBudget",
              "type": "uint256"
            },
            {
              "internalType": "uint256",
              "name": "releasedAmount",
              "type": "uint256"
            },
            {
              "internalType": "uint256",
              "name": "createdAt",
              "type": "uint256"
            },
            {
              "internalType": "enum FreeLanceDAOEscrowPayment.Status",
              "name": "status",
              "type": "uint8"
            },
            {
              "internalType": "bool",
              "name": "funded",
              "type": "bool"
            },
            {
              "components": [
                {
                  "internalType": "uint256",
                  "name": "amount",
                  "type": "uint256"
                },
                {
                  "internalType": "bool",
                  "name": "released",
                  "type": "bool"
                },
                {
                  "internalType": "bool",
                  "name": "delivered",
                  "type": "bool"
                }
              ],
              "internalType": "struct FreeLanceDAOEscrowPayment.Milestone[]",
              "name": "milestones",
              "type": "tuple[]"
            },
            {
              "internalType": "string",
              "name": "jobTitle",
              "type": "string"
            },
            {
              "internalType": "string",
              "name": "jobCategory",
              "type": "string"
            },
            {
              "internalType": "string",
              "name": "projectDescription",
              "type": "string"
            },
            {
              "internalType": "string[]",
              "name": "requiredSkills",
              "type": "string[]"
            },
            {
              "internalType": "string",
              "name": "projectDuration",
              "type": "string"
            },
            {
              "internalType": "bool",
              "name": "confirmed",
              "type": "bool"
            },
            {
              "internalType": "bool",
              "name": "exists",
              "type": "bool"
            },
            {
              "internalType": "bool",
              "name": "feeTaken",
              "type": "bool"
            }
          ],
          "internalType": "struct FreeLanceDAOEscrowPayment.Job",
          "name": "",
          "type": "tuple"
        }
      ],
      "stateMutability": "view",
      "type": "function"
    },
    {
      "inputs": [
        {
          "internalType": "address",
          "name": "client",
          "type": "address"
        }
      ],
      "name": "getJobsByClient",
      "outputs": [
        {
          "components": [
            {
              "internalType": "uint256",
              "name": "jobId",
              "type": "uint256"
            },
            {
              "internalType": "enum FreeLanceDAOEscrowPayment.JobType",
              "name": "jobType",
              "type": "uint8"
            },
            {
              "internalType": "address",
              "name": "client",
              "type": "address"
            },
            {
              "internalType": "address",
              "name": "freelancer",
              "type": "address"
            },
            {
              "internalType": "uint256",
              "name": "totalAmount",
              "type": "uint256"
            },
            {
              "internalType": "uint256",
              "name": "minimumBudget",
              "type": "uint256"
            },
            {
              "internalType": "uint256",
              "name": "maximumBudget",
              "type": "uint256"
            },
            {
              "internalType": "uint256",
              "name": "releasedAmount",
              "type": "uint256"
            },
            {
              "internalType": "uint256",
              "name": "createdAt",
              "type": "uint256"
            },
            {
              "internalType": "enum FreeLanceDAOEscrowPayment.Status",
              "name": "status",
              "type": "uint8"
            },
            {
              "internalType": "bool",
              "name": "funded",
              "type": "bool"
            },
            {
              "components": [
                {
                  "internalType": "uint256",
                  "name": "amount",
                  "type": "uint256"
                },
                {
                  "internalType": "bool",
                  "name": "released",
                  "type": "bool"
                },
                {
                  "internalType": "bool",
                  "name": "delivered",
                  "type": "bool"
                }
              ],
              "internalType": "struct FreeLanceDAOEscrowPayment.Milestone[]",
              "name": "milestones",
              "type": "tuple[]"
            },
            {
              "internalType": "string",
              "name": "jobTitle",
              "type": "string"
            },
            {
              "internalType": "string",
              "name": "jobCategory",
              "type": "string"
            },
            {
              "internalType": "string",
              "name": "projectDescription",
              "type": "string"
            },
            {
              "internalType": "string[]",
              "name": "requiredSkills",
              "type": "string[]"
            },
            {
              "internalType": "string",
              "name": "projectDuration",
              "type": "string"
            },
            {
              "internalType": "bool",
              "name": "confirmed",
              "type": "bool"
            },
            {
              "internalType": "bool",
              "name": "exists",
              "type": "bool"
            },
            {
              "internalType": "bool",
              "name": "feeTaken",
              "type": "bool"
            }
          ],
          "internalType": "struct FreeLanceDAOEscrowPayment.Job[]",
          "name": "",
          "type": "tuple[]"
        }
      ],
      "stateMutability": "view",
      "type": "function"
    },
    {
      "inputs": [
        {
          "internalType": "uint256",
          "name": "jobId",
          "type": "uint256"
        },
        {
          "internalType": "uint256",
          "name": "idx",
          "type": "uint256"
        }
      ],
      "name": "getMilestone",
      "outputs": [
        {
          "internalType": "uint256",
          "name": "amount",
          "type": "uint256"
        },
        {
          "internalType": "bool",
          "name": "released",
          "type": "bool"
        },
        {
          "internalType": "bool",
          "name": "delivered",
          "type": "bool"
        }
      ],
      "stateMutability": "view",
      "type": "function"
    },
    {
      "inputs": [
        {
          "internalType": "uint256",
          "name": "jobId",
          "type": "uint256"
        },
        {
          "internalType": "uint256",
          "name": "milestoneIndex",
          "type": "uint256"
        }
      ],
      "name": "markDelivery",
      "outputs": [],
      "stateMutability": "nonpayable",
      "type": "function"
    },
    {
      "inputs": [
        {
          "internalType": "uint256",
          "name": "jobId",
          "type": "uint256"
        }
      ],
      "name": "markDisputed",
      "outputs": [],
      "stateMutability": "nonpayable",
      "type": "function"
    },
    {
      "inputs": [],
      "name": "nextJobId",
      "outputs": [
        {
          "internalType": "uint256",
          "name": "",
          "type": "uint256"
        }
      ],
      "stateMutability": "view",
      "type": "function"
    },
    {
      "inputs": [],
      "name": "owner",
      "outputs": [
        {
          "internalType": "address",
          "name": "",
          "type": "address"
        }
      ],
      "stateMutability": "view",
      "type": "function"
    },
    {
      "inputs": [
        {
          "internalType": "uint256",
          "name": "jobId",
          "type": "uint256"
        },
        {
          "internalType": "uint256",
          "name": "milestoneIndex",
          "type": "uint256"
        }
      ],
      "name": "releaseMilestone",
      "outputs": [],
      "stateMutability": "nonpayable",
      "type": "function"
    },
    {
      "inputs": [],
      "name": "renounceOwnership",
      "outputs": [],
      "stateMutability": "nonpayable",
      "type": "function"
    },
    {
      "inputs": [
        {
          "internalType": "uint256",
          "name": "jobId",
          "type": "uint256"
        }
      ],
      "name": "requestJob",
      "outputs": [],
      "stateMutability": "nonpayable",
      "type": "function"
    },
    {
      "inputs": [
        {
          "internalType": "address",
          "name": "",
          "type": "address"
        },
        {
          "internalType": "uint256",
          "name": "",
          "type": "uint256"
        }
      ],
      "name": "requested",
      "outputs": [
        {
          "internalType": "bool",
          "name": "",
          "type": "bool"
        }
      ],
      "stateMutability": "view",
      "type": "function"
    },
    {
      "inputs": [
        {
          "internalType": "uint256",
          "name": "_newPct",
          "type": "uint256"
        }
      ],
      "name": "setDaoFeePct",
      "outputs": [],
      "stateMutability": "nonpayable",
      "type": "function"
    },
    {
      "inputs": [
        {
          "internalType": "address",
          "name": "_newTreasury",
          "type": "address"
        }
      ],
      "name": "setDaoTreasury",
      "outputs": [],
      "stateMutability": "nonpayable",
      "type": "function"
    },
    {
      "inputs": [],
      "name": "totalDaoFeesCollected",
      "outputs": [
        {
          "internalType": "uint256",
          "name": "",
          "type": "uint256"
        }
      ],
      "stateMutability": "view",
      "type": "function"
    },
    {
      "inputs": [
        {
          "internalType": "address",
          "name": "newOwner",
          "type": "address"
        }
      ],
      "name": "transferOwnership",
      "outputs": [],
      "stateMutability": "nonpayable",
      "type": "function"
    },
    {
      "inputs": [
        {
          "internalType": "uint256",
          "name": "amount",
          "type": "uint256"
        }
      ],
      "name": "withdrawDaoFees",
      "outputs": [],
      "stateMutability": "nonpayable",
      "type": "function"
    },
    {
      "stateMutability": "payable",
      "type": "receive"
    }
  ],
  "bytecode": "0x608060405260016005553480156200001657600080fd5b50604051620041f4380380620041f48339810160408190526200003991620001af565b806001600160a01b0381166200006a57604051631e4fbdf760e01b8152600060048201526024015b60405180910390fd5b620000758162000142565b50600180556001600160a01b038316620000d25760405162461bcd60e51b815260206004820152601460248201527f496e76616c69642044414f207472656173757279000000000000000000000000604482015260640162000061565b6064821115620001175760405162461bcd60e51b815260206004820152600f60248201526e119959481c18dd081a5b9d985b1a59608a1b604482015260640162000061565b50600480546001600160a01b0319166001600160a01b039390931692909217909155600255620001f0565b600080546001600160a01b038381166001600160a01b0319831681178455604051919092169283917f8be0079c531659141344cd1fd0a4f28419497f9722a3daafe3b4186f6b6457e09190a35050565b80516001600160a01b0381168114620001aa57600080fd5b919050565b600080600060608486031215620001c557600080fd5b620001d08462000192565b925060208401519150620001e76040850162000192565b90509250925092565b613ff480620002006000396000f3fe60806040526004361061018a5760003560e01c806394d246c2116100e0578063c021f21011610084578063dbaf091011610061578063dbaf0910146104ad578063ded5ae27146104cd578063f2fde38b146104e3578063fc157cb41461050357005b8063c021f21014610464578063c3144cef14610484578063d8690c791461049757005b8063a124df5d116100bd578063a124df5d146103e1578063b0c2aa5e14610401578063b618d5a714610417578063bf22c4571461043757005b806394d246c21461037f578063965a79fb1461039f5780639aa85dba146103c157005b8063535f5a5a1161014757806379022a9f1161012457806379022a9f146102d95780638d22b863146103115780638da5cb5b146103245780638ed9895c1461034257005b8063535f5a5a146102535780636754cc2814610279578063715018a6146102c457005b8062440b31146101935780631aca3e10146101b35780631dffa3dc146101d3578063314b6835146101f35780633b3e4102146102135780634ba587c51461023357005b3661019157005b005b34801561019f57600080fd5b506101916101ae366004613619565b610518565b3480156101bf57600080fd5b506101916101ce366004613619565b610658565b3480156101df57600080fd5b506101916101ee366004613619565b6106dd565b3480156101ff57600080fd5b5061019161020e366004613619565b6108ba565b34801561021f57600080fd5b5061019161022e366004613619565b610969565b34801561023f57600080fd5b5061019161024e366004613619565b610a79565b610266610261366004613644565b610bcb565b6040519081526020015b60405180910390f35b34801561028557600080fd5b506102b461029436600461369d565b600760209081526000928352604080842090915290825290205460ff1681565b6040519015158152602001610270565b3480156102d057600080fd5b50610191610e89565b3480156102e557600080fd5b506004546102f9906001600160a01b031681565b6040516001600160a01b039091168152602001610270565b61019161031f366004613619565b610e9d565b34801561033057600080fd5b506000546001600160a01b03166102f9565b34801561034e57600080fd5b5061036261035d3660046136c7565b611069565b604080519384529115156020840152151590820152606001610270565b34801561038b57600080fd5b5061019161039a3660046136e9565b611182565b3480156103ab57600080fd5b506103b4611343565b60405161027091906139c8565b3480156103cd57600080fd5b506101916103dc3660046136c7565b6118d9565b3480156103ed57600080fd5b506101916103fc366004613a2a565b611b60565b34801561040d57600080fd5b5061026660055481565b34801561042357600080fd5b506103b4610432366004613a2a565b611c16565b34801561044357600080fd5b50610457610452366004613619565b6121df565b6040516102709190613a4c565b34801561047057600080fd5b5061019161047f366004613619565b61268c565b610266610492366004613a5f565b61295f565b3480156104a357600080fd5b5061026660025481565b3480156104b957600080fd5b506101916104c83660046136c7565b612e54565b3480156104d957600080fd5b5061026660035481565b3480156104ef57600080fd5b506101916104fe366004613a2a565b613314565b34801561050f57600080fd5b50610266606481565b6000818152600660205260409020600f810154610100900460ff166105585760405162461bcd60e51b815260040161054f90613af6565b60405180910390fd5b600181015461010090046001600160a01b031633036105b15760405162461bcd60e51b815260206004820152601560248201527410db1a595b9d0818d85b9b9bdd081c995c5d595cdd605a1b604482015260640161054f565b6000600882015460ff1660068111156105cc576105cc613715565b146106085760405162461bcd60e51b815260206004820152600c60248201526b2537b1103737ba1037b832b760a11b604482015260640161054f565b336000818152600760209081526040808320868452909152808220805460ff191660011790555184917f56a170713c65629e3fc7b98f93ea5c49d1cd10debfc5f7ef03cbee95a40b722d91a35050565b61066061334f565b606481111561069c5760405162461bcd60e51b81526020600482015260086024820152670506374203e3130360c41b604482015260640161054f565b60025460408051918252602082018390527f599212ef52aff90308621d59b15739350422740d4632be808c93138e3d268710910160405180910390a1600255565b6106e561337c565b6000818152600660205260409020600f810154610100900460ff1661071c5760405162461bcd60e51b815260040161054f90613af6565b600181015461010090046001600160a01b0316331461074d5760405162461bcd60e51b815260040161054f90613b1d565b6000600882015460ff16600681111561076857610768613715565b146107a95760405162461bcd60e51b815260206004820152601160248201527043616e6e6f742063616e63656c206e6f7760781b604482015260640161054f565b6006810154156107fb5760405162461bcd60e51b815260206004820152601a60248201527f416c72656164792072656c6561736564207061727469616c6c79000000000000604482015260640161054f565b60088101805460ff19166006179081905560009060ff61010090910416156108405750600381015460018201546108409061010090046001600160a01b0316826133a6565b60405183907f58243f872c550ad02802199ade99eb4250f6bb19e9abbf2d3de7b969c0eb5e4f90600090a280156108ac57827f98cd69b526974edc8f55d210bc89664b6985c7e698453e7aca776048f6efcae5826040516108a391815260200190565b60405180910390a25b50506108b760018055565b50565b6000818152600660205260409020600f810154610100900460ff166108f15760405162461bcd60e51b815260040161054f90613af6565b600181015461010090046001600160a01b031633148061091d575060028101546001600160a01b031633145b6109585760405162461bcd60e51b815260206004820152600c60248201526b4f6e6c79207061727469657360a01b604482015260640161054f565b600801805460ff1916600417905550565b61097161337c565b61097961334f565b600081116109b75760405162461bcd60e51b815260206004820152600b60248201526a1e995c9bc8185b5bdd5b9d60aa1b604482015260640161054f565b6003548111156109fd5760405162461bcd60e51b8152602060048201526011602482015270496e73756666696369656e74206665657360781b604482015260640161054f565b8060036000828254610a0f9190613b58565b9091555050600454610a2a906001600160a01b0316826133a6565b600454604080516001600160a01b039092168252602082018390527f2575d77a1ec3998d286c801d15068d5201ec99248623b8f7b7fc936ac1b62d6a910160405180910390a16108b760018055565b610a8161337c565b610a8961334f565b6000818152600660205260409020600f810154610100900460ff16610ac05760405162461bcd60e51b815260040161054f90613af6565b6005600882015460ff166006811115610adb57610adb613715565b14158015610b0257506006600882015460ff166006811115610aff57610aff613715565b14155b8015610b135750600f81015460ff16155b610b4f5760405162461bcd60e51b815260206004820152600d60248201526c105b1c9958591e48199a5b985b609a1b604482015260640161054f565b600081600601548260030154610b659190613b58565b90508015610b8a576001820154610b8a9061010090046001600160a01b0316826133a6565b60088201805460ff1916600517905560405181815283907f98cd69b526974edc8f55d210bc89664b6985c7e698453e7aca776048f6efcae5906020016108a3565b6000803411610c105760405162461bcd60e51b815260206004820152601160248201527004d7573742066756e64206a6f62203e203607c1b604482015260640161054f565b6000610c1c8380613b71565b905011610c5c5760405162461bcd60e51b815260206004820152600e60248201526d151a5d1b19481c995c5d5a5c995960921b604482015260640161054f565b6000610c6b6040840184613b71565b905011610cb15760405162461bcd60e51b815260206004820152601460248201527311195cd8dc9a5c1d1a5bdb881c995c5d5a5c995960621b604482015260640161054f565b6005805460009182610cc283613bbf565b9091555060008181526006602052604090208181556001810180546001600160a81b0319163361010002179055909150610cfc8480613b71565b600a830191610d0c919083613c70565b50610d1a6020850185613b71565b600b830191610d2a919083613c70565b50610d386040850185613b71565b600c830191610d48919083613c70565b506000610d586060860186613d31565b610d6191613dac565b8051909150610d7990600d8401906020840190613497565b50610d876080860186613b71565b600e840191610d97919083613c70565b503460038301556000600683015542600783015560088201805461ffff1916610100908117909155600f8301805461ff001916909117905560a0850135610dde5734610de4565b8460a001355b600483015560c0850135610df85734610dfe565b8460c001355b60058301556003820154604051339185917fc5461520f114105e6a66205aa617e182d057dc7942f09aeffd1b9b9e18542c6b91610e3e9160009190613e81565b60405180910390a3827f9d25c5cf940eed311c45e5a0b4c7c8790a356d3c356453b76bb7e232db3f384a34604051610e7891815260200190565b60405180910390a250909392505050565b610e9161334f565b610e9b6000613447565b565b610ea561337c565b6000818152600660205260409020600f810154610100900460ff16610edc5760405162461bcd60e51b815260040161054f90613af6565b600181015461010090046001600160a01b03163314610f345760405162461bcd60e51b815260206004820152601460248201527313db9b1e4818db1a595b9d0818d85b88199d5b9960621b604482015260640161054f565b6008810154610100900460ff1615610f7f5760405162461bcd60e51b815260206004820152600e60248201526d105b1c9958591e48199d5b99195960921b604482015260640161054f565b60003411610fbf5760405162461bcd60e51b815260206004820152600d60248201526c04d7573742073656e64203e203609c1b604482015260640161054f565b806003015434146110125760405162461bcd60e51b815260206004820152601960248201527f4d7573742073656e642066756c6c206a6f6220616d6f756e7400000000000000604482015260640161054f565b60088101805461ff00191661010017905560405182907f9d25c5cf940eed311c45e5a0b4c7c8790a356d3c356453b76bb7e232db3f384a906110579034815260200190565b60405180910390a2506108b760018055565b6000828152600660205260408120600f81015482918291610100900460ff166110a45760405162461bcd60e51b815260040161054f90613af6565b60018181015460ff16818111156110bd576110bd613715565b146110fe5760405162461bcd60e51b81526020600482015260116024820152702737ba1036b4b632b9ba37b732903537b160791b604482015260640161054f565b600981015485106111375760405162461bcd60e51b815260206004820152600360248201526227a7a160e91b604482015260640161054f565b600081600901868154811061114e5761114e613e9c565b60009182526020909120600290910201805460019091015490955060ff808216955061010090910416925050509250925092565b6000828152600660205260409020600f810154610100900460ff166111b95760405162461bcd60e51b815260040161054f90613af6565b600181015461010090046001600160a01b0316331461121a5760405162461bcd60e51b815260206004820152601760248201527f4f6e6c7920636c69656e742063616e20617070726f7665000000000000000000604482015260640161054f565b6000600882015460ff16600681111561123557611235613715565b146112715760405162461bcd60e51b815260206004820152600c60248201526b2537b1103737ba1037b832b760a11b604482015260640161054f565b6001600160a01b038216600090815260076020908152604080832086845290915290205460ff166112e45760405162461bcd60e51b815260206004820152601860248201527f50726f766964657220646964206e6f7420726571756573740000000000000000604482015260640161054f565b6002810180546001600160a01b0319166001600160a01b03841690811790915560088201805460ff1916600117905560405184907f75ddd184e81eb370d30cc019f29184e242488c372a6cccb9b7dec5821c3f6c0d90600090a3505050565b6060600060016005546113569190613b58565b67ffffffffffffffff81111561136e5761136e613bd8565b6040519080825280602002602001820160405280156113a757816020015b6113946134ed565b81526020019060019003908161138c5790505b50905060015b6005548110156118d3576000818152600660205260409020600f0154610100900460ff16156118c1576000818152600660209081526040918290208251610280810190935280548352600180820154919284019160ff169081111561141457611414613715565b600181111561142557611425613715565b815260018201546001600160a01b03610100918290048116602084015260028401541660408301526003830154606083015260048301546080830152600583015460a083015260068084015460c0840152600784015460e08401526008840154919092019160ff9091169081111561149f5761149f613715565b60068111156114b0576114b0613715565b81526008820154610100900460ff161515602080830191909152600983018054604080518285028101850182528281529401939260009084015b8282101561154057600084815260209081902060408051606081018252600286029092018054835260019081015460ff8082161515858701526101009091041615159183019190915290835290920191016114ea565b505050508152602001600a8201805461155890613bee565b80601f016020809104026020016040519081016040528092919081815260200182805461158490613bee565b80156115d15780601f106115a6576101008083540402835291602001916115d1565b820191906000526020600020905b8154815290600101906020018083116115b457829003601f168201915b50505050508152602001600b820180546115ea90613bee565b80601f016020809104026020016040519081016040528092919081815260200182805461161690613bee565b80156116635780601f1061163857610100808354040283529160200191611663565b820191906000526020600020905b81548152906001019060200180831161164657829003601f168201915b50505050508152602001600c8201805461167c90613bee565b80601f01602080910402602001604051908101604052809291908181526020018280546116a890613bee565b80156116f55780601f106116ca576101008083540402835291602001916116f5565b820191906000526020600020905b8154815290600101906020018083116116d857829003601f168201915b50505050508152602001600d8201805480602002602001604051908101604052809291908181526020016000905b828210156117cf57838290600052602060002001805461174290613bee565b80601f016020809104026020016040519081016040528092919081815260200182805461176e90613bee565b80156117bb5780601f10611790576101008083540402835291602001916117bb565b820191906000526020600020905b81548152906001019060200180831161179e57829003601f168201915b505050505081526020019060010190611723565b505050508152602001600e820180546117e790613bee565b80601f016020809104026020016040519081016040528092919081815260200182805461181390613bee565b80156118605780601f1061183557610100808354040283529160200191611860565b820191906000526020600020905b81548152906001019060200180831161184357829003601f168201915b5050509183525050600f919091015460ff80821615156020840152610100820481161515604084015262010000909104161515606090910152826118a5600184613b58565b815181106118b5576118b5613e9c565b60200260200101819052505b806118cb81613bbf565b9150506113ad565b50919050565b6000828152600660205260409020600f810154610100900460ff166119105760405162461bcd60e51b815260040161054f90613af6565b60028101546001600160a01b031633146119635760405162461bcd60e51b81526020600482015260146024820152732737ba1030bbb0b93232b210383937bb34b232b960611b604482015260640161054f565b6001600882015460ff16600681111561197e5761197e613715565b14806119a257506002600882015460ff1660068111156119a0576119a0613715565b145b6119df5760405162461bcd60e51b815260206004820152600e60248201526d496e76616c69642073746174757360901b604482015260640161054f565b600060018083015460ff16908111156119fa576119fa613715565b03611a425760088101805460ff19166002179055604051339060009085907f5f87c5debff10f9af78fb5c01ac59ef4f0a787c7414076b791dcb3160271b5c8908390a4505050565b60098101548210611a855760405162461bcd60e51b815260206004820152600d60248201526c26b4b632b9ba37b7329027a7a160991b604482015260640161054f565b6000816009018381548110611a9c57611a9c613e9c565b60009182526020909120600290910201600181015490915060ff1615611b045760405162461bcd60e51b815260206004820152601a60248201527f4d696c6573746f6e6520616c72656164792072656c6561736564000000000000604482015260640161054f565b60018101805461010061ff001990911617905560088201805460ff191660021790556040513390849086907f5f87c5debff10f9af78fb5c01ac59ef4f0a787c7414076b791dcb3160271b5c890600090a450505050565b505050565b611b6861334f565b6001600160a01b038116611bad5760405162461bcd60e51b815260206004820152600c60248201526b7a65726f206164647265737360a01b604482015260640161054f565b600454604080516001600160a01b03928316815291831660208301527f405b911135779fbe6ca1eb08e756497b632d5fbff59644b7d60ea3ea95caf539910160405180910390a1600480546001600160a01b0319166001600160a01b0392909216919091179055565b606060006001600554611c299190613b58565b67ffffffffffffffff811115611c4157611c41613bd8565b604051908082528060200260200182016040528015611c7a57816020015b611c676134ed565b815260200190600190039081611c5f5790505b509050600060015b6005548110156121d6576000818152600660205260409020600f0154610100900460ff168015611cd357506000818152600660205260409020600101546001600160a01b0386811661010090920416145b156121c4576000818152600660209081526040918290208251610280810190935280548352600180820154919284019160ff1690811115611d1657611d16613715565b6001811115611d2757611d27613715565b815260018201546001600160a01b03610100918290048116602084015260028401541660408301526003830154606083015260048301546080830152600583015460a083015260068084015460c0840152600784015460e08401526008840154919092019160ff90911690811115611da157611da1613715565b6006811115611db257611db2613715565b81526008820154610100900460ff161515602080830191909152600983018054604080518285028101850182528281529401939260009084015b82821015611e4257600084815260209081902060408051606081018252600286029092018054835260019081015460ff808216151585870152610100909104161515918301919091529083529092019101611dec565b505050508152602001600a82018054611e5a90613bee565b80601f0160208091040260200160405190810160405280929190818152602001828054611e8690613bee565b8015611ed35780601f10611ea857610100808354040283529160200191611ed3565b820191906000526020600020905b815481529060010190602001808311611eb657829003601f168201915b50505050508152602001600b82018054611eec90613bee565b80601f0160208091040260200160405190810160405280929190818152602001828054611f1890613bee565b8015611f655780601f10611f3a57610100808354040283529160200191611f65565b820191906000526020600020905b815481529060010190602001808311611f4857829003601f168201915b50505050508152602001600c82018054611f7e90613bee565b80601f0160208091040260200160405190810160405280929190818152602001828054611faa90613bee565b8015611ff75780601f10611fcc57610100808354040283529160200191611ff7565b820191906000526020600020905b815481529060010190602001808311611fda57829003601f168201915b50505050508152602001600d8201805480602002602001604051908101604052809291908181526020016000905b828210156120d157838290600052602060002001805461204490613bee565b80601f016020809104026020016040519081016040528092919081815260200182805461207090613bee565b80156120bd5780601f10612092576101008083540402835291602001916120bd565b820191906000526020600020905b8154815290600101906020018083116120a057829003601f168201915b505050505081526020019060010190612025565b505050508152602001600e820180546120e990613bee565b80601f016020809104026020016040519081016040528092919081815260200182805461211590613bee565b80156121625780601f1061213757610100808354040283529160200191612162565b820191906000526020600020905b81548152906001019060200180831161214557829003601f168201915b5050509183525050600f919091015460ff8082161515602084015261010082048116151560408401526201000090910416151560609091015283836121a681613bbf565b9450815181106121b8576121b8613e9c565b60200260200101819052505b806121ce81613bbf565b915050611c82565b50815292915050565b6121e76134ed565b6000828152600660205260409020600f810154610100900460ff1661221e5760405162461bcd60e51b815260040161054f90613af6565b60408051610280810190915281548152600180830154602083019160ff9091169081111561224e5761224e613715565b815260018301546001600160a01b03610100918290048116602084015260028501541660408301526003840154606083015260048401546080830152600584015460a083015260068085015460c0840152600785015460e08401526008850154919092019160ff909116908111156122c8576122c8613715565b81526008830154610100900460ff1615156020820152604001600060405190808252806020026020018201604052801561232e57816020015b60408051606081018252600080825260208083018290529282015282526000199092019101816123015790505b50815260200182600a01805461234390613bee565b80601f016020809104026020016040519081016040528092919081815260200182805461236f90613bee565b80156123bc5780601f10612391576101008083540402835291602001916123bc565b820191906000526020600020905b81548152906001019060200180831161239f57829003601f168201915b5050505050815260200182600b0180546123d590613bee565b80601f016020809104026020016040519081016040528092919081815260200182805461240190613bee565b801561244e5780601f106124235761010080835404028352916020019161244e565b820191906000526020600020905b81548152906001019060200180831161243157829003601f168201915b5050505050815260200182600c01805461246790613bee565b80601f016020809104026020016040519081016040528092919081815260200182805461249390613bee565b80156124e05780601f106124b5576101008083540402835291602001916124e0565b820191906000526020600020905b8154815290600101906020018083116124c357829003601f168201915b5050505050815260200182600d01805480602002602001604051908101604052809291908181526020016000905b828210156125ba57838290600052602060002001805461252d90613bee565b80601f016020809104026020016040519081016040528092919081815260200182805461255990613bee565b80156125a65780601f1061257b576101008083540402835291602001916125a6565b820191906000526020600020905b81548152906001019060200180831161258957829003601f168201915b50505050508152602001906001019061250e565b50505050815260200182600e0180546125d290613bee565b80601f01602080910402602001604051908101604052809291908181526020018280546125fe90613bee565b801561264b5780601f106126205761010080835404028352916020019161264b565b820191906000526020600020905b81548152906001019060200180831161262e57829003601f168201915b5050509183525050600f9092015460ff8082161515602085015261010082048116151560408501526201000090910416151560609092019190915292915050565b61269461337c565b6000818152600660205260409020600f810154610100900460ff166126cb5760405162461bcd60e51b815260040161054f90613af6565b600060018083015460ff16908111156126e6576126e6613715565b146127235760405162461bcd60e51b815260206004820152600d60248201526c2737ba103334bc32b2103537b160991b604482015260640161054f565b600181015461010090046001600160a01b031633146127545760405162461bcd60e51b815260040161054f90613b1d565b6008810154610100900460ff1661279e5760405162461bcd60e51b815260206004820152600e60248201526d129bd8881b9bdd08199d5b99195960921b604482015260640161054f565b6002600882015460ff1660068111156127b9576127b9613715565b14806127dd57506001600882015460ff1660068111156127db576127db613715565b145b61281b5760405162461bcd60e51b815260206004820152600f60248201526e4e6f7420696e2064656c697665727960881b604482015260640161054f565b600f81015460ff16156128645760405162461bcd60e51b8152602060048201526011602482015270105b1c9958591e4818dbdb999a5c9b5959607a1b604482015260640161054f565b60006064600254836003015461287a9190613eb2565b6128849190613ec9565b905060008183600301546128989190613b58565b6003848101546006860155600f8501805460088701805460ff19168417905562ff00ff191662010001179055805491925083916000906128d9908490613eeb565b909155505080156128fc5760028301546128fc906001600160a01b0316826133a6565b811561291857600454612918906001600160a01b0316836133a6565b604080518281526020810184905285917faeaea72a94ea21c1bf7815b369922e9589f54ac6b71568ae86af00e6e2e5ad46910160405180910390a25050506108b760018055565b6000826129a35760405162461bcd60e51b81526020600482015260126024820152714e656564203e3d31206d696c6573746f6e6560701b604482015260640161054f565b6000805b84811015612a3f5760008686838181106129c3576129c3613e9c565b9050602002013511612a075760405162461bcd60e51b815260206004820152600d60248201526c04d696c6573746f6e65203e203609c1b604482015260640161054f565b858582818110612a1957612a19613e9c565b9050602002013582612a2b9190613eeb565b915080612a3781613bbf565b9150506129a7565b506000606460025483612a529190613eb2565b612a5c9190613ec9565b9050808686612a6c600182613b58565b818110612a7b57612a7b613e9c565b905060200201351015612ada5760405162461bcd60e51b815260206004820152602160248201527f4c617374206d696c6573746f6e65206d75737420636f7665722044414f2066656044820152606560f81b606482015260840161054f565b6000612ae68580613b71565b905011612b265760405162461bcd60e51b815260206004820152600e60248201526d151a5d1b19481c995c5d5a5c995960921b604482015260640161054f565b6000612b356040860186613b71565b905011612b7b5760405162461bcd60e51b815260206004820152601460248201527311195cd8dc9a5c1d1a5bdb881c995c5d5a5c995960621b604482015260640161054f565b6005805460009182612b8c83613bbf565b909155506000818152600660205260409020818155600180820180546001600160a81b0319163361010002179091179055909150612bca8680613b71565b600a830191612bda919083613c70565b50612be86020870187613b71565b600b830191612bf8919083613c70565b50612c066040870187613b71565b600c830191612c16919083613c70565b506000612c266060880188613d31565b612c2f91613dac565b8051909150612c4790600d8401906020840190613497565b50612c556080880188613b71565b600e840191612c65919083613c70565b50600482018590556005820185905560038201859055600060068301819055426007840155600883018054600f8501805461ff00191661010017905561ffff191690555b88811015612d49578260090160405180606001604052808c8c85818110612cd257612cd2613e9c565b60209081029290920135835250600082820181905260409283018190528454600180820187559582529082902084516002909202019081559083015193018054929091015161ffff1990921692151561ff001916929092176101009115159190910217905580612d4181613bbf565b915050612ca9565b503415612dfe57843414612db05760405162461bcd60e51b815260206004820152602860248201527f6d73672e76616c7565206d75737420657175616c20746f74616c206d696c6573604482015267746f6e652073756d60c01b606482015260840161054f565b60088201805461ff00191661010017905560405183907f9d25c5cf940eed311c45e5a0b4c7c8790a356d3c356453b76bb7e232db3f384a90612df59034815260200190565b60405180910390a25b336001600160a01b0316837fc5461520f114105e6a66205aa617e182d057dc7942f09aeffd1b9b9e18542c6b60018560030154604051612e3f929190613e81565b60405180910390a35090979650505050505050565b612e5c61337c565b6000828152600660205260409020600f810154610100900460ff16612e935760405162461bcd60e51b815260040161054f90613af6565b60018181015460ff1681811115612eac57612eac613715565b14612eed5760405162461bcd60e51b81526020600482015260116024820152702737ba1036b4b632b9ba37b732903537b160791b604482015260640161054f565b600181015461010090046001600160a01b03163314612f1e5760405162461bcd60e51b815260040161054f90613b1d565b6008810154610100900460ff16612f645760405162461bcd60e51b815260206004820152600a602482015269139bdd08199d5b99195960b21b604482015260640161054f565b60098101548210612fa75760405162461bcd60e51b815260206004820152600d60248201526c26b4b632b9ba37b7329027a7a160991b604482015260640161054f565b6000816009018381548110612fbe57612fbe613e9c565b60009182526020909120600290910201600181015490915060ff16156130195760405162461bcd60e51b815260206004820152601060248201526f105b1c9958591e481c995b19585cd95960821b604482015260640161054f565b6001810154610100900460ff1661308d5760405162461bcd60e51b815260206004820152603260248201527f467265656c616e636572206e6f74206d61726b65642064656c69766572656420604482015271666f722074686973206d696c6573746f6e6560701b606482015260840161054f565b8054600983015460009082906130a590600190613b58565b86036131ca57600f85015462010000900460ff16156130fa5760405162461bcd60e51b81526020600482015260116024820152702332b29030b63932b0b23c903a30b5b2b760791b604482015260640161054f565b6064600254866003015461310e9190613eb2565b6131189190613ec9565b9150818310156131905760405162461bcd60e51b815260206004820152603860248201527f4c617374206d696c6573746f6e65206d75737420636f7665722044414f20666560448201527f652028656e666f72636564206174206372656174696f6e290000000000000000606482015260840161054f565b61319a8284613b58565b600f8601805462ff00001916620100001790556003805491925083916000906131c4908490613eeb565b90915550505b6001848101805460ff191690911790556006850180548491906000906131f1908490613eeb565b909155505060088501805460ff1916600190811790915560005b60098701548110156132625786600901818154811061322c5761322c613e9c565b600091825260209091206001600290920201015460ff166132505760009150613262565b8061325a81613bbf565b91505061320b565b50801561328a57600f8601805460ff1990811660011790915560088701805490911660031790555b81156132a85760028601546132a8906001600160a01b0316836133a6565b82156132c4576004546132c4906001600160a01b0316846133a6565b604080518381526020810185905288918a917f5e85b5843cdd9b3b8d34f7241a238e9638486675925145ab71603fdbdb58c37c910160405180910390a350505050505061331060018055565b5050565b61331c61334f565b6001600160a01b03811661334657604051631e4fbdf760e01b81526000600482015260240161054f565b6108b781613447565b6000546001600160a01b03163314610e9b5760405163118cdaa760e01b815233600482015260240161054f565b60026001540361339f57604051633ee5aeb560e01b815260040160405180910390fd5b6002600155565b806000036133b2575050565b6000826001600160a01b03168260405160006040518083038185875af1925050503d80600081146133ff576040519150601f19603f3d011682016040523d82523d6000602084013e613404565b606091505b5050905080611b5b5760405162461bcd60e51b815260206004820152600f60248201526e151c985b9cd9995c8819985a5b1959608a1b604482015260640161054f565b600080546001600160a01b038381166001600160a01b0319831681178455604051919092169283917f8be0079c531659141344cd1fd0a4f28419497f9722a3daafe3b4186f6b6457e09190a35050565b8280548282559060005260206000209081019282156134dd579160200282015b828111156134dd57825182906134cd9082613efe565b50916020019190600101906134b7565b506134e99291506135b2565b5090565b60408051610280810190915260008082526020820190815260200160006001600160a01b0316815260200160006001600160a01b0316815260200160008152602001600081526020016000815260200160008152602001600081526020016000600681111561355e5761355e613715565b81526020016000151581526020016060815260200160608152602001606081526020016060815260200160608152602001606081526020016000151581526020016000151581526020016000151581525090565b808211156134e95760006135c682826135cf565b506001016135b2565b5080546135db90613bee565b6000825580601f106135eb575050565b601f0160209004906000526020600020908101906108b791905b808211156134e95760008155600101613605565b60006020828403121561362b57600080fd5b5035919050565b600060e082840312156118d357600080fd5b60006020828403121561365657600080fd5b813567ffffffffffffffff81111561366d57600080fd5b61367984828501613632565b949350505050565b80356001600160a01b038116811461369857600080fd5b919050565b600080604083850312156136b057600080fd5b6136b983613681565b946020939093013593505050565b600080604083850312156136da57600080fd5b50508035926020909101359150565b600080604083850312156136fc57600080fd5b8235915061370c60208401613681565b90509250929050565b634e487b7160e01b600052602160045260246000fd5b6002811061373b5761373b613715565b9052565b6007811061373b5761373b613715565b600081518084526020808501945080840160005b83811015613799578151805188528381015115158489015260409081015115159088015260609096019590820190600101613763565b509495945050505050565b6000815180845260005b818110156137ca576020818501810151868301820152016137ae565b506000602082860101526020601f19601f83011685010191505092915050565b600081518084526020808501808196508360051b8101915082860160005b858110156138325782840389526138208483516137a4565b98850198935090840190600101613808565b5091979650505050505050565b600061028082518452602083015161385a602086018261372b565b50604083015161387560408601826001600160a01b03169052565b50606083015161389060608601826001600160a01b03169052565b506080830151608085015260a083015160a085015260c083015160c085015260e083015160e0850152610100808401518186015250610120808401516138d88287018261373f565b505061014083810151151590850152610160808401518186018390526139008387018261374f565b92505050610180808401518583038287015261391c83826137a4565b925050506101a0808401518583038287015261393883826137a4565b925050506101c0808401518583038287015261395483826137a4565b925050506101e0808401518583038287015261397083826137ea565b92505050610200808401518583038287015261398c83826137a4565b92505050610220808401516139a48287018215159052565b50506102408381015115159085015261026092830151151592909301919091525090565b6000602080830181845280855180835260408601915060408160051b870101925083870160005b82811015613a1d57603f19888603018452613a0b85835161383f565b945092850192908501906001016139ef565b5092979650505050505050565b600060208284031215613a3c57600080fd5b613a4582613681565b9392505050565b602081526000613a45602083018461383f565b600080600060408486031215613a7457600080fd5b833567ffffffffffffffff80821115613a8c57600080fd5b818601915086601f830112613aa057600080fd5b813581811115613aaf57600080fd5b8760208260051b8501011115613ac457600080fd5b602092830195509350908501359080821115613adf57600080fd5b50613aec86828701613632565b9150509250925092565b6020808252600d908201526c129bd8881b9bdd08195e1a5cdd609a1b604082015260600190565b6020808252600b908201526a13db9b1e4818db1a595b9d60aa1b604082015260600190565b634e487b7160e01b600052601160045260246000fd5b81810381811115613b6b57613b6b613b42565b92915050565b6000808335601e19843603018112613b8857600080fd5b83018035915067ffffffffffffffff821115613ba357600080fd5b602001915036819003821315613bb857600080fd5b9250929050565b600060018201613bd157613bd1613b42565b5060010190565b634e487b7160e01b600052604160045260246000fd5b600181811c90821680613c0257607f821691505b6020821081036118d357634e487b7160e01b600052602260045260246000fd5b601f821115611b5b57600081815260208120601f850160051c81016020861015613c495750805b601f850160051c820191505b81811015613c6857828155600101613c55565b505050505050565b67ffffffffffffffff831115613c8857613c88613bd8565b613c9c83613c968354613bee565b83613c22565b6000601f841160018114613cd05760008515613cb85750838201355b600019600387901b1c1916600186901b178355613d2a565b600083815260209020601f19861690835b82811015613d015786850135825560209485019460019092019101613ce1565b5086821015613d1e5760001960f88860031b161c19848701351681555b505060018560011b0183555b5050505050565b6000808335601e19843603018112613d4857600080fd5b83018035915067ffffffffffffffff821115613d6357600080fd5b6020019150600581901b3603821315613bb857600080fd5b604051601f8201601f1916810167ffffffffffffffff81118282101715613da457613da4613bd8565b604052919050565b600067ffffffffffffffff80841115613dc757613dc7613bd8565b8360051b6020613dd8818301613d7b565b868152918501918181019036841115613df057600080fd5b865b84811015613e7557803586811115613e0a5760008081fd5b8801601f3681830112613e1d5760008081fd5b813588811115613e2f57613e2f613bd8565b613e40818301601f19168801613d7b565b91508082523687828501011115613e575760008081fd5b80878401888401376000908201870152845250918301918301613df2565b50979650505050505050565b60408101613e8f828561372b565b8260208301529392505050565b634e487b7160e01b600052603260045260246000fd5b8082028115828204841417613b6b57613b6b613b42565b600082613ee657634e487b7160e01b600052601260045260246000fd5b500490565b80820180821115613b6b57613b6b613b42565b815167ffffffffffffffff811115613f1857613f18613bd8565b613f2c81613f268454613bee565b84613c22565b602080601f831160018114613f615760008415613f495750858301515b600019600386901b1c1916600185901b178555613c68565b600085815260208120601f198616915b82811015613f9057888601518255948401946001909101908401613f71565b5085821015613fae5787850151600019600388901b60f8161c191681555b5050505050600190811b0190555056fea26469706673582212206f9c68ffb0583ed044a2e4edcf17b3cb92af8a01c577a5f39e139be17684f9ba64736f6c63430008140033",
  "linkReferences": {},
  "deployedLinkReferences": {}
}